{
  "abi": [
    {
      "anonymous": false,
      "inputs": [
        {
          "indexed": true,
          "internalType": "address",
          "name": "owner",
          "type": "address"
        },
        {
          "indexed": true,
          "internalType": "address",
          "name": "spender",
          "type": "address"
        },
        {
          "indexed": false,
          "internalType": "uint256",
          "name": "value",
          "type": "uint256"
        }
      ],
      "name": "Approval",
      "type": "event"
    },
    {
      "anonymous": false,
      "inputs": [
        {
          "indexed": false,
          "internalType": "contract IVaultAuth",
          "name": "newAuth",
          "type": "address"
        }
      ],
      "name": "AuthUpdated",
      "type": "event"
    },
    {
      "anonymous": false,
      "inputs": [
        {
          "indexed": false,
          "internalType": "uint256",
          "name": "newFeePercent",
          "type": "uint256"
        }
      ],
      "name": "BurningFeePercentUpdated",
      "type": "event"
    },
    {
      "anonymous": false,
      "inputs": [
        {
          "indexed": true,
          "internalType": "address",
          "name": "receiver",
          "type": "address"
        }
      ],
      "name": "BurningFeeReceiverUpdated",
      "type": "event"
    },
    {
      "anonymous": false,
      "inputs": [
        {
          "indexed": true,
          "internalType": "address",
          "name": "from",
          "type": "address"
        },
        {
          "indexed": true,
          "internalType": "address",
          "name": "to",
          "type": "address"
        },
        {
          "indexed": false,
          "internalType": "uint256",
          "name": "value",
          "type": "uint256"
        }
      ],
      "name": "Deposit",
      "type": "event"
    },
    {
      "anonymous": false,
      "inputs": [
        {
          "indexed": false,
          "internalType": "uint256",
          "name": "perUser",
          "type": "uint256"
        },
        {
          "indexed": false,
          "internalType": "uint256",
          "name": "perVault",
          "type": "uint256"
        }
      ],
      "name": "DepositLimitsUpdated",
      "type": "event"
    },
    {
      "anonymous": false,
      "inputs": [
        {
          "indexed": true,
          "internalType": "uint256",
          "name": "round",
          "type": "uint256"
        },
        {
          "indexed": true,
          "internalType": "address",
          "name": "account",
          "type": "address"
        },
        {
          "indexed": false,
          "internalType": "uint256",
          "name": "amount",
          "type": "uint256"
        }
      ],
      "name": "EnterBatchBurn",
      "type": "event"
    },
    {
      "anonymous": false,
      "inputs": [
        {
          "indexed": true,
          "internalType": "uint256",
          "name": "round",
          "type": "uint256"
        },
        {
          "indexed": true,
          "internalType": "address",
          "name": "executor",
          "type": "address"
        },
        {
          "indexed": false,
          "internalType": "uint256",
          "name": "shares",
          "type": "uint256"
        },
        {
          "indexed": false,
          "internalType": "uint256",
          "name": "amount",
          "type": "uint256"
        }
      ],
      "name": "ExecuteBatchBurn",
      "type": "event"
    },
    {
      "anonymous": false,
      "inputs": [
        {
          "indexed": true,
          "internalType": "uint256",
          "name": "round",
          "type": "uint256"
        },
        {
          "indexed": true,
          "internalType": "address",
          "name": "account",
          "type": "address"
        },
        {
          "indexed": false,
          "internalType": "uint256",
          "name": "amount",
          "type": "uint256"
        }
      ],
      "name": "ExitBatchBurn",
      "type": "event"
    },
    {
      "anonymous": false,
      "inputs": [
        {
          "indexed": true,
          "internalType": "address",
          "name": "account",
          "type": "address"
        },
        {
          "indexed": false,
          "internalType": "contract IStrategy[]",
          "name": "strategies",
          "type": "address[]"
        }
      ],
      "name": "Harvest",
      "type": "event"
    },
    {
      "anonymous": false,
      "inputs": [
        {
          "indexed": false,
          "internalType": "uint64",
          "name": "newHarvestDelay",
          "type": "uint64"
        }
      ],
      "name": "HarvestDelayUpdateScheduled",
      "type": "event"
    },
    {
      "anonymous": false,
      "inputs": [
        {
          "indexed": true,
          "internalType": "address",
          "name": "account",
          "type": "address"
        },
        {
          "indexed": false,
          "internalType": "uint64",
          "name": "newHarvestDelay",
          "type": "uint64"
        }
      ],
      "name": "HarvestDelayUpdated",
      "type": "event"
    },
    {
      "anonymous": false,
      "inputs": [
        {
          "indexed": false,
          "internalType": "uint256",
          "name": "newFeePercent",
          "type": "uint256"
        }
      ],
      "name": "HarvestFeePercentUpdated",
      "type": "event"
    },
    {
      "anonymous": false,
      "inputs": [
        {
          "indexed": true,
          "internalType": "address",
          "name": "receiver",
          "type": "address"
        }
      ],
      "name": "HarvestFeeReceiverUpdated",
      "type": "event"
    },
    {
      "anonymous": false,
      "inputs": [
        {
          "indexed": false,
          "internalType": "uint128",
          "name": "newHarvestWindow",
          "type": "uint128"
        }
      ],
      "name": "HarvestWindowUpdated",
      "type": "event"
    },
    {
      "anonymous": false,
      "inputs": [
        {
          "indexed": false,
          "internalType": "address",
          "name": "account",
          "type": "address"
        }
      ],
      "name": "Paused",
      "type": "event"
    },
    {
      "anonymous": false,
      "inputs": [
        {
          "indexed": true,
          "internalType": "address",
          "name": "account",
          "type": "address"
        },
        {
          "indexed": true,
          "internalType": "contract IStrategy",
          "name": "strategy",
          "type": "address"
        },
        {
          "indexed": false,
          "internalType": "uint256",
          "name": "underlyingAmount",
          "type": "uint256"
        }
      ],
      "name": "StrategyDeposit",
      "type": "event"
    },
    {
      "anonymous": false,
      "inputs": [
        {
          "indexed": true,
          "internalType": "contract IStrategy",
          "name": "strategy",
          "type": "address"
        }
      ],
      "name": "StrategyDistrusted",
      "type": "event"
    },
    {
      "anonymous": false,
      "inputs": [
        {
          "indexed": true,
          "internalType": "contract IStrategy",
          "name": "strategy",
          "type": "address"
        }
      ],
      "name": "StrategyTrusted",
      "type": "event"
    },
    {
      "anonymous": false,
      "inputs": [
        {
          "indexed": true,
          "internalType": "address",
          "name": "account",
          "type": "address"
        },
        {
          "indexed": true,
          "internalType": "contract IStrategy",
          "name": "strategy",
          "type": "address"
        },
        {
          "indexed": false,
          "internalType": "uint256",
          "name": "underlyingAmount",
          "type": "uint256"
        }
      ],
      "name": "StrategyWithdrawal",
      "type": "event"
    },
    {
      "anonymous": false,
      "inputs": [
        {
          "indexed": true,
          "internalType": "address",
          "name": "from",
          "type": "address"
        },
        {
          "indexed": true,
          "internalType": "address",
          "name": "to",
          "type": "address"
        },
        {
          "indexed": false,
          "internalType": "uint256",
          "name": "value",
          "type": "uint256"
        }
      ],
      "name": "Transfer",
      "type": "event"
    },
    {
      "anonymous": false,
      "inputs": [
        {
          "indexed": false,
          "internalType": "address",
          "name": "account",
          "type": "address"
        }
      ],
      "name": "Unpaused",
      "type": "event"
    },
    {
      "anonymous": false,
      "inputs": [
        {
          "indexed": false,
          "internalType": "contract IStrategy[]",
          "name": "replacedWithdrawalQueue",
          "type": "address[]"
        }
      ],
      "name": "WithdrawalQueueSet",
      "type": "event"
    },
    {
      "inputs": [],
      "name": "BASE_UNIT",
      "outputs": [
        {
          "internalType": "uint256",
          "name": "",
          "type": "uint256"
        }
      ],
      "stateMutability": "view",
      "type": "function"
    },
    {
      "inputs": [],
      "name": "BLOCKS_PER_YEAR",
      "outputs": [
        {
          "internalType": "uint256",
          "name": "",
          "type": "uint256"
        }
      ],
      "stateMutability": "view",
      "type": "function"
    },
    {
      "inputs": [
        {
          "internalType": "address",
          "name": "owner",
          "type": "address"
        },
        {
          "internalType": "address",
          "name": "spender",
          "type": "address"
        }
      ],
      "name": "allowance",
      "outputs": [
        {
          "internalType": "uint256",
          "name": "",
          "type": "uint256"
        }
      ],
      "stateMutability": "view",
      "type": "function"
    },
    {
      "inputs": [
        {
          "internalType": "address",
          "name": "spender",
          "type": "address"
        },
        {
          "internalType": "uint256",
          "name": "amount",
          "type": "uint256"
        }
      ],
      "name": "approve",
      "outputs": [
        {
          "internalType": "bool",
          "name": "",
          "type": "bool"
        }
      ],
      "stateMutability": "nonpayable",
      "type": "function"
    },
    {
      "inputs": [],
      "name": "auth",
      "outputs": [
        {
          "internalType": "contract IVaultAuth",
          "name": "",
          "type": "address"
        }
      ],
      "stateMutability": "view",
      "type": "function"
    },
    {
      "inputs": [
        {
          "internalType": "address",
          "name": "account",
          "type": "address"
        }
      ],
      "name": "balanceOf",
      "outputs": [
        {
          "internalType": "uint256",
          "name": "",
          "type": "uint256"
        }
      ],
      "stateMutability": "view",
      "type": "function"
    },
    {
      "inputs": [
        {
          "internalType": "address",
          "name": "user",
          "type": "address"
        }
      ],
      "name": "balanceOfUnderlying",
      "outputs": [
        {
          "internalType": "uint256",
          "name": "",
          "type": "uint256"
        }
      ],
      "stateMutability": "view",
      "type": "function"
    },
    {
      "inputs": [],
      "name": "batchBurnBalance",
      "outputs": [
        {
          "internalType": "uint256",
          "name": "",
          "type": "uint256"
        }
      ],
      "stateMutability": "view",
      "type": "function"
    },
    {
      "inputs": [],
      "name": "batchBurnRound",
      "outputs": [
        {
          "internalType": "uint256",
          "name": "",
          "type": "uint256"
        }
      ],
      "stateMutability": "view",
      "type": "function"
    },
    {
      "inputs": [
        {
          "internalType": "uint256",
          "name": "",
          "type": "uint256"
        }
      ],
      "name": "batchBurns",
      "outputs": [
        {
          "internalType": "uint256",
          "name": "totalShares",
          "type": "uint256"
        },
        {
          "internalType": "uint256",
          "name": "amountPerShare",
          "type": "uint256"
        }
      ],
      "stateMutability": "view",
      "type": "function"
    },
    {
      "inputs": [],
      "name": "burningFeePercent",
      "outputs": [
        {
          "internalType": "uint256",
          "name": "",
          "type": "uint256"
        }
      ],
      "stateMutability": "view",
      "type": "function"
    },
    {
      "inputs": [],
      "name": "burningFeeReceiver",
      "outputs": [
        {
          "internalType": "address",
          "name": "",
          "type": "address"
        }
      ],
      "stateMutability": "view",
      "type": "function"
    },
    {
      "inputs": [
        {
          "internalType": "uint256",
          "name": "underlyingAmount",
          "type": "uint256"
        }
      ],
      "name": "calculateShares",
      "outputs": [
        {
          "internalType": "uint256",
          "name": "",
          "type": "uint256"
        }
      ],
      "stateMutability": "view",
      "type": "function"
    },
    {
      "inputs": [
        {
          "internalType": "uint256",
          "name": "sharesAmount",
          "type": "uint256"
        }
      ],
      "name": "calculateUnderlying",
      "outputs": [
        {
          "internalType": "uint256",
          "name": "",
          "type": "uint256"
        }
      ],
      "stateMutability": "view",
      "type": "function"
    },
    {
      "inputs": [],
      "name": "decimals",
      "outputs": [
        {
          "internalType": "uint8",
          "name": "",
          "type": "uint8"
        }
      ],
      "stateMutability": "view",
      "type": "function"
    },
    {
      "inputs": [
        {
          "internalType": "address",
          "name": "spender",
          "type": "address"
        },
        {
          "internalType": "uint256",
          "name": "subtractedValue",
          "type": "uint256"
        }
      ],
      "name": "decreaseAllowance",
      "outputs": [
        {
          "internalType": "bool",
          "name": "",
          "type": "bool"
        }
      ],
      "stateMutability": "nonpayable",
      "type": "function"
    },
    {
      "inputs": [
        {
          "internalType": "address",
          "name": "to",
          "type": "address"
        },
        {
          "internalType": "uint256",
          "name": "underlyingAmount",
          "type": "uint256"
        }
      ],
      "name": "deposit",
      "outputs": [
        {
          "internalType": "uint256",
          "name": "shares",
          "type": "uint256"
        }
      ],
      "stateMutability": "nonpayable",
      "type": "function"
    },
    {
      "inputs": [
        {
          "internalType": "contract IStrategy",
          "name": "strategy",
          "type": "address"
        },
        {
          "internalType": "uint256",
          "name": "underlyingAmount",
          "type": "uint256"
        }
      ],
      "name": "depositIntoStrategy",
      "outputs": [],
      "stateMutability": "nonpayable",
      "type": "function"
    },
    {
      "inputs": [
        {
          "internalType": "contract IStrategy",
          "name": "strategy",
          "type": "address"
        }
      ],
      "name": "distrustStrategy",
      "outputs": [],
      "stateMutability": "nonpayable",
      "type": "function"
    },
    {
      "inputs": [
        {
          "internalType": "uint256",
          "name": "shares",
          "type": "uint256"
        }
      ],
      "name": "enterBatchBurn",
      "outputs": [],
      "stateMutability": "nonpayable",
      "type": "function"
    },
    {
      "inputs": [],
      "name": "estimatedReturn",
      "outputs": [
        {
          "internalType": "uint256",
          "name": "",
          "type": "uint256"
        }
      ],
      "stateMutability": "view",
      "type": "function"
    },
    {
      "inputs": [],
      "name": "exchangeRate",
      "outputs": [
        {
          "internalType": "uint256",
          "name": "",
          "type": "uint256"
        }
      ],
      "stateMutability": "view",
      "type": "function"
    },
    {
      "inputs": [],
      "name": "execBatchBurn",
      "outputs": [],
      "stateMutability": "nonpayable",
      "type": "function"
    },
    {
      "inputs": [],
      "name": "exitBatchBurn",
      "outputs": [],
      "stateMutability": "nonpayable",
      "type": "function"
    },
    {
      "inputs": [
        {
          "internalType": "contract IStrategy",
          "name": "",
          "type": "address"
        }
      ],
      "name": "getStrategyData",
      "outputs": [
        {
          "internalType": "bool",
          "name": "trusted",
          "type": "bool"
        },
        {
          "internalType": "uint248",
          "name": "balance",
          "type": "uint248"
        }
      ],
      "stateMutability": "view",
      "type": "function"
    },
    {
      "inputs": [],
      "name": "getWithdrawalQueue",
      "outputs": [
        {
          "internalType": "contract IStrategy[]",
          "name": "",
          "type": "address[]"
        }
      ],
      "stateMutability": "view",
      "type": "function"
    },
    {
      "inputs": [
        {
          "internalType": "contract IStrategy[]",
          "name": "strategies",
          "type": "address[]"
        }
      ],
      "name": "harvest",
      "outputs": [],
      "stateMutability": "nonpayable",
      "type": "function"
    },
    {
      "inputs": [],
      "name": "harvestDelay",
      "outputs": [
        {
          "internalType": "uint64",
          "name": "",
          "type": "uint64"
        }
      ],
      "stateMutability": "view",
      "type": "function"
    },
    {
      "inputs": [],
      "name": "harvestFeePercent",
      "outputs": [
        {
          "internalType": "uint256",
          "name": "",
          "type": "uint256"
        }
      ],
      "stateMutability": "view",
      "type": "function"
    },
    {
      "inputs": [],
      "name": "harvestFeeReceiver",
      "outputs": [
        {
          "internalType": "address",
          "name": "",
          "type": "address"
        }
      ],
      "stateMutability": "view",
      "type": "function"
    },
    {
      "inputs": [],
      "name": "harvestWindow",
      "outputs": [
        {
          "internalType": "uint128",
          "name": "",
          "type": "uint128"
        }
      ],
      "stateMutability": "view",
      "type": "function"
    },
    {
      "inputs": [
        {
          "internalType": "address",
          "name": "spender",
          "type": "address"
        },
        {
          "internalType": "uint256",
          "name": "addedValue",
          "type": "uint256"
        }
      ],
      "name": "increaseAllowance",
      "outputs": [
        {
          "internalType": "bool",
          "name": "",
          "type": "bool"
        }
      ],
      "stateMutability": "nonpayable",
      "type": "function"
    },
    {
      "inputs": [
        {
          "internalType": "contract ERC20Upgradeable",
          "name": "underlying_",
          "type": "address"
        },
        {
          "internalType": "contract IVaultAuth",
          "name": "auth_",
          "type": "address"
        },
        {
          "internalType": "address",
          "name": "harvestFeeReceiver_",
          "type": "address"
        },
        {
          "internalType": "address",
          "name": "burnFeeReceiver_",
          "type": "address"
        }
      ],
      "name": "initialize",
      "outputs": [],
      "stateMutability": "nonpayable",
      "type": "function"
    },
    {
      "inputs": [],
      "name": "lastHarvest",
      "outputs": [
        {
          "internalType": "uint64",
          "name": "",
          "type": "uint64"
        }
      ],
      "stateMutability": "view",
      "type": "function"
    },
    {
      "inputs": [],
      "name": "lastHarvestExchangeRate",
      "outputs": [
        {
          "internalType": "uint256",
          "name": "",
          "type": "uint256"
        }
      ],
      "stateMutability": "view",
      "type": "function"
    },
    {
      "inputs": [],
      "name": "lastHarvestIntervalInBlocks",
      "outputs": [
        {
          "internalType": "uint256",
          "name": "",
          "type": "uint256"
        }
      ],
      "stateMutability": "view",
      "type": "function"
    },
    {
      "inputs": [],
      "name": "lastHarvestWindowStart",
      "outputs": [
        {
          "internalType": "uint64",
          "name": "",
          "type": "uint64"
        }
      ],
      "stateMutability": "view",
      "type": "function"
    },
    {
      "inputs": [],
      "name": "lastHarvestWindowStartBlock",
      "outputs": [
        {
          "internalType": "uint256",
          "name": "",
          "type": "uint256"
        }
      ],
      "stateMutability": "view",
      "type": "function"
    },
    {
      "inputs": [],
      "name": "lockedProfit",
      "outputs": [
        {
          "internalType": "uint256",
          "name": "",
          "type": "uint256"
        }
      ],
      "stateMutability": "view",
      "type": "function"
    },
    {
      "inputs": [],
      "name": "maxLockedProfit",
      "outputs": [
        {
          "internalType": "uint128",
          "name": "",
          "type": "uint128"
        }
      ],
      "stateMutability": "view",
      "type": "function"
    },
    {
      "inputs": [
        {
          "internalType": "address",
          "name": "to",
          "type": "address"
        },
        {
          "internalType": "uint256",
          "name": "shares",
          "type": "uint256"
        }
      ],
      "name": "mint",
      "outputs": [
        {
          "internalType": "uint256",
          "name": "underlyingAmount",
          "type": "uint256"
        }
      ],
      "stateMutability": "nonpayable",
      "type": "function"
    },
    {
      "inputs": [],
      "name": "name",
      "outputs": [
        {
          "internalType": "string",
          "name": "",
          "type": "string"
        }
      ],
      "stateMutability": "view",
      "type": "function"
    },
    {
      "inputs": [],
      "name": "nextHarvestDelay",
      "outputs": [
        {
          "internalType": "uint64",
          "name": "",
          "type": "uint64"
        }
      ],
      "stateMutability": "view",
      "type": "function"
    },
    {
      "inputs": [],
      "name": "paused",
      "outputs": [
        {
          "internalType": "bool",
          "name": "",
          "type": "bool"
        }
      ],
      "stateMutability": "view",
      "type": "function"
    },
    {
      "inputs": [
        {
          "internalType": "contract IVaultAuth",
          "name": "newAuth",
          "type": "address"
        }
      ],
      "name": "setAuth",
      "outputs": [],
      "stateMutability": "nonpayable",
      "type": "function"
    },
    {
      "inputs": [
        {
          "internalType": "uint256",
          "name": "newFeePercent",
          "type": "uint256"
        }
      ],
      "name": "setBatchedBurningFeePercent",
      "outputs": [],
      "stateMutability": "nonpayable",
      "type": "function"
    },
    {
      "inputs": [
        {
          "internalType": "uint256",
          "name": "blocks",
          "type": "uint256"
        }
      ],
      "name": "setBlocksPerYear",
      "outputs": [],
      "stateMutability": "nonpayable",
      "type": "function"
    },
    {
      "inputs": [
        {
          "internalType": "address",
          "name": "burningFeeReceiver_",
          "type": "address"
        }
      ],
      "name": "setBurningFeeReceiver",
      "outputs": [],
      "stateMutability": "nonpayable",
      "type": "function"
    },
    {
      "inputs": [
        {
          "internalType": "uint256",
          "name": "user",
          "type": "uint256"
        },
        {
          "internalType": "uint256",
          "name": "vault",
          "type": "uint256"
        }
      ],
      "name": "setDepositLimits",
      "outputs": [],
      "stateMutability": "nonpayable",
      "type": "function"
    },
    {
      "inputs": [
        {
          "internalType": "uint64",
          "name": "newHarvestDelay",
          "type": "uint64"
        }
      ],
      "name": "setHarvestDelay",
      "outputs": [],
      "stateMutability": "nonpayable",
      "type": "function"
    },
    {
      "inputs": [
        {
          "internalType": "uint256",
          "name": "newFeePercent",
          "type": "uint256"
        }
      ],
      "name": "setHarvestFeePercent",
      "outputs": [],
      "stateMutability": "nonpayable",
      "type": "function"
    },
    {
      "inputs": [
        {
          "internalType": "address",
          "name": "harvestFeeReceiver_",
          "type": "address"
        }
      ],
      "name": "setHarvestFeeReceiver",
      "outputs": [],
      "stateMutability": "nonpayable",
      "type": "function"
    },
    {
      "inputs": [
        {
          "internalType": "uint128",
          "name": "newHarvestWindow",
          "type": "uint128"
        }
      ],
      "name": "setHarvestWindow",
      "outputs": [],
      "stateMutability": "nonpayable",
      "type": "function"
    },
    {
      "inputs": [
        {
          "internalType": "contract IStrategy[]",
          "name": "newQueue",
          "type": "address[]"
        }
      ],
      "name": "setWithdrawalQueue",
      "outputs": [],
      "stateMutability": "nonpayable",
      "type": "function"
    },
    {
      "inputs": [],
      "name": "symbol",
      "outputs": [
        {
          "internalType": "string",
          "name": "",
          "type": "string"
        }
      ],
      "stateMutability": "view",
      "type": "function"
    },
    {
      "inputs": [],
      "name": "totalFloat",
      "outputs": [
        {
          "internalType": "uint256",
          "name": "",
          "type": "uint256"
        }
      ],
      "stateMutability": "view",
      "type": "function"
    },
    {
      "inputs": [],
      "name": "totalStrategyHoldings",
      "outputs": [
        {
          "internalType": "uint256",
          "name": "",
          "type": "uint256"
        }
      ],
      "stateMutability": "view",
      "type": "function"
    },
    {
      "inputs": [],
      "name": "totalSupply",
      "outputs": [
        {
          "internalType": "uint256",
          "name": "",
          "type": "uint256"
        }
      ],
      "stateMutability": "view",
      "type": "function"
    },
    {
      "inputs": [],
      "name": "totalUnderlying",
      "outputs": [
        {
          "internalType": "uint256",
          "name": "totalUnderlyingHeld",
          "type": "uint256"
        }
      ],
      "stateMutability": "view",
      "type": "function"
    },
    {
      "inputs": [
        {
          "internalType": "address",
          "name": "recipient",
          "type": "address"
        },
        {
          "internalType": "uint256",
          "name": "amount",
          "type": "uint256"
        }
      ],
      "name": "transfer",
      "outputs": [
        {
          "internalType": "bool",
          "name": "",
          "type": "bool"
        }
      ],
      "stateMutability": "nonpayable",
      "type": "function"
    },
    {
      "inputs": [
        {
          "internalType": "address",
          "name": "sender",
          "type": "address"
        },
        {
          "internalType": "address",
          "name": "recipient",
          "type": "address"
        },
        {
          "internalType": "uint256",
          "name": "amount",
          "type": "uint256"
        }
      ],
      "name": "transferFrom",
      "outputs": [
        {
          "internalType": "bool",
          "name": "",
          "type": "bool"
        }
      ],
      "stateMutability": "nonpayable",
      "type": "function"
    },
    {
      "inputs": [],
      "name": "triggerPause",
      "outputs": [],
      "stateMutability": "nonpayable",
      "type": "function"
    },
    {
      "inputs": [
        {
          "internalType": "contract IStrategy",
          "name": "strategy",
          "type": "address"
        }
      ],
      "name": "trustStrategy",
      "outputs": [],
      "stateMutability": "nonpayable",
      "type": "function"
    },
    {
      "inputs": [],
      "name": "underlying",
      "outputs": [
        {
          "internalType": "contract ERC20Upgradeable",
          "name": "",
          "type": "address"
        }
      ],
      "stateMutability": "view",
      "type": "function"
    },
    {
      "inputs": [],
      "name": "underlyingDecimals",
      "outputs": [
        {
          "internalType": "uint8",
          "name": "",
          "type": "uint8"
        }
      ],
      "stateMutability": "view",
      "type": "function"
    },
    {
      "inputs": [
        {
          "internalType": "address",
          "name": "",
          "type": "address"
        }
      ],
      "name": "userBatchBurnReceipts",
      "outputs": [
        {
          "internalType": "uint256",
          "name": "round",
          "type": "uint256"
        },
        {
          "internalType": "uint256",
          "name": "shares",
          "type": "uint256"
        }
      ],
      "stateMutability": "view",
      "type": "function"
    },
    {
      "inputs": [],
      "name": "userDepositLimit",
      "outputs": [
        {
          "internalType": "uint256",
          "name": "",
          "type": "uint256"
        }
      ],
      "stateMutability": "view",
      "type": "function"
    },
    {
      "inputs": [],
      "name": "vaultDepositLimit",
      "outputs": [
        {
          "internalType": "uint256",
          "name": "",
          "type": "uint256"
        }
      ],
      "stateMutability": "view",
      "type": "function"
    },
    {
      "inputs": [],
      "name": "version",
      "outputs": [
        {
          "internalType": "string",
          "name": "",
          "type": "string"
        }
      ],
      "stateMutability": "view",
      "type": "function"
    },
    {
      "inputs": [
        {
          "internalType": "contract IStrategy",
          "name": "strategy",
          "type": "address"
        },
        {
          "internalType": "uint256",
          "name": "underlyingAmount",
          "type": "uint256"
        }
      ],
      "name": "withdrawFromStrategy",
      "outputs": [],
      "stateMutability": "nonpayable",
      "type": "function"
    },
    {
      "inputs": [
        {
          "internalType": "uint256",
          "name": "",
          "type": "uint256"
        }
      ],
      "name": "withdrawalQueue",
      "outputs": [
        {
          "internalType": "contract IStrategy",
          "name": "",
          "type": "address"
        }
      ],
      "stateMutability": "view",
      "type": "function"
    }
  ],
  "bytecode": "608060405234801561001057600080fd5b5061587e80620000216000396000f3fe608060405234801561001057600080fd5b506004361061048d5760003560e01c8063793101a51161026b578063c822adda11610150578063e33cc0a8116100c8578063ecc404b511610097578063f1a392da1161007c578063f1a392da14610ac5578063f8c8765e14610ae5578063f97d2ed714610af857600080fd5b8063ecc404b514610a9e578063eed74e6714610ab157600080fd5b8063e33cc0a814610a66578063e5fa2b7014610a6f578063ec523afd14610a82578063ecad956514610a9557600080fd5b8063d00364be1161011f578063dd11dd4511610104578063dd11dd4514610a07578063dd62ed3e14610a1a578063de9375f214610a5357600080fd5b8063d00364be146109ad578063d37db1d2146109fe57600080fd5b8063c822adda14610961578063c866983b14610974578063c89d346014610987578063cbc43f891461099a57600080fd5b806395d89b41116101e3578063ac579b77116101b2578063b53d095811610197578063b53d095814610933578063bdf06c8e14610946578063c70920bc1461095957600080fd5b8063ac579b771461090d578063ac86ac721461092057600080fd5b806395d89b41146108d65780639ee02c7f146108de578063a457c2d7146108e7578063a9059cbb146108fa57600080fd5b8063836ca0f61161023a57806386dc48001161021f57806386dc48001461089d578063912f74cd146108a65780639291df6b146108cd57600080fd5b8063836ca0f61461088c578063841219e51461089557600080fd5b8063793101a51461082e578063797ba463146108365780637b72aeb9146108665780637ccfb43f1461087957600080fd5b806339509351116103915780634eddea061161030957806363874446116102d85780636bd95612116102bd5780636bd95612146107d15780636f307dc3146107da57806370a082311461080557600080fd5b806363874446146107c05780636833f60d146107c957600080fd5b80634eddea061461075d57806354fd4d50146107705780635c975abb146107ac5780635e4f9451146107b757600080fd5b80633ec1619411610360578063448f56b911610345578063448f56b91461070157806344b813961461074257806347e7ef241461074a57600080fd5b80633ec16194146106db57806340c10f19146106ee57600080fd5b8063395093511461069a5780633af9e669146106ad5780633ba0b9a9146106c05780633c66a8fa146106c857600080fd5b806318160ddd1161042457806325a760c2116103f35780632b2e05c1116103d85780632b2e05c11461065b57806331024f3b1461066e578063313ce5671461067757600080fd5b806325a760c2146105a25780632968676e146105d957600080fd5b806318160ddd146105765780631bba16db1461057e5780631ec36bfa1461058657806323b872dd1461058f57600080fd5b80630e962f00116104605780630e962f00146104fd57806311e57a3e1461051457806313e86b281461052757806314fbae041461053a57600080fd5b806306fdde031461049257806307b35d1d146104b0578063095ea7b3146104c55780630e73ecef146104e8575b600080fd5b61049a610b14565b6040516104a79190615010565b60405180910390f35b6104c36104be366004615043565b610ba6565b005b6104d86104d336600461508a565b610d89565b60405190151581526020016104a7565b6104f0610da0565b6040516104a791906150b6565b610506609a5481565b6040519081526020016104a7565b610506610522366004615103565b610e01565b6104c361053536600461511c565b610e19565b610561610548366004615103565b60aa602052600090815260409020805460019091015482565b604080519283526020830191909152016104a7565b603554610506565b6104c3610f3b565b61050660ab5481565b6104d861059d366004615139565b611285565b6099546105c79074010000000000000000000000000000000000000000900460ff1681565b60405160ff90911681526020016104a7565b6106246105e736600461511c565b60a16020526000908152604090205460ff81169061010090047effffffffffffffffffffffffffffffffffffffffffffffffffffffffffffff1682565b6040805192151583527effffffffffffffffffffffffffffffffffffffffffffffffffffffffffffff9091166020830152016104a7565b6104c361066936600461511c565b611346565b610506609d5481565b60995474010000000000000000000000000000000000000000900460ff166105c7565b6104d86106a836600461508a565b61146b565b6105066106bb36600461511c565b6114a7565b6105066114c9565b6104c36106d6366004615103565b611500565b6105066106e9366004615103565b611620565b6105066106fc36600461508a565b611638565b609f5461072990700100000000000000000000000000000000900467ffffffffffffffff1681565b60405167ffffffffffffffff90911681526020016104a7565b610506611650565b61050661075836600461508a565b6116e0565b6104c361076b36600461517a565b6116f8565b61049a6040518060400160405280600381526020017f302e31000000000000000000000000000000000000000000000000000000000081525081565b60655460ff166104d8565b61050660a25481565b61050660ac5481565b6104c3611800565b61050660a75481565b6099546107ed906001600160a01b031681565b6040516001600160a01b0390911681526020016104a7565b61050661081336600461511c565b6001600160a01b031660009081526033602052604090205490565b6104c36118dc565b609f54610729907801000000000000000000000000000000000000000000000000900467ffffffffffffffff1681565b6104c361087436600461519c565b611a62565b6104c3610887366004615103565b611d24565b61050660a35481565b610506611e96565b61050660a85481565b6105616108b436600461511c565b60a9602052600090815260409020805460019091015482565b61050660a45481565b61049a611f26565b61050660ad5481565b6104d86108f536600461508a565b611f35565b6104d861090836600461508a565b611fe6565b6104c361091b3660046151c6565b611ff3565b6104c361092e36600461511c565b612167565b6104c361094136600461508a565b612289565b6104c361095436600461508a565b612623565b610506612981565b6107ed61096f366004615103565b6129a8565b6104c361098236600461511c565b6129d2565b6104c36109953660046151c6565b612adb565b6104c36109a8366004615103565b613119565b60a5546109dd9070010000000000000000000000000000000090046fffffffffffffffffffffffffffffffff1681565b6040516fffffffffffffffffffffffffffffffff90911681526020016104a7565b61050660975481565b609e546107ed906001600160a01b031681565b610506610a2836600461523b565b6001600160a01b03918216600090815260346020908152604080832093909416825291909152205490565b6098546107ed906001600160a01b031681565b610506609b5481565b6104c3610a7d366004615103565b613265565b6104c3610a9036600461511c565b61332a565b61050660a05481565b609c546107ed906001600160a01b031681565b60a5546107299067ffffffffffffffff1681565b60a5546107299068010000000000000000900467ffffffffffffffff1681565b6104c3610af3366004615274565b613515565b609f546109dd906fffffffffffffffffffffffffffffffff1681565b606060368054610b23906152d0565b80601f0160208091040260200160405190810160405280929190818152602001828054610b4f906152d0565b8015610b9c5780601f10610b7157610100808354040283529160200191610b9c565b820191906000526020600020905b815481529060010190602001808311610b7f57829003601f168201915b5050505050905090565b609854604051639100674560e01b81523060048201523360248201819052916001600160a01b031690639100674590604401602060405180830381865afa158015610bf5573d6000803e3d6000fd5b505050506040513d601f19601f82011682018060405250810190610c199190615324565b610c6a5760405162461bcd60e51b815260206004820152601060248201527f6572726f723a3a4e4f545f41444d494e0000000000000000000000000000000060448201526064015b60405180910390fd5b609f54700100000000000000000000000000000000900467ffffffffffffffff166fffffffffffffffffffffffffffffffff83161115610d125760405162461bcd60e51b815260206004820152602160248201527f7365744861727665737457696e646f773a3a57494e444f575f544f4f5f4c4f4e60448201527f47000000000000000000000000000000000000000000000000000000000000006064820152608401610c61565b609f80547fffffffffffffffffffffffffffffffff00000000000000000000000000000000166fffffffffffffffffffffffffffffffff84169081179091556040519081527fe5aac860870a2b99320df1d1b908931b370150f1c11074466fb332528e5b910b906020015b60405180910390a15050565b6000610d9633848461397b565b5060015b92915050565b606060a6805480602002602001604051908101604052809291908181526020018280548015610b9c57602002820191906000526020600020905b81546001600160a01b03168152600190910190602001808311610dda575050505050905090565b6000610d9a610e0e6114c9565b609a54849190613acb565b609854604051639100674560e01b81523060048201523360248201819052916001600160a01b031690639100674590604401602060405180830381865afa158015610e68573d6000803e3d6000fd5b505050506040513d601f19601f82011682018060405250810190610e8c9190615324565b610ed85760405162461bcd60e51b815260206004820152601060248201527f6572726f723a3a4e4f545f41444d494e000000000000000000000000000000006044820152606401610c61565b609e80547fffffffffffffffffffffffff0000000000000000000000000000000000000000166001600160a01b0384169081179091556040517fb5d8934a1f336d4cf641ae9f680c3e196f624f0bd9271749be60d98b70f7006090600090a25050565b609854604051639100674560e01b81523060048201523360248201819052916001600160a01b031690639100674590604401602060405180830381865afa158015610f8a573d6000803e3d6000fd5b505050506040513d601f19601f82011682018060405250810190610fae9190615324565b610ffa5760405162461bcd60e51b815260206004820152601060248201527f6572726f723a3a4e4f545f41444d494e000000000000000000000000000000006044820152606401610c61565b609f5460a5546110379167ffffffffffffffff70010000000000000000000000000000000090910481169168010000000000000000900416615375565b67ffffffffffffffff164210156110b65760405162461bcd60e51b815260206004820152602560248201527f62617463684275726e3a3a4c41544553545f484152564553545f4e4f545f455860448201527f50495245440000000000000000000000000000000000000000000000000000006064820152608401610c61565b60a780549060019060006110ca83856153a1565b9091555050600081815260aa602090815260409182902082518084019093528054808452600190910154918301919091528061116e5760405162461bcd60e51b815260206004820152602660248201527f62617463684275726e3a3a544f54414c5f5348415245535f43414e4e4f545f4260448201527f455f5a45524f00000000000000000000000000000000000000000000000000006064820152608401610c61565b600061117b610e0e6114c9565b90506000611187611e96565b9050808211156111aa57600061119d82846153b9565b90506111a881613ae6565b505b6111b43084613d56565b609d541561120457609d546000906111d6908490670de0b6b3a7640000613acb565b90506111e281846153b9565b609e54609954919450611202916001600160a01b03908116911683613edb565b505b609a546112149083908590613f84565b600086815260aa602052604081206001019190915560a8805484929061123b9084906153a1565b90915550506040805184815260208101849052339187917f464420ee56151ee74d491d95cfa6b42d6c6504b38debc567f5532168243f1d8d910160405180910390a3505050505050565b6000611292848484613fa6565b6001600160a01b03841660009081526034602090815260408083203384529091529020548281101561132c5760405162461bcd60e51b815260206004820152602860248201527f45524332303a207472616e7366657220616d6f756e742065786365656473206160448201527f6c6c6f77616e63650000000000000000000000000000000000000000000000006064820152608401610c61565b611339853385840361397b565b60019150505b9392505050565b609854604051639100674560e01b81523060048201523360248201819052916001600160a01b031690639100674590604401602060405180830381865afa158015611395573d6000803e3d6000fd5b505050506040513d601f19601f820116820180604052508101906113b99190615324565b6114055760405162461bcd60e51b815260206004820152601060248201527f6572726f723a3a4e4f545f41444d494e000000000000000000000000000000006044820152606401610c61565b609880547fffffffffffffffffffffffff0000000000000000000000000000000000000000166001600160a01b0384169081179091556040519081527fdcb0bc5ecfadc1f3129303f7c1f12b82107806277374a010dffe2c367708ef4190602001610d7d565b3360008181526034602090815260408083206001600160a01b03871684529091528120549091610d969185906114a29086906153a1565b61397b565b6001600160a01b038116600090815260336020526040812054610d9a90610e01565b6000806114d560355490565b9050806114e4575050609a5490565b6114fa81609a546114f3612981565b9190613f84565b91505090565b60a75433600090815260a96020526040902054806115355733600090815260a9602052604090208281556001018390556115ac565b8181146115845760405162461bcd60e51b815260206004820181905260248201527f656e74657242617463684275726e3a3a444946464552454e545f524f554e44536044820152606401610c61565b33600090815260a96020526040812060010180548592906115a69084906153a1565b90915550505b600082815260aa6020526040812080548592906115ca9084906153a1565b909155506115da90503084611fe6565b6115e357600080fd5b604051838152339083907fa34c4835838212c803863f6698244f8a1e56f479d6dba7d4f33b34a2cdecf1ce906020015b60405180910390a3505050565b6000610d9a61162d6114c9565b609a54849190613f84565b6000610d9a838361164885610e01565b9350836141bf565b60a554609f5460009167ffffffffffffffff6801000000000000000090910481169170010000000000000000000000000000000090041680820142106116995760009250505090565b60a55470010000000000000000000000000000000090046fffffffffffffffffffffffffffffffff1681428490038202816116d6576116d66153d0565b0490039392505050565b6000610d9a836116ef84611620565b925082846141bf565b609854604051639100674560e01b81523060048201523360248201819052916001600160a01b031690639100674590604401602060405180830381865afa158015611747573d6000803e3d6000fd5b505050506040513d601f19601f8201168201806040525081019061176b9190615324565b6117b75760405162461bcd60e51b815260206004820152601060248201527f6572726f723a3a4e4f545f41444d494e000000000000000000000000000000006044820152606401610c61565b60ab83905560ac82905560408051848152602081018490527fb2ad710f2954a5376267a683f9ece9ec46ee7dfb47075163379904ee941df8da91015b60405180910390a1505050565b609854604051639100674560e01b81523060048201523360248201819052916001600160a01b031690639100674590604401602060405180830381865afa15801561184f573d6000803e3d6000fd5b505050506040513d601f19601f820116820180604052508101906118739190615324565b6118bf5760405162461bcd60e51b815260206004820152601060248201527f6572726f723a3a4e4f545f41444d494e000000000000000000000000000000006044820152606401610c61565b60655460ff166118d4576118d161448d565b50565b6118d1614532565b60a75433600090815260a9602090815260409182902082518084019093528054808452600190910154918301919091526119585760405162461bcd60e51b815260206004820152601a60248201527f6578697442617463684275726e3a3a4e4f5f4445504f534954530000000000006044820152606401610c61565b805182116119ce5760405162461bcd60e51b815260206004820152602160248201527f6578697442617463684275726e3a3a524f554e445f4e4f545f4558454355544560448201527f44000000000000000000000000000000000000000000000000000000000000006064820152608401610c61565b33600090815260a96020908152604080832083815560019081018490558451845260aa83529083200154609a5491840151611a0b92909190613acb565b60a880548290039055609954909150611a2e906001600160a01b03163383613edb565b604051818152339084907f2027c7e85003814492322d04d360d8df81aebeb8a40a069fffccc25cdf9e359b90602001611613565b609854604051639100674560e01b81523060048201523360248201819052916001600160a01b031690639100674590604401602060405180830381865afa158015611ab1573d6000803e3d6000fd5b505050506040513d601f19601f82011682018060405250810190611ad59190615324565b611b215760405162461bcd60e51b815260206004820152601060248201527f6572726f723a3a4e4f545f41444d494e000000000000000000000000000000006044820152606401610c61565b67ffffffffffffffff8216611b9e5760405162461bcd60e51b815260206004820152602560248201527f7365744861727665737444656c61793a3a44454c41595f43414e4e4f545f424560448201527f5f5a45524f0000000000000000000000000000000000000000000000000000006064820152608401610c61565b6301e133808267ffffffffffffffff161115611bfc5760405162461bcd60e51b815260206004820152601f60248201527f7365744861727665737444656c61793a3a44454c41595f544f4f5f4c4f4e47006044820152606401610c61565b609f54700100000000000000000000000000000000900467ffffffffffffffff16611ca757609f80547fffffffffffffffff0000000000000000ffffffffffffffffffffffffffffffff1670010000000000000000000000000000000067ffffffffffffffff85169081029190911790915560405190815233907fe893fa207c5a5094cad036347b877c23ebecd9df94ae0426f287040c13220b3f9060200160405180910390a25050565b609f805477ffffffffffffffffffffffffffffffffffffffffffffffff16780100000000000000000000000000000000000000000000000067ffffffffffffffff8516908102919091179091556040519081527f12ce22e477e3fc08e5fda24cdec059a7c62a276344417f2c365d7476401bca6f90602001610d7d565b609854604051639100674560e01b81523060048201523360248201819052916001600160a01b031690639100674590604401602060405180830381865afa158015611d73573d6000803e3d6000fd5b505050506040513d601f19601f82011682018060405250810190611d979190615324565b611de35760405162461bcd60e51b815260206004820152601060248201527f6572726f723a3a4e4f545f41444d494e000000000000000000000000000000006044820152606401610c61565b670de0b6b3a7640000821115611e615760405162461bcd60e51b815260206004820152602960248201527f736574426174636865644275726e696e6746656550657263656e743a3a46454560448201527f5f544f4f5f4849474800000000000000000000000000000000000000000000006064820152608401610c61565b609d8290556040518281527fea0b688aabe63e0b1f8d23fbfaaf5978c8d6b74c5b21bdc9787b4651482b8f4b90602001610d7d565b60a8546099546040517f70a08231000000000000000000000000000000000000000000000000000000008152306004820152600092916001600160a01b0316906370a0823190602401602060405180830381865afa158015611efc573d6000803e3d6000fd5b505050506040513d601f19601f82011682018060405250810190611f2091906153ff565b03905090565b606060378054610b23906152d0565b3360009081526034602090815260408083206001600160a01b038616845290915281205482811015611fcf5760405162461bcd60e51b815260206004820152602560248201527f45524332303a2064656372656173656420616c6c6f77616e63652062656c6f7760448201527f207a65726f0000000000000000000000000000000000000000000000000000006064820152608401610c61565b611fdc338585840361397b565b5060019392505050565b6000610d96338484613fa6565b609854604051639100674560e01b81523060048201523360248201819052916001600160a01b031690639100674590604401602060405180830381865afa158015612042573d6000803e3d6000fd5b505050506040513d601f19601f820116820180604052508101906120669190615324565b6120b25760405162461bcd60e51b815260206004820152601060248201527f6572726f723a3a4e4f545f41444d494e000000000000000000000000000000006044820152606401610c61565b60148211156121295760405162461bcd60e51b815260206004820152602160248201527f7365745769746864726177616c51756575653a3a51554555455f544f4f5f424960448201527f47000000000000000000000000000000000000000000000000000000000000006064820152608401610c61565b61213560a68484614ee4565b507f7f5ecd11abc947c192f7d36828c4a649ddecd0867f27df66489e78d3ec80b6fe83836040516117f3929190615418565b609854604051639100674560e01b81523060048201523360248201819052916001600160a01b031690639100674590604401602060405180830381865afa1580156121b6573d6000803e3d6000fd5b505050506040513d601f19601f820116820180604052508101906121da9190615324565b6122265760405162461bcd60e51b815260206004820152601060248201527f6572726f723a3a4e4f545f41444d494e000000000000000000000000000000006044820152606401610c61565b609c80547fffffffffffffffffffffffff0000000000000000000000000000000000000000166001600160a01b0384169081179091556040517fba702855580cda8666c4fe8e4ae71d8f5dd19db067455eeb54e2bac95c46af1390600090a25050565b609854604051639100674560e01b81523060048201523360248201819052916001600160a01b031690639100674590604401602060405180830381865afa1580156122d8573d6000803e3d6000fd5b505050506040513d601f19601f820116820180604052508101906122fc9190615324565b6123485760405162461bcd60e51b815260206004820152601060248201527f6572726f723a3a4e4f545f41444d494e000000000000000000000000000000006044820152606401610c61565b6001600160a01b038316600090815260a1602052604090205460ff166123d65760405162461bcd60e51b815260206004820152602860248201527f776974686472617746726f6d53747261746567793a3a554e545255535445445f60448201527f53545241544547590000000000000000000000000000000000000000000000006064820152608401610c61565b816124495760405162461bcd60e51b815260206004820152602b60248201527f776974686472617746726f6d53747261746567793a3a414d4f554e545f43414e60448201527f4e4f545f42455f5a45524f0000000000000000000000000000000000000000006064820152608401610c61565b612452826145b5565b6001600160a01b038416600090815260a16020526040902080546001906124a090849061010090047effffffffffffffffffffffffffffffffffffffffffffffffffffffffffffff16615466565b82547effffffffffffffffffffffffffffffffffffffffffffffffffffffffffffff9182166101009390930a92830291909202199091161790555060a0805483900390556040518281526001600160a01b0384169033907f8d851b682e239b1de720e92e5c5cffdb72d353104cc63dc6ed144d7080217fbe9060200160405180910390a36040517f2e1a7d4d000000000000000000000000000000000000000000000000000000008152600481018390526001600160a01b03841690632e1a7d4d906024016020604051808303816000875af1158015612584573d6000803e3d6000fd5b505050506040513d601f19601f820116820180604052508101906125a891906154a6565b60ff161561261e5760405162461bcd60e51b815260206004820152602360248201527f776974686472617746726f6d53747261746567793a3a52454445454d5f46414960448201527f4c454400000000000000000000000000000000000000000000000000000000006064820152608401610c61565b505050565b609854604051639100674560e01b81523060048201523360248201819052916001600160a01b031690639100674590604401602060405180830381865afa158015612672573d6000803e3d6000fd5b505050506040513d601f19601f820116820180604052508101906126969190615324565b6126e25760405162461bcd60e51b815260206004820152601060248201527f6572726f723a3a4e4f545f41444d494e000000000000000000000000000000006044820152606401610c61565b6001600160a01b038316600090815260a1602052604090205460ff166127705760405162461bcd60e51b815260206004820152602760248201527f6465706f736974496e746f53747261746567793a3a554e545255535445445f5360448201527f54524154454759000000000000000000000000000000000000000000000000006064820152608401610c61565b816127e35760405162461bcd60e51b815260206004820152602a60248201527f6465706f736974496e746f53747261746567793a3a414d4f554e545f43414e4e60448201527f4f545f42455f5a45524f000000000000000000000000000000000000000000006064820152608401610c61565b8160a060008282546127f591906153a1565b909155506128049050826145b5565b6001600160a01b038416600081815260a160205260409081902080547effffffffffffffffffffffffffffffffffffffffffffffffffffffffffffff61010080830482169096011690940260ff90941693909317909255905133907f49e9138fe0dacf001ea634236e38aa8bd229efd55ec4d7975228d679db6ce8f99061288e9086815260200190565b60405180910390a36099546128ad906001600160a01b031684846145e7565b6040517fb6b55f25000000000000000000000000000000000000000000000000000000008152600481018390526001600160a01b0384169063b6b55f25906024016020604051808303816000875af115801561290d573d6000803e3d6000fd5b505050506040513d601f19601f8201168201806040525081019061293191906154a6565b60ff161561261e5760405162461bcd60e51b815260206004820181905260248201527f6465706f736974496e746f53747261746567793a3a4d494e545f4641494c45446044820152606401610c61565b600061298b611650565b60a054039050612999611e96565b6129a390826153a1565b905090565b60a681815481106129b857600080fd5b6000918252602090912001546001600160a01b0316905081565b609854604051639100674560e01b81523060048201523360248201819052916001600160a01b031690639100674590604401602060405180830381865afa158015612a21573d6000803e3d6000fd5b505050506040513d601f19601f82011682018060405250810190612a459190615324565b612a915760405162461bcd60e51b815260206004820152601060248201527f6572726f723a3a4e4f545f41444d494e000000000000000000000000000000006044820152606401610c61565b6001600160a01b038216600081815260a16020526040808220805460ff19169055517fe14d923ec37225f1aab033b03f5c98cf911d68bba31f6908192db6c24b0511c99190a25050565b6098546040517fe6cf32400000000000000000000000000000000000000000000000000000000081523060048201523360248201819052916001600160a01b03169063e6cf324090604401602060405180830381865afa158015612b43573d6000803e3d6000fd5b505050506040513d601f19601f82011682018060405250810190612b679190615324565b612bb35760405162461bcd60e51b815260206004820152601460248201527f6572726f723a3a4e4f545f4841525645535445520000000000000000000000006044820152606401610c61565b609f5460a554612bf09167ffffffffffffffff70010000000000000000000000000000000090910481169168010000000000000000900416615375565b67ffffffffffffffff164210612c5857612c086114c9565b60a25560a454612c1890436153b9565b60a3554360a45560a580547fffffffffffffffffffffffffffffffffffffffffffffffff0000000000000000164267ffffffffffffffff16179055612ce5565b609f5460a554612c84916fffffffffffffffffffffffffffffffff169067ffffffffffffffff166154c9565b6fffffffffffffffffffffffffffffffff16421115612ce55760405162461bcd60e51b815260206004820152601960248201527f686172766573743a3a4241445f484152564553545f54494d45000000000000006044820152606401610c61565b60a054600081815b85811015612edb576000878783818110612d0957612d096154f4565b9050602002016020810190612d1e919061511c565b6001600160a01b038116600090815260a1602052604090205490915060ff16612d895760405162461bcd60e51b815260206004820152601b60248201527f686172766573743a3a554e545255535445445f535452415445475900000000006044820152606401610c61565b6001600160a01b038116600081815260a1602090815260408083205481517f27e5cbaf00000000000000000000000000000000000000000000000000000000815291516101009091047effffffffffffffffffffffffffffffffffffffffffffffffffffffffffffff1694926327e5cbaf9260048082019391829003018187875af1158015612e1c573d6000803e3d6000fd5b505050506040513d601f19601f82011682018060405250810190612e4091906153ff565b9050612e4b816145b5565b6001600160a01b038416600090815260a16020526040902080547effffffffffffffffffffffffffffffffffffffffffffffffffffffffffffff929092166101000260ff90921691909117905581612ea382876153a1565b612ead91906153b9565b9450818111612ebd576000612ec1565b8181035b860195505050508080612ed390615523565b915050612ced565b50609b54600090612ef6908490670de0b6b3a7640000613acb565b90508015801590612f115750609c546001600160a01b031615155b15612f4157609c54612f41906001600160a01b0316612f3c612f316114c9565b609a54859190613f84565b614735565b6000612f698285612f50611650565b612f5a91906153a1565b612f6491906153b9565b614814565b60a580546fffffffffffffffffffffffffffffffff80841670010000000000000000000000000000000081029190921617909155909150600090612fad90856153b9565b9050612fce81836fffffffffffffffffffffffffffffffff1660a354614833565b60ad5560a084905560a580547fffffffffffffffffffffffffffffffff0000000000000000ffffffffffffffff16680100000000000000004267ffffffffffffffff160217905560405133907f69e9c71f6799744a94d9897e77c3ed426cc2f92ba0ef3300785368209b6f4b2d90613049908c908c90615418565b60405180910390a2609f547801000000000000000000000000000000000000000000000000900467ffffffffffffffff16801561310d57609f80546fffffffffffffffffffffffffffffffff1670010000000000000000000000000000000067ffffffffffffffff841690810277ffffffffffffffffffffffffffffffffffffffffffffffff169190911790915560405190815233907fe893fa207c5a5094cad036347b877c23ebecd9df94ae0426f287040c13220b3f9060200160405180910390a25b50505050505050505050565b609854604051639100674560e01b81523060048201523360248201819052916001600160a01b031690639100674590604401602060405180830381865afa158015613168573d6000803e3d6000fd5b505050506040513d601f19601f8201168201806040525081019061318c9190615324565b6131d85760405162461bcd60e51b815260206004820152601060248201527f6572726f723a3a4e4f545f41444d494e000000000000000000000000000000006044820152606401610c61565b670de0b6b3a76400008211156132305760405162461bcd60e51b815260206004820152601b60248201527f73657446656550657263656e743a3a4645455f544f4f5f4849474800000000006044820152606401610c61565b609b8290556040518281527fc2930745c0414dcbc7ebf3fea0d713c9b1f0d69dd75345906fcf43ae322ad57890602001610d7d565b609854604051639100674560e01b81523060048201523360248201819052916001600160a01b031690639100674590604401602060405180830381865afa1580156132b4573d6000803e3d6000fd5b505050506040513d601f19601f820116820180604052508101906132d89190615324565b6133245760405162461bcd60e51b815260206004820152601060248201527f6572726f723a3a4e4f545f41444d494e000000000000000000000000000000006044820152606401610c61565b50609755565b609854604051639100674560e01b81523060048201523360248201819052916001600160a01b031690639100674590604401602060405180830381865afa158015613379573d6000803e3d6000fd5b505050506040513d601f19601f8201168201806040525081019061339d9190615324565b6133e95760405162461bcd60e51b815260206004820152601060248201527f6572726f723a3a4e4f545f41444d494e000000000000000000000000000000006044820152606401610c61565b609954604080517f6f307dc300000000000000000000000000000000000000000000000000000000815290516001600160a01b0392831692851691636f307dc39160048083019260209291908290030181865afa15801561344e573d6000803e3d6000fd5b505050506040513d601f19601f82011682018060405250810190613472919061553e565b6001600160a01b0316146134c85760405162461bcd60e51b815260206004820152601f60248201527f747275737453747261746567793a3a57524f4e475f554e4445524c59494e47006044820152606401610c61565b6001600160a01b038216600081815260a16020526040808220805460ff19166001179055517f1eecb33217fce2d414c96c97c7e082f4557817585c876a72eca5305afb15f1f19190a25050565b600054610100900460ff168061352e575060005460ff16155b6135a05760405162461bcd60e51b815260206004820152602e60248201527f496e697469616c697a61626c653a20636f6e747261637420697320616c72656160448201527f647920696e697469616c697a65640000000000000000000000000000000000006064820152608401610c61565b600054610100900460ff161580156135c2576000805461ffff19166101011790555b60006040518060400160405280600581526020017f4175786f20000000000000000000000000000000000000000000000000000000815250866001600160a01b03166306fdde036040518163ffffffff1660e01b8152600401600060405180830381865afa158015613638573d6000803e3d6000fd5b505050506040513d6000823e601f3d908101601f19168201604052613660919081019061558a565b6040518060400160405280600681526020017f205661756c7400000000000000000000000000000000000000000000000000008152506040516020016136a89392919061562c565b604051602081830303815290604052905060006040518060400160405280600481526020017f6175786f00000000000000000000000000000000000000000000000000000000815250876001600160a01b03166395d89b416040518163ffffffff1660e01b8152600401600060405180830381865afa15801561372f573d6000803e3d6000fd5b505050506040513d6000823e601f3d908101601f19168201604052613757919081019061558a565b6040516020016137689291906156a2565b60405160208183030381529060405290506137838282614887565b61378b61495c565b61379361448d565b609980547fffffffffffffffffffffffff0000000000000000000000000000000000000000166001600160a01b038916908117909155604080517f313ce567000000000000000000000000000000000000000000000000000000008152905163313ce567916004808201926020929091908290030181865afa15801561381d573d6000803e3d6000fd5b505050506040513d601f19601f8201168201806040525081019061384191906154a6565b61384c90600a6157ac565b609a81905550866001600160a01b031663313ce5676040518163ffffffff1660e01b8152600401602060405180830381865afa158015613890573d6000803e3d6000fd5b505050506040513d601f19601f820116820180604052508101906138b491906154a6565b6099805460ff9290921674010000000000000000000000000000000000000000027fffffffffffffffffffffff00ffffffffffffffffffffffffffffffffffffffff9092169190911790555050609880546001600160a01b038087167fffffffffffffffffffffffff000000000000000000000000000000000000000092831617909255609e8054858416908316179055609c805492861692909116919091179055600160a75562259e9d6097558015613974576000805461ff00191690555b5050505050565b6001600160a01b0383166139f65760405162461bcd60e51b8152602060048201526024808201527f45524332303a20617070726f76652066726f6d20746865207a65726f2061646460448201527f72657373000000000000000000000000000000000000000000000000000000006064820152608401610c61565b6001600160a01b038216613a725760405162461bcd60e51b815260206004820152602260248201527f45524332303a20617070726f766520746f20746865207a65726f20616464726560448201527f73730000000000000000000000000000000000000000000000000000000000006064820152608401610c61565b6001600160a01b0383811660008181526034602090815260408083209487168084529482529182902085905590518481527f8c5be1e5ebec7d5bd14f71427d1e84f3dd0314c0f7b2291e5b200ac8c7c3b9259101611613565b8282028315848204841417613adf57600080fd5b0492915050565b60a6548190600090613afa906001906153b9565b90505b600060a68281548110613b1257613b126154f4565b60009182526020808320909101546001600160a01b031680835260a19091526040909120549091507effffffffffffffffffffffffffffffffffffffffffffffffffffffffffffff6101008204169060ff161580613b6e575080155b15613b7a575050613d36565b600081851115613b8a5781613b8c565b845b9050808203613b9a816145b5565b6001600160a01b038516600081815260a160205260409081902080547effffffffffffffffffffffffffffffffffffffffffffffffffffffffffffff949094166101000260ff909416939093179092559051968390039633907f8d851b682e239b1de720e92e5c5cffdb72d353104cc63dc6ed144d7080217fbe90613c229086815260200190565b60405180910390a36040517f2e1a7d4d000000000000000000000000000000000000000000000000000000008152600481018390526001600160a01b03851690632e1a7d4d906024016020604051808303816000875af1158015613c8a573d6000803e3d6000fd5b505050506040513d601f19601f82011682018060405250810190613cae91906154a6565b60ff1615613d245760405162461bcd60e51b815260206004820152602660248201527f70756c6c46726f6d5769746864726177616c51756575653a3a52454445454d5f60448201527f4641494c454400000000000000000000000000000000000000000000000000006064820152608401610c61565b5084613d3257505050613d48565b5050505b80613d40816157bb565b915050613afd565b505060a08054919091039055565b6001600160a01b038216613dd25760405162461bcd60e51b815260206004820152602160248201527f45524332303a206275726e2066726f6d20746865207a65726f2061646472657360448201527f73000000000000000000000000000000000000000000000000000000000000006064820152608401610c61565b6001600160a01b03821660009081526033602052604090205481811015613e615760405162461bcd60e51b815260206004820152602260248201527f45524332303a206275726e20616d6f756e7420657863656564732062616c616e60448201527f63650000000000000000000000000000000000000000000000000000000000006064820152608401610c61565b6001600160a01b0383166000908152603360205260408120838303905560358054849290613e909084906153b9565b90915550506040518281526000906001600160a01b038516907fddf252ad1be2c89b69c2b068fc378daa952ba7f163c4a11628f55a4df523b3ef9060200160405180910390a3505050565b6040516001600160a01b03831660248201526044810182905261261e9084907fa9059cbb00000000000000000000000000000000000000000000000000000000906064015b60408051601f198184030181529190526020810180517bffffffffffffffffffffffffffffffffffffffffffffffffffffffff167fffffffff0000000000000000000000000000000000000000000000000000000090931692909217909152614a2d565b828102821515841585830484141716613f9c57600080fd5b9190910492915050565b6001600160a01b0383166140225760405162461bcd60e51b815260206004820152602560248201527f45524332303a207472616e736665722066726f6d20746865207a65726f20616460448201527f64726573730000000000000000000000000000000000000000000000000000006064820152608401610c61565b6001600160a01b03821661409e5760405162461bcd60e51b815260206004820152602360248201527f45524332303a207472616e7366657220746f20746865207a65726f206164647260448201527f65737300000000000000000000000000000000000000000000000000000000006064820152608401610c61565b6001600160a01b0383166000908152603360205260409020548181101561412d5760405162461bcd60e51b815260206004820152602660248201527f45524332303a207472616e7366657220616d6f756e742065786365656473206260448201527f616c616e636500000000000000000000000000000000000000000000000000006064820152608401610c61565b6001600160a01b038085166000908152603360205260408082208585039055918516815290812080548492906141649084906153a1565b92505081905550826001600160a01b0316846001600160a01b03167fddf252ad1be2c89b69c2b068fc378daa952ba7f163c4a11628f55a4df523b3ef846040516141b091815260200190565b60405180910390a35b50505050565b6098546040517f14d9a9790000000000000000000000000000000000000000000000000000000081523060048201526001600160a01b038086166024830152859216906314d9a97990604401602060405180830381865afa158015614228573d6000803e3d6000fd5b505050506040513d601f19601f8201168201806040525081019061424c9190615324565b6142985760405162461bcd60e51b815260206004820152601460248201527f6572726f723a3a4e4f545f4445504f5349544f520000000000000000000000006044820152606401610c61565b60655460ff16156142eb5760405162461bcd60e51b815260206004820152601060248201527f5061757361626c653a20706175736564000000000000000000000000000000006044820152606401610c61565b600082614310610522876001600160a01b031660009081526033602052604090205490565b61431a91906153a1565b9050600083614327612981565b61433191906153a1565b905060ab548211156143ab5760405162461bcd60e51b815260206004820152602560248201527f5f6465706f7369743a3a555345525f4445504f5349545f4c494d4954535f524560448201527f41434845440000000000000000000000000000000000000000000000000000006064820152608401610c61565b60ac548111156144235760405162461bcd60e51b815260206004820152602660248201527f5f6465706f7369743a3a5641554c545f4445504f5349545f4c494d4954535f5260448201527f45414348454400000000000000000000000000000000000000000000000000006064820152608401610c61565b61442d8686614735565b6040518481526001600160a01b0387169033907f5548c837ab068cf56a2c2479df0882a4922fd203edb7517321831d95078c5f629060200160405180910390a3609954614485906001600160a01b0316333087614b12565b505050505050565b60655460ff16156144e05760405162461bcd60e51b815260206004820152601060248201527f5061757361626c653a20706175736564000000000000000000000000000000006044820152606401610c61565b6065805460ff191660011790557f62e78cea01bee320cd4e420270b5ea74000d11b0c9f74754ebdbfc544b05a2586145153390565b6040516001600160a01b03909116815260200160405180910390a1565b60655460ff166145845760405162461bcd60e51b815260206004820152601460248201527f5061757361626c653a206e6f74207061757365640000000000000000000000006044820152606401610c61565b6065805460ff191690557f5db9ee0a495bf2e6ff9c91a7834c1ba4fdd244a5e8aa4e537bd38aeae4b073aa33614515565b60007effffffffffffffffffffffffffffffffffffffffffffffffffffffffffffff8211156145e357600080fd5b5090565b80158061467a57506040517fdd62ed3e0000000000000000000000000000000000000000000000000000000081523060048201526001600160a01b03838116602483015284169063dd62ed3e90604401602060405180830381865afa158015614654573d6000803e3d6000fd5b505050506040513d601f19601f8201168201806040525081019061467891906153ff565b155b6146ec5760405162461bcd60e51b815260206004820152603660248201527f5361666545524332303a20617070726f76652066726f6d206e6f6e2d7a65726f60448201527f20746f206e6f6e2d7a65726f20616c6c6f77616e6365000000000000000000006064820152608401610c61565b6040516001600160a01b03831660248201526044810182905261261e9084907f095ea7b30000000000000000000000000000000000000000000000000000000090606401613f20565b6001600160a01b03821661478b5760405162461bcd60e51b815260206004820152601f60248201527f45524332303a206d696e7420746f20746865207a65726f2061646472657373006044820152606401610c61565b806035600082825461479d91906153a1565b90915550506001600160a01b038216600090815260336020526040812080548392906147ca9084906153a1565b90915550506040518181526001600160a01b038316906000907fddf252ad1be2c89b69c2b068fc378daa952ba7f163c4a11628f55a4df523b3ef9060200160405180910390a35050565b60006fffffffffffffffffffffffffffffffff8211156145e357600080fd5b6000831580614840575082155b61487c578160975461485291906157d2565b609a546148629085908790613f84565b61486c919061580d565b61487790606461580d565b61487f565b60005b949350505050565b600054610100900460ff16806148a0575060005460ff16155b6149125760405162461bcd60e51b815260206004820152602e60248201527f496e697469616c697a61626c653a20636f6e747261637420697320616c72656160448201527f647920696e697469616c697a65640000000000000000000000000000000000006064820152608401610c61565b600054610100900460ff16158015614934576000805461ffff19166101011790555b61493c614b63565b6149468383614c23565b801561261e576000805461ff0019169055505050565b600054610100900460ff1680614975575060005460ff16155b6149e75760405162461bcd60e51b815260206004820152602e60248201527f496e697469616c697a61626c653a20636f6e747261637420697320616c72656160448201527f647920696e697469616c697a65640000000000000000000000000000000000006064820152608401610c61565b600054610100900460ff16158015614a09576000805461ffff19166101011790555b614a11614b63565b614a19614d0e565b80156118d1576000805461ff001916905550565b6000614a82826040518060400160405280602081526020017f5361666545524332303a206c6f772d6c6576656c2063616c6c206661696c6564815250856001600160a01b0316614dd99092919063ffffffff16565b80519091501561261e5780806020019051810190614aa09190615324565b61261e5760405162461bcd60e51b815260206004820152602a60248201527f5361666545524332303a204552433230206f7065726174696f6e20646964206e60448201527f6f742073756363656564000000000000000000000000000000000000000000006064820152608401610c61565b6040516001600160a01b03808516602483015283166044820152606481018290526141b99085907f23b872dd0000000000000000000000000000000000000000000000000000000090608401613f20565b600054610100900460ff1680614b7c575060005460ff16155b614bee5760405162461bcd60e51b815260206004820152602e60248201527f496e697469616c697a61626c653a20636f6e747261637420697320616c72656160448201527f647920696e697469616c697a65640000000000000000000000000000000000006064820152608401610c61565b600054610100900460ff16158015614a19576000805461ffff191661010117905580156118d1576000805461ff001916905550565b600054610100900460ff1680614c3c575060005460ff16155b614cae5760405162461bcd60e51b815260206004820152602e60248201527f496e697469616c697a61626c653a20636f6e747261637420697320616c72656160448201527f647920696e697469616c697a65640000000000000000000000000000000000006064820152608401610c61565b600054610100900460ff16158015614cd0576000805461ffff19166101011790555b8251614ce3906036906020860190614f5b565b508151614cf7906037906020850190614f5b565b50801561261e576000805461ff0019169055505050565b600054610100900460ff1680614d27575060005460ff16155b614d995760405162461bcd60e51b815260206004820152602e60248201527f496e697469616c697a61626c653a20636f6e747261637420697320616c72656160448201527f647920696e697469616c697a65640000000000000000000000000000000000006064820152608401610c61565b600054610100900460ff16158015614dbb576000805461ffff19166101011790555b6065805460ff1916905580156118d1576000805461ff001916905550565b606061487f848460008585843b614e325760405162461bcd60e51b815260206004820152601d60248201527f416464726573733a2063616c6c20746f206e6f6e2d636f6e74726163740000006044820152606401610c61565b600080866001600160a01b03168587604051614e4e919061582c565b60006040518083038185875af1925050503d8060008114614e8b576040519150601f19603f3d011682016040523d82523d6000602084013e614e90565b606091505b5091509150614ea0828286614eab565b979650505050505050565b60608315614eba57508161133f565b825115614eca5782518084602001fd5b8160405162461bcd60e51b8152600401610c619190615010565b828054828255906000526020600020908101928215614f4f579160200282015b82811115614f4f5781547fffffffffffffffffffffffff0000000000000000000000000000000000000000166001600160a01b03843516178255602090920191600190910190614f04565b506145e3929150614fcf565b828054614f67906152d0565b90600052602060002090601f016020900481019282614f895760008555614f4f565b82601f10614fa257805160ff1916838001178555614f4f565b82800160010185558215614f4f579182015b82811115614f4f578251825591602001919060010190614fb4565b5b808211156145e35760008155600101614fd0565b60005b83811015614fff578181015183820152602001614fe7565b838111156141b95750506000910152565b602081526000825180602084015261502f816040850160208701614fe4565b601f01601f19169190910160400192915050565b60006020828403121561505557600080fd5b81356fffffffffffffffffffffffffffffffff8116811461133f57600080fd5b6001600160a01b03811681146118d157600080fd5b6000806040838503121561509d57600080fd5b82356150a881615075565b946020939093013593505050565b6020808252825182820181905260009190848201906040850190845b818110156150f75783516001600160a01b0316835292840192918401916001016150d2565b50909695505050505050565b60006020828403121561511557600080fd5b5035919050565b60006020828403121561512e57600080fd5b813561133f81615075565b60008060006060848603121561514e57600080fd5b833561515981615075565b9250602084013561516981615075565b929592945050506040919091013590565b6000806040838503121561518d57600080fd5b50508035926020909101359150565b6000602082840312156151ae57600080fd5b813567ffffffffffffffff8116811461133f57600080fd5b600080602083850312156151d957600080fd5b823567ffffffffffffffff808211156151f157600080fd5b818501915085601f83011261520557600080fd5b81358181111561521457600080fd5b8660208260051b850101111561522957600080fd5b60209290920196919550909350505050565b6000806040838503121561524e57600080fd5b823561525981615075565b9150602083013561526981615075565b809150509250929050565b6000806000806080858703121561528a57600080fd5b843561529581615075565b935060208501356152a581615075565b925060408501356152b581615075565b915060608501356152c581615075565b939692955090935050565b600181811c908216806152e457607f821691505b6020821081141561531e577f4e487b7100000000000000000000000000000000000000000000000000000000600052602260045260246000fd5b50919050565b60006020828403121561533657600080fd5b8151801515811461133f57600080fd5b7f4e487b7100000000000000000000000000000000000000000000000000000000600052601160045260246000fd5b600067ffffffffffffffff80831681851680830382111561539857615398615346565b01949350505050565b600082198211156153b4576153b4615346565b500190565b6000828210156153cb576153cb615346565b500390565b7f4e487b7100000000000000000000000000000000000000000000000000000000600052601260045260246000fd5b60006020828403121561541157600080fd5b5051919050565b60208082528181018390526000908460408401835b8681101561545b57823561544081615075565b6001600160a01b03168252918301919083019060010161542d565b509695505050505050565b60007effffffffffffffffffffffffffffffffffffffffffffffffffffffffffffff8381169083168181101561549e5761549e615346565b039392505050565b6000602082840312156154b857600080fd5b815160ff8116811461133f57600080fd5b60006fffffffffffffffffffffffffffffffff80831681851680830382111561539857615398615346565b7f4e487b7100000000000000000000000000000000000000000000000000000000600052603260045260246000fd5b600060001982141561553757615537615346565b5060010190565b60006020828403121561555057600080fd5b815161133f81615075565b7f4e487b7100000000000000000000000000000000000000000000000000000000600052604160045260246000fd5b60006020828403121561559c57600080fd5b815167ffffffffffffffff808211156155b457600080fd5b818401915084601f8301126155c857600080fd5b8151818111156155da576155da61555b565b604051601f8201601f19908116603f011681019083821181831017156156025761560261555b565b8160405282815287602084870101111561561b57600080fd5b614ea0836020830160208801614fe4565b6000845161563e818460208901614fe4565b80830190507f2000000000000000000000000000000000000000000000000000000000000000808252855161567a816001850160208a01614fe4565b60019201918201528351615695816002840160208801614fe4565b0160020195945050505050565b600083516156b4818460208801614fe4565b835190830190615398818360208801614fe4565b600181815b808511156157035781600019048211156156e9576156e9615346565b808516156156f657918102915b93841c93908002906156cd565b509250929050565b60008261571a57506001610d9a565b8161572757506000610d9a565b816001811461573d576002811461574757615763565b6001915050610d9a565b60ff84111561575857615758615346565b50506001821b610d9a565b5060208310610133831016604e8410600b8410161715615786575081810a610d9a565b61579083836156c8565b80600019048211156157a4576157a4615346565b029392505050565b600061133f60ff84168361570b565b6000816157ca576157ca615346565b506000190190565b600082615808577f4e487b7100000000000000000000000000000000000000000000000000000000600052601260045260246000fd5b500490565b600081600019048311821515161561582757615827615346565b500290565b6000825161583e818460208701614fe4565b919091019291505056fea26469706673582212208756f13ff6a03bcb8fae94e77d6a69a747aa90c9acd90a598c14f2974feb825364736f6c634300080a0033",
  "bytecodeSha1": "51540962b39cc41b93d875e35d43c3235a4be0e6",
  "compiler": {
    "evm_version": "istanbul",
    "optimizer": {
      "enabled": true,
      "runs": 9999
    },
    "version": "0.8.10+commit.fc410830"
  },
  "contractName": "Vault",
  "language": "Solidity",
  "natspec": {
    "author": "dantop114",
    "kind": "dev",
    "methods": {
      "BASE_UNIT()": {
        "notice": "The base unit of the underlying token and hence the Vault share token."
      },
      "BLOCKS_PER_YEAR()": {
        "notice": "Blocks mined in a year."
      },
      "allowance(address,address)": {
        "details": "See {IERC20-allowance}."
      },
      "approve(address,uint256)": {
        "details": "See {IERC20-approve}. Requirements: - `spender` cannot be the zero address."
      },
      "auth()": {
        "notice": "Vault Auth module."
      },
      "balanceOf(address)": {
        "details": "See {IERC20-balanceOf}."
      },
      "balanceOfUnderlying(address)": {
        "notice": "Returns a user's Vault balance in underlying tokens.",
        "params": {
          "user": "THe user to get the underlying balance of."
        },
        "returns": {
          "_0": "The user's Vault balance in underlying tokens."
        }
      },
      "batchBurnBalance()": {
        "notice": "Balance reserved to batched burning withdrawals."
      },
      "batchBurnRound()": {
        "notice": "Current batched burning round."
      },
      "batchBurns(uint256)": {
        "notice": "Maps social burning events rounds to batched burn details."
      },
      "burningFeePercent()": {
        "notice": "The percentage of shares recognized each burning to reserve as fees."
      },
      "burningFeeReceiver()": {
        "notice": "The address receiving burning fees (denominated in Vault's shares)."
      },
      "calculateShares(uint256)": {
        "notice": "Calculates the amount of Vault's shares for a given amount of underlying tokens.",
        "params": {
          "underlyingAmount": "The underlying token's amount."
        },
        "returns": {
          "_0": "The amount of shares given `underlyingAmount`."
        }
      },
      "calculateUnderlying(uint256)": {
        "notice": "Calculates the amount of underlying tokens corresponding to a given amount of Vault's shares.",
        "params": {
          "sharesAmount": "The shares amount."
        },
        "returns": {
          "_0": "The amount of underlying given `sharesAmount`."
        }
      },
      "decimals()": {
        "details": "Needed because Openzeppelin's logic for decimals.",
        "notice": "Overrides `decimals` method.",
        "returns": {
          "_0": "Vault's shares token decimals (underlying token decimals)."
        }
      },
      "decreaseAllowance(address,uint256)": {
        "details": "Atomically decreases the allowance granted to `spender` by the caller. This is an alternative to {approve} that can be used as a mitigation for problems described in {IERC20-approve}. Emits an {Approval} event indicating the updated allowance. Requirements: - `spender` cannot be the zero address. - `spender` must have allowance for the caller of at least `subtractedValue`."
      },
      "deposit(address,uint256)": {
        "details": "User needs to approve `underlyingAmount` of underlying tokens to spend.",
        "notice": "Deposit a specific amount of underlying tokens.",
        "params": {
          "to": "The address to receive shares corresponding to the deposit.",
          "underlyingAmount": "The amount of the underlying token to deposit."
        },
        "returns": {
          "shares": "The amount of shares minted using `underlyingAmount`."
        }
      },
      "depositIntoStrategy(address,uint256)": {
        "notice": "Deposit a specific amount of float into a trusted strategy.",
        "params": {
          "strategy": "The trusted strategy to deposit into.",
          "underlyingAmount": "The amount of underlying tokens in float to deposit."
        }
      },
      "distrustStrategy(address)": {
        "notice": "Store a strategy as untrusted, disabling it from being harvested.",
        "params": {
          "strategy": "The strategy to make untrusted."
        }
      },
      "enterBatchBurn(uint256)": {
        "details": "Each user can take part to one batched burn event a time.User's shares amount will be staked until the burn happens.",
        "notice": "Enter a batched burn event.",
        "params": {
          "shares": "Shares to withdraw during the next batched burn event."
        }
      },
      "estimatedReturn()": {
        "notice": "Estimated return recorded during last harvest."
      },
      "exchangeRate()": {
        "notice": "Returns the amount of underlying tokens a share can be redeemed for.",
        "returns": {
          "_0": "The amount of underlying tokens a share can be redeemed for."
        }
      },
      "execBatchBurn()": {
        "notice": "Execute batched burns"
      },
      "exitBatchBurn()": {
        "notice": "Withdraw underlying redeemed in batched burning events."
      },
      "getStrategyData(address)": {
        "notice": "Maps strategies to data the Vault holds on them."
      },
      "getWithdrawalQueue()": {
        "details": "This is provided because Solidity converts public arrays into index getters, but we need a way to allow external contracts and users to access the whole array.",
        "notice": "Gets the full withdrawal queue.",
        "returns": {
          "_0": "An ordered array of strategies representing the withdrawal queue."
        }
      },
      "harvest(address[])": {
        "details": "Will always revert if called outside of an active harvest window or before the harvest delay has passed.",
        "notice": "Harvest a set of trusted strategies.",
        "params": {
          "strategies": "The trusted strategies to harvest."
        }
      },
      "harvestDelay()": {
        "notice": "The period in seconds over which locked profit is unlocked."
      },
      "harvestFeePercent()": {
        "notice": "The percentage of profit recognized each harvest to reserve as fees."
      },
      "harvestFeeReceiver()": {
        "notice": "The address receiving harvest fees (denominated in Vault's shares)."
      },
      "harvestWindow()": {
        "notice": "The period in seconds during which multiple harvests can occur regardless if they are taking place before the harvest delay has elapsed."
      },
      "increaseAllowance(address,uint256)": {
        "details": "Atomically increases the allowance granted to `spender` by the caller. This is an alternative to {approve} that can be used as a mitigation for problems described in {IERC20-approve}. Emits an {Approval} event indicating the updated allowance. Requirements: - `spender` cannot be the zero address."
      },
      "initialize(address,address,address,address)": {
        "notice": "The initialize method",
        "params": {
          "underlying_": "The underlying token the vault accepts"
        }
      },
      "lastHarvest()": {
        "notice": "A timestamp representing when the most recent harvest occurred."
      },
      "lastHarvestExchangeRate()": {
        "notice": "Exchange rate at the beginning of latest harvest window"
      },
      "lastHarvestIntervalInBlocks()": {
        "notice": "Latest harvest interval in blocks"
      },
      "lastHarvestWindowStart()": {
        "notice": "A timestamp representing when the first harvest in the most recent harvest window occurred."
      },
      "lastHarvestWindowStartBlock()": {
        "notice": "The block number when the first harvest in the most recent harvest window occurred."
      },
      "lockedProfit()": {
        "notice": "Calculate the current amount of locked profit.",
        "returns": {
          "_0": "The current amount of locked profit."
        }
      },
      "maxLockedProfit()": {
        "notice": "The amount of locked profit at the end of the last harvest."
      },
      "mint(address,uint256)": {
        "details": "User needs to approve `underlyingAmount` of underlying tokens to spend.",
        "notice": "Deposit a specific amount of underlying tokens.",
        "params": {
          "shares": "The amount of Vault's shares to mint.",
          "to": "The address to receive shares corresponding to the deposit."
        },
        "returns": {
          "underlyingAmount": "The amount needed to mint `shares` amount of shares."
        }
      },
      "name()": {
        "details": "Returns the name of the token."
      },
      "nextHarvestDelay()": {
        "notice": "The value that will replace harvestDelay next harvest."
      },
      "paused()": {
        "details": "Returns true if the contract is paused, and false otherwise."
      },
      "setAuth(address)": {
        "notice": "Set a new IVaultAuth module.",
        "params": {
          "newAuth": "The new IVaultAuth module."
        }
      },
      "setBatchedBurningFeePercent(uint256)": {
        "notice": "Set a new burning fee percentage.",
        "params": {
          "newFeePercent": "The new fee percentage."
        }
      },
      "setBlocksPerYear(uint256)": {
        "notice": "Sets blocks per year.",
        "params": {
          "blocks": "Blocks in a given year."
        }
      },
      "setBurningFeeReceiver(address)": {
        "notice": "Set a new burning fees receiver.",
        "params": {
          "burningFeeReceiver_": "The new burning fees receiver."
        }
      },
      "setDepositLimits(uint256,uint256)": {
        "notice": "Set new deposit limits for this vault.",
        "params": {
          "user": "New user deposit limit.",
          "vault": "New vault deposit limit."
        }
      },
      "setHarvestDelay(uint64)": {
        "details": "If the current harvest delay is 0, meaning it has not been set before, it will be updated immediately; otherwise it will be scheduled to take effect after the next harvest.",
        "notice": "Set a new harvest delay delay.",
        "params": {
          "newHarvestDelay": "The new harvest delay to set."
        }
      },
      "setHarvestFeePercent(uint256)": {
        "notice": "Set a new fee percentage.",
        "params": {
          "newFeePercent": "The new fee percentage."
        }
      },
      "setHarvestFeeReceiver(address)": {
        "notice": "Set a new harvest fees receiver.",
        "params": {
          "harvestFeeReceiver_": "The new harvest fees receiver."
        }
      },
      "setHarvestWindow(uint128)": {
        "details": "The Vault's harvestDelay must already be set before calling.",
        "notice": "Set a new harvest window.",
        "params": {
          "newHarvestWindow": "The new harvest window."
        }
      },
      "setWithdrawalQueue(address[])": {
        "details": "Strategies that are untrusted, duplicated, or have no balance are filtered out when encountered at withdrawal time, not validated upfront.",
        "notice": "Set the withdrawal queue.",
        "params": {
          "newQueue": "The new withdrawal queue."
        }
      },
      "symbol()": {
        "details": "Returns the symbol of the token, usually a shorter version of the name."
      },
      "totalFloat()": {
        "notice": "Returns the amount of underlying tokens that idly sit in the Vault.",
        "returns": {
          "_0": "The amount of underlying tokens that sit idly in the Vault."
        }
      },
      "totalStrategyHoldings()": {
        "notice": "The total amount of underlying tokens held in strategies at the time of the last harvest."
      },
      "totalSupply()": {
        "details": "See {IERC20-totalSupply}."
      },
      "totalUnderlying()": {
        "notice": "Calculates the total amount of underlying tokens the Vault holds.",
        "returns": {
          "totalUnderlyingHeld": "The total amount of underlying tokens the Vault holds."
        }
      },
      "transfer(address,uint256)": {
        "details": "See {IERC20-transfer}. Requirements: - `recipient` cannot be the zero address. - the caller must have a balance of at least `amount`."
      },
      "transferFrom(address,address,uint256)": {
        "details": "See {IERC20-transferFrom}. Emits an {Approval} event indicating the updated allowance. This is not required by the EIP. See the note at the beginning of {ERC20}. Requirements: - `sender` and `recipient` cannot be the zero address. - `sender` must have a balance of at least `amount`. - the caller must have allowance for ``sender``'s tokens of at least `amount`."
      },
      "triggerPause()": {
        "details": "Only owner can call this method.",
        "notice": "Triggers the Vault's pause"
      },
      "trustStrategy(address)": {
        "notice": "Store a strategy as trusted, enabling it to be harvested.",
        "params": {
          "strategy": "The strategy to make trusted."
        }
      },
      "underlying()": {
        "notice": "The underlying token the vault accepts."
      },
      "underlyingDecimals()": {
        "notice": "The underlying token decimals."
      },
      "userBatchBurnReceipts(address)": {
        "notice": "Maps user's address to withdrawal request."
      },
      "userDepositLimit()": {
        "notice": "Amount of shares a single address can hold."
      },
      "vaultDepositLimit()": {
        "notice": "Amount of underlying cap for this vault."
      },
      "version()": {
        "notice": "Vault's API version."
      },
      "withdrawFromStrategy(address,uint256)": {
        "details": "Withdrawing from a strategy will not remove it from the withdrawal queue.",
        "notice": "Withdraw a specific amount of underlying tokens from a strategy.",
        "params": {
          "strategy": "The strategy to withdraw from.",
          "underlyingAmount": "The amount of underlying tokens to withdraw."
        }
      },
      "withdrawalQueue(uint256)": {
        "notice": "An ordered array of strategies representing the withdrawal queue."
      }
    },
    "notice": "A vault seeking for yield.",
    "stateVariables": {
      "BASE_UNIT": {
        "details": "Equal to 10 ** underlyingDecimals. Used for fixed point arithmetic."
      },
      "burningFeePercent": {
        "details": "A fixed point number where 1e18 represents 100% and 0 represents 0%."
      },
      "harvestDelay": {
        "details": "Cannot be 0 as it opens harvests up to sandwich attacks."
      },
      "harvestFeePercent": {
        "details": "A fixed point number where 1e18 represents 100% and 0 represents 0%."
      },
      "harvestWindow": {
        "details": "Long harvest delays open up the Vault to profit distribution DOS attacks."
      },
      "lastHarvestWindowStart": {
        "details": "May be equal to lastHarvest if there was/has only been one harvest in the most last/current window."
      },
      "nextHarvestDelay": {
        "details": "In the case that the next delay is 0, no update will be applied."
      },
      "totalStrategyHoldings": {
        "details": "Includes maxLockedProfit, must be correctly subtracted to compute available/free holdings."
      },
      "withdrawalQueue": {
        "details": "The queue is processed in descending order, meaning the last index will be withdrawn from first.Strategies that are untrusted, duplicated, or have no balance are filtered out when encountered at withdrawal time, not validated upfront, meaning the queue may not reflect the \"true\" set used for withdrawals."
      }
    },
    "title": "Vault",
    "version": 1
  },
  "opcodes": "PUSH1 0x80 PUSH1 0x40 MSTORE CALLVALUE DUP1 ISZERO PUSH2 0x10 JUMPI PUSH1 0x0 DUP1 REVERT JUMPDEST POP PUSH1 0x4 CALLDATASIZE LT PUSH2 0x48D JUMPI PUSH1 0x0 CALLDATALOAD PUSH1 0xE0 SHR DUP1 PUSH4 0x793101A5 GT PUSH2 0x26B JUMPI DUP1 PUSH4 0xC822ADDA GT PUSH2 0x150 JUMPI DUP1 PUSH4 0xE33CC0A8 GT PUSH2 0xC8 JUMPI DUP1 PUSH4 0xECC404B5 GT PUSH2 0x97 JUMPI DUP1 PUSH4 0xF1A392DA GT PUSH2 0x7C JUMPI DUP1 PUSH4 0xF1A392DA EQ PUSH2 0xAC5 JUMPI DUP1 PUSH4 0xF8C8765E EQ PUSH2 0xAE5 JUMPI DUP1 PUSH4 0xF97D2ED7 EQ PUSH2 0xAF8 JUMPI PUSH1 0x0 DUP1 REVERT JUMPDEST DUP1 PUSH4 0xECC404B5 EQ PUSH2 0xA9E JUMPI DUP1 PUSH4 0xEED74E67 EQ PUSH2 0xAB1 JUMPI PUSH1 0x0 DUP1 REVERT JUMPDEST DUP1 PUSH4 0xE33CC0A8 EQ PUSH2 0xA66 JUMPI DUP1 PUSH4 0xE5FA2B70 EQ PUSH2 0xA6F JUMPI DUP1 PUSH4 0xEC523AFD EQ PUSH2 0xA82 JUMPI DUP1 PUSH4 0xECAD9565 EQ PUSH2 0xA95 JUMPI PUSH1 0x0 DUP1 REVERT JUMPDEST DUP1 PUSH4 0xD00364BE GT PUSH2 0x11F JUMPI DUP1 PUSH4 0xDD11DD45 GT PUSH2 0x104 JUMPI DUP1 PUSH4 0xDD11DD45 EQ PUSH2 0xA07 JUMPI DUP1 PUSH4 0xDD62ED3E EQ PUSH2 0xA1A JUMPI DUP1 PUSH4 0xDE9375F2 EQ PUSH2 0xA53 JUMPI PUSH1 0x0 DUP1 REVERT JUMPDEST DUP1 PUSH4 0xD00364BE EQ PUSH2 0x9AD JUMPI DUP1 PUSH4 0xD37DB1D2 EQ PUSH2 0x9FE JUMPI PUSH1 0x0 DUP1 REVERT JUMPDEST DUP1 PUSH4 0xC822ADDA EQ PUSH2 0x961 JUMPI DUP1 PUSH4 0xC866983B EQ PUSH2 0x974 JUMPI DUP1 PUSH4 0xC89D3460 EQ PUSH2 0x987 JUMPI DUP1 PUSH4 0xCBC43F89 EQ PUSH2 0x99A JUMPI PUSH1 0x0 DUP1 REVERT JUMPDEST DUP1 PUSH4 0x95D89B41 GT PUSH2 0x1E3 JUMPI DUP1 PUSH4 0xAC579B77 GT PUSH2 0x1B2 JUMPI DUP1 PUSH4 0xB53D0958 GT PUSH2 0x197 JUMPI DUP1 PUSH4 0xB53D0958 EQ PUSH2 0x933 JUMPI DUP1 PUSH4 0xBDF06C8E EQ PUSH2 0x946 JUMPI DUP1 PUSH4 0xC70920BC EQ PUSH2 0x959 JUMPI PUSH1 0x0 DUP1 REVERT JUMPDEST DUP1 PUSH4 0xAC579B77 EQ PUSH2 0x90D JUMPI DUP1 PUSH4 0xAC86AC72 EQ PUSH2 0x920 JUMPI PUSH1 0x0 DUP1 REVERT JUMPDEST DUP1 PUSH4 0x95D89B41 EQ PUSH2 0x8D6 JUMPI DUP1 PUSH4 0x9EE02C7F EQ PUSH2 0x8DE JUMPI DUP1 PUSH4 0xA457C2D7 EQ PUSH2 0x8E7 JUMPI DUP1 PUSH4 0xA9059CBB EQ PUSH2 0x8FA JUMPI PUSH1 0x0 DUP1 REVERT JUMPDEST DUP1 PUSH4 0x836CA0F6 GT PUSH2 0x23A JUMPI DUP1 PUSH4 0x86DC4800 GT PUSH2 0x21F JUMPI DUP1 PUSH4 0x86DC4800 EQ PUSH2 0x89D JUMPI DUP1 PUSH4 0x912F74CD EQ PUSH2 0x8A6 JUMPI DUP1 PUSH4 0x9291DF6B EQ PUSH2 0x8CD JUMPI PUSH1 0x0 DUP1 REVERT JUMPDEST DUP1 PUSH4 0x836CA0F6 EQ PUSH2 0x88C JUMPI DUP1 PUSH4 0x841219E5 EQ PUSH2 0x895 JUMPI PUSH1 0x0 DUP1 REVERT JUMPDEST DUP1 PUSH4 0x793101A5 EQ PUSH2 0x82E JUMPI DUP1 PUSH4 0x797BA463 EQ PUSH2 0x836 JUMPI DUP1 PUSH4 0x7B72AEB9 EQ PUSH2 0x866 JUMPI DUP1 PUSH4 0x7CCFB43F EQ PUSH2 0x879 JUMPI PUSH1 0x0 DUP1 REVERT JUMPDEST DUP1 PUSH4 0x39509351 GT PUSH2 0x391 JUMPI DUP1 PUSH4 0x4EDDEA06 GT PUSH2 0x309 JUMPI DUP1 PUSH4 0x63874446 GT PUSH2 0x2D8 JUMPI DUP1 PUSH4 0x6BD95612 GT PUSH2 0x2BD JUMPI DUP1 PUSH4 0x6BD95612 EQ PUSH2 0x7D1 JUMPI DUP1 PUSH4 0x6F307DC3 EQ PUSH2 0x7DA JUMPI DUP1 PUSH4 0x70A08231 EQ PUSH2 0x805 JUMPI PUSH1 0x0 DUP1 REVERT JUMPDEST DUP1 PUSH4 0x63874446 EQ PUSH2 0x7C0 JUMPI DUP1 PUSH4 0x6833F60D EQ PUSH2 0x7C9 JUMPI PUSH1 0x0 DUP1 REVERT JUMPDEST DUP1 PUSH4 0x4EDDEA06 EQ PUSH2 0x75D JUMPI DUP1 PUSH4 0x54FD4D50 EQ PUSH2 0x770 JUMPI DUP1 PUSH4 0x5C975ABB EQ PUSH2 0x7AC JUMPI DUP1 PUSH4 0x5E4F9451 EQ PUSH2 0x7B7 JUMPI PUSH1 0x0 DUP1 REVERT JUMPDEST DUP1 PUSH4 0x3EC16194 GT PUSH2 0x360 JUMPI DUP1 PUSH4 0x448F56B9 GT PUSH2 0x345 JUMPI DUP1 PUSH4 0x448F56B9 EQ PUSH2 0x701 JUMPI DUP1 PUSH4 0x44B81396 EQ PUSH2 0x742 JUMPI DUP1 PUSH4 0x47E7EF24 EQ PUSH2 0x74A JUMPI PUSH1 0x0 DUP1 REVERT JUMPDEST DUP1 PUSH4 0x3EC16194 EQ PUSH2 0x6DB JUMPI DUP1 PUSH4 0x40C10F19 EQ PUSH2 0x6EE JUMPI PUSH1 0x0 DUP1 REVERT JUMPDEST DUP1 PUSH4 0x39509351 EQ PUSH2 0x69A JUMPI DUP1 PUSH4 0x3AF9E669 EQ PUSH2 0x6AD JUMPI DUP1 PUSH4 0x3BA0B9A9 EQ PUSH2 0x6C0 JUMPI DUP1 PUSH4 0x3C66A8FA EQ PUSH2 0x6C8 JUMPI PUSH1 0x0 DUP1 REVERT JUMPDEST DUP1 PUSH4 0x18160DDD GT PUSH2 0x424 JUMPI DUP1 PUSH4 0x25A760C2 GT PUSH2 0x3F3 JUMPI DUP1 PUSH4 0x2B2E05C1 GT PUSH2 0x3D8 JUMPI DUP1 PUSH4 0x2B2E05C1 EQ PUSH2 0x65B JUMPI DUP1 PUSH4 0x31024F3B EQ PUSH2 0x66E JUMPI DUP1 PUSH4 0x313CE567 EQ PUSH2 0x677 JUMPI PUSH1 0x0 DUP1 REVERT JUMPDEST DUP1 PUSH4 0x25A760C2 EQ PUSH2 0x5A2 JUMPI DUP1 PUSH4 0x2968676E EQ PUSH2 0x5D9 JUMPI PUSH1 0x0 DUP1 REVERT JUMPDEST DUP1 PUSH4 0x18160DDD EQ PUSH2 0x576 JUMPI DUP1 PUSH4 0x1BBA16DB EQ PUSH2 0x57E JUMPI DUP1 PUSH4 0x1EC36BFA EQ PUSH2 0x586 JUMPI DUP1 PUSH4 0x23B872DD EQ PUSH2 0x58F JUMPI PUSH1 0x0 DUP1 REVERT JUMPDEST DUP1 PUSH4 0xE962F00 GT PUSH2 0x460 JUMPI DUP1 PUSH4 0xE962F00 EQ PUSH2 0x4FD JUMPI DUP1 PUSH4 0x11E57A3E EQ PUSH2 0x514 JUMPI DUP1 PUSH4 0x13E86B28 EQ PUSH2 0x527 JUMPI DUP1 PUSH4 0x14FBAE04 EQ PUSH2 0x53A JUMPI PUSH1 0x0 DUP1 REVERT JUMPDEST DUP1 PUSH4 0x6FDDE03 EQ PUSH2 0x492 JUMPI DUP1 PUSH4 0x7B35D1D EQ PUSH2 0x4B0 JUMPI DUP1 PUSH4 0x95EA7B3 EQ PUSH2 0x4C5 JUMPI DUP1 PUSH4 0xE73ECEF EQ PUSH2 0x4E8 JUMPI JUMPDEST PUSH1 0x0 DUP1 REVERT JUMPDEST PUSH2 0x49A PUSH2 0xB14 JUMP JUMPDEST PUSH1 0x40 MLOAD PUSH2 0x4A7 SWAP2 SWAP1 PUSH2 0x5010 JUMP JUMPDEST PUSH1 0x40 MLOAD DUP1 SWAP2 SUB SWAP1 RETURN JUMPDEST PUSH2 0x4C3 PUSH2 0x4BE CALLDATASIZE PUSH1 0x4 PUSH2 0x5043 JUMP JUMPDEST PUSH2 0xBA6 JUMP JUMPDEST STOP JUMPDEST PUSH2 0x4D8 PUSH2 0x4D3 CALLDATASIZE PUSH1 0x4 PUSH2 0x508A JUMP JUMPDEST PUSH2 0xD89 JUMP JUMPDEST PUSH1 0x40 MLOAD SWAP1 ISZERO ISZERO DUP2 MSTORE PUSH1 0x20 ADD PUSH2 0x4A7 JUMP JUMPDEST PUSH2 0x4F0 PUSH2 0xDA0 JUMP JUMPDEST PUSH1 0x40 MLOAD PUSH2 0x4A7 SWAP2 SWAP1 PUSH2 0x50B6 JUMP JUMPDEST PUSH2 0x506 PUSH1 0x9A SLOAD DUP2 JUMP JUMPDEST PUSH1 0x40 MLOAD SWAP1 DUP2 MSTORE PUSH1 0x20 ADD PUSH2 0x4A7 JUMP JUMPDEST PUSH2 0x506 PUSH2 0x522 CALLDATASIZE PUSH1 0x4 PUSH2 0x5103 JUMP JUMPDEST PUSH2 0xE01 JUMP JUMPDEST PUSH2 0x4C3 PUSH2 0x535 CALLDATASIZE PUSH1 0x4 PUSH2 0x511C JUMP JUMPDEST PUSH2 0xE19 JUMP JUMPDEST PUSH2 0x561 PUSH2 0x548 CALLDATASIZE PUSH1 0x4 PUSH2 0x5103 JUMP JUMPDEST PUSH1 0xAA PUSH1 0x20 MSTORE PUSH1 0x0 SWAP1 DUP2 MSTORE PUSH1 0x40 SWAP1 KECCAK256 DUP1 SLOAD PUSH1 0x1 SWAP1 SWAP2 ADD SLOAD DUP3 JUMP JUMPDEST PUSH1 0x40 DUP1 MLOAD SWAP3 DUP4 MSTORE PUSH1 0x20 DUP4 ADD SWAP2 SWAP1 SWAP2 MSTORE ADD PUSH2 0x4A7 JUMP JUMPDEST PUSH1 0x35 SLOAD PUSH2 0x506 JUMP JUMPDEST PUSH2 0x4C3 PUSH2 0xF3B JUMP JUMPDEST PUSH2 0x506 PUSH1 0xAB SLOAD DUP2 JUMP JUMPDEST PUSH2 0x4D8 PUSH2 0x59D CALLDATASIZE PUSH1 0x4 PUSH2 0x5139 JUMP JUMPDEST PUSH2 0x1285 JUMP JUMPDEST PUSH1 0x99 SLOAD PUSH2 0x5C7 SWAP1 PUSH21 0x10000000000000000000000000000000000000000 SWAP1 DIV PUSH1 0xFF AND DUP2 JUMP JUMPDEST PUSH1 0x40 MLOAD PUSH1 0xFF SWAP1 SWAP2 AND DUP2 MSTORE PUSH1 0x20 ADD PUSH2 0x4A7 JUMP JUMPDEST PUSH2 0x624 PUSH2 0x5E7 CALLDATASIZE PUSH1 0x4 PUSH2 0x511C JUMP JUMPDEST PUSH1 0xA1 PUSH1 0x20 MSTORE PUSH1 0x0 SWAP1 DUP2 MSTORE PUSH1 0x40 SWAP1 KECCAK256 SLOAD PUSH1 0xFF DUP2 AND SWAP1 PUSH2 0x100 SWAP1 DIV PUSH31 0xFFFFFFFFFFFFFFFFFFFFFFFFFFFFFFFFFFFFFFFFFFFFFFFFFFFFFFFFFFFFFF AND DUP3 JUMP JUMPDEST PUSH1 0x40 DUP1 MLOAD SWAP3 ISZERO ISZERO DUP4 MSTORE PUSH31 0xFFFFFFFFFFFFFFFFFFFFFFFFFFFFFFFFFFFFFFFFFFFFFFFFFFFFFFFFFFFFFF SWAP1 SWAP2 AND PUSH1 0x20 DUP4 ADD MSTORE ADD PUSH2 0x4A7 JUMP JUMPDEST PUSH2 0x4C3 PUSH2 0x669 CALLDATASIZE PUSH1 0x4 PUSH2 0x511C JUMP JUMPDEST PUSH2 0x1346 JUMP JUMPDEST PUSH2 0x506 PUSH1 0x9D SLOAD DUP2 JUMP JUMPDEST PUSH1 0x99 SLOAD PUSH21 0x10000000000000000000000000000000000000000 SWAP1 DIV PUSH1 0xFF AND PUSH2 0x5C7 JUMP JUMPDEST PUSH2 0x4D8 PUSH2 0x6A8 CALLDATASIZE PUSH1 0x4 PUSH2 0x508A JUMP JUMPDEST PUSH2 0x146B JUMP JUMPDEST PUSH2 0x506 PUSH2 0x6BB CALLDATASIZE PUSH1 0x4 PUSH2 0x511C JUMP JUMPDEST PUSH2 0x14A7 JUMP JUMPDEST PUSH2 0x506 PUSH2 0x14C9 JUMP JUMPDEST PUSH2 0x4C3 PUSH2 0x6D6 CALLDATASIZE PUSH1 0x4 PUSH2 0x5103 JUMP JUMPDEST PUSH2 0x1500 JUMP JUMPDEST PUSH2 0x506 PUSH2 0x6E9 CALLDATASIZE PUSH1 0x4 PUSH2 0x5103 JUMP JUMPDEST PUSH2 0x1620 JUMP JUMPDEST PUSH2 0x506 PUSH2 0x6FC CALLDATASIZE PUSH1 0x4 PUSH2 0x508A JUMP JUMPDEST PUSH2 0x1638 JUMP JUMPDEST PUSH1 0x9F SLOAD PUSH2 0x729 SWAP1 PUSH17 0x100000000000000000000000000000000 SWAP1 DIV PUSH8 0xFFFFFFFFFFFFFFFF AND DUP2 JUMP JUMPDEST PUSH1 0x40 MLOAD PUSH8 0xFFFFFFFFFFFFFFFF SWAP1 SWAP2 AND DUP2 MSTORE PUSH1 0x20 ADD PUSH2 0x4A7 JUMP JUMPDEST PUSH2 0x506 PUSH2 0x1650 JUMP JUMPDEST PUSH2 0x506 PUSH2 0x758 CALLDATASIZE PUSH1 0x4 PUSH2 0x508A JUMP JUMPDEST PUSH2 0x16E0 JUMP JUMPDEST PUSH2 0x4C3 PUSH2 0x76B CALLDATASIZE PUSH1 0x4 PUSH2 0x517A JUMP JUMPDEST PUSH2 0x16F8 JUMP JUMPDEST PUSH2 0x49A PUSH1 0x40 MLOAD DUP1 PUSH1 0x40 ADD PUSH1 0x40 MSTORE DUP1 PUSH1 0x3 DUP2 MSTORE PUSH1 0x20 ADD PUSH32 0x302E310000000000000000000000000000000000000000000000000000000000 DUP2 MSTORE POP DUP2 JUMP JUMPDEST PUSH1 0x65 SLOAD PUSH1 0xFF AND PUSH2 0x4D8 JUMP JUMPDEST PUSH2 0x506 PUSH1 0xA2 SLOAD DUP2 JUMP JUMPDEST PUSH2 0x506 PUSH1 0xAC SLOAD DUP2 JUMP JUMPDEST PUSH2 0x4C3 PUSH2 0x1800 JUMP JUMPDEST PUSH2 0x506 PUSH1 0xA7 SLOAD DUP2 JUMP JUMPDEST PUSH1 0x99 SLOAD PUSH2 0x7ED SWAP1 PUSH1 0x1 PUSH1 0x1 PUSH1 0xA0 SHL SUB AND DUP2 JUMP JUMPDEST PUSH1 0x40 MLOAD PUSH1 0x1 PUSH1 0x1 PUSH1 0xA0 SHL SUB SWAP1 SWAP2 AND DUP2 MSTORE PUSH1 0x20 ADD PUSH2 0x4A7 JUMP JUMPDEST PUSH2 0x506 PUSH2 0x813 CALLDATASIZE PUSH1 0x4 PUSH2 0x511C JUMP JUMPDEST PUSH1 0x1 PUSH1 0x1 PUSH1 0xA0 SHL SUB AND PUSH1 0x0 SWAP1 DUP2 MSTORE PUSH1 0x33 PUSH1 0x20 MSTORE PUSH1 0x40 SWAP1 KECCAK256 SLOAD SWAP1 JUMP JUMPDEST PUSH2 0x4C3 PUSH2 0x18DC JUMP JUMPDEST PUSH1 0x9F SLOAD PUSH2 0x729 SWAP1 PUSH25 0x1000000000000000000000000000000000000000000000000 SWAP1 DIV PUSH8 0xFFFFFFFFFFFFFFFF AND DUP2 JUMP JUMPDEST PUSH2 0x4C3 PUSH2 0x874 CALLDATASIZE PUSH1 0x4 PUSH2 0x519C JUMP JUMPDEST PUSH2 0x1A62 JUMP JUMPDEST PUSH2 0x4C3 PUSH2 0x887 CALLDATASIZE PUSH1 0x4 PUSH2 0x5103 JUMP JUMPDEST PUSH2 0x1D24 JUMP JUMPDEST PUSH2 0x506 PUSH1 0xA3 SLOAD DUP2 JUMP JUMPDEST PUSH2 0x506 PUSH2 0x1E96 JUMP JUMPDEST PUSH2 0x506 PUSH1 0xA8 SLOAD DUP2 JUMP JUMPDEST PUSH2 0x561 PUSH2 0x8B4 CALLDATASIZE PUSH1 0x4 PUSH2 0x511C JUMP JUMPDEST PUSH1 0xA9 PUSH1 0x20 MSTORE PUSH1 0x0 SWAP1 DUP2 MSTORE PUSH1 0x40 SWAP1 KECCAK256 DUP1 SLOAD PUSH1 0x1 SWAP1 SWAP2 ADD SLOAD DUP3 JUMP JUMPDEST PUSH2 0x506 PUSH1 0xA4 SLOAD DUP2 JUMP JUMPDEST PUSH2 0x49A PUSH2 0x1F26 JUMP JUMPDEST PUSH2 0x506 PUSH1 0xAD SLOAD DUP2 JUMP JUMPDEST PUSH2 0x4D8 PUSH2 0x8F5 CALLDATASIZE PUSH1 0x4 PUSH2 0x508A JUMP JUMPDEST PUSH2 0x1F35 JUMP JUMPDEST PUSH2 0x4D8 PUSH2 0x908 CALLDATASIZE PUSH1 0x4 PUSH2 0x508A JUMP JUMPDEST PUSH2 0x1FE6 JUMP JUMPDEST PUSH2 0x4C3 PUSH2 0x91B CALLDATASIZE PUSH1 0x4 PUSH2 0x51C6 JUMP JUMPDEST PUSH2 0x1FF3 JUMP JUMPDEST PUSH2 0x4C3 PUSH2 0x92E CALLDATASIZE PUSH1 0x4 PUSH2 0x511C JUMP JUMPDEST PUSH2 0x2167 JUMP JUMPDEST PUSH2 0x4C3 PUSH2 0x941 CALLDATASIZE PUSH1 0x4 PUSH2 0x508A JUMP JUMPDEST PUSH2 0x2289 JUMP JUMPDEST PUSH2 0x4C3 PUSH2 0x954 CALLDATASIZE PUSH1 0x4 PUSH2 0x508A JUMP JUMPDEST PUSH2 0x2623 JUMP JUMPDEST PUSH2 0x506 PUSH2 0x2981 JUMP JUMPDEST PUSH2 0x7ED PUSH2 0x96F CALLDATASIZE PUSH1 0x4 PUSH2 0x5103 JUMP JUMPDEST PUSH2 0x29A8 JUMP JUMPDEST PUSH2 0x4C3 PUSH2 0x982 CALLDATASIZE PUSH1 0x4 PUSH2 0x511C JUMP JUMPDEST PUSH2 0x29D2 JUMP JUMPDEST PUSH2 0x4C3 PUSH2 0x995 CALLDATASIZE PUSH1 0x4 PUSH2 0x51C6 JUMP JUMPDEST PUSH2 0x2ADB JUMP JUMPDEST PUSH2 0x4C3 PUSH2 0x9A8 CALLDATASIZE PUSH1 0x4 PUSH2 0x5103 JUMP JUMPDEST PUSH2 0x3119 JUMP JUMPDEST PUSH1 0xA5 SLOAD PUSH2 0x9DD SWAP1 PUSH17 0x100000000000000000000000000000000 SWAP1 DIV PUSH16 0xFFFFFFFFFFFFFFFFFFFFFFFFFFFFFFFF AND DUP2 JUMP JUMPDEST PUSH1 0x40 MLOAD PUSH16 0xFFFFFFFFFFFFFFFFFFFFFFFFFFFFFFFF SWAP1 SWAP2 AND DUP2 MSTORE PUSH1 0x20 ADD PUSH2 0x4A7 JUMP JUMPDEST PUSH2 0x506 PUSH1 0x97 SLOAD DUP2 JUMP JUMPDEST PUSH1 0x9E SLOAD PUSH2 0x7ED SWAP1 PUSH1 0x1 PUSH1 0x1 PUSH1 0xA0 SHL SUB AND DUP2 JUMP JUMPDEST PUSH2 0x506 PUSH2 0xA28 CALLDATASIZE PUSH1 0x4 PUSH2 0x523B JUMP JUMPDEST PUSH1 0x1 PUSH1 0x1 PUSH1 0xA0 SHL SUB SWAP2 DUP3 AND PUSH1 0x0 SWAP1 DUP2 MSTORE PUSH1 0x34 PUSH1 0x20 SWAP1 DUP2 MSTORE PUSH1 0x40 DUP1 DUP4 KECCAK256 SWAP4 SWAP1 SWAP5 AND DUP3 MSTORE SWAP2 SWAP1 SWAP2 MSTORE KECCAK256 SLOAD SWAP1 JUMP JUMPDEST PUSH1 0x98 SLOAD PUSH2 0x7ED SWAP1 PUSH1 0x1 PUSH1 0x1 PUSH1 0xA0 SHL SUB AND DUP2 JUMP JUMPDEST PUSH2 0x506 PUSH1 0x9B SLOAD DUP2 JUMP JUMPDEST PUSH2 0x4C3 PUSH2 0xA7D CALLDATASIZE PUSH1 0x4 PUSH2 0x5103 JUMP JUMPDEST PUSH2 0x3265 JUMP JUMPDEST PUSH2 0x4C3 PUSH2 0xA90 CALLDATASIZE PUSH1 0x4 PUSH2 0x511C JUMP JUMPDEST PUSH2 0x332A JUMP JUMPDEST PUSH2 0x506 PUSH1 0xA0 SLOAD DUP2 JUMP JUMPDEST PUSH1 0x9C SLOAD PUSH2 0x7ED SWAP1 PUSH1 0x1 PUSH1 0x1 PUSH1 0xA0 SHL SUB AND DUP2 JUMP JUMPDEST PUSH1 0xA5 SLOAD PUSH2 0x729 SWAP1 PUSH8 0xFFFFFFFFFFFFFFFF AND DUP2 JUMP JUMPDEST PUSH1 0xA5 SLOAD PUSH2 0x729 SWAP1 PUSH9 0x10000000000000000 SWAP1 DIV PUSH8 0xFFFFFFFFFFFFFFFF AND DUP2 JUMP JUMPDEST PUSH2 0x4C3 PUSH2 0xAF3 CALLDATASIZE PUSH1 0x4 PUSH2 0x5274 JUMP JUMPDEST PUSH2 0x3515 JUMP JUMPDEST PUSH1 0x9F SLOAD PUSH2 0x9DD SWAP1 PUSH16 0xFFFFFFFFFFFFFFFFFFFFFFFFFFFFFFFF AND DUP2 JUMP JUMPDEST PUSH1 0x60 PUSH1 0x36 DUP1 SLOAD PUSH2 0xB23 SWAP1 PUSH2 0x52D0 JUMP JUMPDEST DUP1 PUSH1 0x1F ADD PUSH1 0x20 DUP1 SWAP2 DIV MUL PUSH1 0x20 ADD PUSH1 0x40 MLOAD SWAP1 DUP2 ADD PUSH1 0x40 MSTORE DUP1 SWAP3 SWAP2 SWAP1 DUP2 DUP2 MSTORE PUSH1 0x20 ADD DUP3 DUP1 SLOAD PUSH2 0xB4F SWAP1 PUSH2 0x52D0 JUMP JUMPDEST DUP1 ISZERO PUSH2 0xB9C JUMPI DUP1 PUSH1 0x1F LT PUSH2 0xB71 JUMPI PUSH2 0x100 DUP1 DUP4 SLOAD DIV MUL DUP4 MSTORE SWAP2 PUSH1 0x20 ADD SWAP2 PUSH2 0xB9C JUMP JUMPDEST DUP3 ADD SWAP2 SWAP1 PUSH1 0x0 MSTORE PUSH1 0x20 PUSH1 0x0 KECCAK256 SWAP1 JUMPDEST DUP2 SLOAD DUP2 MSTORE SWAP1 PUSH1 0x1 ADD SWAP1 PUSH1 0x20 ADD DUP1 DUP4 GT PUSH2 0xB7F JUMPI DUP3 SWAP1 SUB PUSH1 0x1F AND DUP3 ADD SWAP2 JUMPDEST POP POP POP POP POP SWAP1 POP SWAP1 JUMP JUMPDEST PUSH1 0x98 SLOAD PUSH1 0x40 MLOAD PUSH4 0x91006745 PUSH1 0xE0 SHL DUP2 MSTORE ADDRESS PUSH1 0x4 DUP3 ADD MSTORE CALLER PUSH1 0x24 DUP3 ADD DUP2 SWAP1 MSTORE SWAP2 PUSH1 0x1 PUSH1 0x1 PUSH1 0xA0 SHL SUB AND SWAP1 PUSH4 0x91006745 SWAP1 PUSH1 0x44 ADD PUSH1 0x20 PUSH1 0x40 MLOAD DUP1 DUP4 SUB DUP2 DUP7 GAS STATICCALL ISZERO DUP1 ISZERO PUSH2 0xBF5 JUMPI RETURNDATASIZE PUSH1 0x0 DUP1 RETURNDATACOPY RETURNDATASIZE PUSH1 0x0 REVERT JUMPDEST POP POP POP POP PUSH1 0x40 MLOAD RETURNDATASIZE PUSH1 0x1F NOT PUSH1 0x1F DUP3 ADD AND DUP3 ADD DUP1 PUSH1 0x40 MSTORE POP DUP2 ADD SWAP1 PUSH2 0xC19 SWAP2 SWAP1 PUSH2 0x5324 JUMP JUMPDEST PUSH2 0xC6A JUMPI PUSH1 0x40 MLOAD PUSH3 0x461BCD PUSH1 0xE5 SHL DUP2 MSTORE PUSH1 0x20 PUSH1 0x4 DUP3 ADD MSTORE PUSH1 0x10 PUSH1 0x24 DUP3 ADD MSTORE PUSH32 0x6572726F723A3A4E4F545F41444D494E00000000000000000000000000000000 PUSH1 0x44 DUP3 ADD MSTORE PUSH1 0x64 ADD JUMPDEST PUSH1 0x40 MLOAD DUP1 SWAP2 SUB SWAP1 REVERT JUMPDEST PUSH1 0x9F SLOAD PUSH17 0x100000000000000000000000000000000 SWAP1 DIV PUSH8 0xFFFFFFFFFFFFFFFF AND PUSH16 0xFFFFFFFFFFFFFFFFFFFFFFFFFFFFFFFF DUP4 AND GT ISZERO PUSH2 0xD12 JUMPI PUSH1 0x40 MLOAD PUSH3 0x461BCD PUSH1 0xE5 SHL DUP2 MSTORE PUSH1 0x20 PUSH1 0x4 DUP3 ADD MSTORE PUSH1 0x21 PUSH1 0x24 DUP3 ADD MSTORE PUSH32 0x7365744861727665737457696E646F773A3A57494E444F575F544F4F5F4C4F4E PUSH1 0x44 DUP3 ADD MSTORE PUSH32 0x4700000000000000000000000000000000000000000000000000000000000000 PUSH1 0x64 DUP3 ADD MSTORE PUSH1 0x84 ADD PUSH2 0xC61 JUMP JUMPDEST PUSH1 0x9F DUP1 SLOAD PUSH32 0xFFFFFFFFFFFFFFFFFFFFFFFFFFFFFFFF00000000000000000000000000000000 AND PUSH16 0xFFFFFFFFFFFFFFFFFFFFFFFFFFFFFFFF DUP5 AND SWAP1 DUP2 OR SWAP1 SWAP2 SSTORE PUSH1 0x40 MLOAD SWAP1 DUP2 MSTORE PUSH32 0xE5AAC860870A2B99320DF1D1B908931B370150F1C11074466FB332528E5B910B SWAP1 PUSH1 0x20 ADD JUMPDEST PUSH1 0x40 MLOAD DUP1 SWAP2 SUB SWAP1 LOG1 POP POP JUMP JUMPDEST PUSH1 0x0 PUSH2 0xD96 CALLER DUP5 DUP5 PUSH2 0x397B JUMP JUMPDEST POP PUSH1 0x1 JUMPDEST SWAP3 SWAP2 POP POP JUMP JUMPDEST PUSH1 0x60 PUSH1 0xA6 DUP1 SLOAD DUP1 PUSH1 0x20 MUL PUSH1 0x20 ADD PUSH1 0x40 MLOAD SWAP1 DUP2 ADD PUSH1 0x40 MSTORE DUP1 SWAP3 SWAP2 SWAP1 DUP2 DUP2 MSTORE PUSH1 0x20 ADD DUP3 DUP1 SLOAD DUP1 ISZERO PUSH2 0xB9C JUMPI PUSH1 0x20 MUL DUP3 ADD SWAP2 SWAP1 PUSH1 0x0 MSTORE PUSH1 0x20 PUSH1 0x0 KECCAK256 SWAP1 JUMPDEST DUP2 SLOAD PUSH1 0x1 PUSH1 0x1 PUSH1 0xA0 SHL SUB AND DUP2 MSTORE PUSH1 0x1 SWAP1 SWAP2 ADD SWAP1 PUSH1 0x20 ADD DUP1 DUP4 GT PUSH2 0xDDA JUMPI POP POP POP POP POP SWAP1 POP SWAP1 JUMP JUMPDEST PUSH1 0x0 PUSH2 0xD9A PUSH2 0xE0E PUSH2 0x14C9 JUMP JUMPDEST PUSH1 0x9A SLOAD DUP5 SWAP2 SWAP1 PUSH2 0x3ACB JUMP JUMPDEST PUSH1 0x98 SLOAD PUSH1 0x40 MLOAD PUSH4 0x91006745 PUSH1 0xE0 SHL DUP2 MSTORE ADDRESS PUSH1 0x4 DUP3 ADD MSTORE CALLER PUSH1 0x24 DUP3 ADD DUP2 SWAP1 MSTORE SWAP2 PUSH1 0x1 PUSH1 0x1 PUSH1 0xA0 SHL SUB AND SWAP1 PUSH4 0x91006745 SWAP1 PUSH1 0x44 ADD PUSH1 0x20 PUSH1 0x40 MLOAD DUP1 DUP4 SUB DUP2 DUP7 GAS STATICCALL ISZERO DUP1 ISZERO PUSH2 0xE68 JUMPI RETURNDATASIZE PUSH1 0x0 DUP1 RETURNDATACOPY RETURNDATASIZE PUSH1 0x0 REVERT JUMPDEST POP POP POP POP PUSH1 0x40 MLOAD RETURNDATASIZE PUSH1 0x1F NOT PUSH1 0x1F DUP3 ADD AND DUP3 ADD DUP1 PUSH1 0x40 MSTORE POP DUP2 ADD SWAP1 PUSH2 0xE8C SWAP2 SWAP1 PUSH2 0x5324 JUMP JUMPDEST PUSH2 0xED8 JUMPI PUSH1 0x40 MLOAD PUSH3 0x461BCD PUSH1 0xE5 SHL DUP2 MSTORE PUSH1 0x20 PUSH1 0x4 DUP3 ADD MSTORE PUSH1 0x10 PUSH1 0x24 DUP3 ADD MSTORE PUSH32 0x6572726F723A3A4E4F545F41444D494E00000000000000000000000000000000 PUSH1 0x44 DUP3 ADD MSTORE PUSH1 0x64 ADD PUSH2 0xC61 JUMP JUMPDEST PUSH1 0x9E DUP1 SLOAD PUSH32 0xFFFFFFFFFFFFFFFFFFFFFFFF0000000000000000000000000000000000000000 AND PUSH1 0x1 PUSH1 0x1 PUSH1 0xA0 SHL SUB DUP5 AND SWAP1 DUP2 OR SWAP1 SWAP2 SSTORE PUSH1 0x40 MLOAD PUSH32 0xB5D8934A1F336D4CF641AE9F680C3E196F624F0BD9271749BE60D98B70F70060 SWAP1 PUSH1 0x0 SWAP1 LOG2 POP POP JUMP JUMPDEST PUSH1 0x98 SLOAD PUSH1 0x40 MLOAD PUSH4 0x91006745 PUSH1 0xE0 SHL DUP2 MSTORE ADDRESS PUSH1 0x4 DUP3 ADD MSTORE CALLER PUSH1 0x24 DUP3 ADD DUP2 SWAP1 MSTORE SWAP2 PUSH1 0x1 PUSH1 0x1 PUSH1 0xA0 SHL SUB AND SWAP1 PUSH4 0x91006745 SWAP1 PUSH1 0x44 ADD PUSH1 0x20 PUSH1 0x40 MLOAD DUP1 DUP4 SUB DUP2 DUP7 GAS STATICCALL ISZERO DUP1 ISZERO PUSH2 0xF8A JUMPI RETURNDATASIZE PUSH1 0x0 DUP1 RETURNDATACOPY RETURNDATASIZE PUSH1 0x0 REVERT JUMPDEST POP POP POP POP PUSH1 0x40 MLOAD RETURNDATASIZE PUSH1 0x1F NOT PUSH1 0x1F DUP3 ADD AND DUP3 ADD DUP1 PUSH1 0x40 MSTORE POP DUP2 ADD SWAP1 PUSH2 0xFAE SWAP2 SWAP1 PUSH2 0x5324 JUMP JUMPDEST PUSH2 0xFFA JUMPI PUSH1 0x40 MLOAD PUSH3 0x461BCD PUSH1 0xE5 SHL DUP2 MSTORE PUSH1 0x20 PUSH1 0x4 DUP3 ADD MSTORE PUSH1 0x10 PUSH1 0x24 DUP3 ADD MSTORE PUSH32 0x6572726F723A3A4E4F545F41444D494E00000000000000000000000000000000 PUSH1 0x44 DUP3 ADD MSTORE PUSH1 0x64 ADD PUSH2 0xC61 JUMP JUMPDEST PUSH1 0x9F SLOAD PUSH1 0xA5 SLOAD PUSH2 0x1037 SWAP2 PUSH8 0xFFFFFFFFFFFFFFFF PUSH17 0x100000000000000000000000000000000 SWAP1 SWAP2 DIV DUP2 AND SWAP2 PUSH9 0x10000000000000000 SWAP1 DIV AND PUSH2 0x5375 JUMP JUMPDEST PUSH8 0xFFFFFFFFFFFFFFFF AND TIMESTAMP LT ISZERO PUSH2 0x10B6 JUMPI PUSH1 0x40 MLOAD PUSH3 0x461BCD PUSH1 0xE5 SHL DUP2 MSTORE PUSH1 0x20 PUSH1 0x4 DUP3 ADD MSTORE PUSH1 0x25 PUSH1 0x24 DUP3 ADD MSTORE PUSH32 0x62617463684275726E3A3A4C41544553545F484152564553545F4E4F545F4558 PUSH1 0x44 DUP3 ADD MSTORE PUSH32 0x5049524544000000000000000000000000000000000000000000000000000000 PUSH1 0x64 DUP3 ADD MSTORE PUSH1 0x84 ADD PUSH2 0xC61 JUMP JUMPDEST PUSH1 0xA7 DUP1 SLOAD SWAP1 PUSH1 0x1 SWAP1 PUSH1 0x0 PUSH2 0x10CA DUP4 DUP6 PUSH2 0x53A1 JUMP JUMPDEST SWAP1 SWAP2 SSTORE POP POP PUSH1 0x0 DUP2 DUP2 MSTORE PUSH1 0xAA PUSH1 0x20 SWAP1 DUP2 MSTORE PUSH1 0x40 SWAP2 DUP3 SWAP1 KECCAK256 DUP3 MLOAD DUP1 DUP5 ADD SWAP1 SWAP4 MSTORE DUP1 SLOAD DUP1 DUP5 MSTORE PUSH1 0x1 SWAP1 SWAP2 ADD SLOAD SWAP2 DUP4 ADD SWAP2 SWAP1 SWAP2 MSTORE DUP1 PUSH2 0x116E JUMPI PUSH1 0x40 MLOAD PUSH3 0x461BCD PUSH1 0xE5 SHL DUP2 MSTORE PUSH1 0x20 PUSH1 0x4 DUP3 ADD MSTORE PUSH1 0x26 PUSH1 0x24 DUP3 ADD MSTORE PUSH32 0x62617463684275726E3A3A544F54414C5F5348415245535F43414E4E4F545F42 PUSH1 0x44 DUP3 ADD MSTORE PUSH32 0x455F5A45524F0000000000000000000000000000000000000000000000000000 PUSH1 0x64 DUP3 ADD MSTORE PUSH1 0x84 ADD PUSH2 0xC61 JUMP JUMPDEST PUSH1 0x0 PUSH2 0x117B PUSH2 0xE0E PUSH2 0x14C9 JUMP JUMPDEST SWAP1 POP PUSH1 0x0 PUSH2 0x1187 PUSH2 0x1E96 JUMP JUMPDEST SWAP1 POP DUP1 DUP3 GT ISZERO PUSH2 0x11AA JUMPI PUSH1 0x0 PUSH2 0x119D DUP3 DUP5 PUSH2 0x53B9 JUMP JUMPDEST SWAP1 POP PUSH2 0x11A8 DUP2 PUSH2 0x3AE6 JUMP JUMPDEST POP JUMPDEST PUSH2 0x11B4 ADDRESS DUP5 PUSH2 0x3D56 JUMP JUMPDEST PUSH1 0x9D SLOAD ISZERO PUSH2 0x1204 JUMPI PUSH1 0x9D SLOAD PUSH1 0x0 SWAP1 PUSH2 0x11D6 SWAP1 DUP5 SWAP1 PUSH8 0xDE0B6B3A7640000 PUSH2 0x3ACB JUMP JUMPDEST SWAP1 POP PUSH2 0x11E2 DUP2 DUP5 PUSH2 0x53B9 JUMP JUMPDEST PUSH1 0x9E SLOAD PUSH1 0x99 SLOAD SWAP2 SWAP5 POP PUSH2 0x1202 SWAP2 PUSH1 0x1 PUSH1 0x1 PUSH1 0xA0 SHL SUB SWAP1 DUP2 AND SWAP2 AND DUP4 PUSH2 0x3EDB JUMP JUMPDEST POP JUMPDEST PUSH1 0x9A SLOAD PUSH2 0x1214 SWAP1 DUP4 SWAP1 DUP6 SWAP1 PUSH2 0x3F84 JUMP JUMPDEST PUSH1 0x0 DUP7 DUP2 MSTORE PUSH1 0xAA PUSH1 0x20 MSTORE PUSH1 0x40 DUP2 KECCAK256 PUSH1 0x1 ADD SWAP2 SWAP1 SWAP2 SSTORE PUSH1 0xA8 DUP1 SLOAD DUP5 SWAP3 SWAP1 PUSH2 0x123B SWAP1 DUP5 SWAP1 PUSH2 0x53A1 JUMP JUMPDEST SWAP1 SWAP2 SSTORE POP POP PUSH1 0x40 DUP1 MLOAD DUP5 DUP2 MSTORE PUSH1 0x20 DUP2 ADD DUP5 SWAP1 MSTORE CALLER SWAP2 DUP8 SWAP2 PUSH32 0x464420EE56151EE74D491D95CFA6B42D6C6504B38DEBC567F5532168243F1D8D SWAP2 ADD PUSH1 0x40 MLOAD DUP1 SWAP2 SUB SWAP1 LOG3 POP POP POP POP POP POP JUMP JUMPDEST PUSH1 0x0 PUSH2 0x1292 DUP5 DUP5 DUP5 PUSH2 0x3FA6 JUMP JUMPDEST PUSH1 0x1 PUSH1 0x1 PUSH1 0xA0 SHL SUB DUP5 AND PUSH1 0x0 SWAP1 DUP2 MSTORE PUSH1 0x34 PUSH1 0x20 SWAP1 DUP2 MSTORE PUSH1 0x40 DUP1 DUP4 KECCAK256 CALLER DUP5 MSTORE SWAP1 SWAP2 MSTORE SWAP1 KECCAK256 SLOAD DUP3 DUP2 LT ISZERO PUSH2 0x132C JUMPI PUSH1 0x40 MLOAD PUSH3 0x461BCD PUSH1 0xE5 SHL DUP2 MSTORE PUSH1 0x20 PUSH1 0x4 DUP3 ADD MSTORE PUSH1 0x28 PUSH1 0x24 DUP3 ADD MSTORE PUSH32 0x45524332303A207472616E7366657220616D6F756E7420657863656564732061 PUSH1 0x44 DUP3 ADD MSTORE PUSH32 0x6C6C6F77616E6365000000000000000000000000000000000000000000000000 PUSH1 0x64 DUP3 ADD MSTORE PUSH1 0x84 ADD PUSH2 0xC61 JUMP JUMPDEST PUSH2 0x1339 DUP6 CALLER DUP6 DUP5 SUB PUSH2 0x397B JUMP JUMPDEST PUSH1 0x1 SWAP2 POP POP JUMPDEST SWAP4 SWAP3 POP POP POP JUMP JUMPDEST PUSH1 0x98 SLOAD PUSH1 0x40 MLOAD PUSH4 0x91006745 PUSH1 0xE0 SHL DUP2 MSTORE ADDRESS PUSH1 0x4 DUP3 ADD MSTORE CALLER PUSH1 0x24 DUP3 ADD DUP2 SWAP1 MSTORE SWAP2 PUSH1 0x1 PUSH1 0x1 PUSH1 0xA0 SHL SUB AND SWAP1 PUSH4 0x91006745 SWAP1 PUSH1 0x44 ADD PUSH1 0x20 PUSH1 0x40 MLOAD DUP1 DUP4 SUB DUP2 DUP7 GAS STATICCALL ISZERO DUP1 ISZERO PUSH2 0x1395 JUMPI RETURNDATASIZE PUSH1 0x0 DUP1 RETURNDATACOPY RETURNDATASIZE PUSH1 0x0 REVERT JUMPDEST POP POP POP POP PUSH1 0x40 MLOAD RETURNDATASIZE PUSH1 0x1F NOT PUSH1 0x1F DUP3 ADD AND DUP3 ADD DUP1 PUSH1 0x40 MSTORE POP DUP2 ADD SWAP1 PUSH2 0x13B9 SWAP2 SWAP1 PUSH2 0x5324 JUMP JUMPDEST PUSH2 0x1405 JUMPI PUSH1 0x40 MLOAD PUSH3 0x461BCD PUSH1 0xE5 SHL DUP2 MSTORE PUSH1 0x20 PUSH1 0x4 DUP3 ADD MSTORE PUSH1 0x10 PUSH1 0x24 DUP3 ADD MSTORE PUSH32 0x6572726F723A3A4E4F545F41444D494E00000000000000000000000000000000 PUSH1 0x44 DUP3 ADD MSTORE PUSH1 0x64 ADD PUSH2 0xC61 JUMP JUMPDEST PUSH1 0x98 DUP1 SLOAD PUSH32 0xFFFFFFFFFFFFFFFFFFFFFFFF0000000000000000000000000000000000000000 AND PUSH1 0x1 PUSH1 0x1 PUSH1 0xA0 SHL SUB DUP5 AND SWAP1 DUP2 OR SWAP1 SWAP2 SSTORE PUSH1 0x40 MLOAD SWAP1 DUP2 MSTORE PUSH32 0xDCB0BC5ECFADC1F3129303F7C1F12B82107806277374A010DFFE2C367708EF41 SWAP1 PUSH1 0x20 ADD PUSH2 0xD7D JUMP JUMPDEST CALLER PUSH1 0x0 DUP2 DUP2 MSTORE PUSH1 0x34 PUSH1 0x20 SWAP1 DUP2 MSTORE PUSH1 0x40 DUP1 DUP4 KECCAK256 PUSH1 0x1 PUSH1 0x1 PUSH1 0xA0 SHL SUB DUP8 AND DUP5 MSTORE SWAP1 SWAP2 MSTORE DUP2 KECCAK256 SLOAD SWAP1 SWAP2 PUSH2 0xD96 SWAP2 DUP6 SWAP1 PUSH2 0x14A2 SWAP1 DUP7 SWAP1 PUSH2 0x53A1 JUMP JUMPDEST PUSH2 0x397B JUMP JUMPDEST PUSH1 0x1 PUSH1 0x1 PUSH1 0xA0 SHL SUB DUP2 AND PUSH1 0x0 SWAP1 DUP2 MSTORE PUSH1 0x33 PUSH1 0x20 MSTORE PUSH1 0x40 DUP2 KECCAK256 SLOAD PUSH2 0xD9A SWAP1 PUSH2 0xE01 JUMP JUMPDEST PUSH1 0x0 DUP1 PUSH2 0x14D5 PUSH1 0x35 SLOAD SWAP1 JUMP JUMPDEST SWAP1 POP DUP1 PUSH2 0x14E4 JUMPI POP POP PUSH1 0x9A SLOAD SWAP1 JUMP JUMPDEST PUSH2 0x14FA DUP2 PUSH1 0x9A SLOAD PUSH2 0x14F3 PUSH2 0x2981 JUMP JUMPDEST SWAP2 SWAP1 PUSH2 0x3F84 JUMP JUMPDEST SWAP2 POP POP SWAP1 JUMP JUMPDEST PUSH1 0xA7 SLOAD CALLER PUSH1 0x0 SWAP1 DUP2 MSTORE PUSH1 0xA9 PUSH1 0x20 MSTORE PUSH1 0x40 SWAP1 KECCAK256 SLOAD DUP1 PUSH2 0x1535 JUMPI CALLER PUSH1 0x0 SWAP1 DUP2 MSTORE PUSH1 0xA9 PUSH1 0x20 MSTORE PUSH1 0x40 SWAP1 KECCAK256 DUP3 DUP2 SSTORE PUSH1 0x1 ADD DUP4 SWAP1 SSTORE PUSH2 0x15AC JUMP JUMPDEST DUP2 DUP2 EQ PUSH2 0x1584 JUMPI PUSH1 0x40 MLOAD PUSH3 0x461BCD PUSH1 0xE5 SHL DUP2 MSTORE PUSH1 0x20 PUSH1 0x4 DUP3 ADD DUP2 SWAP1 MSTORE PUSH1 0x24 DUP3 ADD MSTORE PUSH32 0x656E74657242617463684275726E3A3A444946464552454E545F524F554E4453 PUSH1 0x44 DUP3 ADD MSTORE PUSH1 0x64 ADD PUSH2 0xC61 JUMP JUMPDEST CALLER PUSH1 0x0 SWAP1 DUP2 MSTORE PUSH1 0xA9 PUSH1 0x20 MSTORE PUSH1 0x40 DUP2 KECCAK256 PUSH1 0x1 ADD DUP1 SLOAD DUP6 SWAP3 SWAP1 PUSH2 0x15A6 SWAP1 DUP5 SWAP1 PUSH2 0x53A1 JUMP JUMPDEST SWAP1 SWAP2 SSTORE POP POP JUMPDEST PUSH1 0x0 DUP3 DUP2 MSTORE PUSH1 0xAA PUSH1 0x20 MSTORE PUSH1 0x40 DUP2 KECCAK256 DUP1 SLOAD DUP6 SWAP3 SWAP1 PUSH2 0x15CA SWAP1 DUP5 SWAP1 PUSH2 0x53A1 JUMP JUMPDEST SWAP1 SWAP2 SSTORE POP PUSH2 0x15DA SWAP1 POP ADDRESS DUP5 PUSH2 0x1FE6 JUMP JUMPDEST PUSH2 0x15E3 JUMPI PUSH1 0x0 DUP1 REVERT JUMPDEST PUSH1 0x40 MLOAD DUP4 DUP2 MSTORE CALLER SWAP1 DUP4 SWAP1 PUSH32 0xA34C4835838212C803863F6698244F8A1E56F479D6DBA7D4F33B34A2CDECF1CE SWAP1 PUSH1 0x20 ADD JUMPDEST PUSH1 0x40 MLOAD DUP1 SWAP2 SUB SWAP1 LOG3 POP POP POP JUMP JUMPDEST PUSH1 0x0 PUSH2 0xD9A PUSH2 0x162D PUSH2 0x14C9 JUMP JUMPDEST PUSH1 0x9A SLOAD DUP5 SWAP2 SWAP1 PUSH2 0x3F84 JUMP JUMPDEST PUSH1 0x0 PUSH2 0xD9A DUP4 DUP4 PUSH2 0x1648 DUP6 PUSH2 0xE01 JUMP JUMPDEST SWAP4 POP DUP4 PUSH2 0x41BF JUMP JUMPDEST PUSH1 0xA5 SLOAD PUSH1 0x9F SLOAD PUSH1 0x0 SWAP2 PUSH8 0xFFFFFFFFFFFFFFFF PUSH9 0x10000000000000000 SWAP1 SWAP2 DIV DUP2 AND SWAP2 PUSH17 0x100000000000000000000000000000000 SWAP1 DIV AND DUP1 DUP3 ADD TIMESTAMP LT PUSH2 0x1699 JUMPI PUSH1 0x0 SWAP3 POP POP POP SWAP1 JUMP JUMPDEST PUSH1 0xA5 SLOAD PUSH17 0x100000000000000000000000000000000 SWAP1 DIV PUSH16 0xFFFFFFFFFFFFFFFFFFFFFFFFFFFFFFFF AND DUP2 TIMESTAMP DUP5 SWAP1 SUB DUP3 MUL DUP2 PUSH2 0x16D6 JUMPI PUSH2 0x16D6 PUSH2 0x53D0 JUMP JUMPDEST DIV SWAP1 SUB SWAP4 SWAP3 POP POP POP JUMP JUMPDEST PUSH1 0x0 PUSH2 0xD9A DUP4 PUSH2 0x16EF DUP5 PUSH2 0x1620 JUMP JUMPDEST SWAP3 POP DUP3 DUP5 PUSH2 0x41BF JUMP JUMPDEST PUSH1 0x98 SLOAD PUSH1 0x40 MLOAD PUSH4 0x91006745 PUSH1 0xE0 SHL DUP2 MSTORE ADDRESS PUSH1 0x4 DUP3 ADD MSTORE CALLER PUSH1 0x24 DUP3 ADD DUP2 SWAP1 MSTORE SWAP2 PUSH1 0x1 PUSH1 0x1 PUSH1 0xA0 SHL SUB AND SWAP1 PUSH4 0x91006745 SWAP1 PUSH1 0x44 ADD PUSH1 0x20 PUSH1 0x40 MLOAD DUP1 DUP4 SUB DUP2 DUP7 GAS STATICCALL ISZERO DUP1 ISZERO PUSH2 0x1747 JUMPI RETURNDATASIZE PUSH1 0x0 DUP1 RETURNDATACOPY RETURNDATASIZE PUSH1 0x0 REVERT JUMPDEST POP POP POP POP PUSH1 0x40 MLOAD RETURNDATASIZE PUSH1 0x1F NOT PUSH1 0x1F DUP3 ADD AND DUP3 ADD DUP1 PUSH1 0x40 MSTORE POP DUP2 ADD SWAP1 PUSH2 0x176B SWAP2 SWAP1 PUSH2 0x5324 JUMP JUMPDEST PUSH2 0x17B7 JUMPI PUSH1 0x40 MLOAD PUSH3 0x461BCD PUSH1 0xE5 SHL DUP2 MSTORE PUSH1 0x20 PUSH1 0x4 DUP3 ADD MSTORE PUSH1 0x10 PUSH1 0x24 DUP3 ADD MSTORE PUSH32 0x6572726F723A3A4E4F545F41444D494E00000000000000000000000000000000 PUSH1 0x44 DUP3 ADD MSTORE PUSH1 0x64 ADD PUSH2 0xC61 JUMP JUMPDEST PUSH1 0xAB DUP4 SWAP1 SSTORE PUSH1 0xAC DUP3 SWAP1 SSTORE PUSH1 0x40 DUP1 MLOAD DUP5 DUP2 MSTORE PUSH1 0x20 DUP2 ADD DUP5 SWAP1 MSTORE PUSH32 0xB2AD710F2954A5376267A683F9ECE9EC46EE7DFB47075163379904EE941DF8DA SWAP2 ADD JUMPDEST PUSH1 0x40 MLOAD DUP1 SWAP2 SUB SWAP1 LOG1 POP POP POP JUMP JUMPDEST PUSH1 0x98 SLOAD PUSH1 0x40 MLOAD PUSH4 0x91006745 PUSH1 0xE0 SHL DUP2 MSTORE ADDRESS PUSH1 0x4 DUP3 ADD MSTORE CALLER PUSH1 0x24 DUP3 ADD DUP2 SWAP1 MSTORE SWAP2 PUSH1 0x1 PUSH1 0x1 PUSH1 0xA0 SHL SUB AND SWAP1 PUSH4 0x91006745 SWAP1 PUSH1 0x44 ADD PUSH1 0x20 PUSH1 0x40 MLOAD DUP1 DUP4 SUB DUP2 DUP7 GAS STATICCALL ISZERO DUP1 ISZERO PUSH2 0x184F JUMPI RETURNDATASIZE PUSH1 0x0 DUP1 RETURNDATACOPY RETURNDATASIZE PUSH1 0x0 REVERT JUMPDEST POP POP POP POP PUSH1 0x40 MLOAD RETURNDATASIZE PUSH1 0x1F NOT PUSH1 0x1F DUP3 ADD AND DUP3 ADD DUP1 PUSH1 0x40 MSTORE POP DUP2 ADD SWAP1 PUSH2 0x1873 SWAP2 SWAP1 PUSH2 0x5324 JUMP JUMPDEST PUSH2 0x18BF JUMPI PUSH1 0x40 MLOAD PUSH3 0x461BCD PUSH1 0xE5 SHL DUP2 MSTORE PUSH1 0x20 PUSH1 0x4 DUP3 ADD MSTORE PUSH1 0x10 PUSH1 0x24 DUP3 ADD MSTORE PUSH32 0x6572726F723A3A4E4F545F41444D494E00000000000000000000000000000000 PUSH1 0x44 DUP3 ADD MSTORE PUSH1 0x64 ADD PUSH2 0xC61 JUMP JUMPDEST PUSH1 0x65 SLOAD PUSH1 0xFF AND PUSH2 0x18D4 JUMPI PUSH2 0x18D1 PUSH2 0x448D JUMP JUMPDEST POP JUMP JUMPDEST PUSH2 0x18D1 PUSH2 0x4532 JUMP JUMPDEST PUSH1 0xA7 SLOAD CALLER PUSH1 0x0 SWAP1 DUP2 MSTORE PUSH1 0xA9 PUSH1 0x20 SWAP1 DUP2 MSTORE PUSH1 0x40 SWAP2 DUP3 SWAP1 KECCAK256 DUP3 MLOAD DUP1 DUP5 ADD SWAP1 SWAP4 MSTORE DUP1 SLOAD DUP1 DUP5 MSTORE PUSH1 0x1 SWAP1 SWAP2 ADD SLOAD SWAP2 DUP4 ADD SWAP2 SWAP1 SWAP2 MSTORE PUSH2 0x1958 JUMPI PUSH1 0x40 MLOAD PUSH3 0x461BCD PUSH1 0xE5 SHL DUP2 MSTORE PUSH1 0x20 PUSH1 0x4 DUP3 ADD MSTORE PUSH1 0x1A PUSH1 0x24 DUP3 ADD MSTORE PUSH32 0x6578697442617463684275726E3A3A4E4F5F4445504F53495453000000000000 PUSH1 0x44 DUP3 ADD MSTORE PUSH1 0x64 ADD PUSH2 0xC61 JUMP JUMPDEST DUP1 MLOAD DUP3 GT PUSH2 0x19CE JUMPI PUSH1 0x40 MLOAD PUSH3 0x461BCD PUSH1 0xE5 SHL DUP2 MSTORE PUSH1 0x20 PUSH1 0x4 DUP3 ADD MSTORE PUSH1 0x21 PUSH1 0x24 DUP3 ADD MSTORE PUSH32 0x6578697442617463684275726E3A3A524F554E445F4E4F545F45584543555445 PUSH1 0x44 DUP3 ADD MSTORE PUSH32 0x4400000000000000000000000000000000000000000000000000000000000000 PUSH1 0x64 DUP3 ADD MSTORE PUSH1 0x84 ADD PUSH2 0xC61 JUMP JUMPDEST CALLER PUSH1 0x0 SWAP1 DUP2 MSTORE PUSH1 0xA9 PUSH1 0x20 SWAP1 DUP2 MSTORE PUSH1 0x40 DUP1 DUP4 KECCAK256 DUP4 DUP2 SSTORE PUSH1 0x1 SWAP1 DUP2 ADD DUP5 SWAP1 SSTORE DUP5 MLOAD DUP5 MSTORE PUSH1 0xAA DUP4 MSTORE SWAP1 DUP4 KECCAK256 ADD SLOAD PUSH1 0x9A SLOAD SWAP2 DUP5 ADD MLOAD PUSH2 0x1A0B SWAP3 SWAP1 SWAP2 SWAP1 PUSH2 0x3ACB JUMP JUMPDEST PUSH1 0xA8 DUP1 SLOAD DUP3 SWAP1 SUB SWAP1 SSTORE PUSH1 0x99 SLOAD SWAP1 SWAP2 POP PUSH2 0x1A2E SWAP1 PUSH1 0x1 PUSH1 0x1 PUSH1 0xA0 SHL SUB AND CALLER DUP4 PUSH2 0x3EDB JUMP JUMPDEST PUSH1 0x40 MLOAD DUP2 DUP2 MSTORE CALLER SWAP1 DUP5 SWAP1 PUSH32 0x2027C7E85003814492322D04D360D8DF81AEBEB8A40A069FFFCCC25CDF9E359B SWAP1 PUSH1 0x20 ADD PUSH2 0x1613 JUMP JUMPDEST PUSH1 0x98 SLOAD PUSH1 0x40 MLOAD PUSH4 0x91006745 PUSH1 0xE0 SHL DUP2 MSTORE ADDRESS PUSH1 0x4 DUP3 ADD MSTORE CALLER PUSH1 0x24 DUP3 ADD DUP2 SWAP1 MSTORE SWAP2 PUSH1 0x1 PUSH1 0x1 PUSH1 0xA0 SHL SUB AND SWAP1 PUSH4 0x91006745 SWAP1 PUSH1 0x44 ADD PUSH1 0x20 PUSH1 0x40 MLOAD DUP1 DUP4 SUB DUP2 DUP7 GAS STATICCALL ISZERO DUP1 ISZERO PUSH2 0x1AB1 JUMPI RETURNDATASIZE PUSH1 0x0 DUP1 RETURNDATACOPY RETURNDATASIZE PUSH1 0x0 REVERT JUMPDEST POP POP POP POP PUSH1 0x40 MLOAD RETURNDATASIZE PUSH1 0x1F NOT PUSH1 0x1F DUP3 ADD AND DUP3 ADD DUP1 PUSH1 0x40 MSTORE POP DUP2 ADD SWAP1 PUSH2 0x1AD5 SWAP2 SWAP1 PUSH2 0x5324 JUMP JUMPDEST PUSH2 0x1B21 JUMPI PUSH1 0x40 MLOAD PUSH3 0x461BCD PUSH1 0xE5 SHL DUP2 MSTORE PUSH1 0x20 PUSH1 0x4 DUP3 ADD MSTORE PUSH1 0x10 PUSH1 0x24 DUP3 ADD MSTORE PUSH32 0x6572726F723A3A4E4F545F41444D494E00000000000000000000000000000000 PUSH1 0x44 DUP3 ADD MSTORE PUSH1 0x64 ADD PUSH2 0xC61 JUMP JUMPDEST PUSH8 0xFFFFFFFFFFFFFFFF DUP3 AND PUSH2 0x1B9E JUMPI PUSH1 0x40 MLOAD PUSH3 0x461BCD PUSH1 0xE5 SHL DUP2 MSTORE PUSH1 0x20 PUSH1 0x4 DUP3 ADD MSTORE PUSH1 0x25 PUSH1 0x24 DUP3 ADD MSTORE PUSH32 0x7365744861727665737444656C61793A3A44454C41595F43414E4E4F545F4245 PUSH1 0x44 DUP3 ADD MSTORE PUSH32 0x5F5A45524F000000000000000000000000000000000000000000000000000000 PUSH1 0x64 DUP3 ADD MSTORE PUSH1 0x84 ADD PUSH2 0xC61 JUMP JUMPDEST PUSH4 0x1E13380 DUP3 PUSH8 0xFFFFFFFFFFFFFFFF AND GT ISZERO PUSH2 0x1BFC JUMPI PUSH1 0x40 MLOAD PUSH3 0x461BCD PUSH1 0xE5 SHL DUP2 MSTORE PUSH1 0x20 PUSH1 0x4 DUP3 ADD MSTORE PUSH1 0x1F PUSH1 0x24 DUP3 ADD MSTORE PUSH32 0x7365744861727665737444656C61793A3A44454C41595F544F4F5F4C4F4E4700 PUSH1 0x44 DUP3 ADD MSTORE PUSH1 0x64 ADD PUSH2 0xC61 JUMP JUMPDEST PUSH1 0x9F SLOAD PUSH17 0x100000000000000000000000000000000 SWAP1 DIV PUSH8 0xFFFFFFFFFFFFFFFF AND PUSH2 0x1CA7 JUMPI PUSH1 0x9F DUP1 SLOAD PUSH32 0xFFFFFFFFFFFFFFFF0000000000000000FFFFFFFFFFFFFFFFFFFFFFFFFFFFFFFF AND PUSH17 0x100000000000000000000000000000000 PUSH8 0xFFFFFFFFFFFFFFFF DUP6 AND SWAP1 DUP2 MUL SWAP2 SWAP1 SWAP2 OR SWAP1 SWAP2 SSTORE PUSH1 0x40 MLOAD SWAP1 DUP2 MSTORE CALLER SWAP1 PUSH32 0xE893FA207C5A5094CAD036347B877C23EBECD9DF94AE0426F287040C13220B3F SWAP1 PUSH1 0x20 ADD PUSH1 0x40 MLOAD DUP1 SWAP2 SUB SWAP1 LOG2 POP POP JUMP JUMPDEST PUSH1 0x9F DUP1 SLOAD PUSH24 0xFFFFFFFFFFFFFFFFFFFFFFFFFFFFFFFFFFFFFFFFFFFFFFFF AND PUSH25 0x1000000000000000000000000000000000000000000000000 PUSH8 0xFFFFFFFFFFFFFFFF DUP6 AND SWAP1 DUP2 MUL SWAP2 SWAP1 SWAP2 OR SWAP1 SWAP2 SSTORE PUSH1 0x40 MLOAD SWAP1 DUP2 MSTORE PUSH32 0x12CE22E477E3FC08E5FDA24CDEC059A7C62A276344417F2C365D7476401BCA6F SWAP1 PUSH1 0x20 ADD PUSH2 0xD7D JUMP JUMPDEST PUSH1 0x98 SLOAD PUSH1 0x40 MLOAD PUSH4 0x91006745 PUSH1 0xE0 SHL DUP2 MSTORE ADDRESS PUSH1 0x4 DUP3 ADD MSTORE CALLER PUSH1 0x24 DUP3 ADD DUP2 SWAP1 MSTORE SWAP2 PUSH1 0x1 PUSH1 0x1 PUSH1 0xA0 SHL SUB AND SWAP1 PUSH4 0x91006745 SWAP1 PUSH1 0x44 ADD PUSH1 0x20 PUSH1 0x40 MLOAD DUP1 DUP4 SUB DUP2 DUP7 GAS STATICCALL ISZERO DUP1 ISZERO PUSH2 0x1D73 JUMPI RETURNDATASIZE PUSH1 0x0 DUP1 RETURNDATACOPY RETURNDATASIZE PUSH1 0x0 REVERT JUMPDEST POP POP POP POP PUSH1 0x40 MLOAD RETURNDATASIZE PUSH1 0x1F NOT PUSH1 0x1F DUP3 ADD AND DUP3 ADD DUP1 PUSH1 0x40 MSTORE POP DUP2 ADD SWAP1 PUSH2 0x1D97 SWAP2 SWAP1 PUSH2 0x5324 JUMP JUMPDEST PUSH2 0x1DE3 JUMPI PUSH1 0x40 MLOAD PUSH3 0x461BCD PUSH1 0xE5 SHL DUP2 MSTORE PUSH1 0x20 PUSH1 0x4 DUP3 ADD MSTORE PUSH1 0x10 PUSH1 0x24 DUP3 ADD MSTORE PUSH32 0x6572726F723A3A4E4F545F41444D494E00000000000000000000000000000000 PUSH1 0x44 DUP3 ADD MSTORE PUSH1 0x64 ADD PUSH2 0xC61 JUMP JUMPDEST PUSH8 0xDE0B6B3A7640000 DUP3 GT ISZERO PUSH2 0x1E61 JUMPI PUSH1 0x40 MLOAD PUSH3 0x461BCD PUSH1 0xE5 SHL DUP2 MSTORE PUSH1 0x20 PUSH1 0x4 DUP3 ADD MSTORE PUSH1 0x29 PUSH1 0x24 DUP3 ADD MSTORE PUSH32 0x736574426174636865644275726E696E6746656550657263656E743A3A464545 PUSH1 0x44 DUP3 ADD MSTORE PUSH32 0x5F544F4F5F484947480000000000000000000000000000000000000000000000 PUSH1 0x64 DUP3 ADD MSTORE PUSH1 0x84 ADD PUSH2 0xC61 JUMP JUMPDEST PUSH1 0x9D DUP3 SWAP1 SSTORE PUSH1 0x40 MLOAD DUP3 DUP2 MSTORE PUSH32 0xEA0B688AABE63E0B1F8D23FBFAAF5978C8D6B74C5B21BDC9787B4651482B8F4B SWAP1 PUSH1 0x20 ADD PUSH2 0xD7D JUMP JUMPDEST PUSH1 0xA8 SLOAD PUSH1 0x99 SLOAD PUSH1 0x40 MLOAD PUSH32 0x70A0823100000000000000000000000000000000000000000000000000000000 DUP2 MSTORE ADDRESS PUSH1 0x4 DUP3 ADD MSTORE PUSH1 0x0 SWAP3 SWAP2 PUSH1 0x1 PUSH1 0x1 PUSH1 0xA0 SHL SUB AND SWAP1 PUSH4 0x70A08231 SWAP1 PUSH1 0x24 ADD PUSH1 0x20 PUSH1 0x40 MLOAD DUP1 DUP4 SUB DUP2 DUP7 GAS STATICCALL ISZERO DUP1 ISZERO PUSH2 0x1EFC JUMPI RETURNDATASIZE PUSH1 0x0 DUP1 RETURNDATACOPY RETURNDATASIZE PUSH1 0x0 REVERT JUMPDEST POP POP POP POP PUSH1 0x40 MLOAD RETURNDATASIZE PUSH1 0x1F NOT PUSH1 0x1F DUP3 ADD AND DUP3 ADD DUP1 PUSH1 0x40 MSTORE POP DUP2 ADD SWAP1 PUSH2 0x1F20 SWAP2 SWAP1 PUSH2 0x53FF JUMP JUMPDEST SUB SWAP1 POP SWAP1 JUMP JUMPDEST PUSH1 0x60 PUSH1 0x37 DUP1 SLOAD PUSH2 0xB23 SWAP1 PUSH2 0x52D0 JUMP JUMPDEST CALLER PUSH1 0x0 SWAP1 DUP2 MSTORE PUSH1 0x34 PUSH1 0x20 SWAP1 DUP2 MSTORE PUSH1 0x40 DUP1 DUP4 KECCAK256 PUSH1 0x1 PUSH1 0x1 PUSH1 0xA0 SHL SUB DUP7 AND DUP5 MSTORE SWAP1 SWAP2 MSTORE DUP2 KECCAK256 SLOAD DUP3 DUP2 LT ISZERO PUSH2 0x1FCF JUMPI PUSH1 0x40 MLOAD PUSH3 0x461BCD PUSH1 0xE5 SHL DUP2 MSTORE PUSH1 0x20 PUSH1 0x4 DUP3 ADD MSTORE PUSH1 0x25 PUSH1 0x24 DUP3 ADD MSTORE PUSH32 0x45524332303A2064656372656173656420616C6C6F77616E63652062656C6F77 PUSH1 0x44 DUP3 ADD MSTORE PUSH32 0x207A65726F000000000000000000000000000000000000000000000000000000 PUSH1 0x64 DUP3 ADD MSTORE PUSH1 0x84 ADD PUSH2 0xC61 JUMP JUMPDEST PUSH2 0x1FDC CALLER DUP6 DUP6 DUP5 SUB PUSH2 0x397B JUMP JUMPDEST POP PUSH1 0x1 SWAP4 SWAP3 POP POP POP JUMP JUMPDEST PUSH1 0x0 PUSH2 0xD96 CALLER DUP5 DUP5 PUSH2 0x3FA6 JUMP JUMPDEST PUSH1 0x98 SLOAD PUSH1 0x40 MLOAD PUSH4 0x91006745 PUSH1 0xE0 SHL DUP2 MSTORE ADDRESS PUSH1 0x4 DUP3 ADD MSTORE CALLER PUSH1 0x24 DUP3 ADD DUP2 SWAP1 MSTORE SWAP2 PUSH1 0x1 PUSH1 0x1 PUSH1 0xA0 SHL SUB AND SWAP1 PUSH4 0x91006745 SWAP1 PUSH1 0x44 ADD PUSH1 0x20 PUSH1 0x40 MLOAD DUP1 DUP4 SUB DUP2 DUP7 GAS STATICCALL ISZERO DUP1 ISZERO PUSH2 0x2042 JUMPI RETURNDATASIZE PUSH1 0x0 DUP1 RETURNDATACOPY RETURNDATASIZE PUSH1 0x0 REVERT JUMPDEST POP POP POP POP PUSH1 0x40 MLOAD RETURNDATASIZE PUSH1 0x1F NOT PUSH1 0x1F DUP3 ADD AND DUP3 ADD DUP1 PUSH1 0x40 MSTORE POP DUP2 ADD SWAP1 PUSH2 0x2066 SWAP2 SWAP1 PUSH2 0x5324 JUMP JUMPDEST PUSH2 0x20B2 JUMPI PUSH1 0x40 MLOAD PUSH3 0x461BCD PUSH1 0xE5 SHL DUP2 MSTORE PUSH1 0x20 PUSH1 0x4 DUP3 ADD MSTORE PUSH1 0x10 PUSH1 0x24 DUP3 ADD MSTORE PUSH32 0x6572726F723A3A4E4F545F41444D494E00000000000000000000000000000000 PUSH1 0x44 DUP3 ADD MSTORE PUSH1 0x64 ADD PUSH2 0xC61 JUMP JUMPDEST PUSH1 0x14 DUP3 GT ISZERO PUSH2 0x2129 JUMPI PUSH1 0x40 MLOAD PUSH3 0x461BCD PUSH1 0xE5 SHL DUP2 MSTORE PUSH1 0x20 PUSH1 0x4 DUP3 ADD MSTORE PUSH1 0x21 PUSH1 0x24 DUP3 ADD MSTORE PUSH32 0x7365745769746864726177616C51756575653A3A51554555455F544F4F5F4249 PUSH1 0x44 DUP3 ADD MSTORE PUSH32 0x4700000000000000000000000000000000000000000000000000000000000000 PUSH1 0x64 DUP3 ADD MSTORE PUSH1 0x84 ADD PUSH2 0xC61 JUMP JUMPDEST PUSH2 0x2135 PUSH1 0xA6 DUP5 DUP5 PUSH2 0x4EE4 JUMP JUMPDEST POP PUSH32 0x7F5ECD11ABC947C192F7D36828C4A649DDECD0867F27DF66489E78D3EC80B6FE DUP4 DUP4 PUSH1 0x40 MLOAD PUSH2 0x17F3 SWAP3 SWAP2 SWAP1 PUSH2 0x5418 JUMP JUMPDEST PUSH1 0x98 SLOAD PUSH1 0x40 MLOAD PUSH4 0x91006745 PUSH1 0xE0 SHL DUP2 MSTORE ADDRESS PUSH1 0x4 DUP3 ADD MSTORE CALLER PUSH1 0x24 DUP3 ADD DUP2 SWAP1 MSTORE SWAP2 PUSH1 0x1 PUSH1 0x1 PUSH1 0xA0 SHL SUB AND SWAP1 PUSH4 0x91006745 SWAP1 PUSH1 0x44 ADD PUSH1 0x20 PUSH1 0x40 MLOAD DUP1 DUP4 SUB DUP2 DUP7 GAS STATICCALL ISZERO DUP1 ISZERO PUSH2 0x21B6 JUMPI RETURNDATASIZE PUSH1 0x0 DUP1 RETURNDATACOPY RETURNDATASIZE PUSH1 0x0 REVERT JUMPDEST POP POP POP POP PUSH1 0x40 MLOAD RETURNDATASIZE PUSH1 0x1F NOT PUSH1 0x1F DUP3 ADD AND DUP3 ADD DUP1 PUSH1 0x40 MSTORE POP DUP2 ADD SWAP1 PUSH2 0x21DA SWAP2 SWAP1 PUSH2 0x5324 JUMP JUMPDEST PUSH2 0x2226 JUMPI PUSH1 0x40 MLOAD PUSH3 0x461BCD PUSH1 0xE5 SHL DUP2 MSTORE PUSH1 0x20 PUSH1 0x4 DUP3 ADD MSTORE PUSH1 0x10 PUSH1 0x24 DUP3 ADD MSTORE PUSH32 0x6572726F723A3A4E4F545F41444D494E00000000000000000000000000000000 PUSH1 0x44 DUP3 ADD MSTORE PUSH1 0x64 ADD PUSH2 0xC61 JUMP JUMPDEST PUSH1 0x9C DUP1 SLOAD PUSH32 0xFFFFFFFFFFFFFFFFFFFFFFFF0000000000000000000000000000000000000000 AND PUSH1 0x1 PUSH1 0x1 PUSH1 0xA0 SHL SUB DUP5 AND SWAP1 DUP2 OR SWAP1 SWAP2 SSTORE PUSH1 0x40 MLOAD PUSH32 0xBA702855580CDA8666C4FE8E4AE71D8F5DD19DB067455EEB54E2BAC95C46AF13 SWAP1 PUSH1 0x0 SWAP1 LOG2 POP POP JUMP JUMPDEST PUSH1 0x98 SLOAD PUSH1 0x40 MLOAD PUSH4 0x91006745 PUSH1 0xE0 SHL DUP2 MSTORE ADDRESS PUSH1 0x4 DUP3 ADD MSTORE CALLER PUSH1 0x24 DUP3 ADD DUP2 SWAP1 MSTORE SWAP2 PUSH1 0x1 PUSH1 0x1 PUSH1 0xA0 SHL SUB AND SWAP1 PUSH4 0x91006745 SWAP1 PUSH1 0x44 ADD PUSH1 0x20 PUSH1 0x40 MLOAD DUP1 DUP4 SUB DUP2 DUP7 GAS STATICCALL ISZERO DUP1 ISZERO PUSH2 0x22D8 JUMPI RETURNDATASIZE PUSH1 0x0 DUP1 RETURNDATACOPY RETURNDATASIZE PUSH1 0x0 REVERT JUMPDEST POP POP POP POP PUSH1 0x40 MLOAD RETURNDATASIZE PUSH1 0x1F NOT PUSH1 0x1F DUP3 ADD AND DUP3 ADD DUP1 PUSH1 0x40 MSTORE POP DUP2 ADD SWAP1 PUSH2 0x22FC SWAP2 SWAP1 PUSH2 0x5324 JUMP JUMPDEST PUSH2 0x2348 JUMPI PUSH1 0x40 MLOAD PUSH3 0x461BCD PUSH1 0xE5 SHL DUP2 MSTORE PUSH1 0x20 PUSH1 0x4 DUP3 ADD MSTORE PUSH1 0x10 PUSH1 0x24 DUP3 ADD MSTORE PUSH32 0x6572726F723A3A4E4F545F41444D494E00000000000000000000000000000000 PUSH1 0x44 DUP3 ADD MSTORE PUSH1 0x64 ADD PUSH2 0xC61 JUMP JUMPDEST PUSH1 0x1 PUSH1 0x1 PUSH1 0xA0 SHL SUB DUP4 AND PUSH1 0x0 SWAP1 DUP2 MSTORE PUSH1 0xA1 PUSH1 0x20 MSTORE PUSH1 0x40 SWAP1 KECCAK256 SLOAD PUSH1 0xFF AND PUSH2 0x23D6 JUMPI PUSH1 0x40 MLOAD PUSH3 0x461BCD PUSH1 0xE5 SHL DUP2 MSTORE PUSH1 0x20 PUSH1 0x4 DUP3 ADD MSTORE PUSH1 0x28 PUSH1 0x24 DUP3 ADD MSTORE PUSH32 0x776974686472617746726F6D53747261746567793A3A554E545255535445445F PUSH1 0x44 DUP3 ADD MSTORE PUSH32 0x5354524154454759000000000000000000000000000000000000000000000000 PUSH1 0x64 DUP3 ADD MSTORE PUSH1 0x84 ADD PUSH2 0xC61 JUMP JUMPDEST DUP2 PUSH2 0x2449 JUMPI PUSH1 0x40 MLOAD PUSH3 0x461BCD PUSH1 0xE5 SHL DUP2 MSTORE PUSH1 0x20 PUSH1 0x4 DUP3 ADD MSTORE PUSH1 0x2B PUSH1 0x24 DUP3 ADD MSTORE PUSH32 0x776974686472617746726F6D53747261746567793A3A414D4F554E545F43414E PUSH1 0x44 DUP3 ADD MSTORE PUSH32 0x4E4F545F42455F5A45524F000000000000000000000000000000000000000000 PUSH1 0x64 DUP3 ADD MSTORE PUSH1 0x84 ADD PUSH2 0xC61 JUMP JUMPDEST PUSH2 0x2452 DUP3 PUSH2 0x45B5 JUMP JUMPDEST PUSH1 0x1 PUSH1 0x1 PUSH1 0xA0 SHL SUB DUP5 AND PUSH1 0x0 SWAP1 DUP2 MSTORE PUSH1 0xA1 PUSH1 0x20 MSTORE PUSH1 0x40 SWAP1 KECCAK256 DUP1 SLOAD PUSH1 0x1 SWAP1 PUSH2 0x24A0 SWAP1 DUP5 SWAP1 PUSH2 0x100 SWAP1 DIV PUSH31 0xFFFFFFFFFFFFFFFFFFFFFFFFFFFFFFFFFFFFFFFFFFFFFFFFFFFFFFFFFFFFFF AND PUSH2 0x5466 JUMP JUMPDEST DUP3 SLOAD PUSH31 0xFFFFFFFFFFFFFFFFFFFFFFFFFFFFFFFFFFFFFFFFFFFFFFFFFFFFFFFFFFFFFF SWAP2 DUP3 AND PUSH2 0x100 SWAP4 SWAP1 SWAP4 EXP SWAP3 DUP4 MUL SWAP2 SWAP1 SWAP3 MUL NOT SWAP1 SWAP2 AND OR SWAP1 SSTORE POP PUSH1 0xA0 DUP1 SLOAD DUP4 SWAP1 SUB SWAP1 SSTORE PUSH1 0x40 MLOAD DUP3 DUP2 MSTORE PUSH1 0x1 PUSH1 0x1 PUSH1 0xA0 SHL SUB DUP5 AND SWAP1 CALLER SWAP1 PUSH32 0x8D851B682E239B1DE720E92E5C5CFFDB72D353104CC63DC6ED144D7080217FBE SWAP1 PUSH1 0x20 ADD PUSH1 0x40 MLOAD DUP1 SWAP2 SUB SWAP1 LOG3 PUSH1 0x40 MLOAD PUSH32 0x2E1A7D4D00000000000000000000000000000000000000000000000000000000 DUP2 MSTORE PUSH1 0x4 DUP2 ADD DUP4 SWAP1 MSTORE PUSH1 0x1 PUSH1 0x1 PUSH1 0xA0 SHL SUB DUP5 AND SWAP1 PUSH4 0x2E1A7D4D SWAP1 PUSH1 0x24 ADD PUSH1 0x20 PUSH1 0x40 MLOAD DUP1 DUP4 SUB DUP2 PUSH1 0x0 DUP8 GAS CALL ISZERO DUP1 ISZERO PUSH2 0x2584 JUMPI RETURNDATASIZE PUSH1 0x0 DUP1 RETURNDATACOPY RETURNDATASIZE PUSH1 0x0 REVERT JUMPDEST POP POP POP POP PUSH1 0x40 MLOAD RETURNDATASIZE PUSH1 0x1F NOT PUSH1 0x1F DUP3 ADD AND DUP3 ADD DUP1 PUSH1 0x40 MSTORE POP DUP2 ADD SWAP1 PUSH2 0x25A8 SWAP2 SWAP1 PUSH2 0x54A6 JUMP JUMPDEST PUSH1 0xFF AND ISZERO PUSH2 0x261E JUMPI PUSH1 0x40 MLOAD PUSH3 0x461BCD PUSH1 0xE5 SHL DUP2 MSTORE PUSH1 0x20 PUSH1 0x4 DUP3 ADD MSTORE PUSH1 0x23 PUSH1 0x24 DUP3 ADD MSTORE PUSH32 0x776974686472617746726F6D53747261746567793A3A52454445454D5F464149 PUSH1 0x44 DUP3 ADD MSTORE PUSH32 0x4C45440000000000000000000000000000000000000000000000000000000000 PUSH1 0x64 DUP3 ADD MSTORE PUSH1 0x84 ADD PUSH2 0xC61 JUMP JUMPDEST POP POP POP JUMP JUMPDEST PUSH1 0x98 SLOAD PUSH1 0x40 MLOAD PUSH4 0x91006745 PUSH1 0xE0 SHL DUP2 MSTORE ADDRESS PUSH1 0x4 DUP3 ADD MSTORE CALLER PUSH1 0x24 DUP3 ADD DUP2 SWAP1 MSTORE SWAP2 PUSH1 0x1 PUSH1 0x1 PUSH1 0xA0 SHL SUB AND SWAP1 PUSH4 0x91006745 SWAP1 PUSH1 0x44 ADD PUSH1 0x20 PUSH1 0x40 MLOAD DUP1 DUP4 SUB DUP2 DUP7 GAS STATICCALL ISZERO DUP1 ISZERO PUSH2 0x2672 JUMPI RETURNDATASIZE PUSH1 0x0 DUP1 RETURNDATACOPY RETURNDATASIZE PUSH1 0x0 REVERT JUMPDEST POP POP POP POP PUSH1 0x40 MLOAD RETURNDATASIZE PUSH1 0x1F NOT PUSH1 0x1F DUP3 ADD AND DUP3 ADD DUP1 PUSH1 0x40 MSTORE POP DUP2 ADD SWAP1 PUSH2 0x2696 SWAP2 SWAP1 PUSH2 0x5324 JUMP JUMPDEST PUSH2 0x26E2 JUMPI PUSH1 0x40 MLOAD PUSH3 0x461BCD PUSH1 0xE5 SHL DUP2 MSTORE PUSH1 0x20 PUSH1 0x4 DUP3 ADD MSTORE PUSH1 0x10 PUSH1 0x24 DUP3 ADD MSTORE PUSH32 0x6572726F723A3A4E4F545F41444D494E00000000000000000000000000000000 PUSH1 0x44 DUP3 ADD MSTORE PUSH1 0x64 ADD PUSH2 0xC61 JUMP JUMPDEST PUSH1 0x1 PUSH1 0x1 PUSH1 0xA0 SHL SUB DUP4 AND PUSH1 0x0 SWAP1 DUP2 MSTORE PUSH1 0xA1 PUSH1 0x20 MSTORE PUSH1 0x40 SWAP1 KECCAK256 SLOAD PUSH1 0xFF AND PUSH2 0x2770 JUMPI PUSH1 0x40 MLOAD PUSH3 0x461BCD PUSH1 0xE5 SHL DUP2 MSTORE PUSH1 0x20 PUSH1 0x4 DUP3 ADD MSTORE PUSH1 0x27 PUSH1 0x24 DUP3 ADD MSTORE PUSH32 0x6465706F736974496E746F53747261746567793A3A554E545255535445445F53 PUSH1 0x44 DUP3 ADD MSTORE PUSH32 0x5452415445475900000000000000000000000000000000000000000000000000 PUSH1 0x64 DUP3 ADD MSTORE PUSH1 0x84 ADD PUSH2 0xC61 JUMP JUMPDEST DUP2 PUSH2 0x27E3 JUMPI PUSH1 0x40 MLOAD PUSH3 0x461BCD PUSH1 0xE5 SHL DUP2 MSTORE PUSH1 0x20 PUSH1 0x4 DUP3 ADD MSTORE PUSH1 0x2A PUSH1 0x24 DUP3 ADD MSTORE PUSH32 0x6465706F736974496E746F53747261746567793A3A414D4F554E545F43414E4E PUSH1 0x44 DUP3 ADD MSTORE PUSH32 0x4F545F42455F5A45524F00000000000000000000000000000000000000000000 PUSH1 0x64 DUP3 ADD MSTORE PUSH1 0x84 ADD PUSH2 0xC61 JUMP JUMPDEST DUP2 PUSH1 0xA0 PUSH1 0x0 DUP3 DUP3 SLOAD PUSH2 0x27F5 SWAP2 SWAP1 PUSH2 0x53A1 JUMP JUMPDEST SWAP1 SWAP2 SSTORE POP PUSH2 0x2804 SWAP1 POP DUP3 PUSH2 0x45B5 JUMP JUMPDEST PUSH1 0x1 PUSH1 0x1 PUSH1 0xA0 SHL SUB DUP5 AND PUSH1 0x0 DUP2 DUP2 MSTORE PUSH1 0xA1 PUSH1 0x20 MSTORE PUSH1 0x40 SWAP1 DUP2 SWAP1 KECCAK256 DUP1 SLOAD PUSH31 0xFFFFFFFFFFFFFFFFFFFFFFFFFFFFFFFFFFFFFFFFFFFFFFFFFFFFFFFFFFFFFF PUSH2 0x100 DUP1 DUP4 DIV DUP3 AND SWAP1 SWAP7 ADD AND SWAP1 SWAP5 MUL PUSH1 0xFF SWAP1 SWAP5 AND SWAP4 SWAP1 SWAP4 OR SWAP1 SWAP3 SSTORE SWAP1 MLOAD CALLER SWAP1 PUSH32 0x49E9138FE0DACF001EA634236E38AA8BD229EFD55EC4D7975228D679DB6CE8F9 SWAP1 PUSH2 0x288E SWAP1 DUP7 DUP2 MSTORE PUSH1 0x20 ADD SWAP1 JUMP JUMPDEST PUSH1 0x40 MLOAD DUP1 SWAP2 SUB SWAP1 LOG3 PUSH1 0x99 SLOAD PUSH2 0x28AD SWAP1 PUSH1 0x1 PUSH1 0x1 PUSH1 0xA0 SHL SUB AND DUP5 DUP5 PUSH2 0x45E7 JUMP JUMPDEST PUSH1 0x40 MLOAD PUSH32 0xB6B55F2500000000000000000000000000000000000000000000000000000000 DUP2 MSTORE PUSH1 0x4 DUP2 ADD DUP4 SWAP1 MSTORE PUSH1 0x1 PUSH1 0x1 PUSH1 0xA0 SHL SUB DUP5 AND SWAP1 PUSH4 0xB6B55F25 SWAP1 PUSH1 0x24 ADD PUSH1 0x20 PUSH1 0x40 MLOAD DUP1 DUP4 SUB DUP2 PUSH1 0x0 DUP8 GAS CALL ISZERO DUP1 ISZERO PUSH2 0x290D JUMPI RETURNDATASIZE PUSH1 0x0 DUP1 RETURNDATACOPY RETURNDATASIZE PUSH1 0x0 REVERT JUMPDEST POP POP POP POP PUSH1 0x40 MLOAD RETURNDATASIZE PUSH1 0x1F NOT PUSH1 0x1F DUP3 ADD AND DUP3 ADD DUP1 PUSH1 0x40 MSTORE POP DUP2 ADD SWAP1 PUSH2 0x2931 SWAP2 SWAP1 PUSH2 0x54A6 JUMP JUMPDEST PUSH1 0xFF AND ISZERO PUSH2 0x261E JUMPI PUSH1 0x40 MLOAD PUSH3 0x461BCD PUSH1 0xE5 SHL DUP2 MSTORE PUSH1 0x20 PUSH1 0x4 DUP3 ADD DUP2 SWAP1 MSTORE PUSH1 0x24 DUP3 ADD MSTORE PUSH32 0x6465706F736974496E746F53747261746567793A3A4D494E545F4641494C4544 PUSH1 0x44 DUP3 ADD MSTORE PUSH1 0x64 ADD PUSH2 0xC61 JUMP JUMPDEST PUSH1 0x0 PUSH2 0x298B PUSH2 0x1650 JUMP JUMPDEST PUSH1 0xA0 SLOAD SUB SWAP1 POP PUSH2 0x2999 PUSH2 0x1E96 JUMP JUMPDEST PUSH2 0x29A3 SWAP1 DUP3 PUSH2 0x53A1 JUMP JUMPDEST SWAP1 POP SWAP1 JUMP JUMPDEST PUSH1 0xA6 DUP2 DUP2 SLOAD DUP2 LT PUSH2 0x29B8 JUMPI PUSH1 0x0 DUP1 REVERT JUMPDEST PUSH1 0x0 SWAP2 DUP3 MSTORE PUSH1 0x20 SWAP1 SWAP2 KECCAK256 ADD SLOAD PUSH1 0x1 PUSH1 0x1 PUSH1 0xA0 SHL SUB AND SWAP1 POP DUP2 JUMP JUMPDEST PUSH1 0x98 SLOAD PUSH1 0x40 MLOAD PUSH4 0x91006745 PUSH1 0xE0 SHL DUP2 MSTORE ADDRESS PUSH1 0x4 DUP3 ADD MSTORE CALLER PUSH1 0x24 DUP3 ADD DUP2 SWAP1 MSTORE SWAP2 PUSH1 0x1 PUSH1 0x1 PUSH1 0xA0 SHL SUB AND SWAP1 PUSH4 0x91006745 SWAP1 PUSH1 0x44 ADD PUSH1 0x20 PUSH1 0x40 MLOAD DUP1 DUP4 SUB DUP2 DUP7 GAS STATICCALL ISZERO DUP1 ISZERO PUSH2 0x2A21 JUMPI RETURNDATASIZE PUSH1 0x0 DUP1 RETURNDATACOPY RETURNDATASIZE PUSH1 0x0 REVERT JUMPDEST POP POP POP POP PUSH1 0x40 MLOAD RETURNDATASIZE PUSH1 0x1F NOT PUSH1 0x1F DUP3 ADD AND DUP3 ADD DUP1 PUSH1 0x40 MSTORE POP DUP2 ADD SWAP1 PUSH2 0x2A45 SWAP2 SWAP1 PUSH2 0x5324 JUMP JUMPDEST PUSH2 0x2A91 JUMPI PUSH1 0x40 MLOAD PUSH3 0x461BCD PUSH1 0xE5 SHL DUP2 MSTORE PUSH1 0x20 PUSH1 0x4 DUP3 ADD MSTORE PUSH1 0x10 PUSH1 0x24 DUP3 ADD MSTORE PUSH32 0x6572726F723A3A4E4F545F41444D494E00000000000000000000000000000000 PUSH1 0x44 DUP3 ADD MSTORE PUSH1 0x64 ADD PUSH2 0xC61 JUMP JUMPDEST PUSH1 0x1 PUSH1 0x1 PUSH1 0xA0 SHL SUB DUP3 AND PUSH1 0x0 DUP2 DUP2 MSTORE PUSH1 0xA1 PUSH1 0x20 MSTORE PUSH1 0x40 DUP1 DUP3 KECCAK256 DUP1 SLOAD PUSH1 0xFF NOT AND SWAP1 SSTORE MLOAD PUSH32 0xE14D923EC37225F1AAB033B03F5C98CF911D68BBA31F6908192DB6C24B0511C9 SWAP2 SWAP1 LOG2 POP POP JUMP JUMPDEST PUSH1 0x98 SLOAD PUSH1 0x40 MLOAD PUSH32 0xE6CF324000000000000000000000000000000000000000000000000000000000 DUP2 MSTORE ADDRESS PUSH1 0x4 DUP3 ADD MSTORE CALLER PUSH1 0x24 DUP3 ADD DUP2 SWAP1 MSTORE SWAP2 PUSH1 0x1 PUSH1 0x1 PUSH1 0xA0 SHL SUB AND SWAP1 PUSH4 0xE6CF3240 SWAP1 PUSH1 0x44 ADD PUSH1 0x20 PUSH1 0x40 MLOAD DUP1 DUP4 SUB DUP2 DUP7 GAS STATICCALL ISZERO DUP1 ISZERO PUSH2 0x2B43 JUMPI RETURNDATASIZE PUSH1 0x0 DUP1 RETURNDATACOPY RETURNDATASIZE PUSH1 0x0 REVERT JUMPDEST POP POP POP POP PUSH1 0x40 MLOAD RETURNDATASIZE PUSH1 0x1F NOT PUSH1 0x1F DUP3 ADD AND DUP3 ADD DUP1 PUSH1 0x40 MSTORE POP DUP2 ADD SWAP1 PUSH2 0x2B67 SWAP2 SWAP1 PUSH2 0x5324 JUMP JUMPDEST PUSH2 0x2BB3 JUMPI PUSH1 0x40 MLOAD PUSH3 0x461BCD PUSH1 0xE5 SHL DUP2 MSTORE PUSH1 0x20 PUSH1 0x4 DUP3 ADD MSTORE PUSH1 0x14 PUSH1 0x24 DUP3 ADD MSTORE PUSH32 0x6572726F723A3A4E4F545F484152564553544552000000000000000000000000 PUSH1 0x44 DUP3 ADD MSTORE PUSH1 0x64 ADD PUSH2 0xC61 JUMP JUMPDEST PUSH1 0x9F SLOAD PUSH1 0xA5 SLOAD PUSH2 0x2BF0 SWAP2 PUSH8 0xFFFFFFFFFFFFFFFF PUSH17 0x100000000000000000000000000000000 SWAP1 SWAP2 DIV DUP2 AND SWAP2 PUSH9 0x10000000000000000 SWAP1 DIV AND PUSH2 0x5375 JUMP JUMPDEST PUSH8 0xFFFFFFFFFFFFFFFF AND TIMESTAMP LT PUSH2 0x2C58 JUMPI PUSH2 0x2C08 PUSH2 0x14C9 JUMP JUMPDEST PUSH1 0xA2 SSTORE PUSH1 0xA4 SLOAD PUSH2 0x2C18 SWAP1 NUMBER PUSH2 0x53B9 JUMP JUMPDEST PUSH1 0xA3 SSTORE NUMBER PUSH1 0xA4 SSTORE PUSH1 0xA5 DUP1 SLOAD PUSH32 0xFFFFFFFFFFFFFFFFFFFFFFFFFFFFFFFFFFFFFFFFFFFFFFFF0000000000000000 AND TIMESTAMP PUSH8 0xFFFFFFFFFFFFFFFF AND OR SWAP1 SSTORE PUSH2 0x2CE5 JUMP JUMPDEST PUSH1 0x9F SLOAD PUSH1 0xA5 SLOAD PUSH2 0x2C84 SWAP2 PUSH16 0xFFFFFFFFFFFFFFFFFFFFFFFFFFFFFFFF AND SWAP1 PUSH8 0xFFFFFFFFFFFFFFFF AND PUSH2 0x54C9 JUMP JUMPDEST PUSH16 0xFFFFFFFFFFFFFFFFFFFFFFFFFFFFFFFF AND TIMESTAMP GT ISZERO PUSH2 0x2CE5 JUMPI PUSH1 0x40 MLOAD PUSH3 0x461BCD PUSH1 0xE5 SHL DUP2 MSTORE PUSH1 0x20 PUSH1 0x4 DUP3 ADD MSTORE PUSH1 0x19 PUSH1 0x24 DUP3 ADD MSTORE PUSH32 0x686172766573743A3A4241445F484152564553545F54494D4500000000000000 PUSH1 0x44 DUP3 ADD MSTORE PUSH1 0x64 ADD PUSH2 0xC61 JUMP JUMPDEST PUSH1 0xA0 SLOAD PUSH1 0x0 DUP2 DUP2 JUMPDEST DUP6 DUP2 LT ISZERO PUSH2 0x2EDB JUMPI PUSH1 0x0 DUP8 DUP8 DUP4 DUP2 DUP2 LT PUSH2 0x2D09 JUMPI PUSH2 0x2D09 PUSH2 0x54F4 JUMP JUMPDEST SWAP1 POP PUSH1 0x20 MUL ADD PUSH1 0x20 DUP2 ADD SWAP1 PUSH2 0x2D1E SWAP2 SWAP1 PUSH2 0x511C JUMP JUMPDEST PUSH1 0x1 PUSH1 0x1 PUSH1 0xA0 SHL SUB DUP2 AND PUSH1 0x0 SWAP1 DUP2 MSTORE PUSH1 0xA1 PUSH1 0x20 MSTORE PUSH1 0x40 SWAP1 KECCAK256 SLOAD SWAP1 SWAP2 POP PUSH1 0xFF AND PUSH2 0x2D89 JUMPI PUSH1 0x40 MLOAD PUSH3 0x461BCD PUSH1 0xE5 SHL DUP2 MSTORE PUSH1 0x20 PUSH1 0x4 DUP3 ADD MSTORE PUSH1 0x1B PUSH1 0x24 DUP3 ADD MSTORE PUSH32 0x686172766573743A3A554E545255535445445F53545241544547590000000000 PUSH1 0x44 DUP3 ADD MSTORE PUSH1 0x64 ADD PUSH2 0xC61 JUMP JUMPDEST PUSH1 0x1 PUSH1 0x1 PUSH1 0xA0 SHL SUB DUP2 AND PUSH1 0x0 DUP2 DUP2 MSTORE PUSH1 0xA1 PUSH1 0x20 SWAP1 DUP2 MSTORE PUSH1 0x40 DUP1 DUP4 KECCAK256 SLOAD DUP2 MLOAD PUSH32 0x27E5CBAF00000000000000000000000000000000000000000000000000000000 DUP2 MSTORE SWAP2 MLOAD PUSH2 0x100 SWAP1 SWAP2 DIV PUSH31 0xFFFFFFFFFFFFFFFFFFFFFFFFFFFFFFFFFFFFFFFFFFFFFFFFFFFFFFFFFFFFFF AND SWAP5 SWAP3 PUSH4 0x27E5CBAF SWAP3 PUSH1 0x4 DUP1 DUP3 ADD SWAP4 SWAP2 DUP3 SWAP1 SUB ADD DUP2 DUP8 DUP8 GAS CALL ISZERO DUP1 ISZERO PUSH2 0x2E1C JUMPI RETURNDATASIZE PUSH1 0x0 DUP1 RETURNDATACOPY RETURNDATASIZE PUSH1 0x0 REVERT JUMPDEST POP POP POP POP PUSH1 0x40 MLOAD RETURNDATASIZE PUSH1 0x1F NOT PUSH1 0x1F DUP3 ADD AND DUP3 ADD DUP1 PUSH1 0x40 MSTORE POP DUP2 ADD SWAP1 PUSH2 0x2E40 SWAP2 SWAP1 PUSH2 0x53FF JUMP JUMPDEST SWAP1 POP PUSH2 0x2E4B DUP2 PUSH2 0x45B5 JUMP JUMPDEST PUSH1 0x1 PUSH1 0x1 PUSH1 0xA0 SHL SUB DUP5 AND PUSH1 0x0 SWAP1 DUP2 MSTORE PUSH1 0xA1 PUSH1 0x20 MSTORE PUSH1 0x40 SWAP1 KECCAK256 DUP1 SLOAD PUSH31 0xFFFFFFFFFFFFFFFFFFFFFFFFFFFFFFFFFFFFFFFFFFFFFFFFFFFFFFFFFFFFFF SWAP3 SWAP1 SWAP3 AND PUSH2 0x100 MUL PUSH1 0xFF SWAP1 SWAP3 AND SWAP2 SWAP1 SWAP2 OR SWAP1 SSTORE DUP2 PUSH2 0x2EA3 DUP3 DUP8 PUSH2 0x53A1 JUMP JUMPDEST PUSH2 0x2EAD SWAP2 SWAP1 PUSH2 0x53B9 JUMP JUMPDEST SWAP5 POP DUP2 DUP2 GT PUSH2 0x2EBD JUMPI PUSH1 0x0 PUSH2 0x2EC1 JUMP JUMPDEST DUP2 DUP2 SUB JUMPDEST DUP7 ADD SWAP6 POP POP POP POP DUP1 DUP1 PUSH2 0x2ED3 SWAP1 PUSH2 0x5523 JUMP JUMPDEST SWAP2 POP POP PUSH2 0x2CED JUMP JUMPDEST POP PUSH1 0x9B SLOAD PUSH1 0x0 SWAP1 PUSH2 0x2EF6 SWAP1 DUP5 SWAP1 PUSH8 0xDE0B6B3A7640000 PUSH2 0x3ACB JUMP JUMPDEST SWAP1 POP DUP1 ISZERO DUP1 ISZERO SWAP1 PUSH2 0x2F11 JUMPI POP PUSH1 0x9C SLOAD PUSH1 0x1 PUSH1 0x1 PUSH1 0xA0 SHL SUB AND ISZERO ISZERO JUMPDEST ISZERO PUSH2 0x2F41 JUMPI PUSH1 0x9C SLOAD PUSH2 0x2F41 SWAP1 PUSH1 0x1 PUSH1 0x1 PUSH1 0xA0 SHL SUB AND PUSH2 0x2F3C PUSH2 0x2F31 PUSH2 0x14C9 JUMP JUMPDEST PUSH1 0x9A SLOAD DUP6 SWAP2 SWAP1 PUSH2 0x3F84 JUMP JUMPDEST PUSH2 0x4735 JUMP JUMPDEST PUSH1 0x0 PUSH2 0x2F69 DUP3 DUP6 PUSH2 0x2F50 PUSH2 0x1650 JUMP JUMPDEST PUSH2 0x2F5A SWAP2 SWAP1 PUSH2 0x53A1 JUMP JUMPDEST PUSH2 0x2F64 SWAP2 SWAP1 PUSH2 0x53B9 JUMP JUMPDEST PUSH2 0x4814 JUMP JUMPDEST PUSH1 0xA5 DUP1 SLOAD PUSH16 0xFFFFFFFFFFFFFFFFFFFFFFFFFFFFFFFF DUP1 DUP5 AND PUSH17 0x100000000000000000000000000000000 DUP2 MUL SWAP2 SWAP1 SWAP3 AND OR SWAP1 SWAP2 SSTORE SWAP1 SWAP2 POP PUSH1 0x0 SWAP1 PUSH2 0x2FAD SWAP1 DUP6 PUSH2 0x53B9 JUMP JUMPDEST SWAP1 POP PUSH2 0x2FCE DUP2 DUP4 PUSH16 0xFFFFFFFFFFFFFFFFFFFFFFFFFFFFFFFF AND PUSH1 0xA3 SLOAD PUSH2 0x4833 JUMP JUMPDEST PUSH1 0xAD SSTORE PUSH1 0xA0 DUP5 SWAP1 SSTORE PUSH1 0xA5 DUP1 SLOAD PUSH32 0xFFFFFFFFFFFFFFFFFFFFFFFFFFFFFFFF0000000000000000FFFFFFFFFFFFFFFF AND PUSH9 0x10000000000000000 TIMESTAMP PUSH8 0xFFFFFFFFFFFFFFFF AND MUL OR SWAP1 SSTORE PUSH1 0x40 MLOAD CALLER SWAP1 PUSH32 0x69E9C71F6799744A94D9897E77C3ED426CC2F92BA0EF3300785368209B6F4B2D SWAP1 PUSH2 0x3049 SWAP1 DUP13 SWAP1 DUP13 SWAP1 PUSH2 0x5418 JUMP JUMPDEST PUSH1 0x40 MLOAD DUP1 SWAP2 SUB SWAP1 LOG2 PUSH1 0x9F SLOAD PUSH25 0x1000000000000000000000000000000000000000000000000 SWAP1 DIV PUSH8 0xFFFFFFFFFFFFFFFF AND DUP1 ISZERO PUSH2 0x310D JUMPI PUSH1 0x9F DUP1 SLOAD PUSH16 0xFFFFFFFFFFFFFFFFFFFFFFFFFFFFFFFF AND PUSH17 0x100000000000000000000000000000000 PUSH8 0xFFFFFFFFFFFFFFFF DUP5 AND SWAP1 DUP2 MUL PUSH24 0xFFFFFFFFFFFFFFFFFFFFFFFFFFFFFFFFFFFFFFFFFFFFFFFF AND SWAP2 SWAP1 SWAP2 OR SWAP1 SWAP2 SSTORE PUSH1 0x40 MLOAD SWAP1 DUP2 MSTORE CALLER SWAP1 PUSH32 0xE893FA207C5A5094CAD036347B877C23EBECD9DF94AE0426F287040C13220B3F SWAP1 PUSH1 0x20 ADD PUSH1 0x40 MLOAD DUP1 SWAP2 SUB SWAP1 LOG2 JUMPDEST POP POP POP POP POP POP POP POP POP POP JUMP JUMPDEST PUSH1 0x98 SLOAD PUSH1 0x40 MLOAD PUSH4 0x91006745 PUSH1 0xE0 SHL DUP2 MSTORE ADDRESS PUSH1 0x4 DUP3 ADD MSTORE CALLER PUSH1 0x24 DUP3 ADD DUP2 SWAP1 MSTORE SWAP2 PUSH1 0x1 PUSH1 0x1 PUSH1 0xA0 SHL SUB AND SWAP1 PUSH4 0x91006745 SWAP1 PUSH1 0x44 ADD PUSH1 0x20 PUSH1 0x40 MLOAD DUP1 DUP4 SUB DUP2 DUP7 GAS STATICCALL ISZERO DUP1 ISZERO PUSH2 0x3168 JUMPI RETURNDATASIZE PUSH1 0x0 DUP1 RETURNDATACOPY RETURNDATASIZE PUSH1 0x0 REVERT JUMPDEST POP POP POP POP PUSH1 0x40 MLOAD RETURNDATASIZE PUSH1 0x1F NOT PUSH1 0x1F DUP3 ADD AND DUP3 ADD DUP1 PUSH1 0x40 MSTORE POP DUP2 ADD SWAP1 PUSH2 0x318C SWAP2 SWAP1 PUSH2 0x5324 JUMP JUMPDEST PUSH2 0x31D8 JUMPI PUSH1 0x40 MLOAD PUSH3 0x461BCD PUSH1 0xE5 SHL DUP2 MSTORE PUSH1 0x20 PUSH1 0x4 DUP3 ADD MSTORE PUSH1 0x10 PUSH1 0x24 DUP3 ADD MSTORE PUSH32 0x6572726F723A3A4E4F545F41444D494E00000000000000000000000000000000 PUSH1 0x44 DUP3 ADD MSTORE PUSH1 0x64 ADD PUSH2 0xC61 JUMP JUMPDEST PUSH8 0xDE0B6B3A7640000 DUP3 GT ISZERO PUSH2 0x3230 JUMPI PUSH1 0x40 MLOAD PUSH3 0x461BCD PUSH1 0xE5 SHL DUP2 MSTORE PUSH1 0x20 PUSH1 0x4 DUP3 ADD MSTORE PUSH1 0x1B PUSH1 0x24 DUP3 ADD MSTORE PUSH32 0x73657446656550657263656E743A3A4645455F544F4F5F484947480000000000 PUSH1 0x44 DUP3 ADD MSTORE PUSH1 0x64 ADD PUSH2 0xC61 JUMP JUMPDEST PUSH1 0x9B DUP3 SWAP1 SSTORE PUSH1 0x40 MLOAD DUP3 DUP2 MSTORE PUSH32 0xC2930745C0414DCBC7EBF3FEA0D713C9B1F0D69DD75345906FCF43AE322AD578 SWAP1 PUSH1 0x20 ADD PUSH2 0xD7D JUMP JUMPDEST PUSH1 0x98 SLOAD PUSH1 0x40 MLOAD PUSH4 0x91006745 PUSH1 0xE0 SHL DUP2 MSTORE ADDRESS PUSH1 0x4 DUP3 ADD MSTORE CALLER PUSH1 0x24 DUP3 ADD DUP2 SWAP1 MSTORE SWAP2 PUSH1 0x1 PUSH1 0x1 PUSH1 0xA0 SHL SUB AND SWAP1 PUSH4 0x91006745 SWAP1 PUSH1 0x44 ADD PUSH1 0x20 PUSH1 0x40 MLOAD DUP1 DUP4 SUB DUP2 DUP7 GAS STATICCALL ISZERO DUP1 ISZERO PUSH2 0x32B4 JUMPI RETURNDATASIZE PUSH1 0x0 DUP1 RETURNDATACOPY RETURNDATASIZE PUSH1 0x0 REVERT JUMPDEST POP POP POP POP PUSH1 0x40 MLOAD RETURNDATASIZE PUSH1 0x1F NOT PUSH1 0x1F DUP3 ADD AND DUP3 ADD DUP1 PUSH1 0x40 MSTORE POP DUP2 ADD SWAP1 PUSH2 0x32D8 SWAP2 SWAP1 PUSH2 0x5324 JUMP JUMPDEST PUSH2 0x3324 JUMPI PUSH1 0x40 MLOAD PUSH3 0x461BCD PUSH1 0xE5 SHL DUP2 MSTORE PUSH1 0x20 PUSH1 0x4 DUP3 ADD MSTORE PUSH1 0x10 PUSH1 0x24 DUP3 ADD MSTORE PUSH32 0x6572726F723A3A4E4F545F41444D494E00000000000000000000000000000000 PUSH1 0x44 DUP3 ADD MSTORE PUSH1 0x64 ADD PUSH2 0xC61 JUMP JUMPDEST POP PUSH1 0x97 SSTORE JUMP JUMPDEST PUSH1 0x98 SLOAD PUSH1 0x40 MLOAD PUSH4 0x91006745 PUSH1 0xE0 SHL DUP2 MSTORE ADDRESS PUSH1 0x4 DUP3 ADD MSTORE CALLER PUSH1 0x24 DUP3 ADD DUP2 SWAP1 MSTORE SWAP2 PUSH1 0x1 PUSH1 0x1 PUSH1 0xA0 SHL SUB AND SWAP1 PUSH4 0x91006745 SWAP1 PUSH1 0x44 ADD PUSH1 0x20 PUSH1 0x40 MLOAD DUP1 DUP4 SUB DUP2 DUP7 GAS STATICCALL ISZERO DUP1 ISZERO PUSH2 0x3379 JUMPI RETURNDATASIZE PUSH1 0x0 DUP1 RETURNDATACOPY RETURNDATASIZE PUSH1 0x0 REVERT JUMPDEST POP POP POP POP PUSH1 0x40 MLOAD RETURNDATASIZE PUSH1 0x1F NOT PUSH1 0x1F DUP3 ADD AND DUP3 ADD DUP1 PUSH1 0x40 MSTORE POP DUP2 ADD SWAP1 PUSH2 0x339D SWAP2 SWAP1 PUSH2 0x5324 JUMP JUMPDEST PUSH2 0x33E9 JUMPI PUSH1 0x40 MLOAD PUSH3 0x461BCD PUSH1 0xE5 SHL DUP2 MSTORE PUSH1 0x20 PUSH1 0x4 DUP3 ADD MSTORE PUSH1 0x10 PUSH1 0x24 DUP3 ADD MSTORE PUSH32 0x6572726F723A3A4E4F545F41444D494E00000000000000000000000000000000 PUSH1 0x44 DUP3 ADD MSTORE PUSH1 0x64 ADD PUSH2 0xC61 JUMP JUMPDEST PUSH1 0x99 SLOAD PUSH1 0x40 DUP1 MLOAD PUSH32 0x6F307DC300000000000000000000000000000000000000000000000000000000 DUP2 MSTORE SWAP1 MLOAD PUSH1 0x1 PUSH1 0x1 PUSH1 0xA0 SHL SUB SWAP3 DUP4 AND SWAP3 DUP6 AND SWAP2 PUSH4 0x6F307DC3 SWAP2 PUSH1 0x4 DUP1 DUP4 ADD SWAP3 PUSH1 0x20 SWAP3 SWAP2 SWAP1 DUP3 SWAP1 SUB ADD DUP2 DUP7 GAS STATICCALL ISZERO DUP1 ISZERO PUSH2 0x344E JUMPI RETURNDATASIZE PUSH1 0x0 DUP1 RETURNDATACOPY RETURNDATASIZE PUSH1 0x0 REVERT JUMPDEST POP POP POP POP PUSH1 0x40 MLOAD RETURNDATASIZE PUSH1 0x1F NOT PUSH1 0x1F DUP3 ADD AND DUP3 ADD DUP1 PUSH1 0x40 MSTORE POP DUP2 ADD SWAP1 PUSH2 0x3472 SWAP2 SWAP1 PUSH2 0x553E JUMP JUMPDEST PUSH1 0x1 PUSH1 0x1 PUSH1 0xA0 SHL SUB AND EQ PUSH2 0x34C8 JUMPI PUSH1 0x40 MLOAD PUSH3 0x461BCD PUSH1 0xE5 SHL DUP2 MSTORE PUSH1 0x20 PUSH1 0x4 DUP3 ADD MSTORE PUSH1 0x1F PUSH1 0x24 DUP3 ADD MSTORE PUSH32 0x747275737453747261746567793A3A57524F4E475F554E4445524C59494E4700 PUSH1 0x44 DUP3 ADD MSTORE PUSH1 0x64 ADD PUSH2 0xC61 JUMP JUMPDEST PUSH1 0x1 PUSH1 0x1 PUSH1 0xA0 SHL SUB DUP3 AND PUSH1 0x0 DUP2 DUP2 MSTORE PUSH1 0xA1 PUSH1 0x20 MSTORE PUSH1 0x40 DUP1 DUP3 KECCAK256 DUP1 SLOAD PUSH1 0xFF NOT AND PUSH1 0x1 OR SWAP1 SSTORE MLOAD PUSH32 0x1EECB33217FCE2D414C96C97C7E082F4557817585C876A72ECA5305AFB15F1F1 SWAP2 SWAP1 LOG2 POP POP JUMP JUMPDEST PUSH1 0x0 SLOAD PUSH2 0x100 SWAP1 DIV PUSH1 0xFF AND DUP1 PUSH2 0x352E JUMPI POP PUSH1 0x0 SLOAD PUSH1 0xFF AND ISZERO JUMPDEST PUSH2 0x35A0 JUMPI PUSH1 0x40 MLOAD PUSH3 0x461BCD PUSH1 0xE5 SHL DUP2 MSTORE PUSH1 0x20 PUSH1 0x4 DUP3 ADD MSTORE PUSH1 0x2E PUSH1 0x24 DUP3 ADD MSTORE PUSH32 0x496E697469616C697A61626C653A20636F6E747261637420697320616C726561 PUSH1 0x44 DUP3 ADD MSTORE PUSH32 0x647920696E697469616C697A6564000000000000000000000000000000000000 PUSH1 0x64 DUP3 ADD MSTORE PUSH1 0x84 ADD PUSH2 0xC61 JUMP JUMPDEST PUSH1 0x0 SLOAD PUSH2 0x100 SWAP1 DIV PUSH1 0xFF AND ISZERO DUP1 ISZERO PUSH2 0x35C2 JUMPI PUSH1 0x0 DUP1 SLOAD PUSH2 0xFFFF NOT AND PUSH2 0x101 OR SWAP1 SSTORE JUMPDEST PUSH1 0x0 PUSH1 0x40 MLOAD DUP1 PUSH1 0x40 ADD PUSH1 0x40 MSTORE DUP1 PUSH1 0x5 DUP2 MSTORE PUSH1 0x20 ADD PUSH32 0x4175786F20000000000000000000000000000000000000000000000000000000 DUP2 MSTORE POP DUP7 PUSH1 0x1 PUSH1 0x1 PUSH1 0xA0 SHL SUB AND PUSH4 0x6FDDE03 PUSH1 0x40 MLOAD DUP2 PUSH4 0xFFFFFFFF AND PUSH1 0xE0 SHL DUP2 MSTORE PUSH1 0x4 ADD PUSH1 0x0 PUSH1 0x40 MLOAD DUP1 DUP4 SUB DUP2 DUP7 GAS STATICCALL ISZERO DUP1 ISZERO PUSH2 0x3638 JUMPI RETURNDATASIZE PUSH1 0x0 DUP1 RETURNDATACOPY RETURNDATASIZE PUSH1 0x0 REVERT JUMPDEST POP POP POP POP PUSH1 0x40 MLOAD RETURNDATASIZE PUSH1 0x0 DUP3 RETURNDATACOPY PUSH1 0x1F RETURNDATASIZE SWAP1 DUP2 ADD PUSH1 0x1F NOT AND DUP3 ADD PUSH1 0x40 MSTORE PUSH2 0x3660 SWAP2 SWAP1 DUP2 ADD SWAP1 PUSH2 0x558A JUMP JUMPDEST PUSH1 0x40 MLOAD DUP1 PUSH1 0x40 ADD PUSH1 0x40 MSTORE DUP1 PUSH1 0x6 DUP2 MSTORE PUSH1 0x20 ADD PUSH32 0x205661756C740000000000000000000000000000000000000000000000000000 DUP2 MSTORE POP PUSH1 0x40 MLOAD PUSH1 0x20 ADD PUSH2 0x36A8 SWAP4 SWAP3 SWAP2 SWAP1 PUSH2 0x562C JUMP JUMPDEST PUSH1 0x40 MLOAD PUSH1 0x20 DUP2 DUP4 SUB SUB DUP2 MSTORE SWAP1 PUSH1 0x40 MSTORE SWAP1 POP PUSH1 0x0 PUSH1 0x40 MLOAD DUP1 PUSH1 0x40 ADD PUSH1 0x40 MSTORE DUP1 PUSH1 0x4 DUP2 MSTORE PUSH1 0x20 ADD PUSH32 0x6175786F00000000000000000000000000000000000000000000000000000000 DUP2 MSTORE POP DUP8 PUSH1 0x1 PUSH1 0x1 PUSH1 0xA0 SHL SUB AND PUSH4 0x95D89B41 PUSH1 0x40 MLOAD DUP2 PUSH4 0xFFFFFFFF AND PUSH1 0xE0 SHL DUP2 MSTORE PUSH1 0x4 ADD PUSH1 0x0 PUSH1 0x40 MLOAD DUP1 DUP4 SUB DUP2 DUP7 GAS STATICCALL ISZERO DUP1 ISZERO PUSH2 0x372F JUMPI RETURNDATASIZE PUSH1 0x0 DUP1 RETURNDATACOPY RETURNDATASIZE PUSH1 0x0 REVERT JUMPDEST POP POP POP POP PUSH1 0x40 MLOAD RETURNDATASIZE PUSH1 0x0 DUP3 RETURNDATACOPY PUSH1 0x1F RETURNDATASIZE SWAP1 DUP2 ADD PUSH1 0x1F NOT AND DUP3 ADD PUSH1 0x40 MSTORE PUSH2 0x3757 SWAP2 SWAP1 DUP2 ADD SWAP1 PUSH2 0x558A JUMP JUMPDEST PUSH1 0x40 MLOAD PUSH1 0x20 ADD PUSH2 0x3768 SWAP3 SWAP2 SWAP1 PUSH2 0x56A2 JUMP JUMPDEST PUSH1 0x40 MLOAD PUSH1 0x20 DUP2 DUP4 SUB SUB DUP2 MSTORE SWAP1 PUSH1 0x40 MSTORE SWAP1 POP PUSH2 0x3783 DUP3 DUP3 PUSH2 0x4887 JUMP JUMPDEST PUSH2 0x378B PUSH2 0x495C JUMP JUMPDEST PUSH2 0x3793 PUSH2 0x448D JUMP JUMPDEST PUSH1 0x99 DUP1 SLOAD PUSH32 0xFFFFFFFFFFFFFFFFFFFFFFFF0000000000000000000000000000000000000000 AND PUSH1 0x1 PUSH1 0x1 PUSH1 0xA0 SHL SUB DUP10 AND SWAP1 DUP2 OR SWAP1 SWAP2 SSTORE PUSH1 0x40 DUP1 MLOAD PUSH32 0x313CE56700000000000000000000000000000000000000000000000000000000 DUP2 MSTORE SWAP1 MLOAD PUSH4 0x313CE567 SWAP2 PUSH1 0x4 DUP1 DUP3 ADD SWAP3 PUSH1 0x20 SWAP3 SWAP1 SWAP2 SWAP1 DUP3 SWAP1 SUB ADD DUP2 DUP7 GAS STATICCALL ISZERO DUP1 ISZERO PUSH2 0x381D JUMPI RETURNDATASIZE PUSH1 0x0 DUP1 RETURNDATACOPY RETURNDATASIZE PUSH1 0x0 REVERT JUMPDEST POP POP POP POP PUSH1 0x40 MLOAD RETURNDATASIZE PUSH1 0x1F NOT PUSH1 0x1F DUP3 ADD AND DUP3 ADD DUP1 PUSH1 0x40 MSTORE POP DUP2 ADD SWAP1 PUSH2 0x3841 SWAP2 SWAP1 PUSH2 0x54A6 JUMP JUMPDEST PUSH2 0x384C SWAP1 PUSH1 0xA PUSH2 0x57AC JUMP JUMPDEST PUSH1 0x9A DUP2 SWAP1 SSTORE POP DUP7 PUSH1 0x1 PUSH1 0x1 PUSH1 0xA0 SHL SUB AND PUSH4 0x313CE567 PUSH1 0x40 MLOAD DUP2 PUSH4 0xFFFFFFFF AND PUSH1 0xE0 SHL DUP2 MSTORE PUSH1 0x4 ADD PUSH1 0x20 PUSH1 0x40 MLOAD DUP1 DUP4 SUB DUP2 DUP7 GAS STATICCALL ISZERO DUP1 ISZERO PUSH2 0x3890 JUMPI RETURNDATASIZE PUSH1 0x0 DUP1 RETURNDATACOPY RETURNDATASIZE PUSH1 0x0 REVERT JUMPDEST POP POP POP POP PUSH1 0x40 MLOAD RETURNDATASIZE PUSH1 0x1F NOT PUSH1 0x1F DUP3 ADD AND DUP3 ADD DUP1 PUSH1 0x40 MSTORE POP DUP2 ADD SWAP1 PUSH2 0x38B4 SWAP2 SWAP1 PUSH2 0x54A6 JUMP JUMPDEST PUSH1 0x99 DUP1 SLOAD PUSH1 0xFF SWAP3 SWAP1 SWAP3 AND PUSH21 0x10000000000000000000000000000000000000000 MUL PUSH32 0xFFFFFFFFFFFFFFFFFFFFFF00FFFFFFFFFFFFFFFFFFFFFFFFFFFFFFFFFFFFFFFF SWAP1 SWAP3 AND SWAP2 SWAP1 SWAP2 OR SWAP1 SSTORE POP POP PUSH1 0x98 DUP1 SLOAD PUSH1 0x1 PUSH1 0x1 PUSH1 0xA0 SHL SUB DUP1 DUP8 AND PUSH32 0xFFFFFFFFFFFFFFFFFFFFFFFF0000000000000000000000000000000000000000 SWAP3 DUP4 AND OR SWAP1 SWAP3 SSTORE PUSH1 0x9E DUP1 SLOAD DUP6 DUP5 AND SWAP1 DUP4 AND OR SWAP1 SSTORE PUSH1 0x9C DUP1 SLOAD SWAP3 DUP7 AND SWAP3 SWAP1 SWAP2 AND SWAP2 SWAP1 SWAP2 OR SWAP1 SSTORE PUSH1 0x1 PUSH1 0xA7 SSTORE PUSH3 0x259E9D PUSH1 0x97 SSTORE DUP1 ISZERO PUSH2 0x3974 JUMPI PUSH1 0x0 DUP1 SLOAD PUSH2 0xFF00 NOT AND SWAP1 SSTORE JUMPDEST POP POP POP POP POP JUMP JUMPDEST PUSH1 0x1 PUSH1 0x1 PUSH1 0xA0 SHL SUB DUP4 AND PUSH2 0x39F6 JUMPI PUSH1 0x40 MLOAD PUSH3 0x461BCD PUSH1 0xE5 SHL DUP2 MSTORE PUSH1 0x20 PUSH1 0x4 DUP3 ADD MSTORE PUSH1 0x24 DUP1 DUP3 ADD MSTORE PUSH32 0x45524332303A20617070726F76652066726F6D20746865207A65726F20616464 PUSH1 0x44 DUP3 ADD MSTORE PUSH32 0x7265737300000000000000000000000000000000000000000000000000000000 PUSH1 0x64 DUP3 ADD MSTORE PUSH1 0x84 ADD PUSH2 0xC61 JUMP JUMPDEST PUSH1 0x1 PUSH1 0x1 PUSH1 0xA0 SHL SUB DUP3 AND PUSH2 0x3A72 JUMPI PUSH1 0x40 MLOAD PUSH3 0x461BCD PUSH1 0xE5 SHL DUP2 MSTORE PUSH1 0x20 PUSH1 0x4 DUP3 ADD MSTORE PUSH1 0x22 PUSH1 0x24 DUP3 ADD MSTORE PUSH32 0x45524332303A20617070726F766520746F20746865207A65726F206164647265 PUSH1 0x44 DUP3 ADD MSTORE PUSH32 0x7373000000000000000000000000000000000000000000000000000000000000 PUSH1 0x64 DUP3 ADD MSTORE PUSH1 0x84 ADD PUSH2 0xC61 JUMP JUMPDEST PUSH1 0x1 PUSH1 0x1 PUSH1 0xA0 SHL SUB DUP4 DUP2 AND PUSH1 0x0 DUP2 DUP2 MSTORE PUSH1 0x34 PUSH1 0x20 SWAP1 DUP2 MSTORE PUSH1 0x40 DUP1 DUP4 KECCAK256 SWAP5 DUP8 AND DUP1 DUP5 MSTORE SWAP5 DUP3 MSTORE SWAP2 DUP3 SWAP1 KECCAK256 DUP6 SWAP1 SSTORE SWAP1 MLOAD DUP5 DUP2 MSTORE PUSH32 0x8C5BE1E5EBEC7D5BD14F71427D1E84F3DD0314C0F7B2291E5B200AC8C7C3B925 SWAP2 ADD PUSH2 0x1613 JUMP JUMPDEST DUP3 DUP3 MUL DUP4 ISZERO DUP5 DUP3 DIV DUP5 EQ OR PUSH2 0x3ADF JUMPI PUSH1 0x0 DUP1 REVERT JUMPDEST DIV SWAP3 SWAP2 POP POP JUMP JUMPDEST PUSH1 0xA6 SLOAD DUP2 SWAP1 PUSH1 0x0 SWAP1 PUSH2 0x3AFA SWAP1 PUSH1 0x1 SWAP1 PUSH2 0x53B9 JUMP JUMPDEST SWAP1 POP JUMPDEST PUSH1 0x0 PUSH1 0xA6 DUP3 DUP2 SLOAD DUP2 LT PUSH2 0x3B12 JUMPI PUSH2 0x3B12 PUSH2 0x54F4 JUMP JUMPDEST PUSH1 0x0 SWAP2 DUP3 MSTORE PUSH1 0x20 DUP1 DUP4 KECCAK256 SWAP1 SWAP2 ADD SLOAD PUSH1 0x1 PUSH1 0x1 PUSH1 0xA0 SHL SUB AND DUP1 DUP4 MSTORE PUSH1 0xA1 SWAP1 SWAP2 MSTORE PUSH1 0x40 SWAP1 SWAP2 KECCAK256 SLOAD SWAP1 SWAP2 POP PUSH31 0xFFFFFFFFFFFFFFFFFFFFFFFFFFFFFFFFFFFFFFFFFFFFFFFFFFFFFFFFFFFFFF PUSH2 0x100 DUP3 DIV AND SWAP1 PUSH1 0xFF AND ISZERO DUP1 PUSH2 0x3B6E JUMPI POP DUP1 ISZERO JUMPDEST ISZERO PUSH2 0x3B7A JUMPI POP POP PUSH2 0x3D36 JUMP JUMPDEST PUSH1 0x0 DUP2 DUP6 GT ISZERO PUSH2 0x3B8A JUMPI DUP2 PUSH2 0x3B8C JUMP JUMPDEST DUP5 JUMPDEST SWAP1 POP DUP1 DUP3 SUB PUSH2 0x3B9A DUP2 PUSH2 0x45B5 JUMP JUMPDEST PUSH1 0x1 PUSH1 0x1 PUSH1 0xA0 SHL SUB DUP6 AND PUSH1 0x0 DUP2 DUP2 MSTORE PUSH1 0xA1 PUSH1 0x20 MSTORE PUSH1 0x40 SWAP1 DUP2 SWAP1 KECCAK256 DUP1 SLOAD PUSH31 0xFFFFFFFFFFFFFFFFFFFFFFFFFFFFFFFFFFFFFFFFFFFFFFFFFFFFFFFFFFFFFF SWAP5 SWAP1 SWAP5 AND PUSH2 0x100 MUL PUSH1 0xFF SWAP1 SWAP5 AND SWAP4 SWAP1 SWAP4 OR SWAP1 SWAP3 SSTORE SWAP1 MLOAD SWAP7 DUP4 SWAP1 SUB SWAP7 CALLER SWAP1 PUSH32 0x8D851B682E239B1DE720E92E5C5CFFDB72D353104CC63DC6ED144D7080217FBE SWAP1 PUSH2 0x3C22 SWAP1 DUP7 DUP2 MSTORE PUSH1 0x20 ADD SWAP1 JUMP JUMPDEST PUSH1 0x40 MLOAD DUP1 SWAP2 SUB SWAP1 LOG3 PUSH1 0x40 MLOAD PUSH32 0x2E1A7D4D00000000000000000000000000000000000000000000000000000000 DUP2 MSTORE PUSH1 0x4 DUP2 ADD DUP4 SWAP1 MSTORE PUSH1 0x1 PUSH1 0x1 PUSH1 0xA0 SHL SUB DUP6 AND SWAP1 PUSH4 0x2E1A7D4D SWAP1 PUSH1 0x24 ADD PUSH1 0x20 PUSH1 0x40 MLOAD DUP1 DUP4 SUB DUP2 PUSH1 0x0 DUP8 GAS CALL ISZERO DUP1 ISZERO PUSH2 0x3C8A JUMPI RETURNDATASIZE PUSH1 0x0 DUP1 RETURNDATACOPY RETURNDATASIZE PUSH1 0x0 REVERT JUMPDEST POP POP POP POP PUSH1 0x40 MLOAD RETURNDATASIZE PUSH1 0x1F NOT PUSH1 0x1F DUP3 ADD AND DUP3 ADD DUP1 PUSH1 0x40 MSTORE POP DUP2 ADD SWAP1 PUSH2 0x3CAE SWAP2 SWAP1 PUSH2 0x54A6 JUMP JUMPDEST PUSH1 0xFF AND ISZERO PUSH2 0x3D24 JUMPI PUSH1 0x40 MLOAD PUSH3 0x461BCD PUSH1 0xE5 SHL DUP2 MSTORE PUSH1 0x20 PUSH1 0x4 DUP3 ADD MSTORE PUSH1 0x26 PUSH1 0x24 DUP3 ADD MSTORE PUSH32 0x70756C6C46726F6D5769746864726177616C51756575653A3A52454445454D5F PUSH1 0x44 DUP3 ADD MSTORE PUSH32 0x4641494C45440000000000000000000000000000000000000000000000000000 PUSH1 0x64 DUP3 ADD MSTORE PUSH1 0x84 ADD PUSH2 0xC61 JUMP JUMPDEST POP DUP5 PUSH2 0x3D32 JUMPI POP POP POP PUSH2 0x3D48 JUMP JUMPDEST POP POP POP JUMPDEST DUP1 PUSH2 0x3D40 DUP2 PUSH2 0x57BB JUMP JUMPDEST SWAP2 POP POP PUSH2 0x3AFD JUMP JUMPDEST POP POP PUSH1 0xA0 DUP1 SLOAD SWAP2 SWAP1 SWAP2 SUB SWAP1 SSTORE JUMP JUMPDEST PUSH1 0x1 PUSH1 0x1 PUSH1 0xA0 SHL SUB DUP3 AND PUSH2 0x3DD2 JUMPI PUSH1 0x40 MLOAD PUSH3 0x461BCD PUSH1 0xE5 SHL DUP2 MSTORE PUSH1 0x20 PUSH1 0x4 DUP3 ADD MSTORE PUSH1 0x21 PUSH1 0x24 DUP3 ADD MSTORE PUSH32 0x45524332303A206275726E2066726F6D20746865207A65726F20616464726573 PUSH1 0x44 DUP3 ADD MSTORE PUSH32 0x7300000000000000000000000000000000000000000000000000000000000000 PUSH1 0x64 DUP3 ADD MSTORE PUSH1 0x84 ADD PUSH2 0xC61 JUMP JUMPDEST PUSH1 0x1 PUSH1 0x1 PUSH1 0xA0 SHL SUB DUP3 AND PUSH1 0x0 SWAP1 DUP2 MSTORE PUSH1 0x33 PUSH1 0x20 MSTORE PUSH1 0x40 SWAP1 KECCAK256 SLOAD DUP2 DUP2 LT ISZERO PUSH2 0x3E61 JUMPI PUSH1 0x40 MLOAD PUSH3 0x461BCD PUSH1 0xE5 SHL DUP2 MSTORE PUSH1 0x20 PUSH1 0x4 DUP3 ADD MSTORE PUSH1 0x22 PUSH1 0x24 DUP3 ADD MSTORE PUSH32 0x45524332303A206275726E20616D6F756E7420657863656564732062616C616E PUSH1 0x44 DUP3 ADD MSTORE PUSH32 0x6365000000000000000000000000000000000000000000000000000000000000 PUSH1 0x64 DUP3 ADD MSTORE PUSH1 0x84 ADD PUSH2 0xC61 JUMP JUMPDEST PUSH1 0x1 PUSH1 0x1 PUSH1 0xA0 SHL SUB DUP4 AND PUSH1 0x0 SWAP1 DUP2 MSTORE PUSH1 0x33 PUSH1 0x20 MSTORE PUSH1 0x40 DUP2 KECCAK256 DUP4 DUP4 SUB SWAP1 SSTORE PUSH1 0x35 DUP1 SLOAD DUP5 SWAP3 SWAP1 PUSH2 0x3E90 SWAP1 DUP5 SWAP1 PUSH2 0x53B9 JUMP JUMPDEST SWAP1 SWAP2 SSTORE POP POP PUSH1 0x40 MLOAD DUP3 DUP2 MSTORE PUSH1 0x0 SWAP1 PUSH1 0x1 PUSH1 0x1 PUSH1 0xA0 SHL SUB DUP6 AND SWAP1 PUSH32 0xDDF252AD1BE2C89B69C2B068FC378DAA952BA7F163C4A11628F55A4DF523B3EF SWAP1 PUSH1 0x20 ADD PUSH1 0x40 MLOAD DUP1 SWAP2 SUB SWAP1 LOG3 POP POP POP JUMP JUMPDEST PUSH1 0x40 MLOAD PUSH1 0x1 PUSH1 0x1 PUSH1 0xA0 SHL SUB DUP4 AND PUSH1 0x24 DUP3 ADD MSTORE PUSH1 0x44 DUP2 ADD DUP3 SWAP1 MSTORE PUSH2 0x261E SWAP1 DUP5 SWAP1 PUSH32 0xA9059CBB00000000000000000000000000000000000000000000000000000000 SWAP1 PUSH1 0x64 ADD JUMPDEST PUSH1 0x40 DUP1 MLOAD PUSH1 0x1F NOT DUP2 DUP5 SUB ADD DUP2 MSTORE SWAP2 SWAP1 MSTORE PUSH1 0x20 DUP2 ADD DUP1 MLOAD PUSH28 0xFFFFFFFFFFFFFFFFFFFFFFFFFFFFFFFFFFFFFFFFFFFFFFFFFFFFFFFF AND PUSH32 0xFFFFFFFF00000000000000000000000000000000000000000000000000000000 SWAP1 SWAP4 AND SWAP3 SWAP1 SWAP3 OR SWAP1 SWAP2 MSTORE PUSH2 0x4A2D JUMP JUMPDEST DUP3 DUP2 MUL DUP3 ISZERO ISZERO DUP5 ISZERO DUP6 DUP4 DIV DUP5 EQ OR AND PUSH2 0x3F9C JUMPI PUSH1 0x0 DUP1 REVERT JUMPDEST SWAP2 SWAP1 SWAP2 DIV SWAP3 SWAP2 POP POP JUMP JUMPDEST PUSH1 0x1 PUSH1 0x1 PUSH1 0xA0 SHL SUB DUP4 AND PUSH2 0x4022 JUMPI PUSH1 0x40 MLOAD PUSH3 0x461BCD PUSH1 0xE5 SHL DUP2 MSTORE PUSH1 0x20 PUSH1 0x4 DUP3 ADD MSTORE PUSH1 0x25 PUSH1 0x24 DUP3 ADD MSTORE PUSH32 0x45524332303A207472616E736665722066726F6D20746865207A65726F206164 PUSH1 0x44 DUP3 ADD MSTORE PUSH32 0x6472657373000000000000000000000000000000000000000000000000000000 PUSH1 0x64 DUP3 ADD MSTORE PUSH1 0x84 ADD PUSH2 0xC61 JUMP JUMPDEST PUSH1 0x1 PUSH1 0x1 PUSH1 0xA0 SHL SUB DUP3 AND PUSH2 0x409E JUMPI PUSH1 0x40 MLOAD PUSH3 0x461BCD PUSH1 0xE5 SHL DUP2 MSTORE PUSH1 0x20 PUSH1 0x4 DUP3 ADD MSTORE PUSH1 0x23 PUSH1 0x24 DUP3 ADD MSTORE PUSH32 0x45524332303A207472616E7366657220746F20746865207A65726F2061646472 PUSH1 0x44 DUP3 ADD MSTORE PUSH32 0x6573730000000000000000000000000000000000000000000000000000000000 PUSH1 0x64 DUP3 ADD MSTORE PUSH1 0x84 ADD PUSH2 0xC61 JUMP JUMPDEST PUSH1 0x1 PUSH1 0x1 PUSH1 0xA0 SHL SUB DUP4 AND PUSH1 0x0 SWAP1 DUP2 MSTORE PUSH1 0x33 PUSH1 0x20 MSTORE PUSH1 0x40 SWAP1 KECCAK256 SLOAD DUP2 DUP2 LT ISZERO PUSH2 0x412D JUMPI PUSH1 0x40 MLOAD PUSH3 0x461BCD PUSH1 0xE5 SHL DUP2 MSTORE PUSH1 0x20 PUSH1 0x4 DUP3 ADD MSTORE PUSH1 0x26 PUSH1 0x24 DUP3 ADD MSTORE PUSH32 0x45524332303A207472616E7366657220616D6F756E7420657863656564732062 PUSH1 0x44 DUP3 ADD MSTORE PUSH32 0x616C616E63650000000000000000000000000000000000000000000000000000 PUSH1 0x64 DUP3 ADD MSTORE PUSH1 0x84 ADD PUSH2 0xC61 JUMP JUMPDEST PUSH1 0x1 PUSH1 0x1 PUSH1 0xA0 SHL SUB DUP1 DUP6 AND PUSH1 0x0 SWAP1 DUP2 MSTORE PUSH1 0x33 PUSH1 0x20 MSTORE PUSH1 0x40 DUP1 DUP3 KECCAK256 DUP6 DUP6 SUB SWAP1 SSTORE SWAP2 DUP6 AND DUP2 MSTORE SWAP1 DUP2 KECCAK256 DUP1 SLOAD DUP5 SWAP3 SWAP1 PUSH2 0x4164 SWAP1 DUP5 SWAP1 PUSH2 0x53A1 JUMP JUMPDEST SWAP3 POP POP DUP2 SWAP1 SSTORE POP DUP3 PUSH1 0x1 PUSH1 0x1 PUSH1 0xA0 SHL SUB AND DUP5 PUSH1 0x1 PUSH1 0x1 PUSH1 0xA0 SHL SUB AND PUSH32 0xDDF252AD1BE2C89B69C2B068FC378DAA952BA7F163C4A11628F55A4DF523B3EF DUP5 PUSH1 0x40 MLOAD PUSH2 0x41B0 SWAP2 DUP2 MSTORE PUSH1 0x20 ADD SWAP1 JUMP JUMPDEST PUSH1 0x40 MLOAD DUP1 SWAP2 SUB SWAP1 LOG3 JUMPDEST POP POP POP POP JUMP JUMPDEST PUSH1 0x98 SLOAD PUSH1 0x40 MLOAD PUSH32 0x14D9A97900000000000000000000000000000000000000000000000000000000 DUP2 MSTORE ADDRESS PUSH1 0x4 DUP3 ADD MSTORE PUSH1 0x1 PUSH1 0x1 PUSH1 0xA0 SHL SUB DUP1 DUP7 AND PUSH1 0x24 DUP4 ADD MSTORE DUP6 SWAP3 AND SWAP1 PUSH4 0x14D9A979 SWAP1 PUSH1 0x44 ADD PUSH1 0x20 PUSH1 0x40 MLOAD DUP1 DUP4 SUB DUP2 DUP7 GAS STATICCALL ISZERO DUP1 ISZERO PUSH2 0x4228 JUMPI RETURNDATASIZE PUSH1 0x0 DUP1 RETURNDATACOPY RETURNDATASIZE PUSH1 0x0 REVERT JUMPDEST POP POP POP POP PUSH1 0x40 MLOAD RETURNDATASIZE PUSH1 0x1F NOT PUSH1 0x1F DUP3 ADD AND DUP3 ADD DUP1 PUSH1 0x40 MSTORE POP DUP2 ADD SWAP1 PUSH2 0x424C SWAP2 SWAP1 PUSH2 0x5324 JUMP JUMPDEST PUSH2 0x4298 JUMPI PUSH1 0x40 MLOAD PUSH3 0x461BCD PUSH1 0xE5 SHL DUP2 MSTORE PUSH1 0x20 PUSH1 0x4 DUP3 ADD MSTORE PUSH1 0x14 PUSH1 0x24 DUP3 ADD MSTORE PUSH32 0x6572726F723A3A4E4F545F4445504F5349544F52000000000000000000000000 PUSH1 0x44 DUP3 ADD MSTORE PUSH1 0x64 ADD PUSH2 0xC61 JUMP JUMPDEST PUSH1 0x65 SLOAD PUSH1 0xFF AND ISZERO PUSH2 0x42EB JUMPI PUSH1 0x40 MLOAD PUSH3 0x461BCD PUSH1 0xE5 SHL DUP2 MSTORE PUSH1 0x20 PUSH1 0x4 DUP3 ADD MSTORE PUSH1 0x10 PUSH1 0x24 DUP3 ADD MSTORE PUSH32 0x5061757361626C653A2070617573656400000000000000000000000000000000 PUSH1 0x44 DUP3 ADD MSTORE PUSH1 0x64 ADD PUSH2 0xC61 JUMP JUMPDEST PUSH1 0x0 DUP3 PUSH2 0x4310 PUSH2 0x522 DUP8 PUSH1 0x1 PUSH1 0x1 PUSH1 0xA0 SHL SUB AND PUSH1 0x0 SWAP1 DUP2 MSTORE PUSH1 0x33 PUSH1 0x20 MSTORE PUSH1 0x40 SWAP1 KECCAK256 SLOAD SWAP1 JUMP JUMPDEST PUSH2 0x431A SWAP2 SWAP1 PUSH2 0x53A1 JUMP JUMPDEST SWAP1 POP PUSH1 0x0 DUP4 PUSH2 0x4327 PUSH2 0x2981 JUMP JUMPDEST PUSH2 0x4331 SWAP2 SWAP1 PUSH2 0x53A1 JUMP JUMPDEST SWAP1 POP PUSH1 0xAB SLOAD DUP3 GT ISZERO PUSH2 0x43AB JUMPI PUSH1 0x40 MLOAD PUSH3 0x461BCD PUSH1 0xE5 SHL DUP2 MSTORE PUSH1 0x20 PUSH1 0x4 DUP3 ADD MSTORE PUSH1 0x25 PUSH1 0x24 DUP3 ADD MSTORE PUSH32 0x5F6465706F7369743A3A555345525F4445504F5349545F4C494D4954535F5245 PUSH1 0x44 DUP3 ADD MSTORE PUSH32 0x4143484544000000000000000000000000000000000000000000000000000000 PUSH1 0x64 DUP3 ADD MSTORE PUSH1 0x84 ADD PUSH2 0xC61 JUMP JUMPDEST PUSH1 0xAC SLOAD DUP2 GT ISZERO PUSH2 0x4423 JUMPI PUSH1 0x40 MLOAD PUSH3 0x461BCD PUSH1 0xE5 SHL DUP2 MSTORE PUSH1 0x20 PUSH1 0x4 DUP3 ADD MSTORE PUSH1 0x26 PUSH1 0x24 DUP3 ADD MSTORE PUSH32 0x5F6465706F7369743A3A5641554C545F4445504F5349545F4C494D4954535F52 PUSH1 0x44 DUP3 ADD MSTORE PUSH32 0x4541434845440000000000000000000000000000000000000000000000000000 PUSH1 0x64 DUP3 ADD MSTORE PUSH1 0x84 ADD PUSH2 0xC61 JUMP JUMPDEST PUSH2 0x442D DUP7 DUP7 PUSH2 0x4735 JUMP JUMPDEST PUSH1 0x40 MLOAD DUP5 DUP2 MSTORE PUSH1 0x1 PUSH1 0x1 PUSH1 0xA0 SHL SUB DUP8 AND SWAP1 CALLER SWAP1 PUSH32 0x5548C837AB068CF56A2C2479DF0882A4922FD203EDB7517321831D95078C5F62 SWAP1 PUSH1 0x20 ADD PUSH1 0x40 MLOAD DUP1 SWAP2 SUB SWAP1 LOG3 PUSH1 0x99 SLOAD PUSH2 0x4485 SWAP1 PUSH1 0x1 PUSH1 0x1 PUSH1 0xA0 SHL SUB AND CALLER ADDRESS DUP8 PUSH2 0x4B12 JUMP JUMPDEST POP POP POP POP POP POP JUMP JUMPDEST PUSH1 0x65 SLOAD PUSH1 0xFF AND ISZERO PUSH2 0x44E0 JUMPI PUSH1 0x40 MLOAD PUSH3 0x461BCD PUSH1 0xE5 SHL DUP2 MSTORE PUSH1 0x20 PUSH1 0x4 DUP3 ADD MSTORE PUSH1 0x10 PUSH1 0x24 DUP3 ADD MSTORE PUSH32 0x5061757361626C653A2070617573656400000000000000000000000000000000 PUSH1 0x44 DUP3 ADD MSTORE PUSH1 0x64 ADD PUSH2 0xC61 JUMP JUMPDEST PUSH1 0x65 DUP1 SLOAD PUSH1 0xFF NOT AND PUSH1 0x1 OR SWAP1 SSTORE PUSH32 0x62E78CEA01BEE320CD4E420270B5EA74000D11B0C9F74754EBDBFC544B05A258 PUSH2 0x4515 CALLER SWAP1 JUMP JUMPDEST PUSH1 0x40 MLOAD PUSH1 0x1 PUSH1 0x1 PUSH1 0xA0 SHL SUB SWAP1 SWAP2 AND DUP2 MSTORE PUSH1 0x20 ADD PUSH1 0x40 MLOAD DUP1 SWAP2 SUB SWAP1 LOG1 JUMP JUMPDEST PUSH1 0x65 SLOAD PUSH1 0xFF AND PUSH2 0x4584 JUMPI PUSH1 0x40 MLOAD PUSH3 0x461BCD PUSH1 0xE5 SHL DUP2 MSTORE PUSH1 0x20 PUSH1 0x4 DUP3 ADD MSTORE PUSH1 0x14 PUSH1 0x24 DUP3 ADD MSTORE PUSH32 0x5061757361626C653A206E6F7420706175736564000000000000000000000000 PUSH1 0x44 DUP3 ADD MSTORE PUSH1 0x64 ADD PUSH2 0xC61 JUMP JUMPDEST PUSH1 0x65 DUP1 SLOAD PUSH1 0xFF NOT AND SWAP1 SSTORE PUSH32 0x5DB9EE0A495BF2E6FF9C91A7834C1BA4FDD244A5E8AA4E537BD38AEAE4B073AA CALLER PUSH2 0x4515 JUMP JUMPDEST PUSH1 0x0 PUSH31 0xFFFFFFFFFFFFFFFFFFFFFFFFFFFFFFFFFFFFFFFFFFFFFFFFFFFFFFFFFFFFFF DUP3 GT ISZERO PUSH2 0x45E3 JUMPI PUSH1 0x0 DUP1 REVERT JUMPDEST POP SWAP1 JUMP JUMPDEST DUP1 ISZERO DUP1 PUSH2 0x467A JUMPI POP PUSH1 0x40 MLOAD PUSH32 0xDD62ED3E00000000000000000000000000000000000000000000000000000000 DUP2 MSTORE ADDRESS PUSH1 0x4 DUP3 ADD MSTORE PUSH1 0x1 PUSH1 0x1 PUSH1 0xA0 SHL SUB DUP4 DUP2 AND PUSH1 0x24 DUP4 ADD MSTORE DUP5 AND SWAP1 PUSH4 0xDD62ED3E SWAP1 PUSH1 0x44 ADD PUSH1 0x20 PUSH1 0x40 MLOAD DUP1 DUP4 SUB DUP2 DUP7 GAS STATICCALL ISZERO DUP1 ISZERO PUSH2 0x4654 JUMPI RETURNDATASIZE PUSH1 0x0 DUP1 RETURNDATACOPY RETURNDATASIZE PUSH1 0x0 REVERT JUMPDEST POP POP POP POP PUSH1 0x40 MLOAD RETURNDATASIZE PUSH1 0x1F NOT PUSH1 0x1F DUP3 ADD AND DUP3 ADD DUP1 PUSH1 0x40 MSTORE POP DUP2 ADD SWAP1 PUSH2 0x4678 SWAP2 SWAP1 PUSH2 0x53FF JUMP JUMPDEST ISZERO JUMPDEST PUSH2 0x46EC JUMPI PUSH1 0x40 MLOAD PUSH3 0x461BCD PUSH1 0xE5 SHL DUP2 MSTORE PUSH1 0x20 PUSH1 0x4 DUP3 ADD MSTORE PUSH1 0x36 PUSH1 0x24 DUP3 ADD MSTORE PUSH32 0x5361666545524332303A20617070726F76652066726F6D206E6F6E2D7A65726F PUSH1 0x44 DUP3 ADD MSTORE PUSH32 0x20746F206E6F6E2D7A65726F20616C6C6F77616E636500000000000000000000 PUSH1 0x64 DUP3 ADD MSTORE PUSH1 0x84 ADD PUSH2 0xC61 JUMP JUMPDEST PUSH1 0x40 MLOAD PUSH1 0x1 PUSH1 0x1 PUSH1 0xA0 SHL SUB DUP4 AND PUSH1 0x24 DUP3 ADD MSTORE PUSH1 0x44 DUP2 ADD DUP3 SWAP1 MSTORE PUSH2 0x261E SWAP1 DUP5 SWAP1 PUSH32 0x95EA7B300000000000000000000000000000000000000000000000000000000 SWAP1 PUSH1 0x64 ADD PUSH2 0x3F20 JUMP JUMPDEST PUSH1 0x1 PUSH1 0x1 PUSH1 0xA0 SHL SUB DUP3 AND PUSH2 0x478B JUMPI PUSH1 0x40 MLOAD PUSH3 0x461BCD PUSH1 0xE5 SHL DUP2 MSTORE PUSH1 0x20 PUSH1 0x4 DUP3 ADD MSTORE PUSH1 0x1F PUSH1 0x24 DUP3 ADD MSTORE PUSH32 0x45524332303A206D696E7420746F20746865207A65726F206164647265737300 PUSH1 0x44 DUP3 ADD MSTORE PUSH1 0x64 ADD PUSH2 0xC61 JUMP JUMPDEST DUP1 PUSH1 0x35 PUSH1 0x0 DUP3 DUP3 SLOAD PUSH2 0x479D SWAP2 SWAP1 PUSH2 0x53A1 JUMP JUMPDEST SWAP1 SWAP2 SSTORE POP POP PUSH1 0x1 PUSH1 0x1 PUSH1 0xA0 SHL SUB DUP3 AND PUSH1 0x0 SWAP1 DUP2 MSTORE PUSH1 0x33 PUSH1 0x20 MSTORE PUSH1 0x40 DUP2 KECCAK256 DUP1 SLOAD DUP4 SWAP3 SWAP1 PUSH2 0x47CA SWAP1 DUP5 SWAP1 PUSH2 0x53A1 JUMP JUMPDEST SWAP1 SWAP2 SSTORE POP POP PUSH1 0x40 MLOAD DUP2 DUP2 MSTORE PUSH1 0x1 PUSH1 0x1 PUSH1 0xA0 SHL SUB DUP4 AND SWAP1 PUSH1 0x0 SWAP1 PUSH32 0xDDF252AD1BE2C89B69C2B068FC378DAA952BA7F163C4A11628F55A4DF523B3EF SWAP1 PUSH1 0x20 ADD PUSH1 0x40 MLOAD DUP1 SWAP2 SUB SWAP1 LOG3 POP POP JUMP JUMPDEST PUSH1 0x0 PUSH16 0xFFFFFFFFFFFFFFFFFFFFFFFFFFFFFFFF DUP3 GT ISZERO PUSH2 0x45E3 JUMPI PUSH1 0x0 DUP1 REVERT JUMPDEST PUSH1 0x0 DUP4 ISZERO DUP1 PUSH2 0x4840 JUMPI POP DUP3 ISZERO JUMPDEST PUSH2 0x487C JUMPI DUP2 PUSH1 0x97 SLOAD PUSH2 0x4852 SWAP2 SWAP1 PUSH2 0x57D2 JUMP JUMPDEST PUSH1 0x9A SLOAD PUSH2 0x4862 SWAP1 DUP6 SWAP1 DUP8 SWAP1 PUSH2 0x3F84 JUMP JUMPDEST PUSH2 0x486C SWAP2 SWAP1 PUSH2 0x580D JUMP JUMPDEST PUSH2 0x4877 SWAP1 PUSH1 0x64 PUSH2 0x580D JUMP JUMPDEST PUSH2 0x487F JUMP JUMPDEST PUSH1 0x0 JUMPDEST SWAP5 SWAP4 POP POP POP POP JUMP JUMPDEST PUSH1 0x0 SLOAD PUSH2 0x100 SWAP1 DIV PUSH1 0xFF AND DUP1 PUSH2 0x48A0 JUMPI POP PUSH1 0x0 SLOAD PUSH1 0xFF AND ISZERO JUMPDEST PUSH2 0x4912 JUMPI PUSH1 0x40 MLOAD PUSH3 0x461BCD PUSH1 0xE5 SHL DUP2 MSTORE PUSH1 0x20 PUSH1 0x4 DUP3 ADD MSTORE PUSH1 0x2E PUSH1 0x24 DUP3 ADD MSTORE PUSH32 0x496E697469616C697A61626C653A20636F6E747261637420697320616C726561 PUSH1 0x44 DUP3 ADD MSTORE PUSH32 0x647920696E697469616C697A6564000000000000000000000000000000000000 PUSH1 0x64 DUP3 ADD MSTORE PUSH1 0x84 ADD PUSH2 0xC61 JUMP JUMPDEST PUSH1 0x0 SLOAD PUSH2 0x100 SWAP1 DIV PUSH1 0xFF AND ISZERO DUP1 ISZERO PUSH2 0x4934 JUMPI PUSH1 0x0 DUP1 SLOAD PUSH2 0xFFFF NOT AND PUSH2 0x101 OR SWAP1 SSTORE JUMPDEST PUSH2 0x493C PUSH2 0x4B63 JUMP JUMPDEST PUSH2 0x4946 DUP4 DUP4 PUSH2 0x4C23 JUMP JUMPDEST DUP1 ISZERO PUSH2 0x261E JUMPI PUSH1 0x0 DUP1 SLOAD PUSH2 0xFF00 NOT AND SWAP1 SSTORE POP POP POP JUMP JUMPDEST PUSH1 0x0 SLOAD PUSH2 0x100 SWAP1 DIV PUSH1 0xFF AND DUP1 PUSH2 0x4975 JUMPI POP PUSH1 0x0 SLOAD PUSH1 0xFF AND ISZERO JUMPDEST PUSH2 0x49E7 JUMPI PUSH1 0x40 MLOAD PUSH3 0x461BCD PUSH1 0xE5 SHL DUP2 MSTORE PUSH1 0x20 PUSH1 0x4 DUP3 ADD MSTORE PUSH1 0x2E PUSH1 0x24 DUP3 ADD MSTORE PUSH32 0x496E697469616C697A61626C653A20636F6E747261637420697320616C726561 PUSH1 0x44 DUP3 ADD MSTORE PUSH32 0x647920696E697469616C697A6564000000000000000000000000000000000000 PUSH1 0x64 DUP3 ADD MSTORE PUSH1 0x84 ADD PUSH2 0xC61 JUMP JUMPDEST PUSH1 0x0 SLOAD PUSH2 0x100 SWAP1 DIV PUSH1 0xFF AND ISZERO DUP1 ISZERO PUSH2 0x4A09 JUMPI PUSH1 0x0 DUP1 SLOAD PUSH2 0xFFFF NOT AND PUSH2 0x101 OR SWAP1 SSTORE JUMPDEST PUSH2 0x4A11 PUSH2 0x4B63 JUMP JUMPDEST PUSH2 0x4A19 PUSH2 0x4D0E JUMP JUMPDEST DUP1 ISZERO PUSH2 0x18D1 JUMPI PUSH1 0x0 DUP1 SLOAD PUSH2 0xFF00 NOT AND SWAP1 SSTORE POP JUMP JUMPDEST PUSH1 0x0 PUSH2 0x4A82 DUP3 PUSH1 0x40 MLOAD DUP1 PUSH1 0x40 ADD PUSH1 0x40 MSTORE DUP1 PUSH1 0x20 DUP2 MSTORE PUSH1 0x20 ADD PUSH32 0x5361666545524332303A206C6F772D6C6576656C2063616C6C206661696C6564 DUP2 MSTORE POP DUP6 PUSH1 0x1 PUSH1 0x1 PUSH1 0xA0 SHL SUB AND PUSH2 0x4DD9 SWAP1 SWAP3 SWAP2 SWAP1 PUSH4 0xFFFFFFFF AND JUMP JUMPDEST DUP1 MLOAD SWAP1 SWAP2 POP ISZERO PUSH2 0x261E JUMPI DUP1 DUP1 PUSH1 0x20 ADD SWAP1 MLOAD DUP2 ADD SWAP1 PUSH2 0x4AA0 SWAP2 SWAP1 PUSH2 0x5324 JUMP JUMPDEST PUSH2 0x261E JUMPI PUSH1 0x40 MLOAD PUSH3 0x461BCD PUSH1 0xE5 SHL DUP2 MSTORE PUSH1 0x20 PUSH1 0x4 DUP3 ADD MSTORE PUSH1 0x2A PUSH1 0x24 DUP3 ADD MSTORE PUSH32 0x5361666545524332303A204552433230206F7065726174696F6E20646964206E PUSH1 0x44 DUP3 ADD MSTORE PUSH32 0x6F74207375636365656400000000000000000000000000000000000000000000 PUSH1 0x64 DUP3 ADD MSTORE PUSH1 0x84 ADD PUSH2 0xC61 JUMP JUMPDEST PUSH1 0x40 MLOAD PUSH1 0x1 PUSH1 0x1 PUSH1 0xA0 SHL SUB DUP1 DUP6 AND PUSH1 0x24 DUP4 ADD MSTORE DUP4 AND PUSH1 0x44 DUP3 ADD MSTORE PUSH1 0x64 DUP2 ADD DUP3 SWAP1 MSTORE PUSH2 0x41B9 SWAP1 DUP6 SWAP1 PUSH32 0x23B872DD00000000000000000000000000000000000000000000000000000000 SWAP1 PUSH1 0x84 ADD PUSH2 0x3F20 JUMP JUMPDEST PUSH1 0x0 SLOAD PUSH2 0x100 SWAP1 DIV PUSH1 0xFF AND DUP1 PUSH2 0x4B7C JUMPI POP PUSH1 0x0 SLOAD PUSH1 0xFF AND ISZERO JUMPDEST PUSH2 0x4BEE JUMPI PUSH1 0x40 MLOAD PUSH3 0x461BCD PUSH1 0xE5 SHL DUP2 MSTORE PUSH1 0x20 PUSH1 0x4 DUP3 ADD MSTORE PUSH1 0x2E PUSH1 0x24 DUP3 ADD MSTORE PUSH32 0x496E697469616C697A61626C653A20636F6E747261637420697320616C726561 PUSH1 0x44 DUP3 ADD MSTORE PUSH32 0x647920696E697469616C697A6564000000000000000000000000000000000000 PUSH1 0x64 DUP3 ADD MSTORE PUSH1 0x84 ADD PUSH2 0xC61 JUMP JUMPDEST PUSH1 0x0 SLOAD PUSH2 0x100 SWAP1 DIV PUSH1 0xFF AND ISZERO DUP1 ISZERO PUSH2 0x4A19 JUMPI PUSH1 0x0 DUP1 SLOAD PUSH2 0xFFFF NOT AND PUSH2 0x101 OR SWAP1 SSTORE DUP1 ISZERO PUSH2 0x18D1 JUMPI PUSH1 0x0 DUP1 SLOAD PUSH2 0xFF00 NOT AND SWAP1 SSTORE POP JUMP JUMPDEST PUSH1 0x0 SLOAD PUSH2 0x100 SWAP1 DIV PUSH1 0xFF AND DUP1 PUSH2 0x4C3C JUMPI POP PUSH1 0x0 SLOAD PUSH1 0xFF AND ISZERO JUMPDEST PUSH2 0x4CAE JUMPI PUSH1 0x40 MLOAD PUSH3 0x461BCD PUSH1 0xE5 SHL DUP2 MSTORE PUSH1 0x20 PUSH1 0x4 DUP3 ADD MSTORE PUSH1 0x2E PUSH1 0x24 DUP3 ADD MSTORE PUSH32 0x496E697469616C697A61626C653A20636F6E747261637420697320616C726561 PUSH1 0x44 DUP3 ADD MSTORE PUSH32 0x647920696E697469616C697A6564000000000000000000000000000000000000 PUSH1 0x64 DUP3 ADD MSTORE PUSH1 0x84 ADD PUSH2 0xC61 JUMP JUMPDEST PUSH1 0x0 SLOAD PUSH2 0x100 SWAP1 DIV PUSH1 0xFF AND ISZERO DUP1 ISZERO PUSH2 0x4CD0 JUMPI PUSH1 0x0 DUP1 SLOAD PUSH2 0xFFFF NOT AND PUSH2 0x101 OR SWAP1 SSTORE JUMPDEST DUP3 MLOAD PUSH2 0x4CE3 SWAP1 PUSH1 0x36 SWAP1 PUSH1 0x20 DUP7 ADD SWAP1 PUSH2 0x4F5B JUMP JUMPDEST POP DUP2 MLOAD PUSH2 0x4CF7 SWAP1 PUSH1 0x37 SWAP1 PUSH1 0x20 DUP6 ADD SWAP1 PUSH2 0x4F5B JUMP JUMPDEST POP DUP1 ISZERO PUSH2 0x261E JUMPI PUSH1 0x0 DUP1 SLOAD PUSH2 0xFF00 NOT AND SWAP1 SSTORE POP POP POP JUMP JUMPDEST PUSH1 0x0 SLOAD PUSH2 0x100 SWAP1 DIV PUSH1 0xFF AND DUP1 PUSH2 0x4D27 JUMPI POP PUSH1 0x0 SLOAD PUSH1 0xFF AND ISZERO JUMPDEST PUSH2 0x4D99 JUMPI PUSH1 0x40 MLOAD PUSH3 0x461BCD PUSH1 0xE5 SHL DUP2 MSTORE PUSH1 0x20 PUSH1 0x4 DUP3 ADD MSTORE PUSH1 0x2E PUSH1 0x24 DUP3 ADD MSTORE PUSH32 0x496E697469616C697A61626C653A20636F6E747261637420697320616C726561 PUSH1 0x44 DUP3 ADD MSTORE PUSH32 0x647920696E697469616C697A6564000000000000000000000000000000000000 PUSH1 0x64 DUP3 ADD MSTORE PUSH1 0x84 ADD PUSH2 0xC61 JUMP JUMPDEST PUSH1 0x0 SLOAD PUSH2 0x100 SWAP1 DIV PUSH1 0xFF AND ISZERO DUP1 ISZERO PUSH2 0x4DBB JUMPI PUSH1 0x0 DUP1 SLOAD PUSH2 0xFFFF NOT AND PUSH2 0x101 OR SWAP1 SSTORE JUMPDEST PUSH1 0x65 DUP1 SLOAD PUSH1 0xFF NOT AND SWAP1 SSTORE DUP1 ISZERO PUSH2 0x18D1 JUMPI PUSH1 0x0 DUP1 SLOAD PUSH2 0xFF00 NOT AND SWAP1 SSTORE POP JUMP JUMPDEST PUSH1 0x60 PUSH2 0x487F DUP5 DUP5 PUSH1 0x0 DUP6 DUP6 DUP5 EXTCODESIZE PUSH2 0x4E32 JUMPI PUSH1 0x40 MLOAD PUSH3 0x461BCD PUSH1 0xE5 SHL DUP2 MSTORE PUSH1 0x20 PUSH1 0x4 DUP3 ADD MSTORE PUSH1 0x1D PUSH1 0x24 DUP3 ADD MSTORE PUSH32 0x416464726573733A2063616C6C20746F206E6F6E2D636F6E7472616374000000 PUSH1 0x44 DUP3 ADD MSTORE PUSH1 0x64 ADD PUSH2 0xC61 JUMP JUMPDEST PUSH1 0x0 DUP1 DUP7 PUSH1 0x1 PUSH1 0x1 PUSH1 0xA0 SHL SUB AND DUP6 DUP8 PUSH1 0x40 MLOAD PUSH2 0x4E4E SWAP2 SWAP1 PUSH2 0x582C JUMP JUMPDEST PUSH1 0x0 PUSH1 0x40 MLOAD DUP1 DUP4 SUB DUP2 DUP6 DUP8 GAS CALL SWAP3 POP POP POP RETURNDATASIZE DUP1 PUSH1 0x0 DUP2 EQ PUSH2 0x4E8B JUMPI PUSH1 0x40 MLOAD SWAP2 POP PUSH1 0x1F NOT PUSH1 0x3F RETURNDATASIZE ADD AND DUP3 ADD PUSH1 0x40 MSTORE RETURNDATASIZE DUP3 MSTORE RETURNDATASIZE PUSH1 0x0 PUSH1 0x20 DUP5 ADD RETURNDATACOPY PUSH2 0x4E90 JUMP JUMPDEST PUSH1 0x60 SWAP2 POP JUMPDEST POP SWAP2 POP SWAP2 POP PUSH2 0x4EA0 DUP3 DUP3 DUP7 PUSH2 0x4EAB JUMP JUMPDEST SWAP8 SWAP7 POP POP POP POP POP POP POP JUMP JUMPDEST PUSH1 0x60 DUP4 ISZERO PUSH2 0x4EBA JUMPI POP DUP2 PUSH2 0x133F JUMP JUMPDEST DUP3 MLOAD ISZERO PUSH2 0x4ECA JUMPI DUP3 MLOAD DUP1 DUP5 PUSH1 0x20 ADD REVERT JUMPDEST DUP2 PUSH1 0x40 MLOAD PUSH3 0x461BCD PUSH1 0xE5 SHL DUP2 MSTORE PUSH1 0x4 ADD PUSH2 0xC61 SWAP2 SWAP1 PUSH2 0x5010 JUMP JUMPDEST DUP3 DUP1 SLOAD DUP3 DUP3 SSTORE SWAP1 PUSH1 0x0 MSTORE PUSH1 0x20 PUSH1 0x0 KECCAK256 SWAP1 DUP2 ADD SWAP3 DUP3 ISZERO PUSH2 0x4F4F JUMPI SWAP2 PUSH1 0x20 MUL DUP3 ADD JUMPDEST DUP3 DUP2 GT ISZERO PUSH2 0x4F4F JUMPI DUP2 SLOAD PUSH32 0xFFFFFFFFFFFFFFFFFFFFFFFF0000000000000000000000000000000000000000 AND PUSH1 0x1 PUSH1 0x1 PUSH1 0xA0 SHL SUB DUP5 CALLDATALOAD AND OR DUP3 SSTORE PUSH1 0x20 SWAP1 SWAP3 ADD SWAP2 PUSH1 0x1 SWAP1 SWAP2 ADD SWAP1 PUSH2 0x4F04 JUMP JUMPDEST POP PUSH2 0x45E3 SWAP3 SWAP2 POP PUSH2 0x4FCF JUMP JUMPDEST DUP3 DUP1 SLOAD PUSH2 0x4F67 SWAP1 PUSH2 0x52D0 JUMP JUMPDEST SWAP1 PUSH1 0x0 MSTORE PUSH1 0x20 PUSH1 0x0 KECCAK256 SWAP1 PUSH1 0x1F ADD PUSH1 0x20 SWAP1 DIV DUP2 ADD SWAP3 DUP3 PUSH2 0x4F89 JUMPI PUSH1 0x0 DUP6 SSTORE PUSH2 0x4F4F JUMP JUMPDEST DUP3 PUSH1 0x1F LT PUSH2 0x4FA2 JUMPI DUP1 MLOAD PUSH1 0xFF NOT AND DUP4 DUP1 ADD OR DUP6 SSTORE PUSH2 0x4F4F JUMP JUMPDEST DUP3 DUP1 ADD PUSH1 0x1 ADD DUP6 SSTORE DUP3 ISZERO PUSH2 0x4F4F JUMPI SWAP2 DUP3 ADD JUMPDEST DUP3 DUP2 GT ISZERO PUSH2 0x4F4F JUMPI DUP3 MLOAD DUP3 SSTORE SWAP2 PUSH1 0x20 ADD SWAP2 SWAP1 PUSH1 0x1 ADD SWAP1 PUSH2 0x4FB4 JUMP JUMPDEST JUMPDEST DUP1 DUP3 GT ISZERO PUSH2 0x45E3 JUMPI PUSH1 0x0 DUP2 SSTORE PUSH1 0x1 ADD PUSH2 0x4FD0 JUMP JUMPDEST PUSH1 0x0 JUMPDEST DUP4 DUP2 LT ISZERO PUSH2 0x4FFF JUMPI DUP2 DUP2 ADD MLOAD DUP4 DUP3 ADD MSTORE PUSH1 0x20 ADD PUSH2 0x4FE7 JUMP JUMPDEST DUP4 DUP2 GT ISZERO PUSH2 0x41B9 JUMPI POP POP PUSH1 0x0 SWAP2 ADD MSTORE JUMP JUMPDEST PUSH1 0x20 DUP2 MSTORE PUSH1 0x0 DUP3 MLOAD DUP1 PUSH1 0x20 DUP5 ADD MSTORE PUSH2 0x502F DUP2 PUSH1 0x40 DUP6 ADD PUSH1 0x20 DUP8 ADD PUSH2 0x4FE4 JUMP JUMPDEST PUSH1 0x1F ADD PUSH1 0x1F NOT AND SWAP2 SWAP1 SWAP2 ADD PUSH1 0x40 ADD SWAP3 SWAP2 POP POP JUMP JUMPDEST PUSH1 0x0 PUSH1 0x20 DUP3 DUP5 SUB SLT ISZERO PUSH2 0x5055 JUMPI PUSH1 0x0 DUP1 REVERT JUMPDEST DUP2 CALLDATALOAD PUSH16 0xFFFFFFFFFFFFFFFFFFFFFFFFFFFFFFFF DUP2 AND DUP2 EQ PUSH2 0x133F JUMPI PUSH1 0x0 DUP1 REVERT JUMPDEST PUSH1 0x1 PUSH1 0x1 PUSH1 0xA0 SHL SUB DUP2 AND DUP2 EQ PUSH2 0x18D1 JUMPI PUSH1 0x0 DUP1 REVERT JUMPDEST PUSH1 0x0 DUP1 PUSH1 0x40 DUP4 DUP6 SUB SLT ISZERO PUSH2 0x509D JUMPI PUSH1 0x0 DUP1 REVERT JUMPDEST DUP3 CALLDATALOAD PUSH2 0x50A8 DUP2 PUSH2 0x5075 JUMP JUMPDEST SWAP5 PUSH1 0x20 SWAP4 SWAP1 SWAP4 ADD CALLDATALOAD SWAP4 POP POP POP JUMP JUMPDEST PUSH1 0x20 DUP1 DUP3 MSTORE DUP3 MLOAD DUP3 DUP3 ADD DUP2 SWAP1 MSTORE PUSH1 0x0 SWAP2 SWAP1 DUP5 DUP3 ADD SWAP1 PUSH1 0x40 DUP6 ADD SWAP1 DUP5 JUMPDEST DUP2 DUP2 LT ISZERO PUSH2 0x50F7 JUMPI DUP4 MLOAD PUSH1 0x1 PUSH1 0x1 PUSH1 0xA0 SHL SUB AND DUP4 MSTORE SWAP3 DUP5 ADD SWAP3 SWAP2 DUP5 ADD SWAP2 PUSH1 0x1 ADD PUSH2 0x50D2 JUMP JUMPDEST POP SWAP1 SWAP7 SWAP6 POP POP POP POP POP POP JUMP JUMPDEST PUSH1 0x0 PUSH1 0x20 DUP3 DUP5 SUB SLT ISZERO PUSH2 0x5115 JUMPI PUSH1 0x0 DUP1 REVERT JUMPDEST POP CALLDATALOAD SWAP2 SWAP1 POP JUMP JUMPDEST PUSH1 0x0 PUSH1 0x20 DUP3 DUP5 SUB SLT ISZERO PUSH2 0x512E JUMPI PUSH1 0x0 DUP1 REVERT JUMPDEST DUP2 CALLDATALOAD PUSH2 0x133F DUP2 PUSH2 0x5075 JUMP JUMPDEST PUSH1 0x0 DUP1 PUSH1 0x0 PUSH1 0x60 DUP5 DUP7 SUB SLT ISZERO PUSH2 0x514E JUMPI PUSH1 0x0 DUP1 REVERT JUMPDEST DUP4 CALLDATALOAD PUSH2 0x5159 DUP2 PUSH2 0x5075 JUMP JUMPDEST SWAP3 POP PUSH1 0x20 DUP5 ADD CALLDATALOAD PUSH2 0x5169 DUP2 PUSH2 0x5075 JUMP JUMPDEST SWAP3 SWAP6 SWAP3 SWAP5 POP POP POP PUSH1 0x40 SWAP2 SWAP1 SWAP2 ADD CALLDATALOAD SWAP1 JUMP JUMPDEST PUSH1 0x0 DUP1 PUSH1 0x40 DUP4 DUP6 SUB SLT ISZERO PUSH2 0x518D JUMPI PUSH1 0x0 DUP1 REVERT JUMPDEST POP POP DUP1 CALLDATALOAD SWAP3 PUSH1 0x20 SWAP1 SWAP2 ADD CALLDATALOAD SWAP2 POP JUMP JUMPDEST PUSH1 0x0 PUSH1 0x20 DUP3 DUP5 SUB SLT ISZERO PUSH2 0x51AE JUMPI PUSH1 0x0 DUP1 REVERT JUMPDEST DUP2 CALLDATALOAD PUSH8 0xFFFFFFFFFFFFFFFF DUP2 AND DUP2 EQ PUSH2 0x133F JUMPI PUSH1 0x0 DUP1 REVERT JUMPDEST PUSH1 0x0 DUP1 PUSH1 0x20 DUP4 DUP6 SUB SLT ISZERO PUSH2 0x51D9 JUMPI PUSH1 0x0 DUP1 REVERT JUMPDEST DUP3 CALLDATALOAD PUSH8 0xFFFFFFFFFFFFFFFF DUP1 DUP3 GT ISZERO PUSH2 0x51F1 JUMPI PUSH1 0x0 DUP1 REVERT JUMPDEST DUP2 DUP6 ADD SWAP2 POP DUP6 PUSH1 0x1F DUP4 ADD SLT PUSH2 0x5205 JUMPI PUSH1 0x0 DUP1 REVERT JUMPDEST DUP2 CALLDATALOAD DUP2 DUP2 GT ISZERO PUSH2 0x5214 JUMPI PUSH1 0x0 DUP1 REVERT JUMPDEST DUP7 PUSH1 0x20 DUP3 PUSH1 0x5 SHL DUP6 ADD ADD GT ISZERO PUSH2 0x5229 JUMPI PUSH1 0x0 DUP1 REVERT JUMPDEST PUSH1 0x20 SWAP3 SWAP1 SWAP3 ADD SWAP7 SWAP2 SWAP6 POP SWAP1 SWAP4 POP POP POP POP JUMP JUMPDEST PUSH1 0x0 DUP1 PUSH1 0x40 DUP4 DUP6 SUB SLT ISZERO PUSH2 0x524E JUMPI PUSH1 0x0 DUP1 REVERT JUMPDEST DUP3 CALLDATALOAD PUSH2 0x5259 DUP2 PUSH2 0x5075 JUMP JUMPDEST SWAP2 POP PUSH1 0x20 DUP4 ADD CALLDATALOAD PUSH2 0x5269 DUP2 PUSH2 0x5075 JUMP JUMPDEST DUP1 SWAP2 POP POP SWAP3 POP SWAP3 SWAP1 POP JUMP JUMPDEST PUSH1 0x0 DUP1 PUSH1 0x0 DUP1 PUSH1 0x80 DUP6 DUP8 SUB SLT ISZERO PUSH2 0x528A JUMPI PUSH1 0x0 DUP1 REVERT JUMPDEST DUP5 CALLDATALOAD PUSH2 0x5295 DUP2 PUSH2 0x5075 JUMP JUMPDEST SWAP4 POP PUSH1 0x20 DUP6 ADD CALLDATALOAD PUSH2 0x52A5 DUP2 PUSH2 0x5075 JUMP JUMPDEST SWAP3 POP PUSH1 0x40 DUP6 ADD CALLDATALOAD PUSH2 0x52B5 DUP2 PUSH2 0x5075 JUMP JUMPDEST SWAP2 POP PUSH1 0x60 DUP6 ADD CALLDATALOAD PUSH2 0x52C5 DUP2 PUSH2 0x5075 JUMP JUMPDEST SWAP4 SWAP7 SWAP3 SWAP6 POP SWAP1 SWAP4 POP POP JUMP JUMPDEST PUSH1 0x1 DUP2 DUP2 SHR SWAP1 DUP3 AND DUP1 PUSH2 0x52E4 JUMPI PUSH1 0x7F DUP3 AND SWAP2 POP JUMPDEST PUSH1 0x20 DUP3 LT DUP2 EQ ISZERO PUSH2 0x531E JUMPI PUSH32 0x4E487B7100000000000000000000000000000000000000000000000000000000 PUSH1 0x0 MSTORE PUSH1 0x22 PUSH1 0x4 MSTORE PUSH1 0x24 PUSH1 0x0 REVERT JUMPDEST POP SWAP2 SWAP1 POP JUMP JUMPDEST PUSH1 0x0 PUSH1 0x20 DUP3 DUP5 SUB SLT ISZERO PUSH2 0x5336 JUMPI PUSH1 0x0 DUP1 REVERT JUMPDEST DUP2 MLOAD DUP1 ISZERO ISZERO DUP2 EQ PUSH2 0x133F JUMPI PUSH1 0x0 DUP1 REVERT JUMPDEST PUSH32 0x4E487B7100000000000000000000000000000000000000000000000000000000 PUSH1 0x0 MSTORE PUSH1 0x11 PUSH1 0x4 MSTORE PUSH1 0x24 PUSH1 0x0 REVERT JUMPDEST PUSH1 0x0 PUSH8 0xFFFFFFFFFFFFFFFF DUP1 DUP4 AND DUP2 DUP6 AND DUP1 DUP4 SUB DUP3 GT ISZERO PUSH2 0x5398 JUMPI PUSH2 0x5398 PUSH2 0x5346 JUMP JUMPDEST ADD SWAP5 SWAP4 POP POP POP POP JUMP JUMPDEST PUSH1 0x0 DUP3 NOT DUP3 GT ISZERO PUSH2 0x53B4 JUMPI PUSH2 0x53B4 PUSH2 0x5346 JUMP JUMPDEST POP ADD SWAP1 JUMP JUMPDEST PUSH1 0x0 DUP3 DUP3 LT ISZERO PUSH2 0x53CB JUMPI PUSH2 0x53CB PUSH2 0x5346 JUMP JUMPDEST POP SUB SWAP1 JUMP JUMPDEST PUSH32 0x4E487B7100000000000000000000000000000000000000000000000000000000 PUSH1 0x0 MSTORE PUSH1 0x12 PUSH1 0x4 MSTORE PUSH1 0x24 PUSH1 0x0 REVERT JUMPDEST PUSH1 0x0 PUSH1 0x20 DUP3 DUP5 SUB SLT ISZERO PUSH2 0x5411 JUMPI PUSH1 0x0 DUP1 REVERT JUMPDEST POP MLOAD SWAP2 SWAP1 POP JUMP JUMPDEST PUSH1 0x20 DUP1 DUP3 MSTORE DUP2 DUP2 ADD DUP4 SWAP1 MSTORE PUSH1 0x0 SWAP1 DUP5 PUSH1 0x40 DUP5 ADD DUP4 JUMPDEST DUP7 DUP2 LT ISZERO PUSH2 0x545B JUMPI DUP3 CALLDATALOAD PUSH2 0x5440 DUP2 PUSH2 0x5075 JUMP JUMPDEST PUSH1 0x1 PUSH1 0x1 PUSH1 0xA0 SHL SUB AND DUP3 MSTORE SWAP2 DUP4 ADD SWAP2 SWAP1 DUP4 ADD SWAP1 PUSH1 0x1 ADD PUSH2 0x542D JUMP JUMPDEST POP SWAP7 SWAP6 POP POP POP POP POP POP JUMP JUMPDEST PUSH1 0x0 PUSH31 0xFFFFFFFFFFFFFFFFFFFFFFFFFFFFFFFFFFFFFFFFFFFFFFFFFFFFFFFFFFFFFF DUP4 DUP2 AND SWAP1 DUP4 AND DUP2 DUP2 LT ISZERO PUSH2 0x549E JUMPI PUSH2 0x549E PUSH2 0x5346 JUMP JUMPDEST SUB SWAP4 SWAP3 POP POP POP JUMP JUMPDEST PUSH1 0x0 PUSH1 0x20 DUP3 DUP5 SUB SLT ISZERO PUSH2 0x54B8 JUMPI PUSH1 0x0 DUP1 REVERT JUMPDEST DUP2 MLOAD PUSH1 0xFF DUP2 AND DUP2 EQ PUSH2 0x133F JUMPI PUSH1 0x0 DUP1 REVERT JUMPDEST PUSH1 0x0 PUSH16 0xFFFFFFFFFFFFFFFFFFFFFFFFFFFFFFFF DUP1 DUP4 AND DUP2 DUP6 AND DUP1 DUP4 SUB DUP3 GT ISZERO PUSH2 0x5398 JUMPI PUSH2 0x5398 PUSH2 0x5346 JUMP JUMPDEST PUSH32 0x4E487B7100000000000000000000000000000000000000000000000000000000 PUSH1 0x0 MSTORE PUSH1 0x32 PUSH1 0x4 MSTORE PUSH1 0x24 PUSH1 0x0 REVERT JUMPDEST PUSH1 0x0 PUSH1 0x0 NOT DUP3 EQ ISZERO PUSH2 0x5537 JUMPI PUSH2 0x5537 PUSH2 0x5346 JUMP JUMPDEST POP PUSH1 0x1 ADD SWAP1 JUMP JUMPDEST PUSH1 0x0 PUSH1 0x20 DUP3 DUP5 SUB SLT ISZERO PUSH2 0x5550 JUMPI PUSH1 0x0 DUP1 REVERT JUMPDEST DUP2 MLOAD PUSH2 0x133F DUP2 PUSH2 0x5075 JUMP JUMPDEST PUSH32 0x4E487B7100000000000000000000000000000000000000000000000000000000 PUSH1 0x0 MSTORE PUSH1 0x41 PUSH1 0x4 MSTORE PUSH1 0x24 PUSH1 0x0 REVERT JUMPDEST PUSH1 0x0 PUSH1 0x20 DUP3 DUP5 SUB SLT ISZERO PUSH2 0x559C JUMPI PUSH1 0x0 DUP1 REVERT JUMPDEST DUP2 MLOAD PUSH8 0xFFFFFFFFFFFFFFFF DUP1 DUP3 GT ISZERO PUSH2 0x55B4 JUMPI PUSH1 0x0 DUP1 REVERT JUMPDEST DUP2 DUP5 ADD SWAP2 POP DUP5 PUSH1 0x1F DUP4 ADD SLT PUSH2 0x55C8 JUMPI PUSH1 0x0 DUP1 REVERT JUMPDEST DUP2 MLOAD DUP2 DUP2 GT ISZERO PUSH2 0x55DA JUMPI PUSH2 0x55DA PUSH2 0x555B JUMP JUMPDEST PUSH1 0x40 MLOAD PUSH1 0x1F DUP3 ADD PUSH1 0x1F NOT SWAP1 DUP2 AND PUSH1 0x3F ADD AND DUP2 ADD SWAP1 DUP4 DUP3 GT DUP2 DUP4 LT OR ISZERO PUSH2 0x5602 JUMPI PUSH2 0x5602 PUSH2 0x555B JUMP JUMPDEST DUP2 PUSH1 0x40 MSTORE DUP3 DUP2 MSTORE DUP8 PUSH1 0x20 DUP5 DUP8 ADD ADD GT ISZERO PUSH2 0x561B JUMPI PUSH1 0x0 DUP1 REVERT JUMPDEST PUSH2 0x4EA0 DUP4 PUSH1 0x20 DUP4 ADD PUSH1 0x20 DUP9 ADD PUSH2 0x4FE4 JUMP JUMPDEST PUSH1 0x0 DUP5 MLOAD PUSH2 0x563E DUP2 DUP5 PUSH1 0x20 DUP10 ADD PUSH2 0x4FE4 JUMP JUMPDEST DUP1 DUP4 ADD SWAP1 POP PUSH32 0x2000000000000000000000000000000000000000000000000000000000000000 DUP1 DUP3 MSTORE DUP6 MLOAD PUSH2 0x567A DUP2 PUSH1 0x1 DUP6 ADD PUSH1 0x20 DUP11 ADD PUSH2 0x4FE4 JUMP JUMPDEST PUSH1 0x1 SWAP3 ADD SWAP2 DUP3 ADD MSTORE DUP4 MLOAD PUSH2 0x5695 DUP2 PUSH1 0x2 DUP5 ADD PUSH1 0x20 DUP9 ADD PUSH2 0x4FE4 JUMP JUMPDEST ADD PUSH1 0x2 ADD SWAP6 SWAP5 POP POP POP POP POP JUMP JUMPDEST PUSH1 0x0 DUP4 MLOAD PUSH2 0x56B4 DUP2 DUP5 PUSH1 0x20 DUP9 ADD PUSH2 0x4FE4 JUMP JUMPDEST DUP4 MLOAD SWAP1 DUP4 ADD SWAP1 PUSH2 0x5398 DUP2 DUP4 PUSH1 0x20 DUP9 ADD PUSH2 0x4FE4 JUMP JUMPDEST PUSH1 0x1 DUP2 DUP2 JUMPDEST DUP1 DUP6 GT ISZERO PUSH2 0x5703 JUMPI DUP2 PUSH1 0x0 NOT DIV DUP3 GT ISZERO PUSH2 0x56E9 JUMPI PUSH2 0x56E9 PUSH2 0x5346 JUMP JUMPDEST DUP1 DUP6 AND ISZERO PUSH2 0x56F6 JUMPI SWAP2 DUP2 MUL SWAP2 JUMPDEST SWAP4 DUP5 SHR SWAP4 SWAP1 DUP1 MUL SWAP1 PUSH2 0x56CD JUMP JUMPDEST POP SWAP3 POP SWAP3 SWAP1 POP JUMP JUMPDEST PUSH1 0x0 DUP3 PUSH2 0x571A JUMPI POP PUSH1 0x1 PUSH2 0xD9A JUMP JUMPDEST DUP2 PUSH2 0x5727 JUMPI POP PUSH1 0x0 PUSH2 0xD9A JUMP JUMPDEST DUP2 PUSH1 0x1 DUP2 EQ PUSH2 0x573D JUMPI PUSH1 0x2 DUP2 EQ PUSH2 0x5747 JUMPI PUSH2 0x5763 JUMP JUMPDEST PUSH1 0x1 SWAP2 POP POP PUSH2 0xD9A JUMP JUMPDEST PUSH1 0xFF DUP5 GT ISZERO PUSH2 0x5758 JUMPI PUSH2 0x5758 PUSH2 0x5346 JUMP JUMPDEST POP POP PUSH1 0x1 DUP3 SHL PUSH2 0xD9A JUMP JUMPDEST POP PUSH1 0x20 DUP4 LT PUSH2 0x133 DUP4 LT AND PUSH1 0x4E DUP5 LT PUSH1 0xB DUP5 LT AND OR ISZERO PUSH2 0x5786 JUMPI POP DUP2 DUP2 EXP PUSH2 0xD9A JUMP JUMPDEST PUSH2 0x5790 DUP4 DUP4 PUSH2 0x56C8 JUMP JUMPDEST DUP1 PUSH1 0x0 NOT DIV DUP3 GT ISZERO PUSH2 0x57A4 JUMPI PUSH2 0x57A4 PUSH2 0x5346 JUMP JUMPDEST MUL SWAP4 SWAP3 POP POP POP JUMP JUMPDEST PUSH1 0x0 PUSH2 0x133F PUSH1 0xFF DUP5 AND DUP4 PUSH2 0x570B JUMP JUMPDEST PUSH1 0x0 DUP2 PUSH2 0x57CA JUMPI PUSH2 0x57CA PUSH2 0x5346 JUMP JUMPDEST POP PUSH1 0x0 NOT ADD SWAP1 JUMP JUMPDEST PUSH1 0x0 DUP3 PUSH2 0x5808 JUMPI PUSH32 0x4E487B7100000000000000000000000000000000000000000000000000000000 PUSH1 0x0 MSTORE PUSH1 0x12 PUSH1 0x4 MSTORE PUSH1 0x24 PUSH1 0x0 REVERT JUMPDEST POP DIV SWAP1 JUMP JUMPDEST PUSH1 0x0 DUP2 PUSH1 0x0 NOT DIV DUP4 GT DUP3 ISZERO ISZERO AND ISZERO PUSH2 0x5827 JUMPI PUSH2 0x5827 PUSH2 0x5346 JUMP JUMPDEST POP MUL SWAP1 JUMP JUMPDEST PUSH1 0x0 DUP3 MLOAD PUSH2 0x583E DUP2 DUP5 PUSH1 0x20 DUP8 ADD PUSH2 0x4FE4 JUMP JUMPDEST SWAP2 SWAP1 SWAP2 ADD SWAP3 SWAP2 POP POP JUMP INVALID LOG2 PUSH5 0x6970667358 0x22 SLT KECCAK256 DUP8 JUMP CALL EXTCODEHASH 0xF6 LOG0 EXTCODESIZE 0xCB DUP16 0xAE SWAP5 0xE7 PUSH30 0x6A69A747AA90C9ACD90A598C14F2974FEB825364736F6C634300080A0033 ",
  "sha1": "7c51b8dfd9f6c08bd2b0478df8249e301f38e98c",
  "source": "// SPDX-License-Identifier: AGPL-3.0-only\npragma solidity ^0.8.10;\n\nimport {OwnableUpgradeable as Ownable} from \"@oz-upgradeable/contracts/access/OwnableUpgradeable.sol\";\nimport {PausableUpgradeable as Pausable} from \"@oz-upgradeable/contracts/security/PausableUpgradeable.sol\";\nimport {ERC20Upgradeable as ERC20} from \"@oz-upgradeable/contracts/token/ERC20/ERC20Upgradeable.sol\";\nimport {SafeERC20Upgradeable as SafeERC20} from \"@oz-upgradeable/contracts/token/ERC20/utils/SafeERC20Upgradeable.sol\";\n\nimport {IVault} from \"../interfaces/IVault.sol\";\nimport {IStrategy} from \"../interfaces/IStrategy.sol\";\nimport {IVaultAuth} from \"../interfaces/IVaultAuth.sol\";\n\nimport {SafeCastLib as SafeCast} from \"./libraries/SafeCastLib.sol\";\nimport {FixedPointMathLib as FixedPointMath} from \"./libraries/FixedPointMathLib.sol\";\n\n/// @title Vault\n/// @author dantop114\n/// @notice A vault seeking for yield.\ncontract Vault is ERC20, Pausable {\n    using SafeERC20 for ERC20;\n    using SafeCast for uint256;\n    using FixedPointMath for uint256;\n\n    /*///////////////////////////////////////////////////////////////\n                              IMMUTABLES\n    ///////////////////////////////////////////////////////////////*/\n\n    /// @notice The Vault's token symbol prefix.\n    bytes internal constant sPrefix = bytes(\"auxo\");\n\n    /// @notice The Vault's token name prefix.\n    bytes internal constant nPrefix = bytes(\"Auxo \");\n\n    /// @notice The Vault's token name suffix.\n    bytes internal constant nSuffix = bytes(\" Vault\");\n\n    /// @notice Max number of strategies the Vault can handle.\n    uint256 internal constant MAX_STRATEGIES = 20;\n\n    /// @notice Vault's API version.\n    string public constant version = \"0.1\";\n\n    /*///////////////////////////////////////////////////////////////\n                        STRUCTS DECLARATIONS\n    ///////////////////////////////////////////////////////////////*/\n\n    /// @dev Packed struct of strategy data.\n    /// @param trusted Whether the strategy is trusted.\n    /// @param mintable Whether the strategy can be withdrawn automagically\n    /// @param balance The amount of underlying tokens held in the strategy.\n    struct StrategyData {\n        // Used to determine if the Vault will operate on a strategy.\n        bool trusted;\n        // Used to determine profit and loss during harvests of the strategy.\n        uint248 balance;\n    }\n\n    /// @dev Struct for batched burning events.\n    /// @param totalShares Shares to burn during the event.\n    /// @param amountPerShare Underlying amount per share (this differs from exchangeRate at the moment of batched burning).\n    struct BatchBurn {\n        uint256 totalShares;\n        uint256 amountPerShare;\n    }\n\n    /// @dev Struct for users' batched burning requests.\n    /// @param round Batched burning event index.\n    /// @param shares Shares to burn for the user.\n    struct BatchBurnReceipt {\n        uint256 round;\n        uint256 shares;\n    }\n\n    /*///////////////////////////////////////////////////////////////\n                                STORAGE\n    //////////////////////////////////////////////////////////////*/\n\n    /// @notice Blocks mined in a year.\n    uint256 public BLOCKS_PER_YEAR;\n\n    /// @notice Vault Auth module.\n    IVaultAuth public auth;\n\n    /// @notice The underlying token the vault accepts.\n    ERC20 public underlying;\n\n    /// @notice The underlying token decimals.\n    uint8 public underlyingDecimals;\n\n    /// @notice The base unit of the underlying token and hence the Vault share token.\n    /// @dev Equal to 10 ** underlyingDecimals. Used for fixed point arithmetic.\n    uint256 public BASE_UNIT;\n\n    /// @notice The percentage of profit recognized each harvest to reserve as fees.\n    /// @dev A fixed point number where 1e18 represents 100% and 0 represents 0%.\n    uint256 public harvestFeePercent;\n\n    /// @notice The address receiving harvest fees (denominated in Vault's shares).\n    address public harvestFeeReceiver;\n\n    /// @notice The percentage of shares recognized each burning to reserve as fees.\n    /// @dev A fixed point number where 1e18 represents 100% and 0 represents 0%.\n    uint256 public burningFeePercent;\n\n    /// @notice The address receiving burning fees (denominated in Vault's shares).\n    address public burningFeeReceiver;\n\n    /// @notice The period in seconds during which multiple harvests can occur\n    /// regardless if they are taking place before the harvest delay has elapsed.\n    /// @dev Long harvest delays open up the Vault to profit distribution DOS attacks.\n    uint128 public harvestWindow;\n\n    /// @notice The period in seconds over which locked profit is unlocked.\n    /// @dev Cannot be 0 as it opens harvests up to sandwich attacks.\n    uint64 public harvestDelay;\n\n    /// @notice The value that will replace harvestDelay next harvest.\n    /// @dev In the case that the next delay is 0, no update will be applied.\n    uint64 public nextHarvestDelay;\n\n    /// @notice The total amount of underlying tokens held in strategies at the time of the last harvest.\n    /// @dev Includes maxLockedProfit, must be correctly subtracted to compute available/free holdings.\n    uint256 public totalStrategyHoldings;\n\n    /// @notice Maps strategies to data the Vault holds on them.\n    mapping(IStrategy => StrategyData) public getStrategyData;\n\n    /// @notice Exchange rate at the beginning of latest harvest window\n    uint256 public lastHarvestExchangeRate;\n\n    /// @notice Latest harvest interval in blocks\n    uint256 public lastHarvestIntervalInBlocks;\n\n    /// @notice The block number when the first harvest in the most recent harvest window occurred.\n    uint256 public lastHarvestWindowStartBlock;\n\n    /// @notice A timestamp representing when the first harvest in the most recent harvest window occurred.\n    /// @dev May be equal to lastHarvest if there was/has only been one harvest in the most last/current window.\n    uint64 public lastHarvestWindowStart;\n\n    /// @notice A timestamp representing when the most recent harvest occurred.\n    uint64 public lastHarvest;\n\n    /// @notice The amount of locked profit at the end of the last harvest.\n    uint128 public maxLockedProfit;\n\n    /// @notice An ordered array of strategies representing the withdrawal queue.\n    /// @dev The queue is processed in descending order, meaning the last index will be withdrawn from first.\n    /// @dev Strategies that are untrusted, duplicated, or have no balance are filtered out when encountered at\n    /// withdrawal time, not validated upfront, meaning the queue may not reflect the \"true\" set used for withdrawals.\n    IStrategy[] public withdrawalQueue;\n\n    /// @notice Current batched burning round.\n    uint256 public batchBurnRound;\n\n    /// @notice Balance reserved to batched burning withdrawals.\n    uint256 public batchBurnBalance;\n\n    /// @notice Maps user's address to withdrawal request.\n    mapping(address => BatchBurnReceipt) public userBatchBurnReceipts;\n\n    /// @notice Maps social burning events rounds to batched burn details.\n    mapping(uint256 => BatchBurn) public batchBurns;\n\n    /// @notice Amount of shares a single address can hold.\n    uint256 public userDepositLimit;\n\n    /// @notice Amount of underlying cap for this vault.\n    uint256 public vaultDepositLimit;\n\n    /// @notice Estimated return recorded during last harvest.\n    uint256 public estimatedReturn;\n\n\n    /*///////////////////////////////////////////////////////////////\n                                EVENTS\n    //////////////////////////////////////////////////////////////*/\n\n    /// @notice Emitted when the IVaultAuth module is updated.\n    /// @param newAuth The new IVaultAuth module.\n    event AuthUpdated(IVaultAuth newAuth);\n\n    /// @notice Emitted when the fee percentage is updated.\n    /// @param newFeePercent The new fee percentage.\n    event HarvestFeePercentUpdated(uint256 newFeePercent);\n\n    /// @notice Emitted when the batched burning fee percentage is updated.\n    /// @param newFeePercent The new fee percentage.\n    event BurningFeePercentUpdated(uint256 newFeePercent);\n\n    /// @notice Emitted when harvest fees receiver is updated.\n    /// @param receiver The new receiver\n    event HarvestFeeReceiverUpdated(address indexed receiver);\n\n    /// @notice Emitted when burning fees receiver is updated.\n    /// @param receiver The new receiver\n    event BurningFeeReceiverUpdated(address indexed receiver);\n\n    //// @notice Emitted when the harvest window is updated.\n    //// @param newHarvestWindow The new harvest window.\n    event HarvestWindowUpdated(uint128 newHarvestWindow);\n\n    /// @notice Emitted when the harvest delay is updated.\n    /// @param account The address changing the harvest delay\n    /// @param newHarvestDelay The new harvest delay.\n    event HarvestDelayUpdated(address indexed account, uint64 newHarvestDelay);\n\n    /// @notice Emitted when the harvest delay is scheduled to be updated next harvest.\n    /// @param newHarvestDelay The scheduled updated harvest delay.\n    event HarvestDelayUpdateScheduled(uint64 newHarvestDelay);\n\n    /// @notice Emitted when the withdrawal queue is updated.\n    /// @param replacedWithdrawalQueue The new withdrawal queue.\n    event WithdrawalQueueSet(IStrategy[] replacedWithdrawalQueue);\n\n    /// @notice Emitted when a strategy is set to trusted.\n    /// @param strategy The strategy that became trusted.\n    event StrategyTrusted(IStrategy indexed strategy);\n\n    /// @notice Emitted when a strategy is set to untrusted.\n    /// @param strategy The strategy that became untrusted.\n    event StrategyDistrusted(IStrategy indexed strategy);\n\n    /// @notice Emitted when underlying tokens are deposited into the vault.\n    /// @param from The user depositing into the vault.\n    /// @param to The user receiving Vault's shares.\n    /// @param value The shares `to` is receiving.\n    event Deposit(address indexed from, address indexed to, uint256 value);\n\n    /// @notice Emitted after a user enters a batched burn round.\n    /// @param round Batched burn round.\n    /// @param account User's address.\n    /// @param amount Amount of shares to be burned.\n    event EnterBatchBurn(uint256 indexed round, address indexed account, uint256 amount);\n\n    /// @notice Emitted after a user exits a batched burn round.\n    /// @param round Batched burn round.\n    /// @param account User's address.\n    /// @param amount Amount of underlying redeemed.\n    event ExitBatchBurn(uint256 indexed round, address indexed account, uint256 amount);\n\n    /// @notice Emitted after a batched burn event happens.\n    /// @param round Batched burn round.\n    /// @param executor User that executes the batch burn.\n    /// @param shares Total amount of burned shares.\n    /// @param amount Total amount of underlying redeemed.\n    event ExecuteBatchBurn(uint256 indexed round, address indexed executor, uint256 shares, uint256 amount);\n\n    /// @notice Emitted after a successful harvest.\n    /// @param account The harvester address.\n    /// @param strategies The set of strategies.\n    event Harvest(address indexed account, IStrategy[] strategies);\n\n    /// @notice Emitted after the Vault deposits into a strategy contract.\n    /// @param account The address depositing funds into the strategy.\n    /// @param strategy The strategy that was deposited into.\n    /// @param underlyingAmount The amount of underlying tokens that were deposited.\n    event StrategyDeposit(address indexed account, IStrategy indexed strategy, uint256 underlyingAmount);\n\n    /// @notice Emitted after the Vault withdraws funds from a strategy contract.\n    /// @param account The user pulling funds from the strategy\n    /// @param strategy The strategy that was withdrawn from.\n    /// @param underlyingAmount The amount of underlying tokens that were withdrawn.\n    event StrategyWithdrawal(address indexed account, IStrategy indexed strategy, uint256 underlyingAmount);\n\n    /// @notice Event emitted when the deposit limits are updated.\n    /// @param perUser New underlying limit per address.\n    /// @param perVault New underlying limit per vault.\n    event DepositLimitsUpdated(uint256 perUser, uint256 perVault);\n\n    /*///////////////////////////////////////////////////////////////\n                            MODIFIERS\n    //////////////////////////////////////////////////////////////*/\n\n    /// @notice Checks that `caller` is authorized as a depositor.\n    /// @param caller The caller to check.\n    modifier onlyDepositor(address caller) {\n        require(auth.isDepositor(IVault(address(this)), caller), \"error::NOT_DEPOSITOR\");\n\n        _;\n    }\n\n    /// @notice Checks that `caller` is authorized as a admin.\n    /// @param caller The caller to check.\n    modifier onlyAdmin(address caller) {\n        require(auth.isAdmin(IVault(address(this)), caller), \"error::NOT_ADMIN\");\n\n        _;\n    }\n\n    /// @notice Checks that `caller` is authorized as a harvester.\n    /// @param caller The caller to check.\n    modifier onlyHarvester(address caller) {\n        require(auth.isHarvester(IVault(address(this)), caller), \"error::NOT_HARVESTER\");\n\n        _;\n    }\n\n    /*///////////////////////////////////////////////////////////////\n                    INITIALIZER AND PAUSE TRIGGER\n    //////////////////////////////////////////////////////////////*/\n\n    /// @notice Triggers the Vault's pause\n    /// @dev Only owner can call this method.\n    function triggerPause() external onlyAdmin(msg.sender) {\n        paused() ? _unpause() : _pause();\n    }\n\n    /// @notice The initialize method\n    /// @param underlying_ The underlying token the vault accepts\n    function initialize(\n        ERC20 underlying_,\n        IVaultAuth auth_,\n        address harvestFeeReceiver_,\n        address burnFeeReceiver_\n    ) external initializer {\n        // init ERC20\n        string memory name_ = string(bytes.concat(nPrefix, \" \", bytes(underlying_.name()), \" \", nSuffix));\n        string memory symbol_ = string(bytes.concat(sPrefix, bytes(underlying_.symbol())));\n\n        // super.initialize\n        __ERC20_init(name_, symbol_);\n        __Pausable_init();\n\n        // pause on initialize\n        _pause();\n\n        // init storage\n        underlying = underlying_;\n        BASE_UNIT = 10**underlying_.decimals();\n        underlyingDecimals = underlying_.decimals();\n\n        auth = auth_;\n        burningFeeReceiver = burnFeeReceiver_;\n        harvestFeeReceiver = harvestFeeReceiver_;\n\n        // sets batchBurnRound to 1\n        // needed to have 0 as an uninitialized withdraw request\n        batchBurnRound = 1;\n\n        // sets initial BLOCKS_PER_YEAR value\n        // BLOCKS_PER_YEAR is set to Ethereum mainnet estimated blocks (~13.5s per block)\n        BLOCKS_PER_YEAR = 2465437;\n    }\n\n    /*///////////////////////////////////////////////////////////////\n                        DECIMAL OVERRIDING\n    //////////////////////////////////////////////////////////////*/\n\n    /// @notice Overrides `decimals` method.\n    /// @dev Needed because Openzeppelin's logic for decimals.\n    /// @return Vault's shares token decimals (underlying token decimals).\n    function decimals() public view override returns (uint8) {\n        return underlyingDecimals;\n    }\n\n    /*///////////////////////////////////////////////////////////////\n                    UNDERLYING CAP CONFIGURATION\n    //////////////////////////////////////////////////////////////*/\n\n    /// @notice Set new deposit limits for this vault.\n    /// @param user New user deposit limit.\n    /// @param vault New vault deposit limit.\n    function setDepositLimits(uint256 user, uint256 vault) external onlyAdmin(msg.sender) {\n        userDepositLimit = user;\n        vaultDepositLimit = vault;\n\n        emit DepositLimitsUpdated(user, vault);\n    }\n\n    /*///////////////////////////////////////////////////////////////\n                        AUTH CONFIGURATION\n    //////////////////////////////////////////////////////////////*/\n\n    /// @notice Set a new IVaultAuth module.\n    /// @param newAuth The new IVaultAuth module.\n    function setAuth(IVaultAuth newAuth) external onlyAdmin(msg.sender) {\n        auth = newAuth;\n        emit AuthUpdated(newAuth);\n    }\n\n    /*///////////////////////////////////////////////////////////////\n                     BLOCKS PER YEAR CONFIGURATION\n    //////////////////////////////////////////////////////////////*/\n\n    /// @notice Sets blocks per year.\n    /// @param blocks Blocks in a given year.\n    function setBlocksPerYear(uint256 blocks) external onlyAdmin(msg.sender) {\n        BLOCKS_PER_YEAR = blocks;\n    }\n\n    /*///////////////////////////////////////////////////////////////\n                           FEE CONFIGURATION\n    //////////////////////////////////////////////////////////////*/\n\n    /// @notice Set a new fee percentage.\n    /// @param newFeePercent The new fee percentage.\n    function setHarvestFeePercent(uint256 newFeePercent) external onlyAdmin(msg.sender) {\n        // A fee percentage over 100% doesn't make sense.\n        require(newFeePercent <= 1e18, \"setFeePercent::FEE_TOO_HIGH\");\n\n        // Update the fee percentage.\n        harvestFeePercent = newFeePercent;\n\n        emit HarvestFeePercentUpdated(newFeePercent);\n    }\n\n    /// @notice Set a new burning fee percentage.\n    /// @param newFeePercent The new fee percentage.\n    function setBatchedBurningFeePercent(uint256 newFeePercent) external onlyAdmin(msg.sender) {\n        // A fee percentage over 100% doesn't make sense.\n        require(newFeePercent <= 1e18, \"setBatchedBurningFeePercent::FEE_TOO_HIGH\");\n\n        // Update the fee percentage.\n        burningFeePercent = newFeePercent;\n\n        emit BurningFeePercentUpdated(newFeePercent);\n    }\n\n    /// @notice Set a new harvest fees receiver.\n    /// @param harvestFeeReceiver_ The new harvest fees receiver.\n    function setHarvestFeeReceiver(address harvestFeeReceiver_) external onlyAdmin(msg.sender) {\n        // Update the fee percentage.\n        harvestFeeReceiver = harvestFeeReceiver_;\n\n        emit HarvestFeeReceiverUpdated(harvestFeeReceiver_);\n    }\n\n    /// @notice Set a new burning fees receiver.\n    /// @param burningFeeReceiver_ The new burning fees receiver.\n    function setBurningFeeReceiver(address burningFeeReceiver_) external onlyAdmin(msg.sender) {\n        // Update the fee percentage.\n        burningFeeReceiver = burningFeeReceiver_;\n\n        emit BurningFeeReceiverUpdated(burningFeeReceiver_);\n    }\n\n    /*///////////////////////////////////////////////////////////////\n                        HARVEST CONFIGURATION\n    //////////////////////////////////////////////////////////////*/\n\n    /// @notice Set a new harvest window.\n    /// @param newHarvestWindow The new harvest window.\n    /// @dev The Vault's harvestDelay must already be set before calling.\n    function setHarvestWindow(uint128 newHarvestWindow) external onlyAdmin(msg.sender) {\n        // A harvest window longer than the harvest delay doesn't make sense.\n        require(newHarvestWindow <= harvestDelay, \"setHarvestWindow::WINDOW_TOO_LONG\");\n\n        // Update the harvest window.\n        harvestWindow = newHarvestWindow;\n\n        emit HarvestWindowUpdated(newHarvestWindow);\n    }\n\n    /// @notice Set a new harvest delay delay.\n    /// @param newHarvestDelay The new harvest delay to set.\n    /// @dev If the current harvest delay is 0, meaning it has not\n    /// been set before, it will be updated immediately; otherwise\n    /// it will be scheduled to take effect after the next harvest.\n    function setHarvestDelay(uint64 newHarvestDelay) external onlyAdmin(msg.sender) {\n        // A harvest delay of 0 makes harvests vulnerable to sandwich attacks.\n        require(newHarvestDelay != 0, \"setHarvestDelay::DELAY_CANNOT_BE_ZERO\");\n\n        // A target harvest delay over 1 year doesn't make sense.\n        require(newHarvestDelay <= 365 days, \"setHarvestDelay::DELAY_TOO_LONG\");\n\n        // If the harvest delay is 0, meaning it has not been set before:\n        if (harvestDelay == 0) {\n            // We'll apply the update immediately.\n            harvestDelay = newHarvestDelay;\n\n            emit HarvestDelayUpdated(msg.sender, newHarvestDelay);\n        } else {\n            // We'll apply the update next harvest.\n            nextHarvestDelay = newHarvestDelay;\n\n            emit HarvestDelayUpdateScheduled(newHarvestDelay);\n        }\n    }\n\n    /*///////////////////////////////////////////////////////////////\n                        WITHDRAWAL QUEUE\n    //////////////////////////////////////////////////////////////*/\n\n    /// @notice Gets the full withdrawal queue.\n    /// @return An ordered array of strategies representing the withdrawal queue.\n    /// @dev This is provided because Solidity converts public arrays into index getters,\n    /// but we need a way to allow external contracts and users to access the whole array.\n    function getWithdrawalQueue() external view returns (IStrategy[] memory) {\n        return withdrawalQueue;\n    }\n\n    /// @notice Set the withdrawal queue.\n    /// @param newQueue The new withdrawal queue.\n    /// @dev Strategies that are untrusted, duplicated, or have no balance are\n    /// filtered out when encountered at withdrawal time, not validated upfront.\n    function setWithdrawalQueue(IStrategy[] calldata newQueue) external onlyAdmin(msg.sender) {\n        // Check for duplicated in queue\n        require(newQueue.length <= MAX_STRATEGIES, \"setWithdrawalQueue::QUEUE_TOO_BIG\");\n\n        // Replace the withdrawal queue.\n        withdrawalQueue = newQueue;\n\n        emit WithdrawalQueueSet(newQueue);\n    }\n\n    /*///////////////////////////////////////////////////////////////\n                      STRATEGY TRUST/DISTRUST LOGIC\n    //////////////////////////////////////////////////////////////*/\n\n    /// @notice Store a strategy as trusted, enabling it to be harvested.\n    /// @param strategy The strategy to make trusted.\n    function trustStrategy(IStrategy strategy) external onlyAdmin(msg.sender) {\n        // Ensure the strategy accepts the correct underlying token.\n        // If the strategy accepts ETH the Vault should accept WETH, it'll handle wrapping when necessary.\n        require(strategy.underlying() == underlying, \"trustStrategy::WRONG_UNDERLYING\");\n\n        // Store the strategy as trusted.\n        getStrategyData[strategy].trusted = true;\n\n        emit StrategyTrusted(strategy);\n    }\n\n    /// @notice Store a strategy as untrusted, disabling it from being harvested.\n    /// @param strategy The strategy to make untrusted.\n    function distrustStrategy(IStrategy strategy) external onlyAdmin(msg.sender) {\n        // Store the strategy as untrusted.\n        getStrategyData[strategy].trusted = false;\n\n        emit StrategyDistrusted(strategy);\n    }\n\n    /*///////////////////////////////////////////////////////////////\n                            DEPOSIT/BURN\n    //////////////////////////////////////////////////////////////*/\n\n    /// @notice Deposit a specific amount of underlying tokens.\n    /// @dev User needs to approve `underlyingAmount` of underlying tokens to spend.\n    /// @param to The address to receive shares corresponding to the deposit.\n    /// @param underlyingAmount The amount of the underlying token to deposit.\n    /// @return shares The amount of shares minted using `underlyingAmount`.\n    function deposit(address to, uint256 underlyingAmount) external returns (uint256 shares) {\n        _deposit(to, (shares = calculateShares(underlyingAmount)), underlyingAmount);\n    }\n\n    /// @notice Deposit a specific amount of underlying tokens.\n    /// @dev User needs to approve `underlyingAmount` of underlying tokens to spend.\n    /// @param to The address to receive shares corresponding to the deposit.\n    /// @param shares The amount of Vault's shares to mint.\n    /// @return underlyingAmount The amount needed to mint `shares` amount of shares.\n    function mint(address to, uint256 shares) external returns (uint256 underlyingAmount) {\n        _deposit(to, shares, (underlyingAmount = calculateUnderlying(shares)));\n    }\n\n    /// @notice Enter a batched burn event.\n    /// @dev Each user can take part to one batched burn event a time.\n    /// @dev User's shares amount will be staked until the burn happens.\n    /// @param shares Shares to withdraw during the next batched burn event.\n    function enterBatchBurn(uint256 shares) external {\n        uint256 batchBurnRound_ = batchBurnRound;\n        uint256 userRound = userBatchBurnReceipts[msg.sender].round;\n\n        if (userRound == 0) {\n            // user is depositing for the first time in this round\n            // so we set his round to current round\n\n            userBatchBurnReceipts[msg.sender].round = batchBurnRound_;\n            userBatchBurnReceipts[msg.sender].shares = shares;\n        } else {\n            // user is not depositing for the first time or took part in a previous round:\n            //      - first case: we stack the deposits.\n            //      - second case: revert, user needs to withdraw before requesting\n            //                     to take part in another round.\n\n            require(userRound == batchBurnRound_, \"enterBatchBurn::DIFFERENT_ROUNDS\");\n            userBatchBurnReceipts[msg.sender].shares += shares;\n        }\n\n        batchBurns[batchBurnRound_].totalShares += shares;\n\n        require(transfer(address(this), shares));\n\n        emit EnterBatchBurn(batchBurnRound_, msg.sender, shares);\n    }\n\n    /// @notice Withdraw underlying redeemed in batched burning events.\n    function exitBatchBurn() external {\n        uint256 batchBurnRound_ = batchBurnRound;\n        BatchBurnReceipt memory receipt = userBatchBurnReceipts[msg.sender];\n\n        require(receipt.round != 0, \"exitBatchBurn::NO_DEPOSITS\");\n        require(receipt.round < batchBurnRound_, \"exitBatchBurn::ROUND_NOT_EXECUTED\");\n\n        userBatchBurnReceipts[msg.sender].round = 0;\n        userBatchBurnReceipts[msg.sender].shares = 0;\n\n        uint256 underlyingAmount = receipt.shares.fmul(batchBurns[receipt.round].amountPerShare, BASE_UNIT);\n        // can't underflow since underlyingAmount can't be greater than batchBurnBalance\n        unchecked {\n            batchBurnBalance -= underlyingAmount;\n        }\n        underlying.safeTransfer(msg.sender, underlyingAmount);\n\n        emit ExitBatchBurn(batchBurnRound_, msg.sender, underlyingAmount);\n    }\n\n    /// @notice Execute batched burns\n    function execBatchBurn() external onlyAdmin(msg.sender) {\n        // let's wait for lockedProfit to go to 0\n        require(block.timestamp >= (lastHarvest + harvestDelay), \"batchBurn::LATEST_HARVEST_NOT_EXPIRED\");\n\n        uint256 batchBurnRound_ = batchBurnRound;\n        batchBurnRound += 1;\n\n        BatchBurn memory batchBurn = batchBurns[batchBurnRound_];\n        uint256 totalShares = batchBurn.totalShares;\n\n        // burning 0 shares is not convenient\n        require(totalShares != 0, \"batchBurn::TOTAL_SHARES_CANNOT_BE_ZERO\");\n\n        // Determine the equivalent amount of underlying tokens and withdraw from strategies if needed.\n        uint256 underlyingAmount = totalShares.fmul(exchangeRate(), BASE_UNIT);\n        uint256 float = totalFloat();\n\n        // If the amount is greater than the float, withdraw from strategies.\n        if (underlyingAmount > float) {\n            // Compute the bare minimum amount we need for this withdrawal.\n            uint256 floatMissingForWithdrawal = underlyingAmount - float;\n\n            // Pull enough to cover the withdrawal.\n            pullFromWithdrawalQueue(floatMissingForWithdrawal);\n        }\n\n        _burn(address(this), totalShares);\n\n        // Compute fees and transfer underlying amount if any\n        if (burningFeePercent != 0) {\n            uint256 accruedFees = underlyingAmount.fmul(burningFeePercent, 10**18);\n            underlyingAmount -= accruedFees;\n\n            underlying.safeTransfer(burningFeeReceiver, accruedFees);\n        }\n        batchBurns[batchBurnRound_].amountPerShare = underlyingAmount.fdiv(totalShares, BASE_UNIT);\n        batchBurnBalance += underlyingAmount;\n\n        emit ExecuteBatchBurn(batchBurnRound_, msg.sender, totalShares, underlyingAmount);\n    }\n\n    /// @dev Internal function to deposit into the Vault.\n    /// @param to The address to receive shares corresponding to the deposit.\n    /// @param shares The amount of Vault's shares to mint.\n    /// @param underlyingAmount The amount of the underlying token to deposit.\n    function _deposit(\n        address to,\n        uint256 shares,\n        uint256 underlyingAmount\n    ) internal virtual onlyDepositor(to) whenNotPaused {\n        uint256 userUnderlying = calculateUnderlying(balanceOf(to)) + underlyingAmount;\n        uint256 vaultUnderlying = totalUnderlying() + underlyingAmount;\n\n        require(userUnderlying <= userDepositLimit, \"_deposit::USER_DEPOSIT_LIMITS_REACHED\");\n        require(vaultUnderlying <= vaultDepositLimit, \"_deposit::VAULT_DEPOSIT_LIMITS_REACHED\");\n\n        // Determine te equivalent amount of shares and mint them\n        _mint(to, shares);\n\n        emit Deposit(msg.sender, to, underlyingAmount);\n\n        // Transfer in underlying tokens from the user.\n        // This will revert if the user does not have the amount specified.\n        underlying.safeTransferFrom(msg.sender, address(this), underlyingAmount);\n    }\n\n    /// @notice Calculates the amount of Vault's shares for a given amount of underlying tokens.\n    /// @param underlyingAmount The underlying token's amount.\n    /// @return The amount of shares given `underlyingAmount`.\n    function calculateShares(uint256 underlyingAmount) public view returns (uint256) {\n        return underlyingAmount.fdiv(exchangeRate(), BASE_UNIT);\n    }\n\n    /// @notice Calculates the amount of underlying tokens corresponding to a given amount of Vault's shares.\n    /// @param sharesAmount The shares amount.\n    /// @return The amount of underlying given `sharesAmount`.\n    function calculateUnderlying(uint256 sharesAmount) public view returns (uint256) {\n        return sharesAmount.fmul(exchangeRate(), BASE_UNIT);\n    }\n\n    /*///////////////////////////////////////////////////////////////\n                             HARVEST LOGIC\n    //////////////////////////////////////////////////////////////*/\n\n    /// @notice Harvest a set of trusted strategies.\n    /// @param strategies The trusted strategies to harvest.\n    /// @dev Will always revert if called outside of an active\n    /// harvest window or before the harvest delay has passed.\n    function harvest(IStrategy[] calldata strategies) external onlyHarvester(msg.sender) {\n        // If this is the first harvest after the last window:\n        if (block.timestamp >= lastHarvest + harvestDelay) {\n            // Accounts for:\n            //    - harvest interval (from latest harvest)\n            //    - harvest exchange rate\n            //    - harvest window starting block\n            lastHarvestExchangeRate = exchangeRate();\n            lastHarvestIntervalInBlocks = block.number - lastHarvestWindowStartBlock;\n            lastHarvestWindowStartBlock = block.number;\n\n            // Set the harvest window's start timestamp.\n            // Cannot overflow 64 bits on human timescales.\n            lastHarvestWindowStart = uint64(block.timestamp);\n        } else {\n            // We know this harvest is not the first in the window so we need to ensure it's within it.\n            require(block.timestamp <= lastHarvestWindowStart + harvestWindow, \"harvest::BAD_HARVEST_TIME\");\n        }\n\n        // Get the Vault's current total strategy holdings.\n        uint256 oldTotalStrategyHoldings = totalStrategyHoldings;\n\n        // Used to store the total profit accrued by the strategies.\n        uint256 totalProfitAccrued;\n\n        // Used to store the new total strategy holdings after harvesting.\n        uint256 newTotalStrategyHoldings = oldTotalStrategyHoldings;\n\n        // Will revert if any of the specified strategies are untrusted.\n        for (uint256 i = 0; i < strategies.length; i++) {\n            // Get the strategy at the current index.\n            IStrategy strategy = strategies[i];\n\n            // If an untrusted strategy could be harvested a malicious user could use\n            // a fake strategy that over-reports holdings to manipulate the exchange rate.\n            require(getStrategyData[strategy].trusted, \"harvest::UNTRUSTED_STRATEGY\");\n\n            // Get the strategy's previous and current balance.\n            uint256 balanceLastHarvest = getStrategyData[strategy].balance;\n            uint256 balanceThisHarvest = strategy.estimatedUnderlying();\n\n            // Update the strategy's stored balance. Cast overflow is unrealistic.\n            getStrategyData[strategy].balance = balanceThisHarvest.safeCastTo248();\n\n            // Increase/decrease newTotalStrategyHoldings based on the profit/loss registered.\n            // We cannot wrap the subtraction in parenthesis as it would underflow if the strategy had a loss.\n            newTotalStrategyHoldings = newTotalStrategyHoldings + balanceThisHarvest - balanceLastHarvest;\n\n            unchecked {\n                // Update the total profit accrued while counting losses as zero profit.\n                // Cannot overflow as we already increased total holdings without reverting.\n                totalProfitAccrued += balanceThisHarvest > balanceLastHarvest\n                    ? balanceThisHarvest - balanceLastHarvest // Profits since last harvest.\n                    : 0; // If the strategy registered a net loss we don't have any new profit.\n            }\n        }\n\n        // Compute fees as the fee percent multiplied by the profit.\n        uint256 feesAccrued = totalProfitAccrued.fmul(harvestFeePercent, 1e18);\n\n        // If we accrued any fees, mint an equivalent amount of Vault's shares.\n        if (feesAccrued != 0 && harvestFeeReceiver != address(0)) {\n            _mint(harvestFeeReceiver, feesAccrued.fdiv(exchangeRate(), BASE_UNIT));\n        }\n\n        // Update max unlocked profit based on any remaining locked profit plus new profit.\n        uint128 maxLockedProfit_ = (lockedProfit() + totalProfitAccrued - feesAccrued).safeCastTo128();\n        maxLockedProfit = maxLockedProfit_;\n\n        // Compute estimated returns\n        uint256 strategyHoldings = newTotalStrategyHoldings - uint256(maxLockedProfit_);\n        estimatedReturn = computeEstimatedReturns(strategyHoldings, uint256(maxLockedProfit_), lastHarvestIntervalInBlocks);\n\n        // Set strategy holdings to our new total.\n        totalStrategyHoldings = newTotalStrategyHoldings;\n\n        // Update the last harvest timestamp.\n        // Cannot overflow on human timescales.\n        lastHarvest = uint64(block.timestamp);\n\n        emit Harvest(msg.sender, strategies);\n\n        // Get the next harvest delay.\n        uint64 newHarvestDelay = nextHarvestDelay;\n\n        // If the next harvest delay is not 0:\n        if (newHarvestDelay != 0) {\n            // Update the harvest delay.\n            harvestDelay = newHarvestDelay;\n\n            // Reset the next harvest delay.\n            nextHarvestDelay = 0;\n\n            emit HarvestDelayUpdated(msg.sender, newHarvestDelay);\n        }\n    }\n\n    /*///////////////////////////////////////////////////////////////\n                    STRATEGY DEPOSIT/WITHDRAWAL LOGIC\n    //////////////////////////////////////////////////////////////*/\n\n    /// @notice Deposit a specific amount of float into a trusted strategy.\n    /// @param strategy The trusted strategy to deposit into.\n    /// @param underlyingAmount The amount of underlying tokens in float to deposit.\n    function depositIntoStrategy(IStrategy strategy, uint256 underlyingAmount) external onlyAdmin(msg.sender) {\n        // A strategy must be trusted before it can be deposited into.\n        require(getStrategyData[strategy].trusted, \"depositIntoStrategy::UNTRUSTED_STRATEGY\");\n\n        // We don't allow depositing 0 to prevent emitting a useless event.\n        require(underlyingAmount != 0, \"depositIntoStrategy::AMOUNT_CANNOT_BE_ZERO\");\n\n        // Increase totalStrategyHoldings to account for the deposit.\n        totalStrategyHoldings += underlyingAmount;\n\n        unchecked {\n            // Without this the next harvest would count the deposit as profit.\n            // Cannot overflow as the balance of one strategy can't exceed the sum of all.\n            getStrategyData[strategy].balance += underlyingAmount.safeCastTo248();\n        }\n\n        emit StrategyDeposit(msg.sender, strategy, underlyingAmount);\n\n        // Approve underlyingAmount to the strategy so we can deposit.\n        underlying.safeApprove(address(strategy), underlyingAmount);\n\n        // Deposit into the strategy and revert if it returns an error code.\n        require(strategy.deposit(underlyingAmount) == 0, \"depositIntoStrategy::MINT_FAILED\");\n    }\n\n    /// @notice Withdraw a specific amount of underlying tokens from a strategy.\n    /// @param strategy The strategy to withdraw from.\n    /// @param underlyingAmount  The amount of underlying tokens to withdraw.\n    /// @dev Withdrawing from a strategy will not remove it from the withdrawal queue.\n    function withdrawFromStrategy(IStrategy strategy, uint256 underlyingAmount) external onlyAdmin(msg.sender) {\n        // A strategy must be trusted before it can be withdrawn from.\n        require(getStrategyData[strategy].trusted, \"withdrawFromStrategy::UNTRUSTED_STRATEGY\");\n\n        // We don't allow withdrawing 0 to prevent emitting a useless event.\n        require(underlyingAmount != 0, \"withdrawFromStrategy::AMOUNT_CANNOT_BE_ZERO\");\n\n        // Without this the next harvest would count the withdrawal as a loss.\n        getStrategyData[strategy].balance -= underlyingAmount.safeCastTo248();\n\n        unchecked {\n            // Decrease totalStrategyHoldings to account for the withdrawal.\n            // Cannot underflow as the balance of one strategy will never exceed the sum of all.\n            totalStrategyHoldings -= underlyingAmount;\n        }\n\n        emit StrategyWithdrawal(msg.sender, strategy, underlyingAmount);\n\n        // Withdraw from the strategy and revert if returns an error code.\n        require(strategy.withdraw(underlyingAmount) == 0, \"withdrawFromStrategy::REDEEM_FAILED\");\n    }\n\n    /// @dev Withdraw a specific amount of underlying tokens from strategies in the withdrawal queue.\n    /// @param underlyingAmount The amount of underlying tokens to pull into float.\n    /// @dev Automatically removes depleted strategies from the withdrawal queue.\n    function pullFromWithdrawalQueue(uint256 underlyingAmount) internal {\n        // We will update this variable as we pull from strategies.\n        uint256 amountLeftToPull = underlyingAmount;\n\n        // We'll start at the tip of the queue and traverse backwards.\n        uint256 currentIndex = withdrawalQueue.length - 1;\n\n        // Iterate in reverse so we pull from the queue in a \"last in, first out\" manner.\n        // Will revert due to underflow if we empty the queue before pulling the desired amount.\n        for (; ; currentIndex--) {\n            // Get the strategy at the current queue index.\n            IStrategy strategy = withdrawalQueue[currentIndex];\n\n            // Get the balance of the strategy before we withdraw from it.\n            uint256 strategyBalance = getStrategyData[strategy].balance;\n\n            // If the strategy is currently untrusted or was already depleted, move to the next strategy\n            if (!getStrategyData[strategy].trusted || strategyBalance == 0) continue;\n\n            // We want to pull as much as we can from the strategy, but no more than we need.\n            uint256 amountToPull = (amountLeftToPull <= strategyBalance) ? amountLeftToPull : strategyBalance;\n\n            unchecked {\n                // Compute the balance of the strategy that will remain after we withdraw.\n                // Cannot underflow as we cap the amount to pull at the strategy's balance.\n                uint256 strategyBalanceAfterWithdrawal = strategyBalance - amountToPull;\n\n                // Without this the next harvest would count the withdrawal as a loss.\n                getStrategyData[strategy].balance = strategyBalanceAfterWithdrawal.safeCastTo248();\n\n                // Adjust our goal based on how much we can pull from the strategy.\n                // Cannot underflow as we cap the amount to pull at the amount left to pull.\n                amountLeftToPull -= amountToPull;\n\n                emit StrategyWithdrawal(msg.sender, strategy, amountToPull);\n\n                // Withdraw from the strategy and revert if returns an error code.\n                require(strategy.withdraw(amountToPull) == 0, \"pullFromWithdrawalQueue::REDEEM_FAILED\");\n            }\n\n            // If we've pulled all we need, exit the loop.\n            if (amountLeftToPull == 0) break;\n        }\n\n        unchecked {\n            // Account for the withdrawals done in the loop above.\n            // Cannot underflow as the balances of some strategies cannot exceed the sum of all.\n            totalStrategyHoldings -= underlyingAmount;\n        }\n    }\n\n    /*///////////////////////////////////////////////////////////////\n                                ACCOUNTING\n    //////////////////////////////////////////////////////////////*/\n\n    /// @notice Returns the amount of underlying tokens a share can be redeemed for.\n    /// @return The amount of underlying tokens a share can be redeemed for.\n    function exchangeRate() public view returns (uint256) {\n        // Get the total supply of shares.\n        uint256 shareSupply = totalSupply();\n\n        // If there are no shares in circulation, return an exchange rate of 1:1.\n        if (shareSupply == 0) return BASE_UNIT;\n\n        return totalUnderlying().fdiv(shareSupply, BASE_UNIT);\n    }\n\n    /// @notice Returns a user's Vault balance in underlying tokens.\n    /// @param user THe user to get the underlying balance of.\n    /// @return The user's Vault balance in underlying tokens.\n    function balanceOfUnderlying(address user) external view returns (uint256) {\n        return calculateUnderlying(balanceOf(user));\n    }\n\n    /// @notice Returns the amount of underlying tokens that idly sit in the Vault.\n    /// @return The amount of underlying tokens that sit idly in the Vault.\n    function totalFloat() public view returns (uint256) {\n        // can't underlflow since batchBurnBalance will never be greater than\n        // the float itself\n        unchecked {\n            return underlying.balanceOf(address(this)) - batchBurnBalance;\n        }\n    }\n\n    /// @notice Calculate the current amount of locked profit.\n    /// @return The current amount of locked profit.\n    function lockedProfit() public view returns (uint256) {\n        // Get the last harvest and harvest delay.\n        uint256 previousHarvest = lastHarvest;\n        uint256 harvestInterval = harvestDelay;\n\n        unchecked {\n            // If the harvest delay has passed, there is no locked profit.\n            // Cannot overflow on human timescales since harvestInterval is capped.\n            if (block.timestamp >= previousHarvest + harvestInterval) return 0;\n\n            // Get the maximum amount we could return.\n            uint256 maximumLockedProfit = maxLockedProfit;\n\n            // Compute how much profit remains locked based on the last harvest and harvest delay.\n            // It's impossible for the previous harvest to be in the future, so this will never underflow.\n            return maximumLockedProfit - (maximumLockedProfit * (block.timestamp - previousHarvest)) / harvestInterval;\n        }\n    }\n\n    /// @notice Calculates the total amount of underlying tokens the Vault holds.\n    /// @return totalUnderlyingHeld The total amount of underlying tokens the Vault holds.\n    function totalUnderlying() public view virtual returns (uint256 totalUnderlyingHeld) {\n        unchecked {\n            // Cannot underflow as locked profit can't exceed total strategy holdings.\n            totalUnderlyingHeld = totalStrategyHoldings - lockedProfit();\n        }\n\n        // Include floating underlying balance in the total.\n        totalUnderlyingHeld += totalFloat();\n    }\n\n    /// @notice Compute an estimated return given the auxoToken supply, initial exchange rate and locked profits.\n    /// @param invested The underlying deposited in strategies.\n    /// @param profit The profit derived from harvest.\n    /// @param interval The period during which `profit` was generated.\n    function computeEstimatedReturns(uint256 invested, uint256 profit, uint256 interval) internal view returns(uint256) {\n        return (invested == 0 || profit == 0) ? 0 : profit.fdiv(invested, BASE_UNIT) * (BLOCKS_PER_YEAR / interval) * 100;\n    }\n}\n",
  "sourcePath": "contracts/Vault.sol",
  "type": "contract"
}