{
  "abi": [
    {
      "anonymous": false,
      "inputs": [
        {
          "indexed": true,
          "internalType": "address",
          "name": "owner",
          "type": "address"
        },
        {
          "indexed": true,
          "internalType": "address",
          "name": "spender",
          "type": "address"
        },
        {
          "indexed": false,
          "internalType": "uint256",
          "name": "value",
          "type": "uint256"
        }
      ],
      "name": "Approval",
      "type": "event"
    },
    {
      "anonymous": false,
      "inputs": [
        {
          "indexed": false,
          "internalType": "contract Authority",
          "name": "newAuth",
          "type": "address"
        }
      ],
      "name": "AuthUpdated",
      "type": "event"
    },
    {
      "anonymous": false,
      "inputs": [
        {
          "indexed": false,
          "internalType": "uint256",
          "name": "newFeePercent",
          "type": "uint256"
        }
      ],
      "name": "BurningFeePercentUpdated",
      "type": "event"
    },
    {
      "anonymous": false,
      "inputs": [
        {
          "indexed": true,
          "internalType": "address",
          "name": "receiver",
          "type": "address"
        }
      ],
      "name": "BurningFeeReceiverUpdated",
      "type": "event"
    },
    {
      "anonymous": false,
      "inputs": [
        {
          "indexed": true,
          "internalType": "address",
          "name": "from",
          "type": "address"
        },
        {
          "indexed": true,
          "internalType": "address",
          "name": "to",
          "type": "address"
        },
        {
          "indexed": false,
          "internalType": "uint256",
          "name": "value",
          "type": "uint256"
        }
      ],
      "name": "Deposit",
      "type": "event"
    },
    {
      "anonymous": false,
      "inputs": [
        {
          "indexed": false,
          "internalType": "uint256",
          "name": "perUser",
          "type": "uint256"
        },
        {
          "indexed": false,
          "internalType": "uint256",
          "name": "perVault",
          "type": "uint256"
        }
      ],
      "name": "DepositLimitsUpdated",
      "type": "event"
    },
    {
      "anonymous": false,
      "inputs": [
        {
          "indexed": true,
          "internalType": "uint256",
          "name": "round",
          "type": "uint256"
        },
        {
          "indexed": true,
          "internalType": "address",
          "name": "account",
          "type": "address"
        },
        {
          "indexed": false,
          "internalType": "uint256",
          "name": "amount",
          "type": "uint256"
        }
      ],
      "name": "EnterBatchBurn",
      "type": "event"
    },
    {
      "anonymous": false,
      "inputs": [
        {
          "indexed": true,
          "internalType": "uint256",
          "name": "round",
          "type": "uint256"
        },
        {
          "indexed": true,
          "internalType": "address",
          "name": "executor",
          "type": "address"
        },
        {
          "indexed": false,
          "internalType": "uint256",
          "name": "shares",
          "type": "uint256"
        },
        {
          "indexed": false,
          "internalType": "uint256",
          "name": "amount",
          "type": "uint256"
        }
      ],
      "name": "ExecuteBatchBurn",
      "type": "event"
    },
    {
      "anonymous": false,
      "inputs": [
        {
          "indexed": true,
          "internalType": "uint256",
          "name": "round",
          "type": "uint256"
        },
        {
          "indexed": true,
          "internalType": "address",
          "name": "account",
          "type": "address"
        },
        {
          "indexed": false,
          "internalType": "uint256",
          "name": "amount",
          "type": "uint256"
        }
      ],
      "name": "ExitBatchBurn",
      "type": "event"
    },
    {
      "anonymous": false,
      "inputs": [
        {
          "indexed": true,
          "internalType": "address",
          "name": "account",
          "type": "address"
        },
        {
          "indexed": false,
          "internalType": "contract IStrategy[]",
          "name": "strategies",
          "type": "address[]"
        }
      ],
      "name": "Harvest",
      "type": "event"
    },
    {
      "anonymous": false,
      "inputs": [
        {
          "indexed": false,
          "internalType": "uint64",
          "name": "newHarvestDelay",
          "type": "uint64"
        }
      ],
      "name": "HarvestDelayUpdateScheduled",
      "type": "event"
    },
    {
      "anonymous": false,
      "inputs": [
        {
          "indexed": true,
          "internalType": "address",
          "name": "account",
          "type": "address"
        },
        {
          "indexed": false,
          "internalType": "uint64",
          "name": "newHarvestDelay",
          "type": "uint64"
        }
      ],
      "name": "HarvestDelayUpdated",
      "type": "event"
    },
    {
      "anonymous": false,
      "inputs": [
        {
          "indexed": false,
          "internalType": "uint256",
          "name": "newFeePercent",
          "type": "uint256"
        }
      ],
      "name": "HarvestFeePercentUpdated",
      "type": "event"
    },
    {
      "anonymous": false,
      "inputs": [
        {
          "indexed": true,
          "internalType": "address",
          "name": "receiver",
          "type": "address"
        }
      ],
      "name": "HarvestFeeReceiverUpdated",
      "type": "event"
    },
    {
      "anonymous": false,
      "inputs": [
        {
          "indexed": false,
          "internalType": "uint128",
          "name": "newHarvestWindow",
          "type": "uint128"
        }
      ],
      "name": "HarvestWindowUpdated",
      "type": "event"
    },
    {
      "anonymous": false,
      "inputs": [
        {
          "indexed": false,
          "internalType": "address",
          "name": "account",
          "type": "address"
        }
      ],
      "name": "Paused",
      "type": "event"
    },
    {
      "anonymous": false,
      "inputs": [
        {
          "indexed": true,
          "internalType": "address",
          "name": "account",
          "type": "address"
        },
        {
          "indexed": true,
          "internalType": "contract IStrategy",
          "name": "strategy",
          "type": "address"
        },
        {
          "indexed": false,
          "internalType": "uint256",
          "name": "underlyingAmount",
          "type": "uint256"
        }
      ],
      "name": "StrategyDeposit",
      "type": "event"
    },
    {
      "anonymous": false,
      "inputs": [
        {
          "indexed": true,
          "internalType": "contract IStrategy",
          "name": "strategy",
          "type": "address"
        }
      ],
      "name": "StrategyDistrusted",
      "type": "event"
    },
    {
      "anonymous": false,
      "inputs": [
        {
          "indexed": true,
          "internalType": "contract IStrategy",
          "name": "strategy",
          "type": "address"
        }
      ],
      "name": "StrategyTrusted",
      "type": "event"
    },
    {
      "anonymous": false,
      "inputs": [
        {
          "indexed": true,
          "internalType": "address",
          "name": "account",
          "type": "address"
        },
        {
          "indexed": true,
          "internalType": "contract IStrategy",
          "name": "strategy",
          "type": "address"
        },
        {
          "indexed": false,
          "internalType": "uint256",
          "name": "underlyingAmount",
          "type": "uint256"
        }
      ],
      "name": "StrategyWithdrawal",
      "type": "event"
    },
    {
      "anonymous": false,
      "inputs": [
        {
          "indexed": true,
          "internalType": "address",
          "name": "from",
          "type": "address"
        },
        {
          "indexed": true,
          "internalType": "address",
          "name": "to",
          "type": "address"
        },
        {
          "indexed": false,
          "internalType": "uint256",
          "name": "value",
          "type": "uint256"
        }
      ],
      "name": "Transfer",
      "type": "event"
    },
    {
      "anonymous": false,
      "inputs": [
        {
          "indexed": false,
          "internalType": "address",
          "name": "account",
          "type": "address"
        }
      ],
      "name": "Unpaused",
      "type": "event"
    },
    {
      "anonymous": false,
      "inputs": [
        {
          "indexed": false,
          "internalType": "contract IStrategy[]",
          "name": "replacedWithdrawalQueue",
          "type": "address[]"
        }
      ],
      "name": "WithdrawalQueueSet",
      "type": "event"
    },
    {
      "inputs": [],
      "name": "VERSION",
      "outputs": [
        {
          "internalType": "string",
          "name": "",
          "type": "string"
        }
      ],
      "stateMutability": "view",
      "type": "function"
    },
    {
      "inputs": [
        {
          "internalType": "address",
          "name": "owner",
          "type": "address"
        },
        {
          "internalType": "address",
          "name": "spender",
          "type": "address"
        }
      ],
      "name": "allowance",
      "outputs": [
        {
          "internalType": "uint256",
          "name": "",
          "type": "uint256"
        }
      ],
      "stateMutability": "view",
      "type": "function"
    },
    {
      "inputs": [
        {
          "internalType": "address",
          "name": "spender",
          "type": "address"
        },
        {
          "internalType": "uint256",
          "name": "amount",
          "type": "uint256"
        }
      ],
      "name": "approve",
      "outputs": [
        {
          "internalType": "bool",
          "name": "",
          "type": "bool"
        }
      ],
      "stateMutability": "nonpayable",
      "type": "function"
    },
    {
      "inputs": [],
      "name": "auth",
      "outputs": [
        {
          "internalType": "contract Authority",
          "name": "",
          "type": "address"
        }
      ],
      "stateMutability": "view",
      "type": "function"
    },
    {
      "inputs": [
        {
          "internalType": "address",
          "name": "account",
          "type": "address"
        }
      ],
      "name": "balanceOf",
      "outputs": [
        {
          "internalType": "uint256",
          "name": "",
          "type": "uint256"
        }
      ],
      "stateMutability": "view",
      "type": "function"
    },
    {
      "inputs": [
        {
          "internalType": "address",
          "name": "user",
          "type": "address"
        }
      ],
      "name": "balanceOfUnderlying",
      "outputs": [
        {
          "internalType": "uint256",
          "name": "",
          "type": "uint256"
        }
      ],
      "stateMutability": "view",
      "type": "function"
    },
    {
      "inputs": [],
      "name": "baseUnit",
      "outputs": [
        {
          "internalType": "uint256",
          "name": "",
          "type": "uint256"
        }
      ],
      "stateMutability": "view",
      "type": "function"
    },
    {
      "inputs": [],
      "name": "batchBurnBalance",
      "outputs": [
        {
          "internalType": "uint256",
          "name": "",
          "type": "uint256"
        }
      ],
      "stateMutability": "view",
      "type": "function"
    },
    {
      "inputs": [],
      "name": "batchBurnRound",
      "outputs": [
        {
          "internalType": "uint256",
          "name": "",
          "type": "uint256"
        }
      ],
      "stateMutability": "view",
      "type": "function"
    },
    {
      "inputs": [
        {
          "internalType": "uint256",
          "name": "",
          "type": "uint256"
        }
      ],
      "name": "batchBurns",
      "outputs": [
        {
          "internalType": "uint256",
          "name": "totalShares",
          "type": "uint256"
        },
        {
          "internalType": "uint256",
          "name": "amountPerShare",
          "type": "uint256"
        }
      ],
      "stateMutability": "view",
      "type": "function"
    },
    {
      "inputs": [],
      "name": "blocksPerYear",
      "outputs": [
        {
          "internalType": "uint256",
          "name": "",
          "type": "uint256"
        }
      ],
      "stateMutability": "view",
      "type": "function"
    },
    {
      "inputs": [],
      "name": "burningFeePercent",
      "outputs": [
        {
          "internalType": "uint256",
          "name": "",
          "type": "uint256"
        }
      ],
      "stateMutability": "view",
      "type": "function"
    },
    {
      "inputs": [],
      "name": "burningFeeReceiver",
      "outputs": [
        {
          "internalType": "address",
          "name": "",
          "type": "address"
        }
      ],
      "stateMutability": "view",
      "type": "function"
    },
    {
      "inputs": [
        {
          "internalType": "uint256",
          "name": "underlyingAmount",
          "type": "uint256"
        }
      ],
      "name": "calculateShares",
      "outputs": [
        {
          "internalType": "uint256",
          "name": "",
          "type": "uint256"
        }
      ],
      "stateMutability": "view",
      "type": "function"
    },
    {
      "inputs": [
        {
          "internalType": "uint256",
          "name": "sharesAmount",
          "type": "uint256"
        }
      ],
      "name": "calculateUnderlying",
      "outputs": [
        {
          "internalType": "uint256",
          "name": "",
          "type": "uint256"
        }
      ],
      "stateMutability": "view",
      "type": "function"
    },
    {
      "inputs": [],
      "name": "decimals",
      "outputs": [
        {
          "internalType": "uint8",
          "name": "",
          "type": "uint8"
        }
      ],
      "stateMutability": "view",
      "type": "function"
    },
    {
      "inputs": [
        {
          "internalType": "address",
          "name": "spender",
          "type": "address"
        },
        {
          "internalType": "uint256",
          "name": "subtractedValue",
          "type": "uint256"
        }
      ],
      "name": "decreaseAllowance",
      "outputs": [
        {
          "internalType": "bool",
          "name": "",
          "type": "bool"
        }
      ],
      "stateMutability": "nonpayable",
      "type": "function"
    },
    {
      "inputs": [
        {
          "internalType": "address",
          "name": "to",
          "type": "address"
        },
        {
          "internalType": "uint256",
          "name": "underlyingAmount",
          "type": "uint256"
        }
      ],
      "name": "deposit",
      "outputs": [
        {
          "internalType": "uint256",
          "name": "shares",
          "type": "uint256"
        }
      ],
      "stateMutability": "nonpayable",
      "type": "function"
    },
    {
      "inputs": [
        {
          "internalType": "contract IStrategy",
          "name": "strategy",
          "type": "address"
        },
        {
          "internalType": "uint256",
          "name": "underlyingAmount",
          "type": "uint256"
        }
      ],
      "name": "depositIntoStrategy",
      "outputs": [],
      "stateMutability": "nonpayable",
      "type": "function"
    },
    {
      "inputs": [
        {
          "internalType": "contract IStrategy",
          "name": "strategy",
          "type": "address"
        }
      ],
      "name": "distrustStrategy",
      "outputs": [],
      "stateMutability": "nonpayable",
      "type": "function"
    },
    {
      "inputs": [
        {
          "internalType": "uint256",
          "name": "shares",
          "type": "uint256"
        }
      ],
      "name": "enterBatchBurn",
      "outputs": [],
      "stateMutability": "nonpayable",
      "type": "function"
    },
    {
      "inputs": [],
      "name": "estimatedReturn",
      "outputs": [
        {
          "internalType": "uint256",
          "name": "",
          "type": "uint256"
        }
      ],
      "stateMutability": "view",
      "type": "function"
    },
    {
      "inputs": [],
      "name": "exchangeRate",
      "outputs": [
        {
          "internalType": "uint256",
          "name": "",
          "type": "uint256"
        }
      ],
      "stateMutability": "view",
      "type": "function"
    },
    {
      "inputs": [],
      "name": "execBatchBurn",
      "outputs": [],
      "stateMutability": "nonpayable",
      "type": "function"
    },
    {
      "inputs": [],
      "name": "exitBatchBurn",
      "outputs": [],
      "stateMutability": "nonpayable",
      "type": "function"
    },
    {
      "inputs": [
        {
          "internalType": "contract IStrategy",
          "name": "",
          "type": "address"
        }
      ],
      "name": "getStrategyData",
      "outputs": [
        {
          "internalType": "bool",
          "name": "trusted",
          "type": "bool"
        },
        {
          "internalType": "uint248",
          "name": "balance",
          "type": "uint248"
        }
      ],
      "stateMutability": "view",
      "type": "function"
    },
    {
      "inputs": [],
      "name": "getWithdrawalQueue",
      "outputs": [
        {
          "internalType": "contract IStrategy[]",
          "name": "",
          "type": "address[]"
        }
      ],
      "stateMutability": "view",
      "type": "function"
    },
    {
      "inputs": [
        {
          "internalType": "contract IStrategy[]",
          "name": "strategies",
          "type": "address[]"
        }
      ],
      "name": "harvest",
      "outputs": [],
      "stateMutability": "nonpayable",
      "type": "function"
    },
    {
      "inputs": [],
      "name": "harvestDelay",
      "outputs": [
        {
          "internalType": "uint64",
          "name": "",
          "type": "uint64"
        }
      ],
      "stateMutability": "view",
      "type": "function"
    },
    {
      "inputs": [],
      "name": "harvestFeePercent",
      "outputs": [
        {
          "internalType": "uint256",
          "name": "",
          "type": "uint256"
        }
      ],
      "stateMutability": "view",
      "type": "function"
    },
    {
      "inputs": [],
      "name": "harvestFeeReceiver",
      "outputs": [
        {
          "internalType": "address",
          "name": "",
          "type": "address"
        }
      ],
      "stateMutability": "view",
      "type": "function"
    },
    {
      "inputs": [],
      "name": "harvestWindow",
      "outputs": [
        {
          "internalType": "uint128",
          "name": "",
          "type": "uint128"
        }
      ],
      "stateMutability": "view",
      "type": "function"
    },
    {
      "inputs": [
        {
          "internalType": "address",
          "name": "spender",
          "type": "address"
        },
        {
          "internalType": "uint256",
          "name": "addedValue",
          "type": "uint256"
        }
      ],
      "name": "increaseAllowance",
      "outputs": [
        {
          "internalType": "bool",
          "name": "",
          "type": "bool"
        }
      ],
      "stateMutability": "nonpayable",
      "type": "function"
    },
    {
      "inputs": [
        {
          "internalType": "contract ERC20Upgradeable",
          "name": "underlying_",
          "type": "address"
        },
        {
          "internalType": "contract Authority",
          "name": "auth_",
          "type": "address"
        },
        {
          "internalType": "address",
          "name": "harvestFeeReceiver_",
          "type": "address"
        },
        {
          "internalType": "address",
          "name": "burnFeeReceiver_",
          "type": "address"
        }
      ],
      "name": "initialize",
      "outputs": [],
      "stateMutability": "nonpayable",
      "type": "function"
    },
    {
      "inputs": [],
      "name": "lastHarvest",
      "outputs": [
        {
          "internalType": "uint64",
          "name": "",
          "type": "uint64"
        }
      ],
      "stateMutability": "view",
      "type": "function"
    },
    {
      "inputs": [],
      "name": "lastHarvestExchangeRate",
      "outputs": [
        {
          "internalType": "uint256",
          "name": "",
          "type": "uint256"
        }
      ],
      "stateMutability": "view",
      "type": "function"
    },
    {
      "inputs": [],
      "name": "lastHarvestIntervalInBlocks",
      "outputs": [
        {
          "internalType": "uint256",
          "name": "",
          "type": "uint256"
        }
      ],
      "stateMutability": "view",
      "type": "function"
    },
    {
      "inputs": [],
      "name": "lastHarvestWindowStart",
      "outputs": [
        {
          "internalType": "uint64",
          "name": "",
          "type": "uint64"
        }
      ],
      "stateMutability": "view",
      "type": "function"
    },
    {
      "inputs": [],
      "name": "lastHarvestWindowStartBlock",
      "outputs": [
        {
          "internalType": "uint256",
          "name": "",
          "type": "uint256"
        }
      ],
      "stateMutability": "view",
      "type": "function"
    },
    {
      "inputs": [],
      "name": "lockedProfit",
      "outputs": [
        {
          "internalType": "uint256",
          "name": "",
          "type": "uint256"
        }
      ],
      "stateMutability": "view",
      "type": "function"
    },
    {
      "inputs": [],
      "name": "maxLockedProfit",
      "outputs": [
        {
          "internalType": "uint128",
          "name": "",
          "type": "uint128"
        }
      ],
      "stateMutability": "view",
      "type": "function"
    },
    {
      "inputs": [],
      "name": "name",
      "outputs": [
        {
          "internalType": "string",
          "name": "",
          "type": "string"
        }
      ],
      "stateMutability": "view",
      "type": "function"
    },
    {
      "inputs": [],
      "name": "nextHarvestDelay",
      "outputs": [
        {
          "internalType": "uint64",
          "name": "",
          "type": "uint64"
        }
      ],
      "stateMutability": "view",
      "type": "function"
    },
    {
      "inputs": [],
      "name": "paused",
      "outputs": [
        {
          "internalType": "bool",
          "name": "",
          "type": "bool"
        }
      ],
      "stateMutability": "view",
      "type": "function"
    },
    {
      "inputs": [
        {
          "internalType": "contract Authority",
          "name": "newAuth",
          "type": "address"
        }
      ],
      "name": "setAuth",
      "outputs": [],
      "stateMutability": "nonpayable",
      "type": "function"
    },
    {
      "inputs": [
        {
          "internalType": "uint256",
          "name": "blocks",
          "type": "uint256"
        }
      ],
      "name": "setBlocksPerYear",
      "outputs": [],
      "stateMutability": "nonpayable",
      "type": "function"
    },
    {
      "inputs": [
        {
          "internalType": "uint256",
          "name": "newFeePercent",
          "type": "uint256"
        }
      ],
      "name": "setBurningFeePercent",
      "outputs": [],
      "stateMutability": "nonpayable",
      "type": "function"
    },
    {
      "inputs": [
        {
          "internalType": "address",
          "name": "burningFeeReceiver_",
          "type": "address"
        }
      ],
      "name": "setBurningFeeReceiver",
      "outputs": [],
      "stateMutability": "nonpayable",
      "type": "function"
    },
    {
      "inputs": [
        {
          "internalType": "uint256",
          "name": "user",
          "type": "uint256"
        },
        {
          "internalType": "uint256",
          "name": "vault",
          "type": "uint256"
        }
      ],
      "name": "setDepositLimits",
      "outputs": [],
      "stateMutability": "nonpayable",
      "type": "function"
    },
    {
      "inputs": [
        {
          "internalType": "uint64",
          "name": "newHarvestDelay",
          "type": "uint64"
        }
      ],
      "name": "setHarvestDelay",
      "outputs": [],
      "stateMutability": "nonpayable",
      "type": "function"
    },
    {
      "inputs": [
        {
          "internalType": "uint256",
          "name": "newFeePercent",
          "type": "uint256"
        }
      ],
      "name": "setHarvestFeePercent",
      "outputs": [],
      "stateMutability": "nonpayable",
      "type": "function"
    },
    {
      "inputs": [
        {
          "internalType": "address",
          "name": "harvestFeeReceiver_",
          "type": "address"
        }
      ],
      "name": "setHarvestFeeReceiver",
      "outputs": [],
      "stateMutability": "nonpayable",
      "type": "function"
    },
    {
      "inputs": [
        {
          "internalType": "uint128",
          "name": "newHarvestWindow",
          "type": "uint128"
        }
      ],
      "name": "setHarvestWindow",
      "outputs": [],
      "stateMutability": "nonpayable",
      "type": "function"
    },
    {
      "inputs": [
        {
          "internalType": "contract IStrategy[]",
          "name": "newQueue",
          "type": "address[]"
        }
      ],
      "name": "setWithdrawalQueue",
      "outputs": [],
      "stateMutability": "nonpayable",
      "type": "function"
    },
    {
      "inputs": [],
      "name": "symbol",
      "outputs": [
        {
          "internalType": "string",
          "name": "",
          "type": "string"
        }
      ],
      "stateMutability": "view",
      "type": "function"
    },
    {
      "inputs": [],
      "name": "totalFloat",
      "outputs": [
        {
          "internalType": "uint256",
          "name": "",
          "type": "uint256"
        }
      ],
      "stateMutability": "view",
      "type": "function"
    },
    {
      "inputs": [],
      "name": "totalStrategyHoldings",
      "outputs": [
        {
          "internalType": "uint256",
          "name": "",
          "type": "uint256"
        }
      ],
      "stateMutability": "view",
      "type": "function"
    },
    {
      "inputs": [],
      "name": "totalSupply",
      "outputs": [
        {
          "internalType": "uint256",
          "name": "",
          "type": "uint256"
        }
      ],
      "stateMutability": "view",
      "type": "function"
    },
    {
      "inputs": [],
      "name": "totalUnderlying",
      "outputs": [
        {
          "internalType": "uint256",
          "name": "",
          "type": "uint256"
        }
      ],
      "stateMutability": "view",
      "type": "function"
    },
    {
      "inputs": [
        {
          "internalType": "address",
          "name": "recipient",
          "type": "address"
        },
        {
          "internalType": "uint256",
          "name": "amount",
          "type": "uint256"
        }
      ],
      "name": "transfer",
      "outputs": [
        {
          "internalType": "bool",
          "name": "",
          "type": "bool"
        }
      ],
      "stateMutability": "nonpayable",
      "type": "function"
    },
    {
      "inputs": [
        {
          "internalType": "address",
          "name": "sender",
          "type": "address"
        },
        {
          "internalType": "address",
          "name": "recipient",
          "type": "address"
        },
        {
          "internalType": "uint256",
          "name": "amount",
          "type": "uint256"
        }
      ],
      "name": "transferFrom",
      "outputs": [
        {
          "internalType": "bool",
          "name": "",
          "type": "bool"
        }
      ],
      "stateMutability": "nonpayable",
      "type": "function"
    },
    {
      "inputs": [],
      "name": "triggerPause",
      "outputs": [],
      "stateMutability": "nonpayable",
      "type": "function"
    },
    {
      "inputs": [
        {
          "internalType": "contract IStrategy",
          "name": "strategy",
          "type": "address"
        }
      ],
      "name": "trustStrategy",
      "outputs": [],
      "stateMutability": "nonpayable",
      "type": "function"
    },
    {
      "inputs": [],
      "name": "underlying",
      "outputs": [
        {
          "internalType": "contract ERC20Upgradeable",
          "name": "",
          "type": "address"
        }
      ],
      "stateMutability": "view",
      "type": "function"
    },
    {
      "inputs": [],
      "name": "underlyingDecimals",
      "outputs": [
        {
          "internalType": "uint8",
          "name": "",
          "type": "uint8"
        }
      ],
      "stateMutability": "view",
      "type": "function"
    },
    {
      "inputs": [
        {
          "internalType": "address",
          "name": "",
          "type": "address"
        }
      ],
      "name": "userBatchBurnReceipts",
      "outputs": [
        {
          "internalType": "uint256",
          "name": "round",
          "type": "uint256"
        },
        {
          "internalType": "uint256",
          "name": "shares",
          "type": "uint256"
        }
      ],
      "stateMutability": "view",
      "type": "function"
    },
    {
      "inputs": [],
      "name": "userDepositLimit",
      "outputs": [
        {
          "internalType": "uint256",
          "name": "",
          "type": "uint256"
        }
      ],
      "stateMutability": "view",
      "type": "function"
    },
    {
      "inputs": [],
      "name": "vaultDepositLimit",
      "outputs": [
        {
          "internalType": "uint256",
          "name": "",
          "type": "uint256"
        }
      ],
      "stateMutability": "view",
      "type": "function"
    },
    {
      "inputs": [
        {
          "internalType": "contract IStrategy",
          "name": "strategy",
          "type": "address"
        },
        {
          "internalType": "uint256",
          "name": "underlyingAmount",
          "type": "uint256"
        }
      ],
      "name": "withdrawFromStrategy",
      "outputs": [],
      "stateMutability": "nonpayable",
      "type": "function"
    },
    {
      "inputs": [
        {
          "internalType": "uint256",
          "name": "",
          "type": "uint256"
        }
      ],
      "name": "withdrawalQueue",
      "outputs": [
        {
          "internalType": "contract IStrategy",
          "name": "",
          "type": "address"
        }
      ],
      "stateMutability": "view",
      "type": "function"
    }
  ],
  "bytecode": "608060405234801561001057600080fd5b50614a93806100206000396000f3fe608060405234801561001057600080fd5b50600436106104125760003560e01c80637b72aeb911610220578063c822adda11610130578063e5fa2b70116100b8578063eed74e6711610087578063eed74e6714610951578063f1a392da14610964578063f8c8765e1461097e578063f97d2ed714610991578063ffa1ad74146109a457600080fd5b8063e5fa2b701461090f578063ec523afd14610922578063ecad956514610935578063ecc404b51461093e57600080fd5b8063d00364be116100ff578063d00364be14610875578063dd11dd45146108a7578063dd62ed3e146108ba578063de9375f2146108f3578063e33cc0a81461090657600080fd5b8063c822adda14610829578063c866983b1461083c578063c89d34601461084f578063cbc43f891461086257600080fd5b8063a385fb96116101b3578063ac86ac7211610182578063ac86ac72146107df578063b53d0958146107f2578063bdf06c8e14610805578063c2930f9114610818578063c70920bc1461082157600080fd5b8063a385fb961461079d578063a457c2d7146107a6578063a9059cbb146107b9578063ac579b77146107cc57600080fd5b8063912f74cd116101ef578063912f74cd1461075c5780639291df6b1461078357806395d89b411461078c5780639ee02c7f1461079457600080fd5b80637b72aeb91461072f578063836ca0f614610742578063841219e51461074b57806386dc48001461075357600080fd5b806339509351116103265780635c975abb116102ae5780636bd956121161027d5780636bd95612146106b05780636f307dc3146106b957806370a08231146106e4578063793101a51461070d578063797ba4631461071557600080fd5b80635c975abb1461068b5780635e4f945114610696578063638744461461069f5780636833f60d146106a857600080fd5b80633ec16194116102f55780633ec1619414610618578063448f56b91461062b57806344b813961461065d57806347e7ef24146106655780634eddea061461067857600080fd5b806339509351146105d75780633af9e669146105ea5780633ba0b9a9146105fd5780633c66a8fa1461060557600080fd5b80631bba16db116103a95780632968676e116103785780632968676e146105445780632b2e05c114610596578063305d61ae146105a957806331024f3b146105bc578063313ce567146105c557600080fd5b80631bba16db146104fa5780631ec36bfa1461050257806323b872dd1461050b57806325a760c21461051e57600080fd5b806311e57a3e116103e557806311e57a3e1461048257806313e86b28146104a357806314fbae04146104b657806318160ddd146104f257600080fd5b806306fdde031461041757806307b35d1d14610435578063095ea7b31461044a5780630e73ecef1461046d575b600080fd5b61041f6109c6565b60405161042c9190614286565b60405180910390f35b6104486104433660046142b9565b610a58565b005b61045d6104583660046142f7565b610bd2565b604051901515815260200161042c565b610475610be9565b60405161042c9190614323565b610495610490366004614370565b610c4a565b60405190815260200161042c565b6104486104b1366004614389565b610c62565b6104dd6104c4366004614370565b60aa602052600090815260409020805460019091015482565b6040805192835260208301919091520161042c565b603554610495565b610448610d4a565b61049560ab5481565b61045d6105193660046143a6565b611058565b60995461053290600160a01b900460ff1681565b60405160ff909116815260200161042c565b610577610552366004614389565b60a16020526000908152604090205460ff81169061010090046001600160f81b031682565b6040805192151583526001600160f81b0390911660208301520161042c565b6104486105a4366004614389565b611104565b6104486105b7366004614370565b6111ef565b610495609d5481565b609954600160a01b900460ff16610532565b61045d6105e53660046142f7565b61132b565b6104956105f8366004614389565b611367565b610495611389565b610448610613366004614370565b6113c0565b610495610626366004614370565b6114e0565b609f5461064590600160801b90046001600160401b031681565b6040516001600160401b03909116815260200161042c565b6104956114f8565b6104956106733660046142f7565b611579565b6104486106863660046143e7565b611637565b60655460ff1661045d565b61049560a25481565b61049560ac5481565b61044861171d565b61049560a75481565b6099546106cc906001600160a01b031681565b6040516001600160a01b03909116815260200161042c565b6104956106f2366004614389565b6001600160a01b031660009081526033602052604090205490565b6104486117d7565b609f5461064590600160c01b90046001600160401b031681565b61044861073d366004614409565b61194e565b61049560a35481565b610495611b7d565b61049560a85481565b6104dd61076a366004614389565b60a9602052600090815260409020805460019091015482565b61049560a45481565b61041f611bfd565b61049560ad5481565b61049560975481565b61045d6107b43660046142f7565b611c0c565b61045d6107c73660046142f7565b611ca5565b6104486107da366004614432565b611cb2565b6104486107ed366004614389565b611de8565b6104486108003660046142f7565b611ed0565b6104486108133660046142f7565b6121cd565b610495609a5481565b6104956124dc565b6106cc610837366004614370565b612505565b61044861084a366004614389565b61252f565b61044861085d366004614432565b612616565b610448610870366004614370565b612b2d565b60a55461088f90600160801b90046001600160801b031681565b6040516001600160801b03909116815260200161042c565b609e546106cc906001600160a01b031681565b6104956108c83660046144a6565b6001600160a01b03918216600090815260346020908152604080832093909416825291909152205490565b6098546106cc906001600160a01b031681565b610495609b5481565b61044861091d366004614370565b612c62565b610448610930366004614389565b612d05565b61049560a05481565b609c546106cc906001600160a01b031681565b60a554610645906001600160401b031681565b60a55461064590600160401b90046001600160401b031681565b61044861098c3660046144df565b612eb5565b609f5461088f906001600160801b031681565b61041f6040518060400160405280600381526020016218171960e91b81525081565b6060603680546109d59061453b565b80601f0160208091040260200160405190810160405280929190818152602001828054610a019061453b565b8015610a4e5780601f10610a2357610100808354040283529160200191610a4e565b820191906000526020600020905b815481529060010190602001808311610a3157829003601f168201915b5050505050905090565b60985460405163b700961360e01b815233916001600160a01b03169063b700961390610a9890849030906001600160e01b03196000351690600401614576565b602060405180830381865afa158015610ab5573d6000803e3d6000fd5b505050506040513d601f19601f82011682018060405250810190610ad991906145a3565b610afe5760405162461bcd60e51b8152600401610af5906145c5565b60405180910390fd5b609f54600160801b90046001600160401b03166001600160801b0383161115610b735760405162461bcd60e51b815260206004820152602160248201527f7365744861727665737457696e646f773a3a57494e444f575f544f4f5f4c4f4e6044820152604760f81b6064820152608401610af5565b609f80546fffffffffffffffffffffffffffffffff19166001600160801b0384169081179091556040519081527fe5aac860870a2b99320df1d1b908931b370150f1c11074466fb332528e5b910b906020015b60405180910390a15050565b6000610bdf338484613098565b5060015b92915050565b606060a6805480602002602001604051908101604052809291908181526020018280548015610a4e57602002820191906000526020600020905b81546001600160a01b03168152600190910190602001808311610c23575050505050905090565b6000610be3610c57611389565b609a548491906131b4565b60985460405163b700961360e01b815233916001600160a01b03169063b700961390610ca290849030906001600160e01b03196000351690600401614576565b602060405180830381865afa158015610cbf573d6000803e3d6000fd5b505050506040513d601f19601f82011682018060405250810190610ce391906145a3565b610cff5760405162461bcd60e51b8152600401610af5906145c5565b609e80546001600160a01b0319166001600160a01b0384169081179091556040517fb5d8934a1f336d4cf641ae9f680c3e196f624f0bd9271749be60d98b70f7006090600090a25050565b60985460405163b700961360e01b815233916001600160a01b03169063b700961390610d8a90849030906001600160e01b03196000351690600401614576565b602060405180830381865afa158015610da7573d6000803e3d6000fd5b505050506040513d601f19601f82011682018060405250810190610dcb91906145a3565b610de75760405162461bcd60e51b8152600401610af5906145c5565b609f5460a554610e11916001600160401b03600160801b909104811691600160401b900416614601565b6001600160401b0316421015610e775760405162461bcd60e51b815260206004820152602560248201527f62617463684275726e3a3a4c41544553545f484152564553545f4e4f545f4558604482015264141254915160da1b6064820152608401610af5565b60a7805460009182610e888361462c565b90915550600081815260aa602090815260409182902082518084019093528054808452600190910154918301919091529192509080610f185760405162461bcd60e51b815260206004820152602660248201527f62617463684275726e3a3a544f54414c5f5348415245535f43414e4e4f545f42604482015265455f5a45524f60d01b6064820152608401610af5565b6000610f25610c57611389565b9050610f2f611b7d565b811115610f7e5760405162461bcd60e51b815260206004820181905260248201527f62617463684275726e3a3a4e4f545f454e4f5547485f554e4445524c59494e476044820152606401610af5565b610f8830836131cf565b609d5415610fd857609d54600090610faa908390670de0b6b3a76400006131b4565b9050610fb68183614647565b609e54609954919350610fd6916001600160a01b0390811691168361331d565b505b609a54610fe89082908490613380565b600085815260aa602052604081206001019190915560a8805483929061100f90849061465e565b90915550506040805183815260208101839052339186917f464420ee56151ee74d491d95cfa6b42d6c6504b38debc567f5532168243f1d8d910160405180910390a35050505050565b60006110658484846133a2565b6001600160a01b0384166000908152603460209081526040808320338452909152902054828110156110ea5760405162461bcd60e51b815260206004820152602860248201527f45524332303a207472616e7366657220616d6f756e74206578636565647320616044820152676c6c6f77616e636560c01b6064820152608401610af5565b6110f78533858403613098565b60019150505b9392505050565b60985460405163b700961360e01b815233916001600160a01b03169063b70096139061114490849030906001600160e01b03196000351690600401614576565b602060405180830381865afa158015611161573d6000803e3d6000fd5b505050506040513d601f19601f8201168201806040525081019061118591906145a3565b6111a15760405162461bcd60e51b8152600401610af5906145c5565b609880546001600160a01b0319166001600160a01b0384169081179091556040519081527fdcb0bc5ecfadc1f3129303f7c1f12b82107806277374a010dffe2c367708ef4190602001610bc6565b60985460405163b700961360e01b815233916001600160a01b03169063b70096139061122f90849030906001600160e01b03196000351690600401614576565b602060405180830381865afa15801561124c573d6000803e3d6000fd5b505050506040513d601f19601f8201168201806040525081019061127091906145a3565b61128c5760405162461bcd60e51b8152600401610af5906145c5565b670de0b6b3a76400008211156112f65760405162461bcd60e51b815260206004820152602960248201527f736574426174636865644275726e696e6746656550657263656e743a3a4645456044820152680bea89e9ebe90928e960bb1b6064820152608401610af5565b609d8290556040518281527fea0b688aabe63e0b1f8d23fbfaaf5978c8d6b74c5b21bdc9787b4651482b8f4b90602001610bc6565b3360008181526034602090815260408083206001600160a01b03871684529091528120549091610bdf91859061136290869061465e565b613098565b6001600160a01b038116600090815260336020526040812054610be390610c4a565b60008061139560355490565b9050806113a4575050609a5490565b6113ba81609a546113b36124dc565b9190613380565b91505090565b60a75433600090815260a96020526040902054806113f55733600090815260a96020526040902082815560010183905561146c565b8181146114445760405162461bcd60e51b815260206004820181905260248201527f656e74657242617463684275726e3a3a444946464552454e545f524f554e44536044820152606401610af5565b33600090815260a960205260408120600101805485929061146690849061465e565b90915550505b600082815260aa60205260408120805485929061148a90849061465e565b9091555061149a90503084611ca5565b6114a357600080fd5b604051838152339083907fa34c4835838212c803863f6698244f8a1e56f479d6dba7d4f33b34a2cdecf1ce906020015b60405180910390a3505050565b6000610be36114ed611389565b609a54849190613380565b60a554609f546000916001600160401b03600160401b909104811691600160801b900416611526818361465e565b42106115355760009250505090565b60a554600160801b90046001600160801b0316816115538442614647565b61155d9083614676565b6115679190614695565b6115719082614647565b935050505090565b60985460405163b700961360e01b815260009184916001600160a01b039091169063b7009613906115bd90849030906001600160e01b031988351690600401614576565b602060405180830381865afa1580156115da573d6000803e3d6000fd5b505050506040513d601f19601f820116820180604052508101906115fe91906145a3565b61161a5760405162461bcd60e51b8152600401610af5906145c5565b61163084611627856114e0565b93508385613572565b5092915050565b60985460405163b700961360e01b815233916001600160a01b03169063b70096139061167790849030906001600160e01b03196000351690600401614576565b602060405180830381865afa158015611694573d6000803e3d6000fd5b505050506040513d601f19601f820116820180604052508101906116b891906145a3565b6116d45760405162461bcd60e51b8152600401610af5906145c5565b60ab83905560ac82905560408051848152602081018490527fb2ad710f2954a5376267a683f9ece9ec46ee7dfb47075163379904ee941df8da91015b60405180910390a1505050565b60985460405163b700961360e01b815233916001600160a01b03169063b70096139061175d90849030906001600160e01b03196000351690600401614576565b602060405180830381865afa15801561177a573d6000803e3d6000fd5b505050506040513d601f19601f8201168201806040525081019061179e91906145a3565b6117ba5760405162461bcd60e51b8152600401610af5906145c5565b60655460ff166117cf576117cc613723565b50565b6117cc6137bb565b60a75433600090815260a9602090815260409182902082518084019093528054808452600190910154918301919091526118535760405162461bcd60e51b815260206004820152601a60248201527f6578697442617463684275726e3a3a4e4f5f4445504f534954530000000000006044820152606401610af5565b805182116118ad5760405162461bcd60e51b815260206004820152602160248201527f6578697442617463684275726e3a3a524f554e445f4e4f545f455845435554456044820152601160fa1b6064820152608401610af5565b33600090815260a96020908152604080832083815560019081018490558451845260aa83529083200154609a54918401516118ea929091906131b4565b90508060a860008282546118fe9190614647565b909155505060995461191a906001600160a01b0316338361331d565b604051818152339084907f2027c7e85003814492322d04d360d8df81aebeb8a40a069fffccc25cdf9e359b906020016114d3565b60985460405163b700961360e01b815233916001600160a01b03169063b70096139061198e90849030906001600160e01b03196000351690600401614576565b602060405180830381865afa1580156119ab573d6000803e3d6000fd5b505050506040513d601f19601f820116820180604052508101906119cf91906145a3565b6119eb5760405162461bcd60e51b8152600401610af5906145c5565b6001600160401b038216611a4f5760405162461bcd60e51b815260206004820152602560248201527f7365744861727665737444656c61793a3a44454c41595f43414e4e4f545f42456044820152645f5a45524f60d81b6064820152608401610af5565b6301e13380826001600160401b03161115611aac5760405162461bcd60e51b815260206004820152601f60248201527f7365744861727665737444656c61793a3a44454c41595f544f4f5f4c4f4e47006044820152606401610af5565b609f54600160801b90046001600160401b0316611b2757609f805467ffffffffffffffff60801b1916600160801b6001600160401b0385169081029190911790915560405190815233907fe893fa207c5a5094cad036347b877c23ebecd9df94ae0426f287040c13220b3f9060200160405180910390a25050565b609f80546001600160c01b0316600160c01b6001600160401b038516908102919091179091556040519081527f12ce22e477e3fc08e5fda24cdec059a7c62a276344417f2c365d7476401bca6f90602001610bc6565b60a8546099546040516370a0823160e01b8152306004820152600092916001600160a01b0316906370a0823190602401602060405180830381865afa158015611bca573d6000803e3d6000fd5b505050506040513d601f19601f82011682018060405250810190611bee91906146b7565b611bf89190614647565b905090565b6060603780546109d59061453b565b3360009081526034602090815260408083206001600160a01b038616845290915281205482811015611c8e5760405162461bcd60e51b815260206004820152602560248201527f45524332303a2064656372656173656420616c6c6f77616e63652062656c6f77604482015264207a65726f60d81b6064820152608401610af5565b611c9b3385858403613098565b5060019392505050565b6000610bdf3384846133a2565b60985460405163b700961360e01b815233916001600160a01b03169063b700961390611cf290849030906001600160e01b03196000351690600401614576565b602060405180830381865afa158015611d0f573d6000803e3d6000fd5b505050506040513d601f19601f82011682018060405250810190611d3391906145a3565b611d4f5760405162461bcd60e51b8152600401610af5906145c5565b6014821115611daa5760405162461bcd60e51b815260206004820152602160248201527f7365745769746864726177616c51756575653a3a51554555455f544f4f5f42496044820152604760f81b6064820152608401610af5565b611db660a68484614172565b507f7f5ecd11abc947c192f7d36828c4a649ddecd0867f27df66489e78d3ec80b6fe83836040516117109291906146d0565b60985460405163b700961360e01b815233916001600160a01b03169063b700961390611e2890849030906001600160e01b03196000351690600401614576565b602060405180830381865afa158015611e45573d6000803e3d6000fd5b505050506040513d601f19601f82011682018060405250810190611e6991906145a3565b611e855760405162461bcd60e51b8152600401610af5906145c5565b609c80546001600160a01b0319166001600160a01b0384169081179091556040517fba702855580cda8666c4fe8e4ae71d8f5dd19db067455eeb54e2bac95c46af1390600090a25050565b60985460405163b700961360e01b815233916001600160a01b03169063b700961390611f1090849030906001600160e01b03196000351690600401614576565b602060405180830381865afa158015611f2d573d6000803e3d6000fd5b505050506040513d601f19601f82011682018060405250810190611f5191906145a3565b611f6d5760405162461bcd60e51b8152600401610af5906145c5565b6001600160a01b038316600090815260a1602052604090205460ff16611fe65760405162461bcd60e51b815260206004820152602860248201527f776974686472617746726f6d53747261746567793a3a554e545255535445445f604482015267535452415445475960c01b6064820152608401610af5565b816120475760405162461bcd60e51b815260206004820152602b60248201527f776974686472617746726f6d53747261746567793a3a414d4f554e545f43414e60448201526a4e4f545f42455f5a45524f60a81b6064820152608401610af5565b61205082613835565b6001600160a01b038416600090815260a160205260409020805460019061208690849061010090046001600160f81b031661471e565b92506101000a8154816001600160f81b0302191690836001600160f81b031602179055508160a060008282546120bc9190614647565b90915550506040518281526001600160a01b0384169033907f8d851b682e239b1de720e92e5c5cffdb72d353104cc63dc6ed144d7080217fbe9060200160405180910390a3604051632e1a7d4d60e01b8152600481018390526001600160a01b03841690632e1a7d4d906024016020604051808303816000875af1158015612148573d6000803e3d6000fd5b505050506040513d601f19601f8201168201806040525081019061216c9190614746565b60ff16156121c85760405162461bcd60e51b815260206004820152602360248201527f776974686472617746726f6d53747261746567793a3a52454445454d5f46414960448201526213115160ea1b6064820152608401610af5565b505050565b60985460405163b700961360e01b815233916001600160a01b03169063b70096139061220d90849030906001600160e01b03196000351690600401614576565b602060405180830381865afa15801561222a573d6000803e3d6000fd5b505050506040513d601f19601f8201168201806040525081019061224e91906145a3565b61226a5760405162461bcd60e51b8152600401610af5906145c5565b6001600160a01b038316600090815260a1602052604090205460ff166122e25760405162461bcd60e51b815260206004820152602760248201527f6465706f736974496e746f53747261746567793a3a554e545255535445445f536044820152665452415445475960c81b6064820152608401610af5565b816123425760405162461bcd60e51b815260206004820152602a60248201527f6465706f736974496e746f53747261746567793a3a414d4f554e545f43414e4e6044820152694f545f42455f5a45524f60b01b6064820152608401610af5565b8160a06000828254612354919061465e565b90915550612363905082613835565b6001600160a01b038416600090815260a160205260409020805460019061239990849061010090046001600160f81b0316614769565b92506101000a8154816001600160f81b0302191690836001600160f81b03160217905550826001600160a01b0316336001600160a01b03167f49e9138fe0dacf001ea634236e38aa8bd229efd55ec4d7975228d679db6ce8f98460405161240291815260200190565b60405180910390a3609954612421906001600160a01b0316848461384f565b60405163b6b55f2560e01b8152600481018390526001600160a01b0384169063b6b55f25906024016020604051808303816000875af1158015612468573d6000803e3d6000fd5b505050506040513d601f19601f8201168201806040525081019061248c9190614746565b60ff16156121c85760405162461bcd60e51b815260206004820181905260248201527f6465706f736974496e746f53747261746567793a3a4d494e545f4641494c45446044820152606401610af5565b60006124e6611b7d565b6124ee6114f8565b60a0546124fb9190614647565b611bf8919061465e565b60a6818154811061251557600080fd5b6000918252602090912001546001600160a01b0316905081565b60985460405163b700961360e01b815233916001600160a01b03169063b70096139061256f90849030906001600160e01b03196000351690600401614576565b602060405180830381865afa15801561258c573d6000803e3d6000fd5b505050506040513d601f19601f820116820180604052508101906125b091906145a3565b6125cc5760405162461bcd60e51b8152600401610af5906145c5565b6001600160a01b038216600081815260a16020526040808220805460ff19169055517fe14d923ec37225f1aab033b03f5c98cf911d68bba31f6908192db6c24b0511c99190a25050565b60985460405163b700961360e01b815233916001600160a01b03169063b70096139061265690849030906001600160e01b03196000351690600401614576565b602060405180830381865afa158015612673573d6000803e3d6000fd5b505050506040513d601f19601f8201168201806040525081019061269791906145a3565b6126b35760405162461bcd60e51b8152600401610af5906145c5565b609f5460a5546126dd916001600160401b03600160801b909104811691600160401b900416614601565b6001600160401b0316421061272c576126f4611389565b60a25560a4546127049043614647565b60a3554360a45560a5805467ffffffffffffffff1916426001600160401b03161790556127a6565b609f5460a55461274e916001600160801b0316906001600160401b031661478b565b6001600160801b03164211156127a65760405162461bcd60e51b815260206004820152601960248201527f686172766573743a3a4241445f484152564553545f54494d45000000000000006044820152606401610af5565b60a054600081815b858110156129615760008787838181106127ca576127ca6147ad565b90506020020160208101906127df9190614389565b6001600160a01b038116600090815260a1602052604090205490915060ff1661284a5760405162461bcd60e51b815260206004820152601b60248201527f686172766573743a3a554e545255535445445f535452415445475900000000006044820152606401610af5565b6001600160a01b038116600081815260a1602090815260408083205481516327e5cbaf60e01b815291516101009091046001600160f81b031694926327e5cbaf9260048082019391829003018187875af11580156128ac573d6000803e3d6000fd5b505050506040513d601f19601f820116820180604052508101906128d091906146b7565b90506128db81613835565b6001600160a01b038416600090815260a16020526040902080546001600160f81b03929092166101000260ff9092169190911790558161291b828761465e565b6129259190614647565b945081811161293557600061293f565b61293f8282614647565b612949908761465e565b955050505080806129599061462c565b9150506127ae565b50609b5460009061297c908490670de0b6b3a76400006131b4565b905080158015906129975750609c546001600160a01b031615155b156129c757609c546129c7906001600160a01b03166129c26129b7611389565b609a54859190613380565b613964565b60006129ef82856129d66114f8565b6129e0919061465e565b6129ea9190614647565b613a43565b60a580546001600160801b03808416600160801b81029190921617909155909150600090612a1d9085614647565b9050612a3581836001600160801b031660a354613a59565b60ad5560a084905560a580546fffffffffffffffff00000000000000001916600160401b426001600160401b03160217905560405133907f69e9c71f6799744a94d9897e77c3ed426cc2f92ba0ef3300785368209b6f4b2d90612a9b908c908c906146d0565b60405180910390a2609f54600160c01b90046001600160401b03168015612b2157609f80546001600160801b0316600160801b6001600160401b0384169081026001600160c01b03169190911790915560405190815233907fe893fa207c5a5094cad036347b877c23ebecd9df94ae0426f287040c13220b3f9060200160405180910390a25b50505050505050505050565b60985460405163b700961360e01b815233916001600160a01b03169063b700961390612b6d90849030906001600160e01b03196000351690600401614576565b602060405180830381865afa158015612b8a573d6000803e3d6000fd5b505050506040513d601f19601f82011682018060405250810190612bae91906145a3565b612bca5760405162461bcd60e51b8152600401610af5906145c5565b670de0b6b3a7640000821115612c2d5760405162461bcd60e51b815260206004820152602260248201527f7365744861727665737446656550657263656e743a3a4645455f544f4f5f484960448201526108e960f31b6064820152608401610af5565b609b8290556040518281527fc2930745c0414dcbc7ebf3fea0d713c9b1f0d69dd75345906fcf43ae322ad57890602001610bc6565b60985460405163b700961360e01b815233916001600160a01b03169063b700961390612ca290849030906001600160e01b03196000351690600401614576565b602060405180830381865afa158015612cbf573d6000803e3d6000fd5b505050506040513d601f19601f82011682018060405250810190612ce391906145a3565b612cff5760405162461bcd60e51b8152600401610af5906145c5565b50609755565b60985460405163b700961360e01b815233916001600160a01b03169063b700961390612d4590849030906001600160e01b03196000351690600401614576565b602060405180830381865afa158015612d62573d6000803e3d6000fd5b505050506040513d601f19601f82011682018060405250810190612d8691906145a3565b612da25760405162461bcd60e51b8152600401610af5906145c5565b60995460408051636f307dc360e01b815290516001600160a01b0392831692851691636f307dc39160048083019260209291908290030181865afa158015612dee573d6000803e3d6000fd5b505050506040513d601f19601f82011682018060405250810190612e1291906147c3565b6001600160a01b031614612e685760405162461bcd60e51b815260206004820152601f60248201527f747275737453747261746567793a3a57524f4e475f554e4445524c59494e47006044820152606401610af5565b6001600160a01b038216600081815260a16020526040808220805460ff19166001179055517f1eecb33217fce2d414c96c97c7e082f4557817585c876a72eca5305afb15f1f19190a25050565b600054610100900460ff1680612ece575060005460ff16155b612eea5760405162461bcd60e51b8152600401610af5906147e0565b600054610100900460ff16158015612f0c576000805461ffff19166101011790555b61307f8585858560405180604001604052806005815260200164020babc37960dd1b8152508a6001600160a01b03166306fdde036040518163ffffffff1660e01b8152600401600060405180830381865afa158015612f6f573d6000803e3d6000fd5b505050506040513d6000823e601f3d908101601f19168201604052612f979190810190614844565b604051806040016040528060068152602001650815985d5b1d60d21b815250604051602001612fc8939291906148e5565b604051602081830303815290604052604051806040016040528060048152602001636175786f60e01b8152508b6001600160a01b03166395d89b416040518163ffffffff1660e01b8152600401600060405180830381865afa158015613032573d6000803e3d6000fd5b505050506040513d6000823e601f3d908101601f1916820160405261305a9190810190614844565b60405160200161306b929190614928565b604051602081830303815290604052613aad565b8015613091576000805461ff00191690555b5050505050565b6001600160a01b0383166130fa5760405162461bcd60e51b8152602060048201526024808201527f45524332303a20617070726f76652066726f6d20746865207a65726f206164646044820152637265737360e01b6064820152608401610af5565b6001600160a01b03821661315b5760405162461bcd60e51b815260206004820152602260248201527f45524332303a20617070726f766520746f20746865207a65726f206164647265604482015261737360f01b6064820152608401610af5565b6001600160a01b0383811660008181526034602090815260408083209487168084529482529182902085905590518481527f8c5be1e5ebec7d5bd14f71427d1e84f3dd0314c0f7b2291e5b200ac8c7c3b92591016114d3565b82820283158482048414176131c857600080fd5b0492915050565b6001600160a01b03821661322f5760405162461bcd60e51b815260206004820152602160248201527f45524332303a206275726e2066726f6d20746865207a65726f206164647265736044820152607360f81b6064820152608401610af5565b6001600160a01b038216600090815260336020526040902054818110156132a35760405162461bcd60e51b815260206004820152602260248201527f45524332303a206275726e20616d6f756e7420657863656564732062616c616e604482015261636560f01b6064820152608401610af5565b6001600160a01b03831660009081526033602052604081208383039055603580548492906132d2908490614647565b90915550506040518281526000906001600160a01b038516907fddf252ad1be2c89b69c2b068fc378daa952ba7f163c4a11628f55a4df523b3ef9060200160405180910390a3505050565b6040516001600160a01b0383166024820152604481018290526121c890849063a9059cbb60e01b906064015b60408051601f198184030181529190526020810180516001600160e01b03166001600160e01b031990931692909217909152613c8a565b82810282151584158583048414171661339857600080fd5b9190910492915050565b6001600160a01b0383166134065760405162461bcd60e51b815260206004820152602560248201527f45524332303a207472616e736665722066726f6d20746865207a65726f206164604482015264647265737360d81b6064820152608401610af5565b6001600160a01b0382166134685760405162461bcd60e51b815260206004820152602360248201527f45524332303a207472616e7366657220746f20746865207a65726f206164647260448201526265737360e81b6064820152608401610af5565b6001600160a01b038316600090815260336020526040902054818110156134e05760405162461bcd60e51b815260206004820152602660248201527f45524332303a207472616e7366657220616d6f756e7420657863656564732062604482015265616c616e636560d01b6064820152608401610af5565b6001600160a01b0380851660009081526033602052604080822085850390559185168152908120805484929061351790849061465e565b92505081905550826001600160a01b0316846001600160a01b03167fddf252ad1be2c89b69c2b068fc378daa952ba7f163c4a11628f55a4df523b3ef8460405161356391815260200190565b60405180910390a35b50505050565b60655460ff16156135b85760405162461bcd60e51b815260206004820152601060248201526f14185d5cd8589b194e881c185d5cd95960821b6044820152606401610af5565b6000816135dd610490866001600160a01b031660009081526033602052604090205490565b6135e7919061465e565b90506000826135f46124dc565b6135fe919061465e565b905060ab548211156136605760405162461bcd60e51b815260206004820152602560248201527f5f6465706f7369743a3a555345525f4445504f5349545f4c494d4954535f52456044820152641050d2115160da1b6064820152608401610af5565b60ac548111156136c15760405162461bcd60e51b815260206004820152602660248201527f5f6465706f7369743a3a5641554c545f4445504f5349545f4c494d4954535f52604482015265115050d2115160d21b6064820152608401610af5565b6136cb8585613964565b6040518381526001600160a01b0386169033907f5548c837ab068cf56a2c2479df0882a4922fd203edb7517321831d95078c5f629060200160405180910390a3609954613091906001600160a01b0316333086613d5c565b60655460ff16156137695760405162461bcd60e51b815260206004820152601060248201526f14185d5cd8589b194e881c185d5cd95960821b6044820152606401610af5565b6065805460ff191660011790557f62e78cea01bee320cd4e420270b5ea74000d11b0c9f74754ebdbfc544b05a25861379e3390565b6040516001600160a01b03909116815260200160405180910390a1565b60655460ff166138045760405162461bcd60e51b815260206004820152601460248201527314185d5cd8589b194e881b9bdd081c185d5cd95960621b6044820152606401610af5565b6065805460ff191690557f5db9ee0a495bf2e6ff9c91a7834c1ba4fdd244a5e8aa4e537bd38aeae4b073aa3361379e565b60006001600160f81b0382111561384b57600080fd5b5090565b8015806138c95750604051636eb1769f60e11b81523060048201526001600160a01b03838116602483015284169063dd62ed3e90604401602060405180830381865afa1580156138a3573d6000803e3d6000fd5b505050506040513d601f19601f820116820180604052508101906138c791906146b7565b155b6139345760405162461bcd60e51b815260206004820152603660248201527f5361666545524332303a20617070726f76652066726f6d206e6f6e2d7a65726f60448201527520746f206e6f6e2d7a65726f20616c6c6f77616e636560501b6064820152608401610af5565b6040516001600160a01b0383166024820152604481018290526121c890849063095ea7b360e01b90606401613349565b6001600160a01b0382166139ba5760405162461bcd60e51b815260206004820152601f60248201527f45524332303a206d696e7420746f20746865207a65726f2061646472657373006044820152606401610af5565b80603560008282546139cc919061465e565b90915550506001600160a01b038216600090815260336020526040812080548392906139f990849061465e565b90915550506040518181526001600160a01b038316906000907fddf252ad1be2c89b69c2b068fc378daa952ba7f163c4a11628f55a4df523b3ef9060200160405180910390a35050565b60006001600160801b0382111561384b57600080fd5b6000831580613a66575082155b613aa25781609754613a789190614695565b609a54613a889085908790613380565b613a929190614676565b613a9d906064614676565b613aa5565b60005b949350505050565b600054610100900460ff1680613ac6575060005460ff16155b613ae25760405162461bcd60e51b8152600401610af5906147e0565b600054610100900460ff16158015613b04576000805461ffff19166101011790555b613b0e8383613d94565b613b16613e13565b613b1e613723565b609980546001600160a01b0319166001600160a01b0389169081179091556040805163313ce56760e01b8152905163313ce567916004808201926020929091908290030181865afa158015613b77573d6000803e3d6000fd5b505050506040513d601f19601f82011682018060405250810190613b9b9190614746565b613ba690600a614a32565b609a81905550866001600160a01b031663313ce5676040518163ffffffff1660e01b8152600401602060405180830381865afa158015613bea573d6000803e3d6000fd5b505050506040513d601f19601f82011682018060405250810190613c0e9190614746565b6099805460ff92909216600160a01b0260ff60a01b19909216919091179055609880546001600160a01b038089166001600160a01b031992831617909255609e8054878416908316179055609c805492881692909116919091179055600160a7558015613c81576000805461ff00191690555b50505050505050565b6000613cdf826040518060400160405280602081526020017f5361666545524332303a206c6f772d6c6576656c2063616c6c206661696c6564815250856001600160a01b0316613e8e9092919063ffffffff16565b8051909150156121c85780806020019051810190613cfd91906145a3565b6121c85760405162461bcd60e51b815260206004820152602a60248201527f5361666545524332303a204552433230206f7065726174696f6e20646964206e6044820152691bdd081cdd58d8d9595960b21b6064820152608401610af5565b6040516001600160a01b038085166024830152831660448201526064810182905261356c9085906323b872dd60e01b90608401613349565b600054610100900460ff1680613dad575060005460ff16155b613dc95760405162461bcd60e51b8152600401610af5906147e0565b600054610100900460ff16158015613deb576000805461ffff19166101011790555b613df3613e9d565b613dfd8383613f07565b80156121c8576000805461ff0019169055505050565b600054610100900460ff1680613e2c575060005460ff16155b613e485760405162461bcd60e51b8152600401610af5906147e0565b600054610100900460ff16158015613e6a576000805461ffff19166101011790555b613e72613e9d565b613e7a613f9c565b80156117cc576000805461ff001916905550565b6060613aa58484600085614011565b600054610100900460ff1680613eb6575060005460ff16155b613ed25760405162461bcd60e51b8152600401610af5906147e0565b600054610100900460ff16158015613e7a576000805461ffff191661010117905580156117cc576000805461ff001916905550565b600054610100900460ff1680613f20575060005460ff16155b613f3c5760405162461bcd60e51b8152600401610af5906147e0565b600054610100900460ff16158015613f5e576000805461ffff19166101011790555b8251613f719060369060208601906141d1565b508151613f859060379060208501906141d1565b5080156121c8576000805461ff0019169055505050565b600054610100900460ff1680613fb5575060005460ff16155b613fd15760405162461bcd60e51b8152600401610af5906147e0565b600054610100900460ff16158015613ff3576000805461ffff19166101011790555b6065805460ff1916905580156117cc576000805461ff001916905550565b6060824710156140725760405162461bcd60e51b815260206004820152602660248201527f416464726573733a20696e73756666696369656e742062616c616e636520666f6044820152651c8818d85b1b60d21b6064820152608401610af5565b843b6140c05760405162461bcd60e51b815260206004820152601d60248201527f416464726573733a2063616c6c20746f206e6f6e2d636f6e74726163740000006044820152606401610af5565b600080866001600160a01b031685876040516140dc9190614a41565b60006040518083038185875af1925050503d8060008114614119576040519150601f19603f3d011682016040523d82523d6000602084013e61411e565b606091505b509150915061412e828286614139565b979650505050505050565b606083156141485750816110fd565b8251156141585782518084602001fd5b8160405162461bcd60e51b8152600401610af59190614286565b8280548282559060005260206000209081019282156141c5579160200282015b828111156141c55781546001600160a01b0319166001600160a01b03843516178255602090920191600190910190614192565b5061384b929150614245565b8280546141dd9061453b565b90600052602060002090601f0160209004810192826141ff57600085556141c5565b82601f1061421857805160ff19168380011785556141c5565b828001600101855582156141c5579182015b828111156141c557825182559160200191906001019061422a565b5b8082111561384b5760008155600101614246565b60005b8381101561427557818101518382015260200161425d565b8381111561356c5750506000910152565b60208152600082518060208401526142a581604085016020870161425a565b601f01601f19169190910160400192915050565b6000602082840312156142cb57600080fd5b81356001600160801b03811681146110fd57600080fd5b6001600160a01b03811681146117cc57600080fd5b6000806040838503121561430a57600080fd5b8235614315816142e2565b946020939093013593505050565b6020808252825182820181905260009190848201906040850190845b818110156143645783516001600160a01b03168352928401929184019160010161433f565b50909695505050505050565b60006020828403121561438257600080fd5b5035919050565b60006020828403121561439b57600080fd5b81356110fd816142e2565b6000806000606084860312156143bb57600080fd5b83356143c6816142e2565b925060208401356143d6816142e2565b929592945050506040919091013590565b600080604083850312156143fa57600080fd5b50508035926020909101359150565b60006020828403121561441b57600080fd5b81356001600160401b03811681146110fd57600080fd5b6000806020838503121561444557600080fd5b82356001600160401b038082111561445c57600080fd5b818501915085601f83011261447057600080fd5b81358181111561447f57600080fd5b8660208260051b850101111561449457600080fd5b60209290920196919550909350505050565b600080604083850312156144b957600080fd5b82356144c4816142e2565b915060208301356144d4816142e2565b809150509250929050565b600080600080608085870312156144f557600080fd5b8435614500816142e2565b93506020850135614510816142e2565b92506040850135614520816142e2565b91506060850135614530816142e2565b939692955090935050565b600181811c9082168061454f57607f821691505b6020821081141561457057634e487b7160e01b600052602260045260246000fd5b50919050565b6001600160a01b0393841681529190921660208201526001600160e01b0319909116604082015260600190565b6000602082840312156145b557600080fd5b815180151581146110fd57600080fd5b6020808252600c908201526b15539055551213d49256915160a21b604082015260600190565b634e487b7160e01b600052601160045260246000fd5b60006001600160401b03808316818516808303821115614623576146236145eb565b01949350505050565b6000600019821415614640576146406145eb565b5060010190565b600082821015614659576146596145eb565b500390565b60008219821115614671576146716145eb565b500190565b6000816000190483118215151615614690576146906145eb565b500290565b6000826146b257634e487b7160e01b600052601260045260246000fd5b500490565b6000602082840312156146c957600080fd5b5051919050565b60208082528181018390526000908460408401835b868110156147135782356146f8816142e2565b6001600160a01b0316825291830191908301906001016146e5565b509695505050505050565b60006001600160f81b038381169083168181101561473e5761473e6145eb565b039392505050565b60006020828403121561475857600080fd5b815160ff811681146110fd57600080fd5b60006001600160f81b03828116848216808303821115614623576146236145eb565b60006001600160801b03808316818516808303821115614623576146236145eb565b634e487b7160e01b600052603260045260246000fd5b6000602082840312156147d557600080fd5b81516110fd816142e2565b6020808252602e908201527f496e697469616c697a61626c653a20636f6e747261637420697320616c72656160408201526d191e481a5b9a5d1a585b1a5e995960921b606082015260800190565b634e487b7160e01b600052604160045260246000fd5b60006020828403121561485657600080fd5b81516001600160401b038082111561486d57600080fd5b818401915084601f83011261488157600080fd5b8151818111156148935761489361482e565b604051601f8201601f19908116603f011681019083821181831017156148bb576148bb61482e565b816040528281528760208487010111156148d457600080fd5b61412e83602083016020880161425a565b600084516148f781846020890161425a565b84519083019061490b81836020890161425a565b845191019061491e81836020880161425a565b0195945050505050565b6000835161493a81846020880161425a565b83519083019061462381836020880161425a565b600181815b8085111561498957816000190482111561496f5761496f6145eb565b8085161561497c57918102915b93841c9390800290614953565b509250929050565b6000826149a057506001610be3565b816149ad57506000610be3565b81600181146149c357600281146149cd576149e9565b6001915050610be3565b60ff8411156149de576149de6145eb565b50506001821b610be3565b5060208310610133831016604e8410600b8410161715614a0c575081810a610be3565b614a16838361494e565b8060001904821115614a2a57614a2a6145eb565b029392505050565b60006110fd60ff841683614991565b60008251614a5381846020870161425a565b919091019291505056fea264697066735822122007fd2d39a62a6bb145c637d024126579a58a6b3036afacc9a3fe4c3ed258c94b64736f6c634300080c0033",
  "bytecodeSha1": "9a0d49267fa2f022b8d3e878a4cc4f2f5828bc9f",
  "compiler": {
    "evm_version": "istanbul",
    "optimizer": {
      "enabled": true,
      "runs": 200
    },
    "version": "0.8.12+commit.f00d7308"
  },
  "contractName": "Vault",
  "language": "Solidity",
  "natspec": {
    "author": "dantop114",
    "kind": "dev",
    "methods": {
      "VERSION()": {
        "notice": "Vault's API version."
      },
      "allowance(address,address)": {
        "details": "See {IERC20-allowance}."
      },
      "approve(address,uint256)": {
        "details": "See {IERC20-approve}. Requirements: - `spender` cannot be the zero address."
      },
      "auth()": {
        "notice": "Vault Auth module."
      },
      "balanceOf(address)": {
        "details": "See {IERC20-balanceOf}."
      },
      "balanceOfUnderlying(address)": {
        "notice": "Returns a user's Vault balance in underlying tokens.",
        "params": {
          "user": "THe user to get the underlying balance of."
        },
        "returns": {
          "_0": "The user's Vault balance in underlying tokens."
        }
      },
      "baseUnit()": {
        "notice": "The base unit of the underlying token and hence the Vault share token."
      },
      "batchBurnBalance()": {
        "notice": "Balance reserved to batched burning withdrawals."
      },
      "batchBurnRound()": {
        "notice": "Current batched burning round."
      },
      "batchBurns(uint256)": {
        "notice": "Maps social burning events rounds to batched burn details."
      },
      "blocksPerYear()": {
        "notice": "Blocks mined in a year."
      },
      "burningFeePercent()": {
        "notice": "The percentage of shares recognized each burning to reserve as fees."
      },
      "burningFeeReceiver()": {
        "notice": "The address receiving burning fees (denominated in Vault's shares)."
      },
      "calculateShares(uint256)": {
        "notice": "Calculates the amount of Vault's shares for a given amount of underlying tokens.",
        "params": {
          "underlyingAmount": "The underlying token's amount."
        },
        "returns": {
          "_0": "The amount of shares given `underlyingAmount`."
        }
      },
      "calculateUnderlying(uint256)": {
        "notice": "Calculates the amount of underlying tokens corresponding to a given amount of Vault's shares.",
        "params": {
          "sharesAmount": "The shares amount."
        },
        "returns": {
          "_0": "The amount of underlying given `sharesAmount`."
        }
      },
      "decimals()": {
        "details": "Needed because Openzeppelin's logic for decimals.",
        "notice": "Overrides `decimals` method.",
        "returns": {
          "_0": "Vault's shares token decimals (underlying token decimals)."
        }
      },
      "decreaseAllowance(address,uint256)": {
        "details": "Atomically decreases the allowance granted to `spender` by the caller. This is an alternative to {approve} that can be used as a mitigation for problems described in {IERC20-approve}. Emits an {Approval} event indicating the updated allowance. Requirements: - `spender` cannot be the zero address. - `spender` must have allowance for the caller of at least `subtractedValue`."
      },
      "deposit(address,uint256)": {
        "details": "User needs to approve `underlyingAmount` of underlying tokens to spend.",
        "notice": "Deposit a specific amount of underlying tokens.",
        "params": {
          "to": "The address to receive shares corresponding to the deposit.",
          "underlyingAmount": "The amount of the underlying token to deposit."
        },
        "returns": {
          "shares": "The amount of shares minted using `underlyingAmount`."
        }
      },
      "depositIntoStrategy(address,uint256)": {
        "notice": "Deposit a specific amount of float into a trusted strategy.",
        "params": {
          "strategy": "The trusted strategy to deposit into.",
          "underlyingAmount": "The amount of underlying tokens in float to deposit."
        }
      },
      "distrustStrategy(address)": {
        "notice": "Store a strategy as untrusted, disabling it from being harvested.",
        "params": {
          "strategy": "The strategy to make untrusted."
        }
      },
      "enterBatchBurn(uint256)": {
        "details": "Each user can take part to one batched burn event a time.User's shares amount will be staked until the burn happens.",
        "notice": "Enter a batched burn event.",
        "params": {
          "shares": "Shares to withdraw during the next batched burn event."
        }
      },
      "estimatedReturn()": {
        "notice": "Estimated return recorded during last harvest."
      },
      "exchangeRate()": {
        "notice": "Returns the amount of underlying tokens a share can be redeemed for.",
        "returns": {
          "_0": "The amount of underlying tokens a share can be redeemed for."
        }
      },
      "execBatchBurn()": {
        "notice": "Execute batched burns"
      },
      "exitBatchBurn()": {
        "notice": "Withdraw underlying redeemed in batched burning events."
      },
      "getStrategyData(address)": {
        "notice": "Maps strategies to data the Vault holds on them."
      },
      "getWithdrawalQueue()": {
        "details": "This is provided because Solidity converts public arrays into index getters, but we need a way to allow external contracts and users to access the whole array.",
        "notice": "Gets the full withdrawal queue.",
        "returns": {
          "_0": "An ordered array of strategies representing the withdrawal queue."
        }
      },
      "harvest(address[])": {
        "details": "Will always revert if called outside of an active harvest window or before the harvest delay has passed.",
        "notice": "Harvest a set of trusted strategies.",
        "params": {
          "strategies": "The trusted strategies to harvest."
        }
      },
      "harvestDelay()": {
        "notice": "The period in seconds over which locked profit is unlocked."
      },
      "harvestFeePercent()": {
        "notice": "The percentage of profit recognized each harvest to reserve as fees."
      },
      "harvestFeeReceiver()": {
        "notice": "The address receiving harvest fees (denominated in Vault's shares)."
      },
      "harvestWindow()": {
        "notice": "The period in seconds during which multiple harvests can occur regardless if they are taking place before the harvest delay has elapsed."
      },
      "increaseAllowance(address,uint256)": {
        "details": "Atomically increases the allowance granted to `spender` by the caller. This is an alternative to {approve} that can be used as a mitigation for problems described in {IERC20-approve}. Emits an {Approval} event indicating the updated allowance. Requirements: - `spender` cannot be the zero address."
      },
      "initialize(address,address,address,address)": {
        "notice": "The initialize method",
        "params": {
          "auth_": "The Auth module that will be used for this Vault.",
          "burnFeeReceiver_": "The batched burns fee receiver address.",
          "harvestFeeReceiver_": "The harvesting fee receiver address.",
          "underlying_": "The underlying token the vault accepts."
        }
      },
      "lastHarvest()": {
        "notice": "A timestamp representing when the most recent harvest occurred."
      },
      "lastHarvestExchangeRate()": {
        "notice": "Exchange rate at the beginning of latest harvest window"
      },
      "lastHarvestIntervalInBlocks()": {
        "notice": "Latest harvest interval in blocks"
      },
      "lastHarvestWindowStart()": {
        "notice": "A timestamp representing when the first harvest in the most recent harvest window occurred."
      },
      "lastHarvestWindowStartBlock()": {
        "notice": "The block number when the first harvest in the most recent harvest window occurred."
      },
      "lockedProfit()": {
        "notice": "Calculate the current amount of locked profit.",
        "returns": {
          "_0": "The current amount of locked profit."
        }
      },
      "maxLockedProfit()": {
        "notice": "The amount of locked profit at the end of the last harvest."
      },
      "name()": {
        "details": "Returns the name of the token."
      },
      "nextHarvestDelay()": {
        "notice": "The value that will replace harvestDelay next harvest."
      },
      "paused()": {
        "details": "Returns true if the contract is paused, and false otherwise."
      },
      "setAuth(address)": {
        "notice": "Set a new Authority module.",
        "params": {
          "newAuth": "The new Authority module."
        }
      },
      "setBlocksPerYear(uint256)": {
        "notice": "Sets blocks per year.",
        "params": {
          "blocks": "Blocks in a given year."
        }
      },
      "setBurningFeePercent(uint256)": {
        "notice": "Set a new burning fee percentage.",
        "params": {
          "newFeePercent": "The new fee percentage."
        }
      },
      "setBurningFeeReceiver(address)": {
        "notice": "Set a new burning fees receiver.",
        "params": {
          "burningFeeReceiver_": "The new burning fees receiver."
        }
      },
      "setDepositLimits(uint256,uint256)": {
        "notice": "Set new deposit limits for this vault.",
        "params": {
          "user": "New user deposit limit.",
          "vault": "New vault deposit limit."
        }
      },
      "setHarvestDelay(uint64)": {
        "details": "If the current harvest delay is 0, meaning it has not been set before, it will be updated immediately; otherwise it will be scheduled to take effect after the next harvest.",
        "notice": "Set a new harvest delay delay.",
        "params": {
          "newHarvestDelay": "The new harvest delay to set."
        }
      },
      "setHarvestFeePercent(uint256)": {
        "notice": "Set a new fee percentage.",
        "params": {
          "newFeePercent": "The new fee percentage."
        }
      },
      "setHarvestFeeReceiver(address)": {
        "notice": "Set a new harvest fees receiver.",
        "params": {
          "harvestFeeReceiver_": "The new harvest fees receiver."
        }
      },
      "setHarvestWindow(uint128)": {
        "details": "The Vault's harvestDelay must already be set before calling.",
        "notice": "Set a new harvest window.",
        "params": {
          "newHarvestWindow": "The new harvest window."
        }
      },
      "setWithdrawalQueue(address[])": {
        "details": "There are no sanity checks on the `newQueue` argument so they should be done off-chain.",
        "notice": "Set the withdrawal queue.",
        "params": {
          "newQueue": "The new withdrawal queue."
        }
      },
      "symbol()": {
        "details": "Returns the symbol of the token, usually a shorter version of the name."
      },
      "totalFloat()": {
        "notice": "Returns the amount of underlying tokens that idly sit in the Vault.",
        "returns": {
          "_0": "The amount of underlying tokens that sit idly in the Vault."
        }
      },
      "totalStrategyHoldings()": {
        "notice": "The total amount of underlying tokens held in strategies at the time of the last harvest."
      },
      "totalSupply()": {
        "details": "See {IERC20-totalSupply}."
      },
      "totalUnderlying()": {
        "notice": "Calculates the total amount of underlying tokens the Vault holds.",
        "returns": {
          "_0": "totalUnderlyingHeld The total amount of underlying tokens the Vault holds."
        }
      },
      "transfer(address,uint256)": {
        "details": "See {IERC20-transfer}. Requirements: - `recipient` cannot be the zero address. - the caller must have a balance of at least `amount`."
      },
      "transferFrom(address,address,uint256)": {
        "details": "See {IERC20-transferFrom}. Emits an {Approval} event indicating the updated allowance. This is not required by the EIP. See the note at the beginning of {ERC20}. Requirements: - `sender` and `recipient` cannot be the zero address. - `sender` must have a balance of at least `amount`. - the caller must have allowance for ``sender``'s tokens of at least `amount`."
      },
      "triggerPause()": {
        "details": "Only owner can call this method.",
        "notice": "Triggers the Vault's pause"
      },
      "trustStrategy(address)": {
        "notice": "Store a strategy as trusted, enabling it to be harvested.",
        "params": {
          "strategy": "The strategy to make trusted."
        }
      },
      "underlying()": {
        "notice": "The underlying token the vault accepts."
      },
      "underlyingDecimals()": {
        "notice": "The underlying token decimals."
      },
      "userBatchBurnReceipts(address)": {
        "notice": "Maps user's address to withdrawal request."
      },
      "userDepositLimit()": {
        "notice": "Amount of shares a single address can hold."
      },
      "vaultDepositLimit()": {
        "notice": "Amount of underlying cap for this vault."
      },
      "withdrawFromStrategy(address,uint256)": {
        "details": "Withdrawing from a strategy will not remove it from the withdrawal queue.",
        "notice": "Withdraw a specific amount of underlying tokens from a strategy.",
        "params": {
          "strategy": "The strategy to withdraw from.",
          "underlyingAmount": "The amount of underlying tokens to withdraw."
        }
      },
      "withdrawalQueue(uint256)": {
        "notice": "An ordered array of strategies representing the withdrawal queue."
      }
    },
    "notice": "A vault seeking for yield.",
    "stateVariables": {
      "baseUnit": {
        "details": "Equal to 10 ** underlyingDecimals. Used for fixed point arithmetic."
      },
      "burningFeePercent": {
        "details": "A fixed point number where 1e18 represents 100% and 0 represents 0%."
      },
      "harvestDelay": {
        "details": "Cannot be 0 as it opens harvests up to sandwich attacks."
      },
      "harvestFeePercent": {
        "details": "A fixed point number where 1e18 represents 100% and 0 represents 0%."
      },
      "harvestWindow": {
        "details": "Long harvest delays open up the Vault to profit distribution DOS attacks."
      },
      "lastHarvestWindowStart": {
        "details": "May be equal to lastHarvest if there was/has only been one harvest in the most last/current window."
      },
      "nextHarvestDelay": {
        "details": "In the case that the next delay is 0, no update will be applied."
      },
      "totalStrategyHoldings": {
        "details": "Includes maxLockedProfit, must be correctly subtracted to compute available/free holdings."
      },
      "withdrawalQueue": {
        "details": "The queue is processed in descending order, meaning the last index will be withdrawn from first.There are not sanity checks on the withdrawal queue, so any control should be done off-chain."
      }
    },
    "title": "Vault",
    "version": 1
  },
  "opcodes": "PUSH1 0x80 PUSH1 0x40 MSTORE CALLVALUE DUP1 ISZERO PUSH2 0x10 JUMPI PUSH1 0x0 DUP1 REVERT JUMPDEST POP PUSH1 0x4 CALLDATASIZE LT PUSH2 0x412 JUMPI PUSH1 0x0 CALLDATALOAD PUSH1 0xE0 SHR DUP1 PUSH4 0x7B72AEB9 GT PUSH2 0x220 JUMPI DUP1 PUSH4 0xC822ADDA GT PUSH2 0x130 JUMPI DUP1 PUSH4 0xE5FA2B70 GT PUSH2 0xB8 JUMPI DUP1 PUSH4 0xEED74E67 GT PUSH2 0x87 JUMPI DUP1 PUSH4 0xEED74E67 EQ PUSH2 0x951 JUMPI DUP1 PUSH4 0xF1A392DA EQ PUSH2 0x964 JUMPI DUP1 PUSH4 0xF8C8765E EQ PUSH2 0x97E JUMPI DUP1 PUSH4 0xF97D2ED7 EQ PUSH2 0x991 JUMPI DUP1 PUSH4 0xFFA1AD74 EQ PUSH2 0x9A4 JUMPI PUSH1 0x0 DUP1 REVERT JUMPDEST DUP1 PUSH4 0xE5FA2B70 EQ PUSH2 0x90F JUMPI DUP1 PUSH4 0xEC523AFD EQ PUSH2 0x922 JUMPI DUP1 PUSH4 0xECAD9565 EQ PUSH2 0x935 JUMPI DUP1 PUSH4 0xECC404B5 EQ PUSH2 0x93E JUMPI PUSH1 0x0 DUP1 REVERT JUMPDEST DUP1 PUSH4 0xD00364BE GT PUSH2 0xFF JUMPI DUP1 PUSH4 0xD00364BE EQ PUSH2 0x875 JUMPI DUP1 PUSH4 0xDD11DD45 EQ PUSH2 0x8A7 JUMPI DUP1 PUSH4 0xDD62ED3E EQ PUSH2 0x8BA JUMPI DUP1 PUSH4 0xDE9375F2 EQ PUSH2 0x8F3 JUMPI DUP1 PUSH4 0xE33CC0A8 EQ PUSH2 0x906 JUMPI PUSH1 0x0 DUP1 REVERT JUMPDEST DUP1 PUSH4 0xC822ADDA EQ PUSH2 0x829 JUMPI DUP1 PUSH4 0xC866983B EQ PUSH2 0x83C JUMPI DUP1 PUSH4 0xC89D3460 EQ PUSH2 0x84F JUMPI DUP1 PUSH4 0xCBC43F89 EQ PUSH2 0x862 JUMPI PUSH1 0x0 DUP1 REVERT JUMPDEST DUP1 PUSH4 0xA385FB96 GT PUSH2 0x1B3 JUMPI DUP1 PUSH4 0xAC86AC72 GT PUSH2 0x182 JUMPI DUP1 PUSH4 0xAC86AC72 EQ PUSH2 0x7DF JUMPI DUP1 PUSH4 0xB53D0958 EQ PUSH2 0x7F2 JUMPI DUP1 PUSH4 0xBDF06C8E EQ PUSH2 0x805 JUMPI DUP1 PUSH4 0xC2930F91 EQ PUSH2 0x818 JUMPI DUP1 PUSH4 0xC70920BC EQ PUSH2 0x821 JUMPI PUSH1 0x0 DUP1 REVERT JUMPDEST DUP1 PUSH4 0xA385FB96 EQ PUSH2 0x79D JUMPI DUP1 PUSH4 0xA457C2D7 EQ PUSH2 0x7A6 JUMPI DUP1 PUSH4 0xA9059CBB EQ PUSH2 0x7B9 JUMPI DUP1 PUSH4 0xAC579B77 EQ PUSH2 0x7CC JUMPI PUSH1 0x0 DUP1 REVERT JUMPDEST DUP1 PUSH4 0x912F74CD GT PUSH2 0x1EF JUMPI DUP1 PUSH4 0x912F74CD EQ PUSH2 0x75C JUMPI DUP1 PUSH4 0x9291DF6B EQ PUSH2 0x783 JUMPI DUP1 PUSH4 0x95D89B41 EQ PUSH2 0x78C JUMPI DUP1 PUSH4 0x9EE02C7F EQ PUSH2 0x794 JUMPI PUSH1 0x0 DUP1 REVERT JUMPDEST DUP1 PUSH4 0x7B72AEB9 EQ PUSH2 0x72F JUMPI DUP1 PUSH4 0x836CA0F6 EQ PUSH2 0x742 JUMPI DUP1 PUSH4 0x841219E5 EQ PUSH2 0x74B JUMPI DUP1 PUSH4 0x86DC4800 EQ PUSH2 0x753 JUMPI PUSH1 0x0 DUP1 REVERT JUMPDEST DUP1 PUSH4 0x39509351 GT PUSH2 0x326 JUMPI DUP1 PUSH4 0x5C975ABB GT PUSH2 0x2AE JUMPI DUP1 PUSH4 0x6BD95612 GT PUSH2 0x27D JUMPI DUP1 PUSH4 0x6BD95612 EQ PUSH2 0x6B0 JUMPI DUP1 PUSH4 0x6F307DC3 EQ PUSH2 0x6B9 JUMPI DUP1 PUSH4 0x70A08231 EQ PUSH2 0x6E4 JUMPI DUP1 PUSH4 0x793101A5 EQ PUSH2 0x70D JUMPI DUP1 PUSH4 0x797BA463 EQ PUSH2 0x715 JUMPI PUSH1 0x0 DUP1 REVERT JUMPDEST DUP1 PUSH4 0x5C975ABB EQ PUSH2 0x68B JUMPI DUP1 PUSH4 0x5E4F9451 EQ PUSH2 0x696 JUMPI DUP1 PUSH4 0x63874446 EQ PUSH2 0x69F JUMPI DUP1 PUSH4 0x6833F60D EQ PUSH2 0x6A8 JUMPI PUSH1 0x0 DUP1 REVERT JUMPDEST DUP1 PUSH4 0x3EC16194 GT PUSH2 0x2F5 JUMPI DUP1 PUSH4 0x3EC16194 EQ PUSH2 0x618 JUMPI DUP1 PUSH4 0x448F56B9 EQ PUSH2 0x62B JUMPI DUP1 PUSH4 0x44B81396 EQ PUSH2 0x65D JUMPI DUP1 PUSH4 0x47E7EF24 EQ PUSH2 0x665 JUMPI DUP1 PUSH4 0x4EDDEA06 EQ PUSH2 0x678 JUMPI PUSH1 0x0 DUP1 REVERT JUMPDEST DUP1 PUSH4 0x39509351 EQ PUSH2 0x5D7 JUMPI DUP1 PUSH4 0x3AF9E669 EQ PUSH2 0x5EA JUMPI DUP1 PUSH4 0x3BA0B9A9 EQ PUSH2 0x5FD JUMPI DUP1 PUSH4 0x3C66A8FA EQ PUSH2 0x605 JUMPI PUSH1 0x0 DUP1 REVERT JUMPDEST DUP1 PUSH4 0x1BBA16DB GT PUSH2 0x3A9 JUMPI DUP1 PUSH4 0x2968676E GT PUSH2 0x378 JUMPI DUP1 PUSH4 0x2968676E EQ PUSH2 0x544 JUMPI DUP1 PUSH4 0x2B2E05C1 EQ PUSH2 0x596 JUMPI DUP1 PUSH4 0x305D61AE EQ PUSH2 0x5A9 JUMPI DUP1 PUSH4 0x31024F3B EQ PUSH2 0x5BC JUMPI DUP1 PUSH4 0x313CE567 EQ PUSH2 0x5C5 JUMPI PUSH1 0x0 DUP1 REVERT JUMPDEST DUP1 PUSH4 0x1BBA16DB EQ PUSH2 0x4FA JUMPI DUP1 PUSH4 0x1EC36BFA EQ PUSH2 0x502 JUMPI DUP1 PUSH4 0x23B872DD EQ PUSH2 0x50B JUMPI DUP1 PUSH4 0x25A760C2 EQ PUSH2 0x51E JUMPI PUSH1 0x0 DUP1 REVERT JUMPDEST DUP1 PUSH4 0x11E57A3E GT PUSH2 0x3E5 JUMPI DUP1 PUSH4 0x11E57A3E EQ PUSH2 0x482 JUMPI DUP1 PUSH4 0x13E86B28 EQ PUSH2 0x4A3 JUMPI DUP1 PUSH4 0x14FBAE04 EQ PUSH2 0x4B6 JUMPI DUP1 PUSH4 0x18160DDD EQ PUSH2 0x4F2 JUMPI PUSH1 0x0 DUP1 REVERT JUMPDEST DUP1 PUSH4 0x6FDDE03 EQ PUSH2 0x417 JUMPI DUP1 PUSH4 0x7B35D1D EQ PUSH2 0x435 JUMPI DUP1 PUSH4 0x95EA7B3 EQ PUSH2 0x44A JUMPI DUP1 PUSH4 0xE73ECEF EQ PUSH2 0x46D JUMPI JUMPDEST PUSH1 0x0 DUP1 REVERT JUMPDEST PUSH2 0x41F PUSH2 0x9C6 JUMP JUMPDEST PUSH1 0x40 MLOAD PUSH2 0x42C SWAP2 SWAP1 PUSH2 0x4286 JUMP JUMPDEST PUSH1 0x40 MLOAD DUP1 SWAP2 SUB SWAP1 RETURN JUMPDEST PUSH2 0x448 PUSH2 0x443 CALLDATASIZE PUSH1 0x4 PUSH2 0x42B9 JUMP JUMPDEST PUSH2 0xA58 JUMP JUMPDEST STOP JUMPDEST PUSH2 0x45D PUSH2 0x458 CALLDATASIZE PUSH1 0x4 PUSH2 0x42F7 JUMP JUMPDEST PUSH2 0xBD2 JUMP JUMPDEST PUSH1 0x40 MLOAD SWAP1 ISZERO ISZERO DUP2 MSTORE PUSH1 0x20 ADD PUSH2 0x42C JUMP JUMPDEST PUSH2 0x475 PUSH2 0xBE9 JUMP JUMPDEST PUSH1 0x40 MLOAD PUSH2 0x42C SWAP2 SWAP1 PUSH2 0x4323 JUMP JUMPDEST PUSH2 0x495 PUSH2 0x490 CALLDATASIZE PUSH1 0x4 PUSH2 0x4370 JUMP JUMPDEST PUSH2 0xC4A JUMP JUMPDEST PUSH1 0x40 MLOAD SWAP1 DUP2 MSTORE PUSH1 0x20 ADD PUSH2 0x42C JUMP JUMPDEST PUSH2 0x448 PUSH2 0x4B1 CALLDATASIZE PUSH1 0x4 PUSH2 0x4389 JUMP JUMPDEST PUSH2 0xC62 JUMP JUMPDEST PUSH2 0x4DD PUSH2 0x4C4 CALLDATASIZE PUSH1 0x4 PUSH2 0x4370 JUMP JUMPDEST PUSH1 0xAA PUSH1 0x20 MSTORE PUSH1 0x0 SWAP1 DUP2 MSTORE PUSH1 0x40 SWAP1 KECCAK256 DUP1 SLOAD PUSH1 0x1 SWAP1 SWAP2 ADD SLOAD DUP3 JUMP JUMPDEST PUSH1 0x40 DUP1 MLOAD SWAP3 DUP4 MSTORE PUSH1 0x20 DUP4 ADD SWAP2 SWAP1 SWAP2 MSTORE ADD PUSH2 0x42C JUMP JUMPDEST PUSH1 0x35 SLOAD PUSH2 0x495 JUMP JUMPDEST PUSH2 0x448 PUSH2 0xD4A JUMP JUMPDEST PUSH2 0x495 PUSH1 0xAB SLOAD DUP2 JUMP JUMPDEST PUSH2 0x45D PUSH2 0x519 CALLDATASIZE PUSH1 0x4 PUSH2 0x43A6 JUMP JUMPDEST PUSH2 0x1058 JUMP JUMPDEST PUSH1 0x99 SLOAD PUSH2 0x532 SWAP1 PUSH1 0x1 PUSH1 0xA0 SHL SWAP1 DIV PUSH1 0xFF AND DUP2 JUMP JUMPDEST PUSH1 0x40 MLOAD PUSH1 0xFF SWAP1 SWAP2 AND DUP2 MSTORE PUSH1 0x20 ADD PUSH2 0x42C JUMP JUMPDEST PUSH2 0x577 PUSH2 0x552 CALLDATASIZE PUSH1 0x4 PUSH2 0x4389 JUMP JUMPDEST PUSH1 0xA1 PUSH1 0x20 MSTORE PUSH1 0x0 SWAP1 DUP2 MSTORE PUSH1 0x40 SWAP1 KECCAK256 SLOAD PUSH1 0xFF DUP2 AND SWAP1 PUSH2 0x100 SWAP1 DIV PUSH1 0x1 PUSH1 0x1 PUSH1 0xF8 SHL SUB AND DUP3 JUMP JUMPDEST PUSH1 0x40 DUP1 MLOAD SWAP3 ISZERO ISZERO DUP4 MSTORE PUSH1 0x1 PUSH1 0x1 PUSH1 0xF8 SHL SUB SWAP1 SWAP2 AND PUSH1 0x20 DUP4 ADD MSTORE ADD PUSH2 0x42C JUMP JUMPDEST PUSH2 0x448 PUSH2 0x5A4 CALLDATASIZE PUSH1 0x4 PUSH2 0x4389 JUMP JUMPDEST PUSH2 0x1104 JUMP JUMPDEST PUSH2 0x448 PUSH2 0x5B7 CALLDATASIZE PUSH1 0x4 PUSH2 0x4370 JUMP JUMPDEST PUSH2 0x11EF JUMP JUMPDEST PUSH2 0x495 PUSH1 0x9D SLOAD DUP2 JUMP JUMPDEST PUSH1 0x99 SLOAD PUSH1 0x1 PUSH1 0xA0 SHL SWAP1 DIV PUSH1 0xFF AND PUSH2 0x532 JUMP JUMPDEST PUSH2 0x45D PUSH2 0x5E5 CALLDATASIZE PUSH1 0x4 PUSH2 0x42F7 JUMP JUMPDEST PUSH2 0x132B JUMP JUMPDEST PUSH2 0x495 PUSH2 0x5F8 CALLDATASIZE PUSH1 0x4 PUSH2 0x4389 JUMP JUMPDEST PUSH2 0x1367 JUMP JUMPDEST PUSH2 0x495 PUSH2 0x1389 JUMP JUMPDEST PUSH2 0x448 PUSH2 0x613 CALLDATASIZE PUSH1 0x4 PUSH2 0x4370 JUMP JUMPDEST PUSH2 0x13C0 JUMP JUMPDEST PUSH2 0x495 PUSH2 0x626 CALLDATASIZE PUSH1 0x4 PUSH2 0x4370 JUMP JUMPDEST PUSH2 0x14E0 JUMP JUMPDEST PUSH1 0x9F SLOAD PUSH2 0x645 SWAP1 PUSH1 0x1 PUSH1 0x80 SHL SWAP1 DIV PUSH1 0x1 PUSH1 0x1 PUSH1 0x40 SHL SUB AND DUP2 JUMP JUMPDEST PUSH1 0x40 MLOAD PUSH1 0x1 PUSH1 0x1 PUSH1 0x40 SHL SUB SWAP1 SWAP2 AND DUP2 MSTORE PUSH1 0x20 ADD PUSH2 0x42C JUMP JUMPDEST PUSH2 0x495 PUSH2 0x14F8 JUMP JUMPDEST PUSH2 0x495 PUSH2 0x673 CALLDATASIZE PUSH1 0x4 PUSH2 0x42F7 JUMP JUMPDEST PUSH2 0x1579 JUMP JUMPDEST PUSH2 0x448 PUSH2 0x686 CALLDATASIZE PUSH1 0x4 PUSH2 0x43E7 JUMP JUMPDEST PUSH2 0x1637 JUMP JUMPDEST PUSH1 0x65 SLOAD PUSH1 0xFF AND PUSH2 0x45D JUMP JUMPDEST PUSH2 0x495 PUSH1 0xA2 SLOAD DUP2 JUMP JUMPDEST PUSH2 0x495 PUSH1 0xAC SLOAD DUP2 JUMP JUMPDEST PUSH2 0x448 PUSH2 0x171D JUMP JUMPDEST PUSH2 0x495 PUSH1 0xA7 SLOAD DUP2 JUMP JUMPDEST PUSH1 0x99 SLOAD PUSH2 0x6CC SWAP1 PUSH1 0x1 PUSH1 0x1 PUSH1 0xA0 SHL SUB AND DUP2 JUMP JUMPDEST PUSH1 0x40 MLOAD PUSH1 0x1 PUSH1 0x1 PUSH1 0xA0 SHL SUB SWAP1 SWAP2 AND DUP2 MSTORE PUSH1 0x20 ADD PUSH2 0x42C JUMP JUMPDEST PUSH2 0x495 PUSH2 0x6F2 CALLDATASIZE PUSH1 0x4 PUSH2 0x4389 JUMP JUMPDEST PUSH1 0x1 PUSH1 0x1 PUSH1 0xA0 SHL SUB AND PUSH1 0x0 SWAP1 DUP2 MSTORE PUSH1 0x33 PUSH1 0x20 MSTORE PUSH1 0x40 SWAP1 KECCAK256 SLOAD SWAP1 JUMP JUMPDEST PUSH2 0x448 PUSH2 0x17D7 JUMP JUMPDEST PUSH1 0x9F SLOAD PUSH2 0x645 SWAP1 PUSH1 0x1 PUSH1 0xC0 SHL SWAP1 DIV PUSH1 0x1 PUSH1 0x1 PUSH1 0x40 SHL SUB AND DUP2 JUMP JUMPDEST PUSH2 0x448 PUSH2 0x73D CALLDATASIZE PUSH1 0x4 PUSH2 0x4409 JUMP JUMPDEST PUSH2 0x194E JUMP JUMPDEST PUSH2 0x495 PUSH1 0xA3 SLOAD DUP2 JUMP JUMPDEST PUSH2 0x495 PUSH2 0x1B7D JUMP JUMPDEST PUSH2 0x495 PUSH1 0xA8 SLOAD DUP2 JUMP JUMPDEST PUSH2 0x4DD PUSH2 0x76A CALLDATASIZE PUSH1 0x4 PUSH2 0x4389 JUMP JUMPDEST PUSH1 0xA9 PUSH1 0x20 MSTORE PUSH1 0x0 SWAP1 DUP2 MSTORE PUSH1 0x40 SWAP1 KECCAK256 DUP1 SLOAD PUSH1 0x1 SWAP1 SWAP2 ADD SLOAD DUP3 JUMP JUMPDEST PUSH2 0x495 PUSH1 0xA4 SLOAD DUP2 JUMP JUMPDEST PUSH2 0x41F PUSH2 0x1BFD JUMP JUMPDEST PUSH2 0x495 PUSH1 0xAD SLOAD DUP2 JUMP JUMPDEST PUSH2 0x495 PUSH1 0x97 SLOAD DUP2 JUMP JUMPDEST PUSH2 0x45D PUSH2 0x7B4 CALLDATASIZE PUSH1 0x4 PUSH2 0x42F7 JUMP JUMPDEST PUSH2 0x1C0C JUMP JUMPDEST PUSH2 0x45D PUSH2 0x7C7 CALLDATASIZE PUSH1 0x4 PUSH2 0x42F7 JUMP JUMPDEST PUSH2 0x1CA5 JUMP JUMPDEST PUSH2 0x448 PUSH2 0x7DA CALLDATASIZE PUSH1 0x4 PUSH2 0x4432 JUMP JUMPDEST PUSH2 0x1CB2 JUMP JUMPDEST PUSH2 0x448 PUSH2 0x7ED CALLDATASIZE PUSH1 0x4 PUSH2 0x4389 JUMP JUMPDEST PUSH2 0x1DE8 JUMP JUMPDEST PUSH2 0x448 PUSH2 0x800 CALLDATASIZE PUSH1 0x4 PUSH2 0x42F7 JUMP JUMPDEST PUSH2 0x1ED0 JUMP JUMPDEST PUSH2 0x448 PUSH2 0x813 CALLDATASIZE PUSH1 0x4 PUSH2 0x42F7 JUMP JUMPDEST PUSH2 0x21CD JUMP JUMPDEST PUSH2 0x495 PUSH1 0x9A SLOAD DUP2 JUMP JUMPDEST PUSH2 0x495 PUSH2 0x24DC JUMP JUMPDEST PUSH2 0x6CC PUSH2 0x837 CALLDATASIZE PUSH1 0x4 PUSH2 0x4370 JUMP JUMPDEST PUSH2 0x2505 JUMP JUMPDEST PUSH2 0x448 PUSH2 0x84A CALLDATASIZE PUSH1 0x4 PUSH2 0x4389 JUMP JUMPDEST PUSH2 0x252F JUMP JUMPDEST PUSH2 0x448 PUSH2 0x85D CALLDATASIZE PUSH1 0x4 PUSH2 0x4432 JUMP JUMPDEST PUSH2 0x2616 JUMP JUMPDEST PUSH2 0x448 PUSH2 0x870 CALLDATASIZE PUSH1 0x4 PUSH2 0x4370 JUMP JUMPDEST PUSH2 0x2B2D JUMP JUMPDEST PUSH1 0xA5 SLOAD PUSH2 0x88F SWAP1 PUSH1 0x1 PUSH1 0x80 SHL SWAP1 DIV PUSH1 0x1 PUSH1 0x1 PUSH1 0x80 SHL SUB AND DUP2 JUMP JUMPDEST PUSH1 0x40 MLOAD PUSH1 0x1 PUSH1 0x1 PUSH1 0x80 SHL SUB SWAP1 SWAP2 AND DUP2 MSTORE PUSH1 0x20 ADD PUSH2 0x42C JUMP JUMPDEST PUSH1 0x9E SLOAD PUSH2 0x6CC SWAP1 PUSH1 0x1 PUSH1 0x1 PUSH1 0xA0 SHL SUB AND DUP2 JUMP JUMPDEST PUSH2 0x495 PUSH2 0x8C8 CALLDATASIZE PUSH1 0x4 PUSH2 0x44A6 JUMP JUMPDEST PUSH1 0x1 PUSH1 0x1 PUSH1 0xA0 SHL SUB SWAP2 DUP3 AND PUSH1 0x0 SWAP1 DUP2 MSTORE PUSH1 0x34 PUSH1 0x20 SWAP1 DUP2 MSTORE PUSH1 0x40 DUP1 DUP4 KECCAK256 SWAP4 SWAP1 SWAP5 AND DUP3 MSTORE SWAP2 SWAP1 SWAP2 MSTORE KECCAK256 SLOAD SWAP1 JUMP JUMPDEST PUSH1 0x98 SLOAD PUSH2 0x6CC SWAP1 PUSH1 0x1 PUSH1 0x1 PUSH1 0xA0 SHL SUB AND DUP2 JUMP JUMPDEST PUSH2 0x495 PUSH1 0x9B SLOAD DUP2 JUMP JUMPDEST PUSH2 0x448 PUSH2 0x91D CALLDATASIZE PUSH1 0x4 PUSH2 0x4370 JUMP JUMPDEST PUSH2 0x2C62 JUMP JUMPDEST PUSH2 0x448 PUSH2 0x930 CALLDATASIZE PUSH1 0x4 PUSH2 0x4389 JUMP JUMPDEST PUSH2 0x2D05 JUMP JUMPDEST PUSH2 0x495 PUSH1 0xA0 SLOAD DUP2 JUMP JUMPDEST PUSH1 0x9C SLOAD PUSH2 0x6CC SWAP1 PUSH1 0x1 PUSH1 0x1 PUSH1 0xA0 SHL SUB AND DUP2 JUMP JUMPDEST PUSH1 0xA5 SLOAD PUSH2 0x645 SWAP1 PUSH1 0x1 PUSH1 0x1 PUSH1 0x40 SHL SUB AND DUP2 JUMP JUMPDEST PUSH1 0xA5 SLOAD PUSH2 0x645 SWAP1 PUSH1 0x1 PUSH1 0x40 SHL SWAP1 DIV PUSH1 0x1 PUSH1 0x1 PUSH1 0x40 SHL SUB AND DUP2 JUMP JUMPDEST PUSH2 0x448 PUSH2 0x98C CALLDATASIZE PUSH1 0x4 PUSH2 0x44DF JUMP JUMPDEST PUSH2 0x2EB5 JUMP JUMPDEST PUSH1 0x9F SLOAD PUSH2 0x88F SWAP1 PUSH1 0x1 PUSH1 0x1 PUSH1 0x80 SHL SUB AND DUP2 JUMP JUMPDEST PUSH2 0x41F PUSH1 0x40 MLOAD DUP1 PUSH1 0x40 ADD PUSH1 0x40 MSTORE DUP1 PUSH1 0x3 DUP2 MSTORE PUSH1 0x20 ADD PUSH3 0x181719 PUSH1 0xE9 SHL DUP2 MSTORE POP DUP2 JUMP JUMPDEST PUSH1 0x60 PUSH1 0x36 DUP1 SLOAD PUSH2 0x9D5 SWAP1 PUSH2 0x453B JUMP JUMPDEST DUP1 PUSH1 0x1F ADD PUSH1 0x20 DUP1 SWAP2 DIV MUL PUSH1 0x20 ADD PUSH1 0x40 MLOAD SWAP1 DUP2 ADD PUSH1 0x40 MSTORE DUP1 SWAP3 SWAP2 SWAP1 DUP2 DUP2 MSTORE PUSH1 0x20 ADD DUP3 DUP1 SLOAD PUSH2 0xA01 SWAP1 PUSH2 0x453B JUMP JUMPDEST DUP1 ISZERO PUSH2 0xA4E JUMPI DUP1 PUSH1 0x1F LT PUSH2 0xA23 JUMPI PUSH2 0x100 DUP1 DUP4 SLOAD DIV MUL DUP4 MSTORE SWAP2 PUSH1 0x20 ADD SWAP2 PUSH2 0xA4E JUMP JUMPDEST DUP3 ADD SWAP2 SWAP1 PUSH1 0x0 MSTORE PUSH1 0x20 PUSH1 0x0 KECCAK256 SWAP1 JUMPDEST DUP2 SLOAD DUP2 MSTORE SWAP1 PUSH1 0x1 ADD SWAP1 PUSH1 0x20 ADD DUP1 DUP4 GT PUSH2 0xA31 JUMPI DUP3 SWAP1 SUB PUSH1 0x1F AND DUP3 ADD SWAP2 JUMPDEST POP POP POP POP POP SWAP1 POP SWAP1 JUMP JUMPDEST PUSH1 0x98 SLOAD PUSH1 0x40 MLOAD PUSH4 0xB7009613 PUSH1 0xE0 SHL DUP2 MSTORE CALLER SWAP2 PUSH1 0x1 PUSH1 0x1 PUSH1 0xA0 SHL SUB AND SWAP1 PUSH4 0xB7009613 SWAP1 PUSH2 0xA98 SWAP1 DUP5 SWAP1 ADDRESS SWAP1 PUSH1 0x1 PUSH1 0x1 PUSH1 0xE0 SHL SUB NOT PUSH1 0x0 CALLDATALOAD AND SWAP1 PUSH1 0x4 ADD PUSH2 0x4576 JUMP JUMPDEST PUSH1 0x20 PUSH1 0x40 MLOAD DUP1 DUP4 SUB DUP2 DUP7 GAS STATICCALL ISZERO DUP1 ISZERO PUSH2 0xAB5 JUMPI RETURNDATASIZE PUSH1 0x0 DUP1 RETURNDATACOPY RETURNDATASIZE PUSH1 0x0 REVERT JUMPDEST POP POP POP POP PUSH1 0x40 MLOAD RETURNDATASIZE PUSH1 0x1F NOT PUSH1 0x1F DUP3 ADD AND DUP3 ADD DUP1 PUSH1 0x40 MSTORE POP DUP2 ADD SWAP1 PUSH2 0xAD9 SWAP2 SWAP1 PUSH2 0x45A3 JUMP JUMPDEST PUSH2 0xAFE JUMPI PUSH1 0x40 MLOAD PUSH3 0x461BCD PUSH1 0xE5 SHL DUP2 MSTORE PUSH1 0x4 ADD PUSH2 0xAF5 SWAP1 PUSH2 0x45C5 JUMP JUMPDEST PUSH1 0x40 MLOAD DUP1 SWAP2 SUB SWAP1 REVERT JUMPDEST PUSH1 0x9F SLOAD PUSH1 0x1 PUSH1 0x80 SHL SWAP1 DIV PUSH1 0x1 PUSH1 0x1 PUSH1 0x40 SHL SUB AND PUSH1 0x1 PUSH1 0x1 PUSH1 0x80 SHL SUB DUP4 AND GT ISZERO PUSH2 0xB73 JUMPI PUSH1 0x40 MLOAD PUSH3 0x461BCD PUSH1 0xE5 SHL DUP2 MSTORE PUSH1 0x20 PUSH1 0x4 DUP3 ADD MSTORE PUSH1 0x21 PUSH1 0x24 DUP3 ADD MSTORE PUSH32 0x7365744861727665737457696E646F773A3A57494E444F575F544F4F5F4C4F4E PUSH1 0x44 DUP3 ADD MSTORE PUSH1 0x47 PUSH1 0xF8 SHL PUSH1 0x64 DUP3 ADD MSTORE PUSH1 0x84 ADD PUSH2 0xAF5 JUMP JUMPDEST PUSH1 0x9F DUP1 SLOAD PUSH16 0xFFFFFFFFFFFFFFFFFFFFFFFFFFFFFFFF NOT AND PUSH1 0x1 PUSH1 0x1 PUSH1 0x80 SHL SUB DUP5 AND SWAP1 DUP2 OR SWAP1 SWAP2 SSTORE PUSH1 0x40 MLOAD SWAP1 DUP2 MSTORE PUSH32 0xE5AAC860870A2B99320DF1D1B908931B370150F1C11074466FB332528E5B910B SWAP1 PUSH1 0x20 ADD JUMPDEST PUSH1 0x40 MLOAD DUP1 SWAP2 SUB SWAP1 LOG1 POP POP JUMP JUMPDEST PUSH1 0x0 PUSH2 0xBDF CALLER DUP5 DUP5 PUSH2 0x3098 JUMP JUMPDEST POP PUSH1 0x1 JUMPDEST SWAP3 SWAP2 POP POP JUMP JUMPDEST PUSH1 0x60 PUSH1 0xA6 DUP1 SLOAD DUP1 PUSH1 0x20 MUL PUSH1 0x20 ADD PUSH1 0x40 MLOAD SWAP1 DUP2 ADD PUSH1 0x40 MSTORE DUP1 SWAP3 SWAP2 SWAP1 DUP2 DUP2 MSTORE PUSH1 0x20 ADD DUP3 DUP1 SLOAD DUP1 ISZERO PUSH2 0xA4E JUMPI PUSH1 0x20 MUL DUP3 ADD SWAP2 SWAP1 PUSH1 0x0 MSTORE PUSH1 0x20 PUSH1 0x0 KECCAK256 SWAP1 JUMPDEST DUP2 SLOAD PUSH1 0x1 PUSH1 0x1 PUSH1 0xA0 SHL SUB AND DUP2 MSTORE PUSH1 0x1 SWAP1 SWAP2 ADD SWAP1 PUSH1 0x20 ADD DUP1 DUP4 GT PUSH2 0xC23 JUMPI POP POP POP POP POP SWAP1 POP SWAP1 JUMP JUMPDEST PUSH1 0x0 PUSH2 0xBE3 PUSH2 0xC57 PUSH2 0x1389 JUMP JUMPDEST PUSH1 0x9A SLOAD DUP5 SWAP2 SWAP1 PUSH2 0x31B4 JUMP JUMPDEST PUSH1 0x98 SLOAD PUSH1 0x40 MLOAD PUSH4 0xB7009613 PUSH1 0xE0 SHL DUP2 MSTORE CALLER SWAP2 PUSH1 0x1 PUSH1 0x1 PUSH1 0xA0 SHL SUB AND SWAP1 PUSH4 0xB7009613 SWAP1 PUSH2 0xCA2 SWAP1 DUP5 SWAP1 ADDRESS SWAP1 PUSH1 0x1 PUSH1 0x1 PUSH1 0xE0 SHL SUB NOT PUSH1 0x0 CALLDATALOAD AND SWAP1 PUSH1 0x4 ADD PUSH2 0x4576 JUMP JUMPDEST PUSH1 0x20 PUSH1 0x40 MLOAD DUP1 DUP4 SUB DUP2 DUP7 GAS STATICCALL ISZERO DUP1 ISZERO PUSH2 0xCBF JUMPI RETURNDATASIZE PUSH1 0x0 DUP1 RETURNDATACOPY RETURNDATASIZE PUSH1 0x0 REVERT JUMPDEST POP POP POP POP PUSH1 0x40 MLOAD RETURNDATASIZE PUSH1 0x1F NOT PUSH1 0x1F DUP3 ADD AND DUP3 ADD DUP1 PUSH1 0x40 MSTORE POP DUP2 ADD SWAP1 PUSH2 0xCE3 SWAP2 SWAP1 PUSH2 0x45A3 JUMP JUMPDEST PUSH2 0xCFF JUMPI PUSH1 0x40 MLOAD PUSH3 0x461BCD PUSH1 0xE5 SHL DUP2 MSTORE PUSH1 0x4 ADD PUSH2 0xAF5 SWAP1 PUSH2 0x45C5 JUMP JUMPDEST PUSH1 0x9E DUP1 SLOAD PUSH1 0x1 PUSH1 0x1 PUSH1 0xA0 SHL SUB NOT AND PUSH1 0x1 PUSH1 0x1 PUSH1 0xA0 SHL SUB DUP5 AND SWAP1 DUP2 OR SWAP1 SWAP2 SSTORE PUSH1 0x40 MLOAD PUSH32 0xB5D8934A1F336D4CF641AE9F680C3E196F624F0BD9271749BE60D98B70F70060 SWAP1 PUSH1 0x0 SWAP1 LOG2 POP POP JUMP JUMPDEST PUSH1 0x98 SLOAD PUSH1 0x40 MLOAD PUSH4 0xB7009613 PUSH1 0xE0 SHL DUP2 MSTORE CALLER SWAP2 PUSH1 0x1 PUSH1 0x1 PUSH1 0xA0 SHL SUB AND SWAP1 PUSH4 0xB7009613 SWAP1 PUSH2 0xD8A SWAP1 DUP5 SWAP1 ADDRESS SWAP1 PUSH1 0x1 PUSH1 0x1 PUSH1 0xE0 SHL SUB NOT PUSH1 0x0 CALLDATALOAD AND SWAP1 PUSH1 0x4 ADD PUSH2 0x4576 JUMP JUMPDEST PUSH1 0x20 PUSH1 0x40 MLOAD DUP1 DUP4 SUB DUP2 DUP7 GAS STATICCALL ISZERO DUP1 ISZERO PUSH2 0xDA7 JUMPI RETURNDATASIZE PUSH1 0x0 DUP1 RETURNDATACOPY RETURNDATASIZE PUSH1 0x0 REVERT JUMPDEST POP POP POP POP PUSH1 0x40 MLOAD RETURNDATASIZE PUSH1 0x1F NOT PUSH1 0x1F DUP3 ADD AND DUP3 ADD DUP1 PUSH1 0x40 MSTORE POP DUP2 ADD SWAP1 PUSH2 0xDCB SWAP2 SWAP1 PUSH2 0x45A3 JUMP JUMPDEST PUSH2 0xDE7 JUMPI PUSH1 0x40 MLOAD PUSH3 0x461BCD PUSH1 0xE5 SHL DUP2 MSTORE PUSH1 0x4 ADD PUSH2 0xAF5 SWAP1 PUSH2 0x45C5 JUMP JUMPDEST PUSH1 0x9F SLOAD PUSH1 0xA5 SLOAD PUSH2 0xE11 SWAP2 PUSH1 0x1 PUSH1 0x1 PUSH1 0x40 SHL SUB PUSH1 0x1 PUSH1 0x80 SHL SWAP1 SWAP2 DIV DUP2 AND SWAP2 PUSH1 0x1 PUSH1 0x40 SHL SWAP1 DIV AND PUSH2 0x4601 JUMP JUMPDEST PUSH1 0x1 PUSH1 0x1 PUSH1 0x40 SHL SUB AND TIMESTAMP LT ISZERO PUSH2 0xE77 JUMPI PUSH1 0x40 MLOAD PUSH3 0x461BCD PUSH1 0xE5 SHL DUP2 MSTORE PUSH1 0x20 PUSH1 0x4 DUP3 ADD MSTORE PUSH1 0x25 PUSH1 0x24 DUP3 ADD MSTORE PUSH32 0x62617463684275726E3A3A4C41544553545F484152564553545F4E4F545F4558 PUSH1 0x44 DUP3 ADD MSTORE PUSH5 0x1412549151 PUSH1 0xDA SHL PUSH1 0x64 DUP3 ADD MSTORE PUSH1 0x84 ADD PUSH2 0xAF5 JUMP JUMPDEST PUSH1 0xA7 DUP1 SLOAD PUSH1 0x0 SWAP2 DUP3 PUSH2 0xE88 DUP4 PUSH2 0x462C JUMP JUMPDEST SWAP1 SWAP2 SSTORE POP PUSH1 0x0 DUP2 DUP2 MSTORE PUSH1 0xAA PUSH1 0x20 SWAP1 DUP2 MSTORE PUSH1 0x40 SWAP2 DUP3 SWAP1 KECCAK256 DUP3 MLOAD DUP1 DUP5 ADD SWAP1 SWAP4 MSTORE DUP1 SLOAD DUP1 DUP5 MSTORE PUSH1 0x1 SWAP1 SWAP2 ADD SLOAD SWAP2 DUP4 ADD SWAP2 SWAP1 SWAP2 MSTORE SWAP2 SWAP3 POP SWAP1 DUP1 PUSH2 0xF18 JUMPI PUSH1 0x40 MLOAD PUSH3 0x461BCD PUSH1 0xE5 SHL DUP2 MSTORE PUSH1 0x20 PUSH1 0x4 DUP3 ADD MSTORE PUSH1 0x26 PUSH1 0x24 DUP3 ADD MSTORE PUSH32 0x62617463684275726E3A3A544F54414C5F5348415245535F43414E4E4F545F42 PUSH1 0x44 DUP3 ADD MSTORE PUSH6 0x455F5A45524F PUSH1 0xD0 SHL PUSH1 0x64 DUP3 ADD MSTORE PUSH1 0x84 ADD PUSH2 0xAF5 JUMP JUMPDEST PUSH1 0x0 PUSH2 0xF25 PUSH2 0xC57 PUSH2 0x1389 JUMP JUMPDEST SWAP1 POP PUSH2 0xF2F PUSH2 0x1B7D JUMP JUMPDEST DUP2 GT ISZERO PUSH2 0xF7E JUMPI PUSH1 0x40 MLOAD PUSH3 0x461BCD PUSH1 0xE5 SHL DUP2 MSTORE PUSH1 0x20 PUSH1 0x4 DUP3 ADD DUP2 SWAP1 MSTORE PUSH1 0x24 DUP3 ADD MSTORE PUSH32 0x62617463684275726E3A3A4E4F545F454E4F5547485F554E4445524C59494E47 PUSH1 0x44 DUP3 ADD MSTORE PUSH1 0x64 ADD PUSH2 0xAF5 JUMP JUMPDEST PUSH2 0xF88 ADDRESS DUP4 PUSH2 0x31CF JUMP JUMPDEST PUSH1 0x9D SLOAD ISZERO PUSH2 0xFD8 JUMPI PUSH1 0x9D SLOAD PUSH1 0x0 SWAP1 PUSH2 0xFAA SWAP1 DUP4 SWAP1 PUSH8 0xDE0B6B3A7640000 PUSH2 0x31B4 JUMP JUMPDEST SWAP1 POP PUSH2 0xFB6 DUP2 DUP4 PUSH2 0x4647 JUMP JUMPDEST PUSH1 0x9E SLOAD PUSH1 0x99 SLOAD SWAP2 SWAP4 POP PUSH2 0xFD6 SWAP2 PUSH1 0x1 PUSH1 0x1 PUSH1 0xA0 SHL SUB SWAP1 DUP2 AND SWAP2 AND DUP4 PUSH2 0x331D JUMP JUMPDEST POP JUMPDEST PUSH1 0x9A SLOAD PUSH2 0xFE8 SWAP1 DUP3 SWAP1 DUP5 SWAP1 PUSH2 0x3380 JUMP JUMPDEST PUSH1 0x0 DUP6 DUP2 MSTORE PUSH1 0xAA PUSH1 0x20 MSTORE PUSH1 0x40 DUP2 KECCAK256 PUSH1 0x1 ADD SWAP2 SWAP1 SWAP2 SSTORE PUSH1 0xA8 DUP1 SLOAD DUP4 SWAP3 SWAP1 PUSH2 0x100F SWAP1 DUP5 SWAP1 PUSH2 0x465E JUMP JUMPDEST SWAP1 SWAP2 SSTORE POP POP PUSH1 0x40 DUP1 MLOAD DUP4 DUP2 MSTORE PUSH1 0x20 DUP2 ADD DUP4 SWAP1 MSTORE CALLER SWAP2 DUP7 SWAP2 PUSH32 0x464420EE56151EE74D491D95CFA6B42D6C6504B38DEBC567F5532168243F1D8D SWAP2 ADD PUSH1 0x40 MLOAD DUP1 SWAP2 SUB SWAP1 LOG3 POP POP POP POP POP JUMP JUMPDEST PUSH1 0x0 PUSH2 0x1065 DUP5 DUP5 DUP5 PUSH2 0x33A2 JUMP JUMPDEST PUSH1 0x1 PUSH1 0x1 PUSH1 0xA0 SHL SUB DUP5 AND PUSH1 0x0 SWAP1 DUP2 MSTORE PUSH1 0x34 PUSH1 0x20 SWAP1 DUP2 MSTORE PUSH1 0x40 DUP1 DUP4 KECCAK256 CALLER DUP5 MSTORE SWAP1 SWAP2 MSTORE SWAP1 KECCAK256 SLOAD DUP3 DUP2 LT ISZERO PUSH2 0x10EA JUMPI PUSH1 0x40 MLOAD PUSH3 0x461BCD PUSH1 0xE5 SHL DUP2 MSTORE PUSH1 0x20 PUSH1 0x4 DUP3 ADD MSTORE PUSH1 0x28 PUSH1 0x24 DUP3 ADD MSTORE PUSH32 0x45524332303A207472616E7366657220616D6F756E7420657863656564732061 PUSH1 0x44 DUP3 ADD MSTORE PUSH8 0x6C6C6F77616E6365 PUSH1 0xC0 SHL PUSH1 0x64 DUP3 ADD MSTORE PUSH1 0x84 ADD PUSH2 0xAF5 JUMP JUMPDEST PUSH2 0x10F7 DUP6 CALLER DUP6 DUP5 SUB PUSH2 0x3098 JUMP JUMPDEST PUSH1 0x1 SWAP2 POP POP JUMPDEST SWAP4 SWAP3 POP POP POP JUMP JUMPDEST PUSH1 0x98 SLOAD PUSH1 0x40 MLOAD PUSH4 0xB7009613 PUSH1 0xE0 SHL DUP2 MSTORE CALLER SWAP2 PUSH1 0x1 PUSH1 0x1 PUSH1 0xA0 SHL SUB AND SWAP1 PUSH4 0xB7009613 SWAP1 PUSH2 0x1144 SWAP1 DUP5 SWAP1 ADDRESS SWAP1 PUSH1 0x1 PUSH1 0x1 PUSH1 0xE0 SHL SUB NOT PUSH1 0x0 CALLDATALOAD AND SWAP1 PUSH1 0x4 ADD PUSH2 0x4576 JUMP JUMPDEST PUSH1 0x20 PUSH1 0x40 MLOAD DUP1 DUP4 SUB DUP2 DUP7 GAS STATICCALL ISZERO DUP1 ISZERO PUSH2 0x1161 JUMPI RETURNDATASIZE PUSH1 0x0 DUP1 RETURNDATACOPY RETURNDATASIZE PUSH1 0x0 REVERT JUMPDEST POP POP POP POP PUSH1 0x40 MLOAD RETURNDATASIZE PUSH1 0x1F NOT PUSH1 0x1F DUP3 ADD AND DUP3 ADD DUP1 PUSH1 0x40 MSTORE POP DUP2 ADD SWAP1 PUSH2 0x1185 SWAP2 SWAP1 PUSH2 0x45A3 JUMP JUMPDEST PUSH2 0x11A1 JUMPI PUSH1 0x40 MLOAD PUSH3 0x461BCD PUSH1 0xE5 SHL DUP2 MSTORE PUSH1 0x4 ADD PUSH2 0xAF5 SWAP1 PUSH2 0x45C5 JUMP JUMPDEST PUSH1 0x98 DUP1 SLOAD PUSH1 0x1 PUSH1 0x1 PUSH1 0xA0 SHL SUB NOT AND PUSH1 0x1 PUSH1 0x1 PUSH1 0xA0 SHL SUB DUP5 AND SWAP1 DUP2 OR SWAP1 SWAP2 SSTORE PUSH1 0x40 MLOAD SWAP1 DUP2 MSTORE PUSH32 0xDCB0BC5ECFADC1F3129303F7C1F12B82107806277374A010DFFE2C367708EF41 SWAP1 PUSH1 0x20 ADD PUSH2 0xBC6 JUMP JUMPDEST PUSH1 0x98 SLOAD PUSH1 0x40 MLOAD PUSH4 0xB7009613 PUSH1 0xE0 SHL DUP2 MSTORE CALLER SWAP2 PUSH1 0x1 PUSH1 0x1 PUSH1 0xA0 SHL SUB AND SWAP1 PUSH4 0xB7009613 SWAP1 PUSH2 0x122F SWAP1 DUP5 SWAP1 ADDRESS SWAP1 PUSH1 0x1 PUSH1 0x1 PUSH1 0xE0 SHL SUB NOT PUSH1 0x0 CALLDATALOAD AND SWAP1 PUSH1 0x4 ADD PUSH2 0x4576 JUMP JUMPDEST PUSH1 0x20 PUSH1 0x40 MLOAD DUP1 DUP4 SUB DUP2 DUP7 GAS STATICCALL ISZERO DUP1 ISZERO PUSH2 0x124C JUMPI RETURNDATASIZE PUSH1 0x0 DUP1 RETURNDATACOPY RETURNDATASIZE PUSH1 0x0 REVERT JUMPDEST POP POP POP POP PUSH1 0x40 MLOAD RETURNDATASIZE PUSH1 0x1F NOT PUSH1 0x1F DUP3 ADD AND DUP3 ADD DUP1 PUSH1 0x40 MSTORE POP DUP2 ADD SWAP1 PUSH2 0x1270 SWAP2 SWAP1 PUSH2 0x45A3 JUMP JUMPDEST PUSH2 0x128C JUMPI PUSH1 0x40 MLOAD PUSH3 0x461BCD PUSH1 0xE5 SHL DUP2 MSTORE PUSH1 0x4 ADD PUSH2 0xAF5 SWAP1 PUSH2 0x45C5 JUMP JUMPDEST PUSH8 0xDE0B6B3A7640000 DUP3 GT ISZERO PUSH2 0x12F6 JUMPI PUSH1 0x40 MLOAD PUSH3 0x461BCD PUSH1 0xE5 SHL DUP2 MSTORE PUSH1 0x20 PUSH1 0x4 DUP3 ADD MSTORE PUSH1 0x29 PUSH1 0x24 DUP3 ADD MSTORE PUSH32 0x736574426174636865644275726E696E6746656550657263656E743A3A464545 PUSH1 0x44 DUP3 ADD MSTORE PUSH9 0xBEA89E9EBE90928E9 PUSH1 0xBB SHL PUSH1 0x64 DUP3 ADD MSTORE PUSH1 0x84 ADD PUSH2 0xAF5 JUMP JUMPDEST PUSH1 0x9D DUP3 SWAP1 SSTORE PUSH1 0x40 MLOAD DUP3 DUP2 MSTORE PUSH32 0xEA0B688AABE63E0B1F8D23FBFAAF5978C8D6B74C5B21BDC9787B4651482B8F4B SWAP1 PUSH1 0x20 ADD PUSH2 0xBC6 JUMP JUMPDEST CALLER PUSH1 0x0 DUP2 DUP2 MSTORE PUSH1 0x34 PUSH1 0x20 SWAP1 DUP2 MSTORE PUSH1 0x40 DUP1 DUP4 KECCAK256 PUSH1 0x1 PUSH1 0x1 PUSH1 0xA0 SHL SUB DUP8 AND DUP5 MSTORE SWAP1 SWAP2 MSTORE DUP2 KECCAK256 SLOAD SWAP1 SWAP2 PUSH2 0xBDF SWAP2 DUP6 SWAP1 PUSH2 0x1362 SWAP1 DUP7 SWAP1 PUSH2 0x465E JUMP JUMPDEST PUSH2 0x3098 JUMP JUMPDEST PUSH1 0x1 PUSH1 0x1 PUSH1 0xA0 SHL SUB DUP2 AND PUSH1 0x0 SWAP1 DUP2 MSTORE PUSH1 0x33 PUSH1 0x20 MSTORE PUSH1 0x40 DUP2 KECCAK256 SLOAD PUSH2 0xBE3 SWAP1 PUSH2 0xC4A JUMP JUMPDEST PUSH1 0x0 DUP1 PUSH2 0x1395 PUSH1 0x35 SLOAD SWAP1 JUMP JUMPDEST SWAP1 POP DUP1 PUSH2 0x13A4 JUMPI POP POP PUSH1 0x9A SLOAD SWAP1 JUMP JUMPDEST PUSH2 0x13BA DUP2 PUSH1 0x9A SLOAD PUSH2 0x13B3 PUSH2 0x24DC JUMP JUMPDEST SWAP2 SWAP1 PUSH2 0x3380 JUMP JUMPDEST SWAP2 POP POP SWAP1 JUMP JUMPDEST PUSH1 0xA7 SLOAD CALLER PUSH1 0x0 SWAP1 DUP2 MSTORE PUSH1 0xA9 PUSH1 0x20 MSTORE PUSH1 0x40 SWAP1 KECCAK256 SLOAD DUP1 PUSH2 0x13F5 JUMPI CALLER PUSH1 0x0 SWAP1 DUP2 MSTORE PUSH1 0xA9 PUSH1 0x20 MSTORE PUSH1 0x40 SWAP1 KECCAK256 DUP3 DUP2 SSTORE PUSH1 0x1 ADD DUP4 SWAP1 SSTORE PUSH2 0x146C JUMP JUMPDEST DUP2 DUP2 EQ PUSH2 0x1444 JUMPI PUSH1 0x40 MLOAD PUSH3 0x461BCD PUSH1 0xE5 SHL DUP2 MSTORE PUSH1 0x20 PUSH1 0x4 DUP3 ADD DUP2 SWAP1 MSTORE PUSH1 0x24 DUP3 ADD MSTORE PUSH32 0x656E74657242617463684275726E3A3A444946464552454E545F524F554E4453 PUSH1 0x44 DUP3 ADD MSTORE PUSH1 0x64 ADD PUSH2 0xAF5 JUMP JUMPDEST CALLER PUSH1 0x0 SWAP1 DUP2 MSTORE PUSH1 0xA9 PUSH1 0x20 MSTORE PUSH1 0x40 DUP2 KECCAK256 PUSH1 0x1 ADD DUP1 SLOAD DUP6 SWAP3 SWAP1 PUSH2 0x1466 SWAP1 DUP5 SWAP1 PUSH2 0x465E JUMP JUMPDEST SWAP1 SWAP2 SSTORE POP POP JUMPDEST PUSH1 0x0 DUP3 DUP2 MSTORE PUSH1 0xAA PUSH1 0x20 MSTORE PUSH1 0x40 DUP2 KECCAK256 DUP1 SLOAD DUP6 SWAP3 SWAP1 PUSH2 0x148A SWAP1 DUP5 SWAP1 PUSH2 0x465E JUMP JUMPDEST SWAP1 SWAP2 SSTORE POP PUSH2 0x149A SWAP1 POP ADDRESS DUP5 PUSH2 0x1CA5 JUMP JUMPDEST PUSH2 0x14A3 JUMPI PUSH1 0x0 DUP1 REVERT JUMPDEST PUSH1 0x40 MLOAD DUP4 DUP2 MSTORE CALLER SWAP1 DUP4 SWAP1 PUSH32 0xA34C4835838212C803863F6698244F8A1E56F479D6DBA7D4F33B34A2CDECF1CE SWAP1 PUSH1 0x20 ADD JUMPDEST PUSH1 0x40 MLOAD DUP1 SWAP2 SUB SWAP1 LOG3 POP POP POP JUMP JUMPDEST PUSH1 0x0 PUSH2 0xBE3 PUSH2 0x14ED PUSH2 0x1389 JUMP JUMPDEST PUSH1 0x9A SLOAD DUP5 SWAP2 SWAP1 PUSH2 0x3380 JUMP JUMPDEST PUSH1 0xA5 SLOAD PUSH1 0x9F SLOAD PUSH1 0x0 SWAP2 PUSH1 0x1 PUSH1 0x1 PUSH1 0x40 SHL SUB PUSH1 0x1 PUSH1 0x40 SHL SWAP1 SWAP2 DIV DUP2 AND SWAP2 PUSH1 0x1 PUSH1 0x80 SHL SWAP1 DIV AND PUSH2 0x1526 DUP2 DUP4 PUSH2 0x465E JUMP JUMPDEST TIMESTAMP LT PUSH2 0x1535 JUMPI PUSH1 0x0 SWAP3 POP POP POP SWAP1 JUMP JUMPDEST PUSH1 0xA5 SLOAD PUSH1 0x1 PUSH1 0x80 SHL SWAP1 DIV PUSH1 0x1 PUSH1 0x1 PUSH1 0x80 SHL SUB AND DUP2 PUSH2 0x1553 DUP5 TIMESTAMP PUSH2 0x4647 JUMP JUMPDEST PUSH2 0x155D SWAP1 DUP4 PUSH2 0x4676 JUMP JUMPDEST PUSH2 0x1567 SWAP2 SWAP1 PUSH2 0x4695 JUMP JUMPDEST PUSH2 0x1571 SWAP1 DUP3 PUSH2 0x4647 JUMP JUMPDEST SWAP4 POP POP POP POP SWAP1 JUMP JUMPDEST PUSH1 0x98 SLOAD PUSH1 0x40 MLOAD PUSH4 0xB7009613 PUSH1 0xE0 SHL DUP2 MSTORE PUSH1 0x0 SWAP2 DUP5 SWAP2 PUSH1 0x1 PUSH1 0x1 PUSH1 0xA0 SHL SUB SWAP1 SWAP2 AND SWAP1 PUSH4 0xB7009613 SWAP1 PUSH2 0x15BD SWAP1 DUP5 SWAP1 ADDRESS SWAP1 PUSH1 0x1 PUSH1 0x1 PUSH1 0xE0 SHL SUB NOT DUP9 CALLDATALOAD AND SWAP1 PUSH1 0x4 ADD PUSH2 0x4576 JUMP JUMPDEST PUSH1 0x20 PUSH1 0x40 MLOAD DUP1 DUP4 SUB DUP2 DUP7 GAS STATICCALL ISZERO DUP1 ISZERO PUSH2 0x15DA JUMPI RETURNDATASIZE PUSH1 0x0 DUP1 RETURNDATACOPY RETURNDATASIZE PUSH1 0x0 REVERT JUMPDEST POP POP POP POP PUSH1 0x40 MLOAD RETURNDATASIZE PUSH1 0x1F NOT PUSH1 0x1F DUP3 ADD AND DUP3 ADD DUP1 PUSH1 0x40 MSTORE POP DUP2 ADD SWAP1 PUSH2 0x15FE SWAP2 SWAP1 PUSH2 0x45A3 JUMP JUMPDEST PUSH2 0x161A JUMPI PUSH1 0x40 MLOAD PUSH3 0x461BCD PUSH1 0xE5 SHL DUP2 MSTORE PUSH1 0x4 ADD PUSH2 0xAF5 SWAP1 PUSH2 0x45C5 JUMP JUMPDEST PUSH2 0x1630 DUP5 PUSH2 0x1627 DUP6 PUSH2 0x14E0 JUMP JUMPDEST SWAP4 POP DUP4 DUP6 PUSH2 0x3572 JUMP JUMPDEST POP SWAP3 SWAP2 POP POP JUMP JUMPDEST PUSH1 0x98 SLOAD PUSH1 0x40 MLOAD PUSH4 0xB7009613 PUSH1 0xE0 SHL DUP2 MSTORE CALLER SWAP2 PUSH1 0x1 PUSH1 0x1 PUSH1 0xA0 SHL SUB AND SWAP1 PUSH4 0xB7009613 SWAP1 PUSH2 0x1677 SWAP1 DUP5 SWAP1 ADDRESS SWAP1 PUSH1 0x1 PUSH1 0x1 PUSH1 0xE0 SHL SUB NOT PUSH1 0x0 CALLDATALOAD AND SWAP1 PUSH1 0x4 ADD PUSH2 0x4576 JUMP JUMPDEST PUSH1 0x20 PUSH1 0x40 MLOAD DUP1 DUP4 SUB DUP2 DUP7 GAS STATICCALL ISZERO DUP1 ISZERO PUSH2 0x1694 JUMPI RETURNDATASIZE PUSH1 0x0 DUP1 RETURNDATACOPY RETURNDATASIZE PUSH1 0x0 REVERT JUMPDEST POP POP POP POP PUSH1 0x40 MLOAD RETURNDATASIZE PUSH1 0x1F NOT PUSH1 0x1F DUP3 ADD AND DUP3 ADD DUP1 PUSH1 0x40 MSTORE POP DUP2 ADD SWAP1 PUSH2 0x16B8 SWAP2 SWAP1 PUSH2 0x45A3 JUMP JUMPDEST PUSH2 0x16D4 JUMPI PUSH1 0x40 MLOAD PUSH3 0x461BCD PUSH1 0xE5 SHL DUP2 MSTORE PUSH1 0x4 ADD PUSH2 0xAF5 SWAP1 PUSH2 0x45C5 JUMP JUMPDEST PUSH1 0xAB DUP4 SWAP1 SSTORE PUSH1 0xAC DUP3 SWAP1 SSTORE PUSH1 0x40 DUP1 MLOAD DUP5 DUP2 MSTORE PUSH1 0x20 DUP2 ADD DUP5 SWAP1 MSTORE PUSH32 0xB2AD710F2954A5376267A683F9ECE9EC46EE7DFB47075163379904EE941DF8DA SWAP2 ADD JUMPDEST PUSH1 0x40 MLOAD DUP1 SWAP2 SUB SWAP1 LOG1 POP POP POP JUMP JUMPDEST PUSH1 0x98 SLOAD PUSH1 0x40 MLOAD PUSH4 0xB7009613 PUSH1 0xE0 SHL DUP2 MSTORE CALLER SWAP2 PUSH1 0x1 PUSH1 0x1 PUSH1 0xA0 SHL SUB AND SWAP1 PUSH4 0xB7009613 SWAP1 PUSH2 0x175D SWAP1 DUP5 SWAP1 ADDRESS SWAP1 PUSH1 0x1 PUSH1 0x1 PUSH1 0xE0 SHL SUB NOT PUSH1 0x0 CALLDATALOAD AND SWAP1 PUSH1 0x4 ADD PUSH2 0x4576 JUMP JUMPDEST PUSH1 0x20 PUSH1 0x40 MLOAD DUP1 DUP4 SUB DUP2 DUP7 GAS STATICCALL ISZERO DUP1 ISZERO PUSH2 0x177A JUMPI RETURNDATASIZE PUSH1 0x0 DUP1 RETURNDATACOPY RETURNDATASIZE PUSH1 0x0 REVERT JUMPDEST POP POP POP POP PUSH1 0x40 MLOAD RETURNDATASIZE PUSH1 0x1F NOT PUSH1 0x1F DUP3 ADD AND DUP3 ADD DUP1 PUSH1 0x40 MSTORE POP DUP2 ADD SWAP1 PUSH2 0x179E SWAP2 SWAP1 PUSH2 0x45A3 JUMP JUMPDEST PUSH2 0x17BA JUMPI PUSH1 0x40 MLOAD PUSH3 0x461BCD PUSH1 0xE5 SHL DUP2 MSTORE PUSH1 0x4 ADD PUSH2 0xAF5 SWAP1 PUSH2 0x45C5 JUMP JUMPDEST PUSH1 0x65 SLOAD PUSH1 0xFF AND PUSH2 0x17CF JUMPI PUSH2 0x17CC PUSH2 0x3723 JUMP JUMPDEST POP JUMP JUMPDEST PUSH2 0x17CC PUSH2 0x37BB JUMP JUMPDEST PUSH1 0xA7 SLOAD CALLER PUSH1 0x0 SWAP1 DUP2 MSTORE PUSH1 0xA9 PUSH1 0x20 SWAP1 DUP2 MSTORE PUSH1 0x40 SWAP2 DUP3 SWAP1 KECCAK256 DUP3 MLOAD DUP1 DUP5 ADD SWAP1 SWAP4 MSTORE DUP1 SLOAD DUP1 DUP5 MSTORE PUSH1 0x1 SWAP1 SWAP2 ADD SLOAD SWAP2 DUP4 ADD SWAP2 SWAP1 SWAP2 MSTORE PUSH2 0x1853 JUMPI PUSH1 0x40 MLOAD PUSH3 0x461BCD PUSH1 0xE5 SHL DUP2 MSTORE PUSH1 0x20 PUSH1 0x4 DUP3 ADD MSTORE PUSH1 0x1A PUSH1 0x24 DUP3 ADD MSTORE PUSH32 0x6578697442617463684275726E3A3A4E4F5F4445504F53495453000000000000 PUSH1 0x44 DUP3 ADD MSTORE PUSH1 0x64 ADD PUSH2 0xAF5 JUMP JUMPDEST DUP1 MLOAD DUP3 GT PUSH2 0x18AD JUMPI PUSH1 0x40 MLOAD PUSH3 0x461BCD PUSH1 0xE5 SHL DUP2 MSTORE PUSH1 0x20 PUSH1 0x4 DUP3 ADD MSTORE PUSH1 0x21 PUSH1 0x24 DUP3 ADD MSTORE PUSH32 0x6578697442617463684275726E3A3A524F554E445F4E4F545F45584543555445 PUSH1 0x44 DUP3 ADD MSTORE PUSH1 0x11 PUSH1 0xFA SHL PUSH1 0x64 DUP3 ADD MSTORE PUSH1 0x84 ADD PUSH2 0xAF5 JUMP JUMPDEST CALLER PUSH1 0x0 SWAP1 DUP2 MSTORE PUSH1 0xA9 PUSH1 0x20 SWAP1 DUP2 MSTORE PUSH1 0x40 DUP1 DUP4 KECCAK256 DUP4 DUP2 SSTORE PUSH1 0x1 SWAP1 DUP2 ADD DUP5 SWAP1 SSTORE DUP5 MLOAD DUP5 MSTORE PUSH1 0xAA DUP4 MSTORE SWAP1 DUP4 KECCAK256 ADD SLOAD PUSH1 0x9A SLOAD SWAP2 DUP5 ADD MLOAD PUSH2 0x18EA SWAP3 SWAP1 SWAP2 SWAP1 PUSH2 0x31B4 JUMP JUMPDEST SWAP1 POP DUP1 PUSH1 0xA8 PUSH1 0x0 DUP3 DUP3 SLOAD PUSH2 0x18FE SWAP2 SWAP1 PUSH2 0x4647 JUMP JUMPDEST SWAP1 SWAP2 SSTORE POP POP PUSH1 0x99 SLOAD PUSH2 0x191A SWAP1 PUSH1 0x1 PUSH1 0x1 PUSH1 0xA0 SHL SUB AND CALLER DUP4 PUSH2 0x331D JUMP JUMPDEST PUSH1 0x40 MLOAD DUP2 DUP2 MSTORE CALLER SWAP1 DUP5 SWAP1 PUSH32 0x2027C7E85003814492322D04D360D8DF81AEBEB8A40A069FFFCCC25CDF9E359B SWAP1 PUSH1 0x20 ADD PUSH2 0x14D3 JUMP JUMPDEST PUSH1 0x98 SLOAD PUSH1 0x40 MLOAD PUSH4 0xB7009613 PUSH1 0xE0 SHL DUP2 MSTORE CALLER SWAP2 PUSH1 0x1 PUSH1 0x1 PUSH1 0xA0 SHL SUB AND SWAP1 PUSH4 0xB7009613 SWAP1 PUSH2 0x198E SWAP1 DUP5 SWAP1 ADDRESS SWAP1 PUSH1 0x1 PUSH1 0x1 PUSH1 0xE0 SHL SUB NOT PUSH1 0x0 CALLDATALOAD AND SWAP1 PUSH1 0x4 ADD PUSH2 0x4576 JUMP JUMPDEST PUSH1 0x20 PUSH1 0x40 MLOAD DUP1 DUP4 SUB DUP2 DUP7 GAS STATICCALL ISZERO DUP1 ISZERO PUSH2 0x19AB JUMPI RETURNDATASIZE PUSH1 0x0 DUP1 RETURNDATACOPY RETURNDATASIZE PUSH1 0x0 REVERT JUMPDEST POP POP POP POP PUSH1 0x40 MLOAD RETURNDATASIZE PUSH1 0x1F NOT PUSH1 0x1F DUP3 ADD AND DUP3 ADD DUP1 PUSH1 0x40 MSTORE POP DUP2 ADD SWAP1 PUSH2 0x19CF SWAP2 SWAP1 PUSH2 0x45A3 JUMP JUMPDEST PUSH2 0x19EB JUMPI PUSH1 0x40 MLOAD PUSH3 0x461BCD PUSH1 0xE5 SHL DUP2 MSTORE PUSH1 0x4 ADD PUSH2 0xAF5 SWAP1 PUSH2 0x45C5 JUMP JUMPDEST PUSH1 0x1 PUSH1 0x1 PUSH1 0x40 SHL SUB DUP3 AND PUSH2 0x1A4F JUMPI PUSH1 0x40 MLOAD PUSH3 0x461BCD PUSH1 0xE5 SHL DUP2 MSTORE PUSH1 0x20 PUSH1 0x4 DUP3 ADD MSTORE PUSH1 0x25 PUSH1 0x24 DUP3 ADD MSTORE PUSH32 0x7365744861727665737444656C61793A3A44454C41595F43414E4E4F545F4245 PUSH1 0x44 DUP3 ADD MSTORE PUSH5 0x5F5A45524F PUSH1 0xD8 SHL PUSH1 0x64 DUP3 ADD MSTORE PUSH1 0x84 ADD PUSH2 0xAF5 JUMP JUMPDEST PUSH4 0x1E13380 DUP3 PUSH1 0x1 PUSH1 0x1 PUSH1 0x40 SHL SUB AND GT ISZERO PUSH2 0x1AAC JUMPI PUSH1 0x40 MLOAD PUSH3 0x461BCD PUSH1 0xE5 SHL DUP2 MSTORE PUSH1 0x20 PUSH1 0x4 DUP3 ADD MSTORE PUSH1 0x1F PUSH1 0x24 DUP3 ADD MSTORE PUSH32 0x7365744861727665737444656C61793A3A44454C41595F544F4F5F4C4F4E4700 PUSH1 0x44 DUP3 ADD MSTORE PUSH1 0x64 ADD PUSH2 0xAF5 JUMP JUMPDEST PUSH1 0x9F SLOAD PUSH1 0x1 PUSH1 0x80 SHL SWAP1 DIV PUSH1 0x1 PUSH1 0x1 PUSH1 0x40 SHL SUB AND PUSH2 0x1B27 JUMPI PUSH1 0x9F DUP1 SLOAD PUSH8 0xFFFFFFFFFFFFFFFF PUSH1 0x80 SHL NOT AND PUSH1 0x1 PUSH1 0x80 SHL PUSH1 0x1 PUSH1 0x1 PUSH1 0x40 SHL SUB DUP6 AND SWAP1 DUP2 MUL SWAP2 SWAP1 SWAP2 OR SWAP1 SWAP2 SSTORE PUSH1 0x40 MLOAD SWAP1 DUP2 MSTORE CALLER SWAP1 PUSH32 0xE893FA207C5A5094CAD036347B877C23EBECD9DF94AE0426F287040C13220B3F SWAP1 PUSH1 0x20 ADD PUSH1 0x40 MLOAD DUP1 SWAP2 SUB SWAP1 LOG2 POP POP JUMP JUMPDEST PUSH1 0x9F DUP1 SLOAD PUSH1 0x1 PUSH1 0x1 PUSH1 0xC0 SHL SUB AND PUSH1 0x1 PUSH1 0xC0 SHL PUSH1 0x1 PUSH1 0x1 PUSH1 0x40 SHL SUB DUP6 AND SWAP1 DUP2 MUL SWAP2 SWAP1 SWAP2 OR SWAP1 SWAP2 SSTORE PUSH1 0x40 MLOAD SWAP1 DUP2 MSTORE PUSH32 0x12CE22E477E3FC08E5FDA24CDEC059A7C62A276344417F2C365D7476401BCA6F SWAP1 PUSH1 0x20 ADD PUSH2 0xBC6 JUMP JUMPDEST PUSH1 0xA8 SLOAD PUSH1 0x99 SLOAD PUSH1 0x40 MLOAD PUSH4 0x70A08231 PUSH1 0xE0 SHL DUP2 MSTORE ADDRESS PUSH1 0x4 DUP3 ADD MSTORE PUSH1 0x0 SWAP3 SWAP2 PUSH1 0x1 PUSH1 0x1 PUSH1 0xA0 SHL SUB AND SWAP1 PUSH4 0x70A08231 SWAP1 PUSH1 0x24 ADD PUSH1 0x20 PUSH1 0x40 MLOAD DUP1 DUP4 SUB DUP2 DUP7 GAS STATICCALL ISZERO DUP1 ISZERO PUSH2 0x1BCA JUMPI RETURNDATASIZE PUSH1 0x0 DUP1 RETURNDATACOPY RETURNDATASIZE PUSH1 0x0 REVERT JUMPDEST POP POP POP POP PUSH1 0x40 MLOAD RETURNDATASIZE PUSH1 0x1F NOT PUSH1 0x1F DUP3 ADD AND DUP3 ADD DUP1 PUSH1 0x40 MSTORE POP DUP2 ADD SWAP1 PUSH2 0x1BEE SWAP2 SWAP1 PUSH2 0x46B7 JUMP JUMPDEST PUSH2 0x1BF8 SWAP2 SWAP1 PUSH2 0x4647 JUMP JUMPDEST SWAP1 POP SWAP1 JUMP JUMPDEST PUSH1 0x60 PUSH1 0x37 DUP1 SLOAD PUSH2 0x9D5 SWAP1 PUSH2 0x453B JUMP JUMPDEST CALLER PUSH1 0x0 SWAP1 DUP2 MSTORE PUSH1 0x34 PUSH1 0x20 SWAP1 DUP2 MSTORE PUSH1 0x40 DUP1 DUP4 KECCAK256 PUSH1 0x1 PUSH1 0x1 PUSH1 0xA0 SHL SUB DUP7 AND DUP5 MSTORE SWAP1 SWAP2 MSTORE DUP2 KECCAK256 SLOAD DUP3 DUP2 LT ISZERO PUSH2 0x1C8E JUMPI PUSH1 0x40 MLOAD PUSH3 0x461BCD PUSH1 0xE5 SHL DUP2 MSTORE PUSH1 0x20 PUSH1 0x4 DUP3 ADD MSTORE PUSH1 0x25 PUSH1 0x24 DUP3 ADD MSTORE PUSH32 0x45524332303A2064656372656173656420616C6C6F77616E63652062656C6F77 PUSH1 0x44 DUP3 ADD MSTORE PUSH5 0x207A65726F PUSH1 0xD8 SHL PUSH1 0x64 DUP3 ADD MSTORE PUSH1 0x84 ADD PUSH2 0xAF5 JUMP JUMPDEST PUSH2 0x1C9B CALLER DUP6 DUP6 DUP5 SUB PUSH2 0x3098 JUMP JUMPDEST POP PUSH1 0x1 SWAP4 SWAP3 POP POP POP JUMP JUMPDEST PUSH1 0x0 PUSH2 0xBDF CALLER DUP5 DUP5 PUSH2 0x33A2 JUMP JUMPDEST PUSH1 0x98 SLOAD PUSH1 0x40 MLOAD PUSH4 0xB7009613 PUSH1 0xE0 SHL DUP2 MSTORE CALLER SWAP2 PUSH1 0x1 PUSH1 0x1 PUSH1 0xA0 SHL SUB AND SWAP1 PUSH4 0xB7009613 SWAP1 PUSH2 0x1CF2 SWAP1 DUP5 SWAP1 ADDRESS SWAP1 PUSH1 0x1 PUSH1 0x1 PUSH1 0xE0 SHL SUB NOT PUSH1 0x0 CALLDATALOAD AND SWAP1 PUSH1 0x4 ADD PUSH2 0x4576 JUMP JUMPDEST PUSH1 0x20 PUSH1 0x40 MLOAD DUP1 DUP4 SUB DUP2 DUP7 GAS STATICCALL ISZERO DUP1 ISZERO PUSH2 0x1D0F JUMPI RETURNDATASIZE PUSH1 0x0 DUP1 RETURNDATACOPY RETURNDATASIZE PUSH1 0x0 REVERT JUMPDEST POP POP POP POP PUSH1 0x40 MLOAD RETURNDATASIZE PUSH1 0x1F NOT PUSH1 0x1F DUP3 ADD AND DUP3 ADD DUP1 PUSH1 0x40 MSTORE POP DUP2 ADD SWAP1 PUSH2 0x1D33 SWAP2 SWAP1 PUSH2 0x45A3 JUMP JUMPDEST PUSH2 0x1D4F JUMPI PUSH1 0x40 MLOAD PUSH3 0x461BCD PUSH1 0xE5 SHL DUP2 MSTORE PUSH1 0x4 ADD PUSH2 0xAF5 SWAP1 PUSH2 0x45C5 JUMP JUMPDEST PUSH1 0x14 DUP3 GT ISZERO PUSH2 0x1DAA JUMPI PUSH1 0x40 MLOAD PUSH3 0x461BCD PUSH1 0xE5 SHL DUP2 MSTORE PUSH1 0x20 PUSH1 0x4 DUP3 ADD MSTORE PUSH1 0x21 PUSH1 0x24 DUP3 ADD MSTORE PUSH32 0x7365745769746864726177616C51756575653A3A51554555455F544F4F5F4249 PUSH1 0x44 DUP3 ADD MSTORE PUSH1 0x47 PUSH1 0xF8 SHL PUSH1 0x64 DUP3 ADD MSTORE PUSH1 0x84 ADD PUSH2 0xAF5 JUMP JUMPDEST PUSH2 0x1DB6 PUSH1 0xA6 DUP5 DUP5 PUSH2 0x4172 JUMP JUMPDEST POP PUSH32 0x7F5ECD11ABC947C192F7D36828C4A649DDECD0867F27DF66489E78D3EC80B6FE DUP4 DUP4 PUSH1 0x40 MLOAD PUSH2 0x1710 SWAP3 SWAP2 SWAP1 PUSH2 0x46D0 JUMP JUMPDEST PUSH1 0x98 SLOAD PUSH1 0x40 MLOAD PUSH4 0xB7009613 PUSH1 0xE0 SHL DUP2 MSTORE CALLER SWAP2 PUSH1 0x1 PUSH1 0x1 PUSH1 0xA0 SHL SUB AND SWAP1 PUSH4 0xB7009613 SWAP1 PUSH2 0x1E28 SWAP1 DUP5 SWAP1 ADDRESS SWAP1 PUSH1 0x1 PUSH1 0x1 PUSH1 0xE0 SHL SUB NOT PUSH1 0x0 CALLDATALOAD AND SWAP1 PUSH1 0x4 ADD PUSH2 0x4576 JUMP JUMPDEST PUSH1 0x20 PUSH1 0x40 MLOAD DUP1 DUP4 SUB DUP2 DUP7 GAS STATICCALL ISZERO DUP1 ISZERO PUSH2 0x1E45 JUMPI RETURNDATASIZE PUSH1 0x0 DUP1 RETURNDATACOPY RETURNDATASIZE PUSH1 0x0 REVERT JUMPDEST POP POP POP POP PUSH1 0x40 MLOAD RETURNDATASIZE PUSH1 0x1F NOT PUSH1 0x1F DUP3 ADD AND DUP3 ADD DUP1 PUSH1 0x40 MSTORE POP DUP2 ADD SWAP1 PUSH2 0x1E69 SWAP2 SWAP1 PUSH2 0x45A3 JUMP JUMPDEST PUSH2 0x1E85 JUMPI PUSH1 0x40 MLOAD PUSH3 0x461BCD PUSH1 0xE5 SHL DUP2 MSTORE PUSH1 0x4 ADD PUSH2 0xAF5 SWAP1 PUSH2 0x45C5 JUMP JUMPDEST PUSH1 0x9C DUP1 SLOAD PUSH1 0x1 PUSH1 0x1 PUSH1 0xA0 SHL SUB NOT AND PUSH1 0x1 PUSH1 0x1 PUSH1 0xA0 SHL SUB DUP5 AND SWAP1 DUP2 OR SWAP1 SWAP2 SSTORE PUSH1 0x40 MLOAD PUSH32 0xBA702855580CDA8666C4FE8E4AE71D8F5DD19DB067455EEB54E2BAC95C46AF13 SWAP1 PUSH1 0x0 SWAP1 LOG2 POP POP JUMP JUMPDEST PUSH1 0x98 SLOAD PUSH1 0x40 MLOAD PUSH4 0xB7009613 PUSH1 0xE0 SHL DUP2 MSTORE CALLER SWAP2 PUSH1 0x1 PUSH1 0x1 PUSH1 0xA0 SHL SUB AND SWAP1 PUSH4 0xB7009613 SWAP1 PUSH2 0x1F10 SWAP1 DUP5 SWAP1 ADDRESS SWAP1 PUSH1 0x1 PUSH1 0x1 PUSH1 0xE0 SHL SUB NOT PUSH1 0x0 CALLDATALOAD AND SWAP1 PUSH1 0x4 ADD PUSH2 0x4576 JUMP JUMPDEST PUSH1 0x20 PUSH1 0x40 MLOAD DUP1 DUP4 SUB DUP2 DUP7 GAS STATICCALL ISZERO DUP1 ISZERO PUSH2 0x1F2D JUMPI RETURNDATASIZE PUSH1 0x0 DUP1 RETURNDATACOPY RETURNDATASIZE PUSH1 0x0 REVERT JUMPDEST POP POP POP POP PUSH1 0x40 MLOAD RETURNDATASIZE PUSH1 0x1F NOT PUSH1 0x1F DUP3 ADD AND DUP3 ADD DUP1 PUSH1 0x40 MSTORE POP DUP2 ADD SWAP1 PUSH2 0x1F51 SWAP2 SWAP1 PUSH2 0x45A3 JUMP JUMPDEST PUSH2 0x1F6D JUMPI PUSH1 0x40 MLOAD PUSH3 0x461BCD PUSH1 0xE5 SHL DUP2 MSTORE PUSH1 0x4 ADD PUSH2 0xAF5 SWAP1 PUSH2 0x45C5 JUMP JUMPDEST PUSH1 0x1 PUSH1 0x1 PUSH1 0xA0 SHL SUB DUP4 AND PUSH1 0x0 SWAP1 DUP2 MSTORE PUSH1 0xA1 PUSH1 0x20 MSTORE PUSH1 0x40 SWAP1 KECCAK256 SLOAD PUSH1 0xFF AND PUSH2 0x1FE6 JUMPI PUSH1 0x40 MLOAD PUSH3 0x461BCD PUSH1 0xE5 SHL DUP2 MSTORE PUSH1 0x20 PUSH1 0x4 DUP3 ADD MSTORE PUSH1 0x28 PUSH1 0x24 DUP3 ADD MSTORE PUSH32 0x776974686472617746726F6D53747261746567793A3A554E545255535445445F PUSH1 0x44 DUP3 ADD MSTORE PUSH8 0x5354524154454759 PUSH1 0xC0 SHL PUSH1 0x64 DUP3 ADD MSTORE PUSH1 0x84 ADD PUSH2 0xAF5 JUMP JUMPDEST DUP2 PUSH2 0x2047 JUMPI PUSH1 0x40 MLOAD PUSH3 0x461BCD PUSH1 0xE5 SHL DUP2 MSTORE PUSH1 0x20 PUSH1 0x4 DUP3 ADD MSTORE PUSH1 0x2B PUSH1 0x24 DUP3 ADD MSTORE PUSH32 0x776974686472617746726F6D53747261746567793A3A414D4F554E545F43414E PUSH1 0x44 DUP3 ADD MSTORE PUSH11 0x4E4F545F42455F5A45524F PUSH1 0xA8 SHL PUSH1 0x64 DUP3 ADD MSTORE PUSH1 0x84 ADD PUSH2 0xAF5 JUMP JUMPDEST PUSH2 0x2050 DUP3 PUSH2 0x3835 JUMP JUMPDEST PUSH1 0x1 PUSH1 0x1 PUSH1 0xA0 SHL SUB DUP5 AND PUSH1 0x0 SWAP1 DUP2 MSTORE PUSH1 0xA1 PUSH1 0x20 MSTORE PUSH1 0x40 SWAP1 KECCAK256 DUP1 SLOAD PUSH1 0x1 SWAP1 PUSH2 0x2086 SWAP1 DUP5 SWAP1 PUSH2 0x100 SWAP1 DIV PUSH1 0x1 PUSH1 0x1 PUSH1 0xF8 SHL SUB AND PUSH2 0x471E JUMP JUMPDEST SWAP3 POP PUSH2 0x100 EXP DUP2 SLOAD DUP2 PUSH1 0x1 PUSH1 0x1 PUSH1 0xF8 SHL SUB MUL NOT AND SWAP1 DUP4 PUSH1 0x1 PUSH1 0x1 PUSH1 0xF8 SHL SUB AND MUL OR SWAP1 SSTORE POP DUP2 PUSH1 0xA0 PUSH1 0x0 DUP3 DUP3 SLOAD PUSH2 0x20BC SWAP2 SWAP1 PUSH2 0x4647 JUMP JUMPDEST SWAP1 SWAP2 SSTORE POP POP PUSH1 0x40 MLOAD DUP3 DUP2 MSTORE PUSH1 0x1 PUSH1 0x1 PUSH1 0xA0 SHL SUB DUP5 AND SWAP1 CALLER SWAP1 PUSH32 0x8D851B682E239B1DE720E92E5C5CFFDB72D353104CC63DC6ED144D7080217FBE SWAP1 PUSH1 0x20 ADD PUSH1 0x40 MLOAD DUP1 SWAP2 SUB SWAP1 LOG3 PUSH1 0x40 MLOAD PUSH4 0x2E1A7D4D PUSH1 0xE0 SHL DUP2 MSTORE PUSH1 0x4 DUP2 ADD DUP4 SWAP1 MSTORE PUSH1 0x1 PUSH1 0x1 PUSH1 0xA0 SHL SUB DUP5 AND SWAP1 PUSH4 0x2E1A7D4D SWAP1 PUSH1 0x24 ADD PUSH1 0x20 PUSH1 0x40 MLOAD DUP1 DUP4 SUB DUP2 PUSH1 0x0 DUP8 GAS CALL ISZERO DUP1 ISZERO PUSH2 0x2148 JUMPI RETURNDATASIZE PUSH1 0x0 DUP1 RETURNDATACOPY RETURNDATASIZE PUSH1 0x0 REVERT JUMPDEST POP POP POP POP PUSH1 0x40 MLOAD RETURNDATASIZE PUSH1 0x1F NOT PUSH1 0x1F DUP3 ADD AND DUP3 ADD DUP1 PUSH1 0x40 MSTORE POP DUP2 ADD SWAP1 PUSH2 0x216C SWAP2 SWAP1 PUSH2 0x4746 JUMP JUMPDEST PUSH1 0xFF AND ISZERO PUSH2 0x21C8 JUMPI PUSH1 0x40 MLOAD PUSH3 0x461BCD PUSH1 0xE5 SHL DUP2 MSTORE PUSH1 0x20 PUSH1 0x4 DUP3 ADD MSTORE PUSH1 0x23 PUSH1 0x24 DUP3 ADD MSTORE PUSH32 0x776974686472617746726F6D53747261746567793A3A52454445454D5F464149 PUSH1 0x44 DUP3 ADD MSTORE PUSH3 0x131151 PUSH1 0xEA SHL PUSH1 0x64 DUP3 ADD MSTORE PUSH1 0x84 ADD PUSH2 0xAF5 JUMP JUMPDEST POP POP POP JUMP JUMPDEST PUSH1 0x98 SLOAD PUSH1 0x40 MLOAD PUSH4 0xB7009613 PUSH1 0xE0 SHL DUP2 MSTORE CALLER SWAP2 PUSH1 0x1 PUSH1 0x1 PUSH1 0xA0 SHL SUB AND SWAP1 PUSH4 0xB7009613 SWAP1 PUSH2 0x220D SWAP1 DUP5 SWAP1 ADDRESS SWAP1 PUSH1 0x1 PUSH1 0x1 PUSH1 0xE0 SHL SUB NOT PUSH1 0x0 CALLDATALOAD AND SWAP1 PUSH1 0x4 ADD PUSH2 0x4576 JUMP JUMPDEST PUSH1 0x20 PUSH1 0x40 MLOAD DUP1 DUP4 SUB DUP2 DUP7 GAS STATICCALL ISZERO DUP1 ISZERO PUSH2 0x222A JUMPI RETURNDATASIZE PUSH1 0x0 DUP1 RETURNDATACOPY RETURNDATASIZE PUSH1 0x0 REVERT JUMPDEST POP POP POP POP PUSH1 0x40 MLOAD RETURNDATASIZE PUSH1 0x1F NOT PUSH1 0x1F DUP3 ADD AND DUP3 ADD DUP1 PUSH1 0x40 MSTORE POP DUP2 ADD SWAP1 PUSH2 0x224E SWAP2 SWAP1 PUSH2 0x45A3 JUMP JUMPDEST PUSH2 0x226A JUMPI PUSH1 0x40 MLOAD PUSH3 0x461BCD PUSH1 0xE5 SHL DUP2 MSTORE PUSH1 0x4 ADD PUSH2 0xAF5 SWAP1 PUSH2 0x45C5 JUMP JUMPDEST PUSH1 0x1 PUSH1 0x1 PUSH1 0xA0 SHL SUB DUP4 AND PUSH1 0x0 SWAP1 DUP2 MSTORE PUSH1 0xA1 PUSH1 0x20 MSTORE PUSH1 0x40 SWAP1 KECCAK256 SLOAD PUSH1 0xFF AND PUSH2 0x22E2 JUMPI PUSH1 0x40 MLOAD PUSH3 0x461BCD PUSH1 0xE5 SHL DUP2 MSTORE PUSH1 0x20 PUSH1 0x4 DUP3 ADD MSTORE PUSH1 0x27 PUSH1 0x24 DUP3 ADD MSTORE PUSH32 0x6465706F736974496E746F53747261746567793A3A554E545255535445445F53 PUSH1 0x44 DUP3 ADD MSTORE PUSH7 0x54524154454759 PUSH1 0xC8 SHL PUSH1 0x64 DUP3 ADD MSTORE PUSH1 0x84 ADD PUSH2 0xAF5 JUMP JUMPDEST DUP2 PUSH2 0x2342 JUMPI PUSH1 0x40 MLOAD PUSH3 0x461BCD PUSH1 0xE5 SHL DUP2 MSTORE PUSH1 0x20 PUSH1 0x4 DUP3 ADD MSTORE PUSH1 0x2A PUSH1 0x24 DUP3 ADD MSTORE PUSH32 0x6465706F736974496E746F53747261746567793A3A414D4F554E545F43414E4E PUSH1 0x44 DUP3 ADD MSTORE PUSH10 0x4F545F42455F5A45524F PUSH1 0xB0 SHL PUSH1 0x64 DUP3 ADD MSTORE PUSH1 0x84 ADD PUSH2 0xAF5 JUMP JUMPDEST DUP2 PUSH1 0xA0 PUSH1 0x0 DUP3 DUP3 SLOAD PUSH2 0x2354 SWAP2 SWAP1 PUSH2 0x465E JUMP JUMPDEST SWAP1 SWAP2 SSTORE POP PUSH2 0x2363 SWAP1 POP DUP3 PUSH2 0x3835 JUMP JUMPDEST PUSH1 0x1 PUSH1 0x1 PUSH1 0xA0 SHL SUB DUP5 AND PUSH1 0x0 SWAP1 DUP2 MSTORE PUSH1 0xA1 PUSH1 0x20 MSTORE PUSH1 0x40 SWAP1 KECCAK256 DUP1 SLOAD PUSH1 0x1 SWAP1 PUSH2 0x2399 SWAP1 DUP5 SWAP1 PUSH2 0x100 SWAP1 DIV PUSH1 0x1 PUSH1 0x1 PUSH1 0xF8 SHL SUB AND PUSH2 0x4769 JUMP JUMPDEST SWAP3 POP PUSH2 0x100 EXP DUP2 SLOAD DUP2 PUSH1 0x1 PUSH1 0x1 PUSH1 0xF8 SHL SUB MUL NOT AND SWAP1 DUP4 PUSH1 0x1 PUSH1 0x1 PUSH1 0xF8 SHL SUB AND MUL OR SWAP1 SSTORE POP DUP3 PUSH1 0x1 PUSH1 0x1 PUSH1 0xA0 SHL SUB AND CALLER PUSH1 0x1 PUSH1 0x1 PUSH1 0xA0 SHL SUB AND PUSH32 0x49E9138FE0DACF001EA634236E38AA8BD229EFD55EC4D7975228D679DB6CE8F9 DUP5 PUSH1 0x40 MLOAD PUSH2 0x2402 SWAP2 DUP2 MSTORE PUSH1 0x20 ADD SWAP1 JUMP JUMPDEST PUSH1 0x40 MLOAD DUP1 SWAP2 SUB SWAP1 LOG3 PUSH1 0x99 SLOAD PUSH2 0x2421 SWAP1 PUSH1 0x1 PUSH1 0x1 PUSH1 0xA0 SHL SUB AND DUP5 DUP5 PUSH2 0x384F JUMP JUMPDEST PUSH1 0x40 MLOAD PUSH4 0xB6B55F25 PUSH1 0xE0 SHL DUP2 MSTORE PUSH1 0x4 DUP2 ADD DUP4 SWAP1 MSTORE PUSH1 0x1 PUSH1 0x1 PUSH1 0xA0 SHL SUB DUP5 AND SWAP1 PUSH4 0xB6B55F25 SWAP1 PUSH1 0x24 ADD PUSH1 0x20 PUSH1 0x40 MLOAD DUP1 DUP4 SUB DUP2 PUSH1 0x0 DUP8 GAS CALL ISZERO DUP1 ISZERO PUSH2 0x2468 JUMPI RETURNDATASIZE PUSH1 0x0 DUP1 RETURNDATACOPY RETURNDATASIZE PUSH1 0x0 REVERT JUMPDEST POP POP POP POP PUSH1 0x40 MLOAD RETURNDATASIZE PUSH1 0x1F NOT PUSH1 0x1F DUP3 ADD AND DUP3 ADD DUP1 PUSH1 0x40 MSTORE POP DUP2 ADD SWAP1 PUSH2 0x248C SWAP2 SWAP1 PUSH2 0x4746 JUMP JUMPDEST PUSH1 0xFF AND ISZERO PUSH2 0x21C8 JUMPI PUSH1 0x40 MLOAD PUSH3 0x461BCD PUSH1 0xE5 SHL DUP2 MSTORE PUSH1 0x20 PUSH1 0x4 DUP3 ADD DUP2 SWAP1 MSTORE PUSH1 0x24 DUP3 ADD MSTORE PUSH32 0x6465706F736974496E746F53747261746567793A3A4D494E545F4641494C4544 PUSH1 0x44 DUP3 ADD MSTORE PUSH1 0x64 ADD PUSH2 0xAF5 JUMP JUMPDEST PUSH1 0x0 PUSH2 0x24E6 PUSH2 0x1B7D JUMP JUMPDEST PUSH2 0x24EE PUSH2 0x14F8 JUMP JUMPDEST PUSH1 0xA0 SLOAD PUSH2 0x24FB SWAP2 SWAP1 PUSH2 0x4647 JUMP JUMPDEST PUSH2 0x1BF8 SWAP2 SWAP1 PUSH2 0x465E JUMP JUMPDEST PUSH1 0xA6 DUP2 DUP2 SLOAD DUP2 LT PUSH2 0x2515 JUMPI PUSH1 0x0 DUP1 REVERT JUMPDEST PUSH1 0x0 SWAP2 DUP3 MSTORE PUSH1 0x20 SWAP1 SWAP2 KECCAK256 ADD SLOAD PUSH1 0x1 PUSH1 0x1 PUSH1 0xA0 SHL SUB AND SWAP1 POP DUP2 JUMP JUMPDEST PUSH1 0x98 SLOAD PUSH1 0x40 MLOAD PUSH4 0xB7009613 PUSH1 0xE0 SHL DUP2 MSTORE CALLER SWAP2 PUSH1 0x1 PUSH1 0x1 PUSH1 0xA0 SHL SUB AND SWAP1 PUSH4 0xB7009613 SWAP1 PUSH2 0x256F SWAP1 DUP5 SWAP1 ADDRESS SWAP1 PUSH1 0x1 PUSH1 0x1 PUSH1 0xE0 SHL SUB NOT PUSH1 0x0 CALLDATALOAD AND SWAP1 PUSH1 0x4 ADD PUSH2 0x4576 JUMP JUMPDEST PUSH1 0x20 PUSH1 0x40 MLOAD DUP1 DUP4 SUB DUP2 DUP7 GAS STATICCALL ISZERO DUP1 ISZERO PUSH2 0x258C JUMPI RETURNDATASIZE PUSH1 0x0 DUP1 RETURNDATACOPY RETURNDATASIZE PUSH1 0x0 REVERT JUMPDEST POP POP POP POP PUSH1 0x40 MLOAD RETURNDATASIZE PUSH1 0x1F NOT PUSH1 0x1F DUP3 ADD AND DUP3 ADD DUP1 PUSH1 0x40 MSTORE POP DUP2 ADD SWAP1 PUSH2 0x25B0 SWAP2 SWAP1 PUSH2 0x45A3 JUMP JUMPDEST PUSH2 0x25CC JUMPI PUSH1 0x40 MLOAD PUSH3 0x461BCD PUSH1 0xE5 SHL DUP2 MSTORE PUSH1 0x4 ADD PUSH2 0xAF5 SWAP1 PUSH2 0x45C5 JUMP JUMPDEST PUSH1 0x1 PUSH1 0x1 PUSH1 0xA0 SHL SUB DUP3 AND PUSH1 0x0 DUP2 DUP2 MSTORE PUSH1 0xA1 PUSH1 0x20 MSTORE PUSH1 0x40 DUP1 DUP3 KECCAK256 DUP1 SLOAD PUSH1 0xFF NOT AND SWAP1 SSTORE MLOAD PUSH32 0xE14D923EC37225F1AAB033B03F5C98CF911D68BBA31F6908192DB6C24B0511C9 SWAP2 SWAP1 LOG2 POP POP JUMP JUMPDEST PUSH1 0x98 SLOAD PUSH1 0x40 MLOAD PUSH4 0xB7009613 PUSH1 0xE0 SHL DUP2 MSTORE CALLER SWAP2 PUSH1 0x1 PUSH1 0x1 PUSH1 0xA0 SHL SUB AND SWAP1 PUSH4 0xB7009613 SWAP1 PUSH2 0x2656 SWAP1 DUP5 SWAP1 ADDRESS SWAP1 PUSH1 0x1 PUSH1 0x1 PUSH1 0xE0 SHL SUB NOT PUSH1 0x0 CALLDATALOAD AND SWAP1 PUSH1 0x4 ADD PUSH2 0x4576 JUMP JUMPDEST PUSH1 0x20 PUSH1 0x40 MLOAD DUP1 DUP4 SUB DUP2 DUP7 GAS STATICCALL ISZERO DUP1 ISZERO PUSH2 0x2673 JUMPI RETURNDATASIZE PUSH1 0x0 DUP1 RETURNDATACOPY RETURNDATASIZE PUSH1 0x0 REVERT JUMPDEST POP POP POP POP PUSH1 0x40 MLOAD RETURNDATASIZE PUSH1 0x1F NOT PUSH1 0x1F DUP3 ADD AND DUP3 ADD DUP1 PUSH1 0x40 MSTORE POP DUP2 ADD SWAP1 PUSH2 0x2697 SWAP2 SWAP1 PUSH2 0x45A3 JUMP JUMPDEST PUSH2 0x26B3 JUMPI PUSH1 0x40 MLOAD PUSH3 0x461BCD PUSH1 0xE5 SHL DUP2 MSTORE PUSH1 0x4 ADD PUSH2 0xAF5 SWAP1 PUSH2 0x45C5 JUMP JUMPDEST PUSH1 0x9F SLOAD PUSH1 0xA5 SLOAD PUSH2 0x26DD SWAP2 PUSH1 0x1 PUSH1 0x1 PUSH1 0x40 SHL SUB PUSH1 0x1 PUSH1 0x80 SHL SWAP1 SWAP2 DIV DUP2 AND SWAP2 PUSH1 0x1 PUSH1 0x40 SHL SWAP1 DIV AND PUSH2 0x4601 JUMP JUMPDEST PUSH1 0x1 PUSH1 0x1 PUSH1 0x40 SHL SUB AND TIMESTAMP LT PUSH2 0x272C JUMPI PUSH2 0x26F4 PUSH2 0x1389 JUMP JUMPDEST PUSH1 0xA2 SSTORE PUSH1 0xA4 SLOAD PUSH2 0x2704 SWAP1 NUMBER PUSH2 0x4647 JUMP JUMPDEST PUSH1 0xA3 SSTORE NUMBER PUSH1 0xA4 SSTORE PUSH1 0xA5 DUP1 SLOAD PUSH8 0xFFFFFFFFFFFFFFFF NOT AND TIMESTAMP PUSH1 0x1 PUSH1 0x1 PUSH1 0x40 SHL SUB AND OR SWAP1 SSTORE PUSH2 0x27A6 JUMP JUMPDEST PUSH1 0x9F SLOAD PUSH1 0xA5 SLOAD PUSH2 0x274E SWAP2 PUSH1 0x1 PUSH1 0x1 PUSH1 0x80 SHL SUB AND SWAP1 PUSH1 0x1 PUSH1 0x1 PUSH1 0x40 SHL SUB AND PUSH2 0x478B JUMP JUMPDEST PUSH1 0x1 PUSH1 0x1 PUSH1 0x80 SHL SUB AND TIMESTAMP GT ISZERO PUSH2 0x27A6 JUMPI PUSH1 0x40 MLOAD PUSH3 0x461BCD PUSH1 0xE5 SHL DUP2 MSTORE PUSH1 0x20 PUSH1 0x4 DUP3 ADD MSTORE PUSH1 0x19 PUSH1 0x24 DUP3 ADD MSTORE PUSH32 0x686172766573743A3A4241445F484152564553545F54494D4500000000000000 PUSH1 0x44 DUP3 ADD MSTORE PUSH1 0x64 ADD PUSH2 0xAF5 JUMP JUMPDEST PUSH1 0xA0 SLOAD PUSH1 0x0 DUP2 DUP2 JUMPDEST DUP6 DUP2 LT ISZERO PUSH2 0x2961 JUMPI PUSH1 0x0 DUP8 DUP8 DUP4 DUP2 DUP2 LT PUSH2 0x27CA JUMPI PUSH2 0x27CA PUSH2 0x47AD JUMP JUMPDEST SWAP1 POP PUSH1 0x20 MUL ADD PUSH1 0x20 DUP2 ADD SWAP1 PUSH2 0x27DF SWAP2 SWAP1 PUSH2 0x4389 JUMP JUMPDEST PUSH1 0x1 PUSH1 0x1 PUSH1 0xA0 SHL SUB DUP2 AND PUSH1 0x0 SWAP1 DUP2 MSTORE PUSH1 0xA1 PUSH1 0x20 MSTORE PUSH1 0x40 SWAP1 KECCAK256 SLOAD SWAP1 SWAP2 POP PUSH1 0xFF AND PUSH2 0x284A JUMPI PUSH1 0x40 MLOAD PUSH3 0x461BCD PUSH1 0xE5 SHL DUP2 MSTORE PUSH1 0x20 PUSH1 0x4 DUP3 ADD MSTORE PUSH1 0x1B PUSH1 0x24 DUP3 ADD MSTORE PUSH32 0x686172766573743A3A554E545255535445445F53545241544547590000000000 PUSH1 0x44 DUP3 ADD MSTORE PUSH1 0x64 ADD PUSH2 0xAF5 JUMP JUMPDEST PUSH1 0x1 PUSH1 0x1 PUSH1 0xA0 SHL SUB DUP2 AND PUSH1 0x0 DUP2 DUP2 MSTORE PUSH1 0xA1 PUSH1 0x20 SWAP1 DUP2 MSTORE PUSH1 0x40 DUP1 DUP4 KECCAK256 SLOAD DUP2 MLOAD PUSH4 0x27E5CBAF PUSH1 0xE0 SHL DUP2 MSTORE SWAP2 MLOAD PUSH2 0x100 SWAP1 SWAP2 DIV PUSH1 0x1 PUSH1 0x1 PUSH1 0xF8 SHL SUB AND SWAP5 SWAP3 PUSH4 0x27E5CBAF SWAP3 PUSH1 0x4 DUP1 DUP3 ADD SWAP4 SWAP2 DUP3 SWAP1 SUB ADD DUP2 DUP8 DUP8 GAS CALL ISZERO DUP1 ISZERO PUSH2 0x28AC JUMPI RETURNDATASIZE PUSH1 0x0 DUP1 RETURNDATACOPY RETURNDATASIZE PUSH1 0x0 REVERT JUMPDEST POP POP POP POP PUSH1 0x40 MLOAD RETURNDATASIZE PUSH1 0x1F NOT PUSH1 0x1F DUP3 ADD AND DUP3 ADD DUP1 PUSH1 0x40 MSTORE POP DUP2 ADD SWAP1 PUSH2 0x28D0 SWAP2 SWAP1 PUSH2 0x46B7 JUMP JUMPDEST SWAP1 POP PUSH2 0x28DB DUP2 PUSH2 0x3835 JUMP JUMPDEST PUSH1 0x1 PUSH1 0x1 PUSH1 0xA0 SHL SUB DUP5 AND PUSH1 0x0 SWAP1 DUP2 MSTORE PUSH1 0xA1 PUSH1 0x20 MSTORE PUSH1 0x40 SWAP1 KECCAK256 DUP1 SLOAD PUSH1 0x1 PUSH1 0x1 PUSH1 0xF8 SHL SUB SWAP3 SWAP1 SWAP3 AND PUSH2 0x100 MUL PUSH1 0xFF SWAP1 SWAP3 AND SWAP2 SWAP1 SWAP2 OR SWAP1 SSTORE DUP2 PUSH2 0x291B DUP3 DUP8 PUSH2 0x465E JUMP JUMPDEST PUSH2 0x2925 SWAP2 SWAP1 PUSH2 0x4647 JUMP JUMPDEST SWAP5 POP DUP2 DUP2 GT PUSH2 0x2935 JUMPI PUSH1 0x0 PUSH2 0x293F JUMP JUMPDEST PUSH2 0x293F DUP3 DUP3 PUSH2 0x4647 JUMP JUMPDEST PUSH2 0x2949 SWAP1 DUP8 PUSH2 0x465E JUMP JUMPDEST SWAP6 POP POP POP POP DUP1 DUP1 PUSH2 0x2959 SWAP1 PUSH2 0x462C JUMP JUMPDEST SWAP2 POP POP PUSH2 0x27AE JUMP JUMPDEST POP PUSH1 0x9B SLOAD PUSH1 0x0 SWAP1 PUSH2 0x297C SWAP1 DUP5 SWAP1 PUSH8 0xDE0B6B3A7640000 PUSH2 0x31B4 JUMP JUMPDEST SWAP1 POP DUP1 ISZERO DUP1 ISZERO SWAP1 PUSH2 0x2997 JUMPI POP PUSH1 0x9C SLOAD PUSH1 0x1 PUSH1 0x1 PUSH1 0xA0 SHL SUB AND ISZERO ISZERO JUMPDEST ISZERO PUSH2 0x29C7 JUMPI PUSH1 0x9C SLOAD PUSH2 0x29C7 SWAP1 PUSH1 0x1 PUSH1 0x1 PUSH1 0xA0 SHL SUB AND PUSH2 0x29C2 PUSH2 0x29B7 PUSH2 0x1389 JUMP JUMPDEST PUSH1 0x9A SLOAD DUP6 SWAP2 SWAP1 PUSH2 0x3380 JUMP JUMPDEST PUSH2 0x3964 JUMP JUMPDEST PUSH1 0x0 PUSH2 0x29EF DUP3 DUP6 PUSH2 0x29D6 PUSH2 0x14F8 JUMP JUMPDEST PUSH2 0x29E0 SWAP2 SWAP1 PUSH2 0x465E JUMP JUMPDEST PUSH2 0x29EA SWAP2 SWAP1 PUSH2 0x4647 JUMP JUMPDEST PUSH2 0x3A43 JUMP JUMPDEST PUSH1 0xA5 DUP1 SLOAD PUSH1 0x1 PUSH1 0x1 PUSH1 0x80 SHL SUB DUP1 DUP5 AND PUSH1 0x1 PUSH1 0x80 SHL DUP2 MUL SWAP2 SWAP1 SWAP3 AND OR SWAP1 SWAP2 SSTORE SWAP1 SWAP2 POP PUSH1 0x0 SWAP1 PUSH2 0x2A1D SWAP1 DUP6 PUSH2 0x4647 JUMP JUMPDEST SWAP1 POP PUSH2 0x2A35 DUP2 DUP4 PUSH1 0x1 PUSH1 0x1 PUSH1 0x80 SHL SUB AND PUSH1 0xA3 SLOAD PUSH2 0x3A59 JUMP JUMPDEST PUSH1 0xAD SSTORE PUSH1 0xA0 DUP5 SWAP1 SSTORE PUSH1 0xA5 DUP1 SLOAD PUSH16 0xFFFFFFFFFFFFFFFF0000000000000000 NOT AND PUSH1 0x1 PUSH1 0x40 SHL TIMESTAMP PUSH1 0x1 PUSH1 0x1 PUSH1 0x40 SHL SUB AND MUL OR SWAP1 SSTORE PUSH1 0x40 MLOAD CALLER SWAP1 PUSH32 0x69E9C71F6799744A94D9897E77C3ED426CC2F92BA0EF3300785368209B6F4B2D SWAP1 PUSH2 0x2A9B SWAP1 DUP13 SWAP1 DUP13 SWAP1 PUSH2 0x46D0 JUMP JUMPDEST PUSH1 0x40 MLOAD DUP1 SWAP2 SUB SWAP1 LOG2 PUSH1 0x9F SLOAD PUSH1 0x1 PUSH1 0xC0 SHL SWAP1 DIV PUSH1 0x1 PUSH1 0x1 PUSH1 0x40 SHL SUB AND DUP1 ISZERO PUSH2 0x2B21 JUMPI PUSH1 0x9F DUP1 SLOAD PUSH1 0x1 PUSH1 0x1 PUSH1 0x80 SHL SUB AND PUSH1 0x1 PUSH1 0x80 SHL PUSH1 0x1 PUSH1 0x1 PUSH1 0x40 SHL SUB DUP5 AND SWAP1 DUP2 MUL PUSH1 0x1 PUSH1 0x1 PUSH1 0xC0 SHL SUB AND SWAP2 SWAP1 SWAP2 OR SWAP1 SWAP2 SSTORE PUSH1 0x40 MLOAD SWAP1 DUP2 MSTORE CALLER SWAP1 PUSH32 0xE893FA207C5A5094CAD036347B877C23EBECD9DF94AE0426F287040C13220B3F SWAP1 PUSH1 0x20 ADD PUSH1 0x40 MLOAD DUP1 SWAP2 SUB SWAP1 LOG2 JUMPDEST POP POP POP POP POP POP POP POP POP POP JUMP JUMPDEST PUSH1 0x98 SLOAD PUSH1 0x40 MLOAD PUSH4 0xB7009613 PUSH1 0xE0 SHL DUP2 MSTORE CALLER SWAP2 PUSH1 0x1 PUSH1 0x1 PUSH1 0xA0 SHL SUB AND SWAP1 PUSH4 0xB7009613 SWAP1 PUSH2 0x2B6D SWAP1 DUP5 SWAP1 ADDRESS SWAP1 PUSH1 0x1 PUSH1 0x1 PUSH1 0xE0 SHL SUB NOT PUSH1 0x0 CALLDATALOAD AND SWAP1 PUSH1 0x4 ADD PUSH2 0x4576 JUMP JUMPDEST PUSH1 0x20 PUSH1 0x40 MLOAD DUP1 DUP4 SUB DUP2 DUP7 GAS STATICCALL ISZERO DUP1 ISZERO PUSH2 0x2B8A JUMPI RETURNDATASIZE PUSH1 0x0 DUP1 RETURNDATACOPY RETURNDATASIZE PUSH1 0x0 REVERT JUMPDEST POP POP POP POP PUSH1 0x40 MLOAD RETURNDATASIZE PUSH1 0x1F NOT PUSH1 0x1F DUP3 ADD AND DUP3 ADD DUP1 PUSH1 0x40 MSTORE POP DUP2 ADD SWAP1 PUSH2 0x2BAE SWAP2 SWAP1 PUSH2 0x45A3 JUMP JUMPDEST PUSH2 0x2BCA JUMPI PUSH1 0x40 MLOAD PUSH3 0x461BCD PUSH1 0xE5 SHL DUP2 MSTORE PUSH1 0x4 ADD PUSH2 0xAF5 SWAP1 PUSH2 0x45C5 JUMP JUMPDEST PUSH8 0xDE0B6B3A7640000 DUP3 GT ISZERO PUSH2 0x2C2D JUMPI PUSH1 0x40 MLOAD PUSH3 0x461BCD PUSH1 0xE5 SHL DUP2 MSTORE PUSH1 0x20 PUSH1 0x4 DUP3 ADD MSTORE PUSH1 0x22 PUSH1 0x24 DUP3 ADD MSTORE PUSH32 0x7365744861727665737446656550657263656E743A3A4645455F544F4F5F4849 PUSH1 0x44 DUP3 ADD MSTORE PUSH2 0x8E9 PUSH1 0xF3 SHL PUSH1 0x64 DUP3 ADD MSTORE PUSH1 0x84 ADD PUSH2 0xAF5 JUMP JUMPDEST PUSH1 0x9B DUP3 SWAP1 SSTORE PUSH1 0x40 MLOAD DUP3 DUP2 MSTORE PUSH32 0xC2930745C0414DCBC7EBF3FEA0D713C9B1F0D69DD75345906FCF43AE322AD578 SWAP1 PUSH1 0x20 ADD PUSH2 0xBC6 JUMP JUMPDEST PUSH1 0x98 SLOAD PUSH1 0x40 MLOAD PUSH4 0xB7009613 PUSH1 0xE0 SHL DUP2 MSTORE CALLER SWAP2 PUSH1 0x1 PUSH1 0x1 PUSH1 0xA0 SHL SUB AND SWAP1 PUSH4 0xB7009613 SWAP1 PUSH2 0x2CA2 SWAP1 DUP5 SWAP1 ADDRESS SWAP1 PUSH1 0x1 PUSH1 0x1 PUSH1 0xE0 SHL SUB NOT PUSH1 0x0 CALLDATALOAD AND SWAP1 PUSH1 0x4 ADD PUSH2 0x4576 JUMP JUMPDEST PUSH1 0x20 PUSH1 0x40 MLOAD DUP1 DUP4 SUB DUP2 DUP7 GAS STATICCALL ISZERO DUP1 ISZERO PUSH2 0x2CBF JUMPI RETURNDATASIZE PUSH1 0x0 DUP1 RETURNDATACOPY RETURNDATASIZE PUSH1 0x0 REVERT JUMPDEST POP POP POP POP PUSH1 0x40 MLOAD RETURNDATASIZE PUSH1 0x1F NOT PUSH1 0x1F DUP3 ADD AND DUP3 ADD DUP1 PUSH1 0x40 MSTORE POP DUP2 ADD SWAP1 PUSH2 0x2CE3 SWAP2 SWAP1 PUSH2 0x45A3 JUMP JUMPDEST PUSH2 0x2CFF JUMPI PUSH1 0x40 MLOAD PUSH3 0x461BCD PUSH1 0xE5 SHL DUP2 MSTORE PUSH1 0x4 ADD PUSH2 0xAF5 SWAP1 PUSH2 0x45C5 JUMP JUMPDEST POP PUSH1 0x97 SSTORE JUMP JUMPDEST PUSH1 0x98 SLOAD PUSH1 0x40 MLOAD PUSH4 0xB7009613 PUSH1 0xE0 SHL DUP2 MSTORE CALLER SWAP2 PUSH1 0x1 PUSH1 0x1 PUSH1 0xA0 SHL SUB AND SWAP1 PUSH4 0xB7009613 SWAP1 PUSH2 0x2D45 SWAP1 DUP5 SWAP1 ADDRESS SWAP1 PUSH1 0x1 PUSH1 0x1 PUSH1 0xE0 SHL SUB NOT PUSH1 0x0 CALLDATALOAD AND SWAP1 PUSH1 0x4 ADD PUSH2 0x4576 JUMP JUMPDEST PUSH1 0x20 PUSH1 0x40 MLOAD DUP1 DUP4 SUB DUP2 DUP7 GAS STATICCALL ISZERO DUP1 ISZERO PUSH2 0x2D62 JUMPI RETURNDATASIZE PUSH1 0x0 DUP1 RETURNDATACOPY RETURNDATASIZE PUSH1 0x0 REVERT JUMPDEST POP POP POP POP PUSH1 0x40 MLOAD RETURNDATASIZE PUSH1 0x1F NOT PUSH1 0x1F DUP3 ADD AND DUP3 ADD DUP1 PUSH1 0x40 MSTORE POP DUP2 ADD SWAP1 PUSH2 0x2D86 SWAP2 SWAP1 PUSH2 0x45A3 JUMP JUMPDEST PUSH2 0x2DA2 JUMPI PUSH1 0x40 MLOAD PUSH3 0x461BCD PUSH1 0xE5 SHL DUP2 MSTORE PUSH1 0x4 ADD PUSH2 0xAF5 SWAP1 PUSH2 0x45C5 JUMP JUMPDEST PUSH1 0x99 SLOAD PUSH1 0x40 DUP1 MLOAD PUSH4 0x6F307DC3 PUSH1 0xE0 SHL DUP2 MSTORE SWAP1 MLOAD PUSH1 0x1 PUSH1 0x1 PUSH1 0xA0 SHL SUB SWAP3 DUP4 AND SWAP3 DUP6 AND SWAP2 PUSH4 0x6F307DC3 SWAP2 PUSH1 0x4 DUP1 DUP4 ADD SWAP3 PUSH1 0x20 SWAP3 SWAP2 SWAP1 DUP3 SWAP1 SUB ADD DUP2 DUP7 GAS STATICCALL ISZERO DUP1 ISZERO PUSH2 0x2DEE JUMPI RETURNDATASIZE PUSH1 0x0 DUP1 RETURNDATACOPY RETURNDATASIZE PUSH1 0x0 REVERT JUMPDEST POP POP POP POP PUSH1 0x40 MLOAD RETURNDATASIZE PUSH1 0x1F NOT PUSH1 0x1F DUP3 ADD AND DUP3 ADD DUP1 PUSH1 0x40 MSTORE POP DUP2 ADD SWAP1 PUSH2 0x2E12 SWAP2 SWAP1 PUSH2 0x47C3 JUMP JUMPDEST PUSH1 0x1 PUSH1 0x1 PUSH1 0xA0 SHL SUB AND EQ PUSH2 0x2E68 JUMPI PUSH1 0x40 MLOAD PUSH3 0x461BCD PUSH1 0xE5 SHL DUP2 MSTORE PUSH1 0x20 PUSH1 0x4 DUP3 ADD MSTORE PUSH1 0x1F PUSH1 0x24 DUP3 ADD MSTORE PUSH32 0x747275737453747261746567793A3A57524F4E475F554E4445524C59494E4700 PUSH1 0x44 DUP3 ADD MSTORE PUSH1 0x64 ADD PUSH2 0xAF5 JUMP JUMPDEST PUSH1 0x1 PUSH1 0x1 PUSH1 0xA0 SHL SUB DUP3 AND PUSH1 0x0 DUP2 DUP2 MSTORE PUSH1 0xA1 PUSH1 0x20 MSTORE PUSH1 0x40 DUP1 DUP3 KECCAK256 DUP1 SLOAD PUSH1 0xFF NOT AND PUSH1 0x1 OR SWAP1 SSTORE MLOAD PUSH32 0x1EECB33217FCE2D414C96C97C7E082F4557817585C876A72ECA5305AFB15F1F1 SWAP2 SWAP1 LOG2 POP POP JUMP JUMPDEST PUSH1 0x0 SLOAD PUSH2 0x100 SWAP1 DIV PUSH1 0xFF AND DUP1 PUSH2 0x2ECE JUMPI POP PUSH1 0x0 SLOAD PUSH1 0xFF AND ISZERO JUMPDEST PUSH2 0x2EEA JUMPI PUSH1 0x40 MLOAD PUSH3 0x461BCD PUSH1 0xE5 SHL DUP2 MSTORE PUSH1 0x4 ADD PUSH2 0xAF5 SWAP1 PUSH2 0x47E0 JUMP JUMPDEST PUSH1 0x0 SLOAD PUSH2 0x100 SWAP1 DIV PUSH1 0xFF AND ISZERO DUP1 ISZERO PUSH2 0x2F0C JUMPI PUSH1 0x0 DUP1 SLOAD PUSH2 0xFFFF NOT AND PUSH2 0x101 OR SWAP1 SSTORE JUMPDEST PUSH2 0x307F DUP6 DUP6 DUP6 DUP6 PUSH1 0x40 MLOAD DUP1 PUSH1 0x40 ADD PUSH1 0x40 MSTORE DUP1 PUSH1 0x5 DUP2 MSTORE PUSH1 0x20 ADD PUSH5 0x20BABC379 PUSH1 0xDD SHL DUP2 MSTORE POP DUP11 PUSH1 0x1 PUSH1 0x1 PUSH1 0xA0 SHL SUB AND PUSH4 0x6FDDE03 PUSH1 0x40 MLOAD DUP2 PUSH4 0xFFFFFFFF AND PUSH1 0xE0 SHL DUP2 MSTORE PUSH1 0x4 ADD PUSH1 0x0 PUSH1 0x40 MLOAD DUP1 DUP4 SUB DUP2 DUP7 GAS STATICCALL ISZERO DUP1 ISZERO PUSH2 0x2F6F JUMPI RETURNDATASIZE PUSH1 0x0 DUP1 RETURNDATACOPY RETURNDATASIZE PUSH1 0x0 REVERT JUMPDEST POP POP POP POP PUSH1 0x40 MLOAD RETURNDATASIZE PUSH1 0x0 DUP3 RETURNDATACOPY PUSH1 0x1F RETURNDATASIZE SWAP1 DUP2 ADD PUSH1 0x1F NOT AND DUP3 ADD PUSH1 0x40 MSTORE PUSH2 0x2F97 SWAP2 SWAP1 DUP2 ADD SWAP1 PUSH2 0x4844 JUMP JUMPDEST PUSH1 0x40 MLOAD DUP1 PUSH1 0x40 ADD PUSH1 0x40 MSTORE DUP1 PUSH1 0x6 DUP2 MSTORE PUSH1 0x20 ADD PUSH6 0x815985D5B1D PUSH1 0xD2 SHL DUP2 MSTORE POP PUSH1 0x40 MLOAD PUSH1 0x20 ADD PUSH2 0x2FC8 SWAP4 SWAP3 SWAP2 SWAP1 PUSH2 0x48E5 JUMP JUMPDEST PUSH1 0x40 MLOAD PUSH1 0x20 DUP2 DUP4 SUB SUB DUP2 MSTORE SWAP1 PUSH1 0x40 MSTORE PUSH1 0x40 MLOAD DUP1 PUSH1 0x40 ADD PUSH1 0x40 MSTORE DUP1 PUSH1 0x4 DUP2 MSTORE PUSH1 0x20 ADD PUSH4 0x6175786F PUSH1 0xE0 SHL DUP2 MSTORE POP DUP12 PUSH1 0x1 PUSH1 0x1 PUSH1 0xA0 SHL SUB AND PUSH4 0x95D89B41 PUSH1 0x40 MLOAD DUP2 PUSH4 0xFFFFFFFF AND PUSH1 0xE0 SHL DUP2 MSTORE PUSH1 0x4 ADD PUSH1 0x0 PUSH1 0x40 MLOAD DUP1 DUP4 SUB DUP2 DUP7 GAS STATICCALL ISZERO DUP1 ISZERO PUSH2 0x3032 JUMPI RETURNDATASIZE PUSH1 0x0 DUP1 RETURNDATACOPY RETURNDATASIZE PUSH1 0x0 REVERT JUMPDEST POP POP POP POP PUSH1 0x40 MLOAD RETURNDATASIZE PUSH1 0x0 DUP3 RETURNDATACOPY PUSH1 0x1F RETURNDATASIZE SWAP1 DUP2 ADD PUSH1 0x1F NOT AND DUP3 ADD PUSH1 0x40 MSTORE PUSH2 0x305A SWAP2 SWAP1 DUP2 ADD SWAP1 PUSH2 0x4844 JUMP JUMPDEST PUSH1 0x40 MLOAD PUSH1 0x20 ADD PUSH2 0x306B SWAP3 SWAP2 SWAP1 PUSH2 0x4928 JUMP JUMPDEST PUSH1 0x40 MLOAD PUSH1 0x20 DUP2 DUP4 SUB SUB DUP2 MSTORE SWAP1 PUSH1 0x40 MSTORE PUSH2 0x3AAD JUMP JUMPDEST DUP1 ISZERO PUSH2 0x3091 JUMPI PUSH1 0x0 DUP1 SLOAD PUSH2 0xFF00 NOT AND SWAP1 SSTORE JUMPDEST POP POP POP POP POP JUMP JUMPDEST PUSH1 0x1 PUSH1 0x1 PUSH1 0xA0 SHL SUB DUP4 AND PUSH2 0x30FA JUMPI PUSH1 0x40 MLOAD PUSH3 0x461BCD PUSH1 0xE5 SHL DUP2 MSTORE PUSH1 0x20 PUSH1 0x4 DUP3 ADD MSTORE PUSH1 0x24 DUP1 DUP3 ADD MSTORE PUSH32 0x45524332303A20617070726F76652066726F6D20746865207A65726F20616464 PUSH1 0x44 DUP3 ADD MSTORE PUSH4 0x72657373 PUSH1 0xE0 SHL PUSH1 0x64 DUP3 ADD MSTORE PUSH1 0x84 ADD PUSH2 0xAF5 JUMP JUMPDEST PUSH1 0x1 PUSH1 0x1 PUSH1 0xA0 SHL SUB DUP3 AND PUSH2 0x315B JUMPI PUSH1 0x40 MLOAD PUSH3 0x461BCD PUSH1 0xE5 SHL DUP2 MSTORE PUSH1 0x20 PUSH1 0x4 DUP3 ADD MSTORE PUSH1 0x22 PUSH1 0x24 DUP3 ADD MSTORE PUSH32 0x45524332303A20617070726F766520746F20746865207A65726F206164647265 PUSH1 0x44 DUP3 ADD MSTORE PUSH2 0x7373 PUSH1 0xF0 SHL PUSH1 0x64 DUP3 ADD MSTORE PUSH1 0x84 ADD PUSH2 0xAF5 JUMP JUMPDEST PUSH1 0x1 PUSH1 0x1 PUSH1 0xA0 SHL SUB DUP4 DUP2 AND PUSH1 0x0 DUP2 DUP2 MSTORE PUSH1 0x34 PUSH1 0x20 SWAP1 DUP2 MSTORE PUSH1 0x40 DUP1 DUP4 KECCAK256 SWAP5 DUP8 AND DUP1 DUP5 MSTORE SWAP5 DUP3 MSTORE SWAP2 DUP3 SWAP1 KECCAK256 DUP6 SWAP1 SSTORE SWAP1 MLOAD DUP5 DUP2 MSTORE PUSH32 0x8C5BE1E5EBEC7D5BD14F71427D1E84F3DD0314C0F7B2291E5B200AC8C7C3B925 SWAP2 ADD PUSH2 0x14D3 JUMP JUMPDEST DUP3 DUP3 MUL DUP4 ISZERO DUP5 DUP3 DIV DUP5 EQ OR PUSH2 0x31C8 JUMPI PUSH1 0x0 DUP1 REVERT JUMPDEST DIV SWAP3 SWAP2 POP POP JUMP JUMPDEST PUSH1 0x1 PUSH1 0x1 PUSH1 0xA0 SHL SUB DUP3 AND PUSH2 0x322F JUMPI PUSH1 0x40 MLOAD PUSH3 0x461BCD PUSH1 0xE5 SHL DUP2 MSTORE PUSH1 0x20 PUSH1 0x4 DUP3 ADD MSTORE PUSH1 0x21 PUSH1 0x24 DUP3 ADD MSTORE PUSH32 0x45524332303A206275726E2066726F6D20746865207A65726F20616464726573 PUSH1 0x44 DUP3 ADD MSTORE PUSH1 0x73 PUSH1 0xF8 SHL PUSH1 0x64 DUP3 ADD MSTORE PUSH1 0x84 ADD PUSH2 0xAF5 JUMP JUMPDEST PUSH1 0x1 PUSH1 0x1 PUSH1 0xA0 SHL SUB DUP3 AND PUSH1 0x0 SWAP1 DUP2 MSTORE PUSH1 0x33 PUSH1 0x20 MSTORE PUSH1 0x40 SWAP1 KECCAK256 SLOAD DUP2 DUP2 LT ISZERO PUSH2 0x32A3 JUMPI PUSH1 0x40 MLOAD PUSH3 0x461BCD PUSH1 0xE5 SHL DUP2 MSTORE PUSH1 0x20 PUSH1 0x4 DUP3 ADD MSTORE PUSH1 0x22 PUSH1 0x24 DUP3 ADD MSTORE PUSH32 0x45524332303A206275726E20616D6F756E7420657863656564732062616C616E PUSH1 0x44 DUP3 ADD MSTORE PUSH2 0x6365 PUSH1 0xF0 SHL PUSH1 0x64 DUP3 ADD MSTORE PUSH1 0x84 ADD PUSH2 0xAF5 JUMP JUMPDEST PUSH1 0x1 PUSH1 0x1 PUSH1 0xA0 SHL SUB DUP4 AND PUSH1 0x0 SWAP1 DUP2 MSTORE PUSH1 0x33 PUSH1 0x20 MSTORE PUSH1 0x40 DUP2 KECCAK256 DUP4 DUP4 SUB SWAP1 SSTORE PUSH1 0x35 DUP1 SLOAD DUP5 SWAP3 SWAP1 PUSH2 0x32D2 SWAP1 DUP5 SWAP1 PUSH2 0x4647 JUMP JUMPDEST SWAP1 SWAP2 SSTORE POP POP PUSH1 0x40 MLOAD DUP3 DUP2 MSTORE PUSH1 0x0 SWAP1 PUSH1 0x1 PUSH1 0x1 PUSH1 0xA0 SHL SUB DUP6 AND SWAP1 PUSH32 0xDDF252AD1BE2C89B69C2B068FC378DAA952BA7F163C4A11628F55A4DF523B3EF SWAP1 PUSH1 0x20 ADD PUSH1 0x40 MLOAD DUP1 SWAP2 SUB SWAP1 LOG3 POP POP POP JUMP JUMPDEST PUSH1 0x40 MLOAD PUSH1 0x1 PUSH1 0x1 PUSH1 0xA0 SHL SUB DUP4 AND PUSH1 0x24 DUP3 ADD MSTORE PUSH1 0x44 DUP2 ADD DUP3 SWAP1 MSTORE PUSH2 0x21C8 SWAP1 DUP5 SWAP1 PUSH4 0xA9059CBB PUSH1 0xE0 SHL SWAP1 PUSH1 0x64 ADD JUMPDEST PUSH1 0x40 DUP1 MLOAD PUSH1 0x1F NOT DUP2 DUP5 SUB ADD DUP2 MSTORE SWAP2 SWAP1 MSTORE PUSH1 0x20 DUP2 ADD DUP1 MLOAD PUSH1 0x1 PUSH1 0x1 PUSH1 0xE0 SHL SUB AND PUSH1 0x1 PUSH1 0x1 PUSH1 0xE0 SHL SUB NOT SWAP1 SWAP4 AND SWAP3 SWAP1 SWAP3 OR SWAP1 SWAP2 MSTORE PUSH2 0x3C8A JUMP JUMPDEST DUP3 DUP2 MUL DUP3 ISZERO ISZERO DUP5 ISZERO DUP6 DUP4 DIV DUP5 EQ OR AND PUSH2 0x3398 JUMPI PUSH1 0x0 DUP1 REVERT JUMPDEST SWAP2 SWAP1 SWAP2 DIV SWAP3 SWAP2 POP POP JUMP JUMPDEST PUSH1 0x1 PUSH1 0x1 PUSH1 0xA0 SHL SUB DUP4 AND PUSH2 0x3406 JUMPI PUSH1 0x40 MLOAD PUSH3 0x461BCD PUSH1 0xE5 SHL DUP2 MSTORE PUSH1 0x20 PUSH1 0x4 DUP3 ADD MSTORE PUSH1 0x25 PUSH1 0x24 DUP3 ADD MSTORE PUSH32 0x45524332303A207472616E736665722066726F6D20746865207A65726F206164 PUSH1 0x44 DUP3 ADD MSTORE PUSH5 0x6472657373 PUSH1 0xD8 SHL PUSH1 0x64 DUP3 ADD MSTORE PUSH1 0x84 ADD PUSH2 0xAF5 JUMP JUMPDEST PUSH1 0x1 PUSH1 0x1 PUSH1 0xA0 SHL SUB DUP3 AND PUSH2 0x3468 JUMPI PUSH1 0x40 MLOAD PUSH3 0x461BCD PUSH1 0xE5 SHL DUP2 MSTORE PUSH1 0x20 PUSH1 0x4 DUP3 ADD MSTORE PUSH1 0x23 PUSH1 0x24 DUP3 ADD MSTORE PUSH32 0x45524332303A207472616E7366657220746F20746865207A65726F2061646472 PUSH1 0x44 DUP3 ADD MSTORE PUSH3 0x657373 PUSH1 0xE8 SHL PUSH1 0x64 DUP3 ADD MSTORE PUSH1 0x84 ADD PUSH2 0xAF5 JUMP JUMPDEST PUSH1 0x1 PUSH1 0x1 PUSH1 0xA0 SHL SUB DUP4 AND PUSH1 0x0 SWAP1 DUP2 MSTORE PUSH1 0x33 PUSH1 0x20 MSTORE PUSH1 0x40 SWAP1 KECCAK256 SLOAD DUP2 DUP2 LT ISZERO PUSH2 0x34E0 JUMPI PUSH1 0x40 MLOAD PUSH3 0x461BCD PUSH1 0xE5 SHL DUP2 MSTORE PUSH1 0x20 PUSH1 0x4 DUP3 ADD MSTORE PUSH1 0x26 PUSH1 0x24 DUP3 ADD MSTORE PUSH32 0x45524332303A207472616E7366657220616D6F756E7420657863656564732062 PUSH1 0x44 DUP3 ADD MSTORE PUSH6 0x616C616E6365 PUSH1 0xD0 SHL PUSH1 0x64 DUP3 ADD MSTORE PUSH1 0x84 ADD PUSH2 0xAF5 JUMP JUMPDEST PUSH1 0x1 PUSH1 0x1 PUSH1 0xA0 SHL SUB DUP1 DUP6 AND PUSH1 0x0 SWAP1 DUP2 MSTORE PUSH1 0x33 PUSH1 0x20 MSTORE PUSH1 0x40 DUP1 DUP3 KECCAK256 DUP6 DUP6 SUB SWAP1 SSTORE SWAP2 DUP6 AND DUP2 MSTORE SWAP1 DUP2 KECCAK256 DUP1 SLOAD DUP5 SWAP3 SWAP1 PUSH2 0x3517 SWAP1 DUP5 SWAP1 PUSH2 0x465E JUMP JUMPDEST SWAP3 POP POP DUP2 SWAP1 SSTORE POP DUP3 PUSH1 0x1 PUSH1 0x1 PUSH1 0xA0 SHL SUB AND DUP5 PUSH1 0x1 PUSH1 0x1 PUSH1 0xA0 SHL SUB AND PUSH32 0xDDF252AD1BE2C89B69C2B068FC378DAA952BA7F163C4A11628F55A4DF523B3EF DUP5 PUSH1 0x40 MLOAD PUSH2 0x3563 SWAP2 DUP2 MSTORE PUSH1 0x20 ADD SWAP1 JUMP JUMPDEST PUSH1 0x40 MLOAD DUP1 SWAP2 SUB SWAP1 LOG3 JUMPDEST POP POP POP POP JUMP JUMPDEST PUSH1 0x65 SLOAD PUSH1 0xFF AND ISZERO PUSH2 0x35B8 JUMPI PUSH1 0x40 MLOAD PUSH3 0x461BCD PUSH1 0xE5 SHL DUP2 MSTORE PUSH1 0x20 PUSH1 0x4 DUP3 ADD MSTORE PUSH1 0x10 PUSH1 0x24 DUP3 ADD MSTORE PUSH16 0x14185D5CD8589B194E881C185D5CD959 PUSH1 0x82 SHL PUSH1 0x44 DUP3 ADD MSTORE PUSH1 0x64 ADD PUSH2 0xAF5 JUMP JUMPDEST PUSH1 0x0 DUP2 PUSH2 0x35DD PUSH2 0x490 DUP7 PUSH1 0x1 PUSH1 0x1 PUSH1 0xA0 SHL SUB AND PUSH1 0x0 SWAP1 DUP2 MSTORE PUSH1 0x33 PUSH1 0x20 MSTORE PUSH1 0x40 SWAP1 KECCAK256 SLOAD SWAP1 JUMP JUMPDEST PUSH2 0x35E7 SWAP2 SWAP1 PUSH2 0x465E JUMP JUMPDEST SWAP1 POP PUSH1 0x0 DUP3 PUSH2 0x35F4 PUSH2 0x24DC JUMP JUMPDEST PUSH2 0x35FE SWAP2 SWAP1 PUSH2 0x465E JUMP JUMPDEST SWAP1 POP PUSH1 0xAB SLOAD DUP3 GT ISZERO PUSH2 0x3660 JUMPI PUSH1 0x40 MLOAD PUSH3 0x461BCD PUSH1 0xE5 SHL DUP2 MSTORE PUSH1 0x20 PUSH1 0x4 DUP3 ADD MSTORE PUSH1 0x25 PUSH1 0x24 DUP3 ADD MSTORE PUSH32 0x5F6465706F7369743A3A555345525F4445504F5349545F4C494D4954535F5245 PUSH1 0x44 DUP3 ADD MSTORE PUSH5 0x1050D21151 PUSH1 0xDA SHL PUSH1 0x64 DUP3 ADD MSTORE PUSH1 0x84 ADD PUSH2 0xAF5 JUMP JUMPDEST PUSH1 0xAC SLOAD DUP2 GT ISZERO PUSH2 0x36C1 JUMPI PUSH1 0x40 MLOAD PUSH3 0x461BCD PUSH1 0xE5 SHL DUP2 MSTORE PUSH1 0x20 PUSH1 0x4 DUP3 ADD MSTORE PUSH1 0x26 PUSH1 0x24 DUP3 ADD MSTORE PUSH32 0x5F6465706F7369743A3A5641554C545F4445504F5349545F4C494D4954535F52 PUSH1 0x44 DUP3 ADD MSTORE PUSH6 0x115050D21151 PUSH1 0xD2 SHL PUSH1 0x64 DUP3 ADD MSTORE PUSH1 0x84 ADD PUSH2 0xAF5 JUMP JUMPDEST PUSH2 0x36CB DUP6 DUP6 PUSH2 0x3964 JUMP JUMPDEST PUSH1 0x40 MLOAD DUP4 DUP2 MSTORE PUSH1 0x1 PUSH1 0x1 PUSH1 0xA0 SHL SUB DUP7 AND SWAP1 CALLER SWAP1 PUSH32 0x5548C837AB068CF56A2C2479DF0882A4922FD203EDB7517321831D95078C5F62 SWAP1 PUSH1 0x20 ADD PUSH1 0x40 MLOAD DUP1 SWAP2 SUB SWAP1 LOG3 PUSH1 0x99 SLOAD PUSH2 0x3091 SWAP1 PUSH1 0x1 PUSH1 0x1 PUSH1 0xA0 SHL SUB AND CALLER ADDRESS DUP7 PUSH2 0x3D5C JUMP JUMPDEST PUSH1 0x65 SLOAD PUSH1 0xFF AND ISZERO PUSH2 0x3769 JUMPI PUSH1 0x40 MLOAD PUSH3 0x461BCD PUSH1 0xE5 SHL DUP2 MSTORE PUSH1 0x20 PUSH1 0x4 DUP3 ADD MSTORE PUSH1 0x10 PUSH1 0x24 DUP3 ADD MSTORE PUSH16 0x14185D5CD8589B194E881C185D5CD959 PUSH1 0x82 SHL PUSH1 0x44 DUP3 ADD MSTORE PUSH1 0x64 ADD PUSH2 0xAF5 JUMP JUMPDEST PUSH1 0x65 DUP1 SLOAD PUSH1 0xFF NOT AND PUSH1 0x1 OR SWAP1 SSTORE PUSH32 0x62E78CEA01BEE320CD4E420270B5EA74000D11B0C9F74754EBDBFC544B05A258 PUSH2 0x379E CALLER SWAP1 JUMP JUMPDEST PUSH1 0x40 MLOAD PUSH1 0x1 PUSH1 0x1 PUSH1 0xA0 SHL SUB SWAP1 SWAP2 AND DUP2 MSTORE PUSH1 0x20 ADD PUSH1 0x40 MLOAD DUP1 SWAP2 SUB SWAP1 LOG1 JUMP JUMPDEST PUSH1 0x65 SLOAD PUSH1 0xFF AND PUSH2 0x3804 JUMPI PUSH1 0x40 MLOAD PUSH3 0x461BCD PUSH1 0xE5 SHL DUP2 MSTORE PUSH1 0x20 PUSH1 0x4 DUP3 ADD MSTORE PUSH1 0x14 PUSH1 0x24 DUP3 ADD MSTORE PUSH20 0x14185D5CD8589B194E881B9BDD081C185D5CD959 PUSH1 0x62 SHL PUSH1 0x44 DUP3 ADD MSTORE PUSH1 0x64 ADD PUSH2 0xAF5 JUMP JUMPDEST PUSH1 0x65 DUP1 SLOAD PUSH1 0xFF NOT AND SWAP1 SSTORE PUSH32 0x5DB9EE0A495BF2E6FF9C91A7834C1BA4FDD244A5E8AA4E537BD38AEAE4B073AA CALLER PUSH2 0x379E JUMP JUMPDEST PUSH1 0x0 PUSH1 0x1 PUSH1 0x1 PUSH1 0xF8 SHL SUB DUP3 GT ISZERO PUSH2 0x384B JUMPI PUSH1 0x0 DUP1 REVERT JUMPDEST POP SWAP1 JUMP JUMPDEST DUP1 ISZERO DUP1 PUSH2 0x38C9 JUMPI POP PUSH1 0x40 MLOAD PUSH4 0x6EB1769F PUSH1 0xE1 SHL DUP2 MSTORE ADDRESS PUSH1 0x4 DUP3 ADD MSTORE PUSH1 0x1 PUSH1 0x1 PUSH1 0xA0 SHL SUB DUP4 DUP2 AND PUSH1 0x24 DUP4 ADD MSTORE DUP5 AND SWAP1 PUSH4 0xDD62ED3E SWAP1 PUSH1 0x44 ADD PUSH1 0x20 PUSH1 0x40 MLOAD DUP1 DUP4 SUB DUP2 DUP7 GAS STATICCALL ISZERO DUP1 ISZERO PUSH2 0x38A3 JUMPI RETURNDATASIZE PUSH1 0x0 DUP1 RETURNDATACOPY RETURNDATASIZE PUSH1 0x0 REVERT JUMPDEST POP POP POP POP PUSH1 0x40 MLOAD RETURNDATASIZE PUSH1 0x1F NOT PUSH1 0x1F DUP3 ADD AND DUP3 ADD DUP1 PUSH1 0x40 MSTORE POP DUP2 ADD SWAP1 PUSH2 0x38C7 SWAP2 SWAP1 PUSH2 0x46B7 JUMP JUMPDEST ISZERO JUMPDEST PUSH2 0x3934 JUMPI PUSH1 0x40 MLOAD PUSH3 0x461BCD PUSH1 0xE5 SHL DUP2 MSTORE PUSH1 0x20 PUSH1 0x4 DUP3 ADD MSTORE PUSH1 0x36 PUSH1 0x24 DUP3 ADD MSTORE PUSH32 0x5361666545524332303A20617070726F76652066726F6D206E6F6E2D7A65726F PUSH1 0x44 DUP3 ADD MSTORE PUSH22 0x20746F206E6F6E2D7A65726F20616C6C6F77616E6365 PUSH1 0x50 SHL PUSH1 0x64 DUP3 ADD MSTORE PUSH1 0x84 ADD PUSH2 0xAF5 JUMP JUMPDEST PUSH1 0x40 MLOAD PUSH1 0x1 PUSH1 0x1 PUSH1 0xA0 SHL SUB DUP4 AND PUSH1 0x24 DUP3 ADD MSTORE PUSH1 0x44 DUP2 ADD DUP3 SWAP1 MSTORE PUSH2 0x21C8 SWAP1 DUP5 SWAP1 PUSH4 0x95EA7B3 PUSH1 0xE0 SHL SWAP1 PUSH1 0x64 ADD PUSH2 0x3349 JUMP JUMPDEST PUSH1 0x1 PUSH1 0x1 PUSH1 0xA0 SHL SUB DUP3 AND PUSH2 0x39BA JUMPI PUSH1 0x40 MLOAD PUSH3 0x461BCD PUSH1 0xE5 SHL DUP2 MSTORE PUSH1 0x20 PUSH1 0x4 DUP3 ADD MSTORE PUSH1 0x1F PUSH1 0x24 DUP3 ADD MSTORE PUSH32 0x45524332303A206D696E7420746F20746865207A65726F206164647265737300 PUSH1 0x44 DUP3 ADD MSTORE PUSH1 0x64 ADD PUSH2 0xAF5 JUMP JUMPDEST DUP1 PUSH1 0x35 PUSH1 0x0 DUP3 DUP3 SLOAD PUSH2 0x39CC SWAP2 SWAP1 PUSH2 0x465E JUMP JUMPDEST SWAP1 SWAP2 SSTORE POP POP PUSH1 0x1 PUSH1 0x1 PUSH1 0xA0 SHL SUB DUP3 AND PUSH1 0x0 SWAP1 DUP2 MSTORE PUSH1 0x33 PUSH1 0x20 MSTORE PUSH1 0x40 DUP2 KECCAK256 DUP1 SLOAD DUP4 SWAP3 SWAP1 PUSH2 0x39F9 SWAP1 DUP5 SWAP1 PUSH2 0x465E JUMP JUMPDEST SWAP1 SWAP2 SSTORE POP POP PUSH1 0x40 MLOAD DUP2 DUP2 MSTORE PUSH1 0x1 PUSH1 0x1 PUSH1 0xA0 SHL SUB DUP4 AND SWAP1 PUSH1 0x0 SWAP1 PUSH32 0xDDF252AD1BE2C89B69C2B068FC378DAA952BA7F163C4A11628F55A4DF523B3EF SWAP1 PUSH1 0x20 ADD PUSH1 0x40 MLOAD DUP1 SWAP2 SUB SWAP1 LOG3 POP POP JUMP JUMPDEST PUSH1 0x0 PUSH1 0x1 PUSH1 0x1 PUSH1 0x80 SHL SUB DUP3 GT ISZERO PUSH2 0x384B JUMPI PUSH1 0x0 DUP1 REVERT JUMPDEST PUSH1 0x0 DUP4 ISZERO DUP1 PUSH2 0x3A66 JUMPI POP DUP3 ISZERO JUMPDEST PUSH2 0x3AA2 JUMPI DUP2 PUSH1 0x97 SLOAD PUSH2 0x3A78 SWAP2 SWAP1 PUSH2 0x4695 JUMP JUMPDEST PUSH1 0x9A SLOAD PUSH2 0x3A88 SWAP1 DUP6 SWAP1 DUP8 SWAP1 PUSH2 0x3380 JUMP JUMPDEST PUSH2 0x3A92 SWAP2 SWAP1 PUSH2 0x4676 JUMP JUMPDEST PUSH2 0x3A9D SWAP1 PUSH1 0x64 PUSH2 0x4676 JUMP JUMPDEST PUSH2 0x3AA5 JUMP JUMPDEST PUSH1 0x0 JUMPDEST SWAP5 SWAP4 POP POP POP POP JUMP JUMPDEST PUSH1 0x0 SLOAD PUSH2 0x100 SWAP1 DIV PUSH1 0xFF AND DUP1 PUSH2 0x3AC6 JUMPI POP PUSH1 0x0 SLOAD PUSH1 0xFF AND ISZERO JUMPDEST PUSH2 0x3AE2 JUMPI PUSH1 0x40 MLOAD PUSH3 0x461BCD PUSH1 0xE5 SHL DUP2 MSTORE PUSH1 0x4 ADD PUSH2 0xAF5 SWAP1 PUSH2 0x47E0 JUMP JUMPDEST PUSH1 0x0 SLOAD PUSH2 0x100 SWAP1 DIV PUSH1 0xFF AND ISZERO DUP1 ISZERO PUSH2 0x3B04 JUMPI PUSH1 0x0 DUP1 SLOAD PUSH2 0xFFFF NOT AND PUSH2 0x101 OR SWAP1 SSTORE JUMPDEST PUSH2 0x3B0E DUP4 DUP4 PUSH2 0x3D94 JUMP JUMPDEST PUSH2 0x3B16 PUSH2 0x3E13 JUMP JUMPDEST PUSH2 0x3B1E PUSH2 0x3723 JUMP JUMPDEST PUSH1 0x99 DUP1 SLOAD PUSH1 0x1 PUSH1 0x1 PUSH1 0xA0 SHL SUB NOT AND PUSH1 0x1 PUSH1 0x1 PUSH1 0xA0 SHL SUB DUP10 AND SWAP1 DUP2 OR SWAP1 SWAP2 SSTORE PUSH1 0x40 DUP1 MLOAD PUSH4 0x313CE567 PUSH1 0xE0 SHL DUP2 MSTORE SWAP1 MLOAD PUSH4 0x313CE567 SWAP2 PUSH1 0x4 DUP1 DUP3 ADD SWAP3 PUSH1 0x20 SWAP3 SWAP1 SWAP2 SWAP1 DUP3 SWAP1 SUB ADD DUP2 DUP7 GAS STATICCALL ISZERO DUP1 ISZERO PUSH2 0x3B77 JUMPI RETURNDATASIZE PUSH1 0x0 DUP1 RETURNDATACOPY RETURNDATASIZE PUSH1 0x0 REVERT JUMPDEST POP POP POP POP PUSH1 0x40 MLOAD RETURNDATASIZE PUSH1 0x1F NOT PUSH1 0x1F DUP3 ADD AND DUP3 ADD DUP1 PUSH1 0x40 MSTORE POP DUP2 ADD SWAP1 PUSH2 0x3B9B SWAP2 SWAP1 PUSH2 0x4746 JUMP JUMPDEST PUSH2 0x3BA6 SWAP1 PUSH1 0xA PUSH2 0x4A32 JUMP JUMPDEST PUSH1 0x9A DUP2 SWAP1 SSTORE POP DUP7 PUSH1 0x1 PUSH1 0x1 PUSH1 0xA0 SHL SUB AND PUSH4 0x313CE567 PUSH1 0x40 MLOAD DUP2 PUSH4 0xFFFFFFFF AND PUSH1 0xE0 SHL DUP2 MSTORE PUSH1 0x4 ADD PUSH1 0x20 PUSH1 0x40 MLOAD DUP1 DUP4 SUB DUP2 DUP7 GAS STATICCALL ISZERO DUP1 ISZERO PUSH2 0x3BEA JUMPI RETURNDATASIZE PUSH1 0x0 DUP1 RETURNDATACOPY RETURNDATASIZE PUSH1 0x0 REVERT JUMPDEST POP POP POP POP PUSH1 0x40 MLOAD RETURNDATASIZE PUSH1 0x1F NOT PUSH1 0x1F DUP3 ADD AND DUP3 ADD DUP1 PUSH1 0x40 MSTORE POP DUP2 ADD SWAP1 PUSH2 0x3C0E SWAP2 SWAP1 PUSH2 0x4746 JUMP JUMPDEST PUSH1 0x99 DUP1 SLOAD PUSH1 0xFF SWAP3 SWAP1 SWAP3 AND PUSH1 0x1 PUSH1 0xA0 SHL MUL PUSH1 0xFF PUSH1 0xA0 SHL NOT SWAP1 SWAP3 AND SWAP2 SWAP1 SWAP2 OR SWAP1 SSTORE PUSH1 0x98 DUP1 SLOAD PUSH1 0x1 PUSH1 0x1 PUSH1 0xA0 SHL SUB DUP1 DUP10 AND PUSH1 0x1 PUSH1 0x1 PUSH1 0xA0 SHL SUB NOT SWAP3 DUP4 AND OR SWAP1 SWAP3 SSTORE PUSH1 0x9E DUP1 SLOAD DUP8 DUP5 AND SWAP1 DUP4 AND OR SWAP1 SSTORE PUSH1 0x9C DUP1 SLOAD SWAP3 DUP9 AND SWAP3 SWAP1 SWAP2 AND SWAP2 SWAP1 SWAP2 OR SWAP1 SSTORE PUSH1 0x1 PUSH1 0xA7 SSTORE DUP1 ISZERO PUSH2 0x3C81 JUMPI PUSH1 0x0 DUP1 SLOAD PUSH2 0xFF00 NOT AND SWAP1 SSTORE JUMPDEST POP POP POP POP POP POP POP JUMP JUMPDEST PUSH1 0x0 PUSH2 0x3CDF DUP3 PUSH1 0x40 MLOAD DUP1 PUSH1 0x40 ADD PUSH1 0x40 MSTORE DUP1 PUSH1 0x20 DUP2 MSTORE PUSH1 0x20 ADD PUSH32 0x5361666545524332303A206C6F772D6C6576656C2063616C6C206661696C6564 DUP2 MSTORE POP DUP6 PUSH1 0x1 PUSH1 0x1 PUSH1 0xA0 SHL SUB AND PUSH2 0x3E8E SWAP1 SWAP3 SWAP2 SWAP1 PUSH4 0xFFFFFFFF AND JUMP JUMPDEST DUP1 MLOAD SWAP1 SWAP2 POP ISZERO PUSH2 0x21C8 JUMPI DUP1 DUP1 PUSH1 0x20 ADD SWAP1 MLOAD DUP2 ADD SWAP1 PUSH2 0x3CFD SWAP2 SWAP1 PUSH2 0x45A3 JUMP JUMPDEST PUSH2 0x21C8 JUMPI PUSH1 0x40 MLOAD PUSH3 0x461BCD PUSH1 0xE5 SHL DUP2 MSTORE PUSH1 0x20 PUSH1 0x4 DUP3 ADD MSTORE PUSH1 0x2A PUSH1 0x24 DUP3 ADD MSTORE PUSH32 0x5361666545524332303A204552433230206F7065726174696F6E20646964206E PUSH1 0x44 DUP3 ADD MSTORE PUSH10 0x1BDD081CDD58D8D95959 PUSH1 0xB2 SHL PUSH1 0x64 DUP3 ADD MSTORE PUSH1 0x84 ADD PUSH2 0xAF5 JUMP JUMPDEST PUSH1 0x40 MLOAD PUSH1 0x1 PUSH1 0x1 PUSH1 0xA0 SHL SUB DUP1 DUP6 AND PUSH1 0x24 DUP4 ADD MSTORE DUP4 AND PUSH1 0x44 DUP3 ADD MSTORE PUSH1 0x64 DUP2 ADD DUP3 SWAP1 MSTORE PUSH2 0x356C SWAP1 DUP6 SWAP1 PUSH4 0x23B872DD PUSH1 0xE0 SHL SWAP1 PUSH1 0x84 ADD PUSH2 0x3349 JUMP JUMPDEST PUSH1 0x0 SLOAD PUSH2 0x100 SWAP1 DIV PUSH1 0xFF AND DUP1 PUSH2 0x3DAD JUMPI POP PUSH1 0x0 SLOAD PUSH1 0xFF AND ISZERO JUMPDEST PUSH2 0x3DC9 JUMPI PUSH1 0x40 MLOAD PUSH3 0x461BCD PUSH1 0xE5 SHL DUP2 MSTORE PUSH1 0x4 ADD PUSH2 0xAF5 SWAP1 PUSH2 0x47E0 JUMP JUMPDEST PUSH1 0x0 SLOAD PUSH2 0x100 SWAP1 DIV PUSH1 0xFF AND ISZERO DUP1 ISZERO PUSH2 0x3DEB JUMPI PUSH1 0x0 DUP1 SLOAD PUSH2 0xFFFF NOT AND PUSH2 0x101 OR SWAP1 SSTORE JUMPDEST PUSH2 0x3DF3 PUSH2 0x3E9D JUMP JUMPDEST PUSH2 0x3DFD DUP4 DUP4 PUSH2 0x3F07 JUMP JUMPDEST DUP1 ISZERO PUSH2 0x21C8 JUMPI PUSH1 0x0 DUP1 SLOAD PUSH2 0xFF00 NOT AND SWAP1 SSTORE POP POP POP JUMP JUMPDEST PUSH1 0x0 SLOAD PUSH2 0x100 SWAP1 DIV PUSH1 0xFF AND DUP1 PUSH2 0x3E2C JUMPI POP PUSH1 0x0 SLOAD PUSH1 0xFF AND ISZERO JUMPDEST PUSH2 0x3E48 JUMPI PUSH1 0x40 MLOAD PUSH3 0x461BCD PUSH1 0xE5 SHL DUP2 MSTORE PUSH1 0x4 ADD PUSH2 0xAF5 SWAP1 PUSH2 0x47E0 JUMP JUMPDEST PUSH1 0x0 SLOAD PUSH2 0x100 SWAP1 DIV PUSH1 0xFF AND ISZERO DUP1 ISZERO PUSH2 0x3E6A JUMPI PUSH1 0x0 DUP1 SLOAD PUSH2 0xFFFF NOT AND PUSH2 0x101 OR SWAP1 SSTORE JUMPDEST PUSH2 0x3E72 PUSH2 0x3E9D JUMP JUMPDEST PUSH2 0x3E7A PUSH2 0x3F9C JUMP JUMPDEST DUP1 ISZERO PUSH2 0x17CC JUMPI PUSH1 0x0 DUP1 SLOAD PUSH2 0xFF00 NOT AND SWAP1 SSTORE POP JUMP JUMPDEST PUSH1 0x60 PUSH2 0x3AA5 DUP5 DUP5 PUSH1 0x0 DUP6 PUSH2 0x4011 JUMP JUMPDEST PUSH1 0x0 SLOAD PUSH2 0x100 SWAP1 DIV PUSH1 0xFF AND DUP1 PUSH2 0x3EB6 JUMPI POP PUSH1 0x0 SLOAD PUSH1 0xFF AND ISZERO JUMPDEST PUSH2 0x3ED2 JUMPI PUSH1 0x40 MLOAD PUSH3 0x461BCD PUSH1 0xE5 SHL DUP2 MSTORE PUSH1 0x4 ADD PUSH2 0xAF5 SWAP1 PUSH2 0x47E0 JUMP JUMPDEST PUSH1 0x0 SLOAD PUSH2 0x100 SWAP1 DIV PUSH1 0xFF AND ISZERO DUP1 ISZERO PUSH2 0x3E7A JUMPI PUSH1 0x0 DUP1 SLOAD PUSH2 0xFFFF NOT AND PUSH2 0x101 OR SWAP1 SSTORE DUP1 ISZERO PUSH2 0x17CC JUMPI PUSH1 0x0 DUP1 SLOAD PUSH2 0xFF00 NOT AND SWAP1 SSTORE POP JUMP JUMPDEST PUSH1 0x0 SLOAD PUSH2 0x100 SWAP1 DIV PUSH1 0xFF AND DUP1 PUSH2 0x3F20 JUMPI POP PUSH1 0x0 SLOAD PUSH1 0xFF AND ISZERO JUMPDEST PUSH2 0x3F3C JUMPI PUSH1 0x40 MLOAD PUSH3 0x461BCD PUSH1 0xE5 SHL DUP2 MSTORE PUSH1 0x4 ADD PUSH2 0xAF5 SWAP1 PUSH2 0x47E0 JUMP JUMPDEST PUSH1 0x0 SLOAD PUSH2 0x100 SWAP1 DIV PUSH1 0xFF AND ISZERO DUP1 ISZERO PUSH2 0x3F5E JUMPI PUSH1 0x0 DUP1 SLOAD PUSH2 0xFFFF NOT AND PUSH2 0x101 OR SWAP1 SSTORE JUMPDEST DUP3 MLOAD PUSH2 0x3F71 SWAP1 PUSH1 0x36 SWAP1 PUSH1 0x20 DUP7 ADD SWAP1 PUSH2 0x41D1 JUMP JUMPDEST POP DUP2 MLOAD PUSH2 0x3F85 SWAP1 PUSH1 0x37 SWAP1 PUSH1 0x20 DUP6 ADD SWAP1 PUSH2 0x41D1 JUMP JUMPDEST POP DUP1 ISZERO PUSH2 0x21C8 JUMPI PUSH1 0x0 DUP1 SLOAD PUSH2 0xFF00 NOT AND SWAP1 SSTORE POP POP POP JUMP JUMPDEST PUSH1 0x0 SLOAD PUSH2 0x100 SWAP1 DIV PUSH1 0xFF AND DUP1 PUSH2 0x3FB5 JUMPI POP PUSH1 0x0 SLOAD PUSH1 0xFF AND ISZERO JUMPDEST PUSH2 0x3FD1 JUMPI PUSH1 0x40 MLOAD PUSH3 0x461BCD PUSH1 0xE5 SHL DUP2 MSTORE PUSH1 0x4 ADD PUSH2 0xAF5 SWAP1 PUSH2 0x47E0 JUMP JUMPDEST PUSH1 0x0 SLOAD PUSH2 0x100 SWAP1 DIV PUSH1 0xFF AND ISZERO DUP1 ISZERO PUSH2 0x3FF3 JUMPI PUSH1 0x0 DUP1 SLOAD PUSH2 0xFFFF NOT AND PUSH2 0x101 OR SWAP1 SSTORE JUMPDEST PUSH1 0x65 DUP1 SLOAD PUSH1 0xFF NOT AND SWAP1 SSTORE DUP1 ISZERO PUSH2 0x17CC JUMPI PUSH1 0x0 DUP1 SLOAD PUSH2 0xFF00 NOT AND SWAP1 SSTORE POP JUMP JUMPDEST PUSH1 0x60 DUP3 SELFBALANCE LT ISZERO PUSH2 0x4072 JUMPI PUSH1 0x40 MLOAD PUSH3 0x461BCD PUSH1 0xE5 SHL DUP2 MSTORE PUSH1 0x20 PUSH1 0x4 DUP3 ADD MSTORE PUSH1 0x26 PUSH1 0x24 DUP3 ADD MSTORE PUSH32 0x416464726573733A20696E73756666696369656E742062616C616E636520666F PUSH1 0x44 DUP3 ADD MSTORE PUSH6 0x1C8818D85B1B PUSH1 0xD2 SHL PUSH1 0x64 DUP3 ADD MSTORE PUSH1 0x84 ADD PUSH2 0xAF5 JUMP JUMPDEST DUP5 EXTCODESIZE PUSH2 0x40C0 JUMPI PUSH1 0x40 MLOAD PUSH3 0x461BCD PUSH1 0xE5 SHL DUP2 MSTORE PUSH1 0x20 PUSH1 0x4 DUP3 ADD MSTORE PUSH1 0x1D PUSH1 0x24 DUP3 ADD MSTORE PUSH32 0x416464726573733A2063616C6C20746F206E6F6E2D636F6E7472616374000000 PUSH1 0x44 DUP3 ADD MSTORE PUSH1 0x64 ADD PUSH2 0xAF5 JUMP JUMPDEST PUSH1 0x0 DUP1 DUP7 PUSH1 0x1 PUSH1 0x1 PUSH1 0xA0 SHL SUB AND DUP6 DUP8 PUSH1 0x40 MLOAD PUSH2 0x40DC SWAP2 SWAP1 PUSH2 0x4A41 JUMP JUMPDEST PUSH1 0x0 PUSH1 0x40 MLOAD DUP1 DUP4 SUB DUP2 DUP6 DUP8 GAS CALL SWAP3 POP POP POP RETURNDATASIZE DUP1 PUSH1 0x0 DUP2 EQ PUSH2 0x4119 JUMPI PUSH1 0x40 MLOAD SWAP2 POP PUSH1 0x1F NOT PUSH1 0x3F RETURNDATASIZE ADD AND DUP3 ADD PUSH1 0x40 MSTORE RETURNDATASIZE DUP3 MSTORE RETURNDATASIZE PUSH1 0x0 PUSH1 0x20 DUP5 ADD RETURNDATACOPY PUSH2 0x411E JUMP JUMPDEST PUSH1 0x60 SWAP2 POP JUMPDEST POP SWAP2 POP SWAP2 POP PUSH2 0x412E DUP3 DUP3 DUP7 PUSH2 0x4139 JUMP JUMPDEST SWAP8 SWAP7 POP POP POP POP POP POP POP JUMP JUMPDEST PUSH1 0x60 DUP4 ISZERO PUSH2 0x4148 JUMPI POP DUP2 PUSH2 0x10FD JUMP JUMPDEST DUP3 MLOAD ISZERO PUSH2 0x4158 JUMPI DUP3 MLOAD DUP1 DUP5 PUSH1 0x20 ADD REVERT JUMPDEST DUP2 PUSH1 0x40 MLOAD PUSH3 0x461BCD PUSH1 0xE5 SHL DUP2 MSTORE PUSH1 0x4 ADD PUSH2 0xAF5 SWAP2 SWAP1 PUSH2 0x4286 JUMP JUMPDEST DUP3 DUP1 SLOAD DUP3 DUP3 SSTORE SWAP1 PUSH1 0x0 MSTORE PUSH1 0x20 PUSH1 0x0 KECCAK256 SWAP1 DUP2 ADD SWAP3 DUP3 ISZERO PUSH2 0x41C5 JUMPI SWAP2 PUSH1 0x20 MUL DUP3 ADD JUMPDEST DUP3 DUP2 GT ISZERO PUSH2 0x41C5 JUMPI DUP2 SLOAD PUSH1 0x1 PUSH1 0x1 PUSH1 0xA0 SHL SUB NOT AND PUSH1 0x1 PUSH1 0x1 PUSH1 0xA0 SHL SUB DUP5 CALLDATALOAD AND OR DUP3 SSTORE PUSH1 0x20 SWAP1 SWAP3 ADD SWAP2 PUSH1 0x1 SWAP1 SWAP2 ADD SWAP1 PUSH2 0x4192 JUMP JUMPDEST POP PUSH2 0x384B SWAP3 SWAP2 POP PUSH2 0x4245 JUMP JUMPDEST DUP3 DUP1 SLOAD PUSH2 0x41DD SWAP1 PUSH2 0x453B JUMP JUMPDEST SWAP1 PUSH1 0x0 MSTORE PUSH1 0x20 PUSH1 0x0 KECCAK256 SWAP1 PUSH1 0x1F ADD PUSH1 0x20 SWAP1 DIV DUP2 ADD SWAP3 DUP3 PUSH2 0x41FF JUMPI PUSH1 0x0 DUP6 SSTORE PUSH2 0x41C5 JUMP JUMPDEST DUP3 PUSH1 0x1F LT PUSH2 0x4218 JUMPI DUP1 MLOAD PUSH1 0xFF NOT AND DUP4 DUP1 ADD OR DUP6 SSTORE PUSH2 0x41C5 JUMP JUMPDEST DUP3 DUP1 ADD PUSH1 0x1 ADD DUP6 SSTORE DUP3 ISZERO PUSH2 0x41C5 JUMPI SWAP2 DUP3 ADD JUMPDEST DUP3 DUP2 GT ISZERO PUSH2 0x41C5 JUMPI DUP3 MLOAD DUP3 SSTORE SWAP2 PUSH1 0x20 ADD SWAP2 SWAP1 PUSH1 0x1 ADD SWAP1 PUSH2 0x422A JUMP JUMPDEST JUMPDEST DUP1 DUP3 GT ISZERO PUSH2 0x384B JUMPI PUSH1 0x0 DUP2 SSTORE PUSH1 0x1 ADD PUSH2 0x4246 JUMP JUMPDEST PUSH1 0x0 JUMPDEST DUP4 DUP2 LT ISZERO PUSH2 0x4275 JUMPI DUP2 DUP2 ADD MLOAD DUP4 DUP3 ADD MSTORE PUSH1 0x20 ADD PUSH2 0x425D JUMP JUMPDEST DUP4 DUP2 GT ISZERO PUSH2 0x356C JUMPI POP POP PUSH1 0x0 SWAP2 ADD MSTORE JUMP JUMPDEST PUSH1 0x20 DUP2 MSTORE PUSH1 0x0 DUP3 MLOAD DUP1 PUSH1 0x20 DUP5 ADD MSTORE PUSH2 0x42A5 DUP2 PUSH1 0x40 DUP6 ADD PUSH1 0x20 DUP8 ADD PUSH2 0x425A JUMP JUMPDEST PUSH1 0x1F ADD PUSH1 0x1F NOT AND SWAP2 SWAP1 SWAP2 ADD PUSH1 0x40 ADD SWAP3 SWAP2 POP POP JUMP JUMPDEST PUSH1 0x0 PUSH1 0x20 DUP3 DUP5 SUB SLT ISZERO PUSH2 0x42CB JUMPI PUSH1 0x0 DUP1 REVERT JUMPDEST DUP2 CALLDATALOAD PUSH1 0x1 PUSH1 0x1 PUSH1 0x80 SHL SUB DUP2 AND DUP2 EQ PUSH2 0x10FD JUMPI PUSH1 0x0 DUP1 REVERT JUMPDEST PUSH1 0x1 PUSH1 0x1 PUSH1 0xA0 SHL SUB DUP2 AND DUP2 EQ PUSH2 0x17CC JUMPI PUSH1 0x0 DUP1 REVERT JUMPDEST PUSH1 0x0 DUP1 PUSH1 0x40 DUP4 DUP6 SUB SLT ISZERO PUSH2 0x430A JUMPI PUSH1 0x0 DUP1 REVERT JUMPDEST DUP3 CALLDATALOAD PUSH2 0x4315 DUP2 PUSH2 0x42E2 JUMP JUMPDEST SWAP5 PUSH1 0x20 SWAP4 SWAP1 SWAP4 ADD CALLDATALOAD SWAP4 POP POP POP JUMP JUMPDEST PUSH1 0x20 DUP1 DUP3 MSTORE DUP3 MLOAD DUP3 DUP3 ADD DUP2 SWAP1 MSTORE PUSH1 0x0 SWAP2 SWAP1 DUP5 DUP3 ADD SWAP1 PUSH1 0x40 DUP6 ADD SWAP1 DUP5 JUMPDEST DUP2 DUP2 LT ISZERO PUSH2 0x4364 JUMPI DUP4 MLOAD PUSH1 0x1 PUSH1 0x1 PUSH1 0xA0 SHL SUB AND DUP4 MSTORE SWAP3 DUP5 ADD SWAP3 SWAP2 DUP5 ADD SWAP2 PUSH1 0x1 ADD PUSH2 0x433F JUMP JUMPDEST POP SWAP1 SWAP7 SWAP6 POP POP POP POP POP POP JUMP JUMPDEST PUSH1 0x0 PUSH1 0x20 DUP3 DUP5 SUB SLT ISZERO PUSH2 0x4382 JUMPI PUSH1 0x0 DUP1 REVERT JUMPDEST POP CALLDATALOAD SWAP2 SWAP1 POP JUMP JUMPDEST PUSH1 0x0 PUSH1 0x20 DUP3 DUP5 SUB SLT ISZERO PUSH2 0x439B JUMPI PUSH1 0x0 DUP1 REVERT JUMPDEST DUP2 CALLDATALOAD PUSH2 0x10FD DUP2 PUSH2 0x42E2 JUMP JUMPDEST PUSH1 0x0 DUP1 PUSH1 0x0 PUSH1 0x60 DUP5 DUP7 SUB SLT ISZERO PUSH2 0x43BB JUMPI PUSH1 0x0 DUP1 REVERT JUMPDEST DUP4 CALLDATALOAD PUSH2 0x43C6 DUP2 PUSH2 0x42E2 JUMP JUMPDEST SWAP3 POP PUSH1 0x20 DUP5 ADD CALLDATALOAD PUSH2 0x43D6 DUP2 PUSH2 0x42E2 JUMP JUMPDEST SWAP3 SWAP6 SWAP3 SWAP5 POP POP POP PUSH1 0x40 SWAP2 SWAP1 SWAP2 ADD CALLDATALOAD SWAP1 JUMP JUMPDEST PUSH1 0x0 DUP1 PUSH1 0x40 DUP4 DUP6 SUB SLT ISZERO PUSH2 0x43FA JUMPI PUSH1 0x0 DUP1 REVERT JUMPDEST POP POP DUP1 CALLDATALOAD SWAP3 PUSH1 0x20 SWAP1 SWAP2 ADD CALLDATALOAD SWAP2 POP JUMP JUMPDEST PUSH1 0x0 PUSH1 0x20 DUP3 DUP5 SUB SLT ISZERO PUSH2 0x441B JUMPI PUSH1 0x0 DUP1 REVERT JUMPDEST DUP2 CALLDATALOAD PUSH1 0x1 PUSH1 0x1 PUSH1 0x40 SHL SUB DUP2 AND DUP2 EQ PUSH2 0x10FD JUMPI PUSH1 0x0 DUP1 REVERT JUMPDEST PUSH1 0x0 DUP1 PUSH1 0x20 DUP4 DUP6 SUB SLT ISZERO PUSH2 0x4445 JUMPI PUSH1 0x0 DUP1 REVERT JUMPDEST DUP3 CALLDATALOAD PUSH1 0x1 PUSH1 0x1 PUSH1 0x40 SHL SUB DUP1 DUP3 GT ISZERO PUSH2 0x445C JUMPI PUSH1 0x0 DUP1 REVERT JUMPDEST DUP2 DUP6 ADD SWAP2 POP DUP6 PUSH1 0x1F DUP4 ADD SLT PUSH2 0x4470 JUMPI PUSH1 0x0 DUP1 REVERT JUMPDEST DUP2 CALLDATALOAD DUP2 DUP2 GT ISZERO PUSH2 0x447F JUMPI PUSH1 0x0 DUP1 REVERT JUMPDEST DUP7 PUSH1 0x20 DUP3 PUSH1 0x5 SHL DUP6 ADD ADD GT ISZERO PUSH2 0x4494 JUMPI PUSH1 0x0 DUP1 REVERT JUMPDEST PUSH1 0x20 SWAP3 SWAP1 SWAP3 ADD SWAP7 SWAP2 SWAP6 POP SWAP1 SWAP4 POP POP POP POP JUMP JUMPDEST PUSH1 0x0 DUP1 PUSH1 0x40 DUP4 DUP6 SUB SLT ISZERO PUSH2 0x44B9 JUMPI PUSH1 0x0 DUP1 REVERT JUMPDEST DUP3 CALLDATALOAD PUSH2 0x44C4 DUP2 PUSH2 0x42E2 JUMP JUMPDEST SWAP2 POP PUSH1 0x20 DUP4 ADD CALLDATALOAD PUSH2 0x44D4 DUP2 PUSH2 0x42E2 JUMP JUMPDEST DUP1 SWAP2 POP POP SWAP3 POP SWAP3 SWAP1 POP JUMP JUMPDEST PUSH1 0x0 DUP1 PUSH1 0x0 DUP1 PUSH1 0x80 DUP6 DUP8 SUB SLT ISZERO PUSH2 0x44F5 JUMPI PUSH1 0x0 DUP1 REVERT JUMPDEST DUP5 CALLDATALOAD PUSH2 0x4500 DUP2 PUSH2 0x42E2 JUMP JUMPDEST SWAP4 POP PUSH1 0x20 DUP6 ADD CALLDATALOAD PUSH2 0x4510 DUP2 PUSH2 0x42E2 JUMP JUMPDEST SWAP3 POP PUSH1 0x40 DUP6 ADD CALLDATALOAD PUSH2 0x4520 DUP2 PUSH2 0x42E2 JUMP JUMPDEST SWAP2 POP PUSH1 0x60 DUP6 ADD CALLDATALOAD PUSH2 0x4530 DUP2 PUSH2 0x42E2 JUMP JUMPDEST SWAP4 SWAP7 SWAP3 SWAP6 POP SWAP1 SWAP4 POP POP JUMP JUMPDEST PUSH1 0x1 DUP2 DUP2 SHR SWAP1 DUP3 AND DUP1 PUSH2 0x454F JUMPI PUSH1 0x7F DUP3 AND SWAP2 POP JUMPDEST PUSH1 0x20 DUP3 LT DUP2 EQ ISZERO PUSH2 0x4570 JUMPI PUSH4 0x4E487B71 PUSH1 0xE0 SHL PUSH1 0x0 MSTORE PUSH1 0x22 PUSH1 0x4 MSTORE PUSH1 0x24 PUSH1 0x0 REVERT JUMPDEST POP SWAP2 SWAP1 POP JUMP JUMPDEST PUSH1 0x1 PUSH1 0x1 PUSH1 0xA0 SHL SUB SWAP4 DUP5 AND DUP2 MSTORE SWAP2 SWAP1 SWAP3 AND PUSH1 0x20 DUP3 ADD MSTORE PUSH1 0x1 PUSH1 0x1 PUSH1 0xE0 SHL SUB NOT SWAP1 SWAP2 AND PUSH1 0x40 DUP3 ADD MSTORE PUSH1 0x60 ADD SWAP1 JUMP JUMPDEST PUSH1 0x0 PUSH1 0x20 DUP3 DUP5 SUB SLT ISZERO PUSH2 0x45B5 JUMPI PUSH1 0x0 DUP1 REVERT JUMPDEST DUP2 MLOAD DUP1 ISZERO ISZERO DUP2 EQ PUSH2 0x10FD JUMPI PUSH1 0x0 DUP1 REVERT JUMPDEST PUSH1 0x20 DUP1 DUP3 MSTORE PUSH1 0xC SWAP1 DUP3 ADD MSTORE PUSH12 0x15539055551213D492569151 PUSH1 0xA2 SHL PUSH1 0x40 DUP3 ADD MSTORE PUSH1 0x60 ADD SWAP1 JUMP JUMPDEST PUSH4 0x4E487B71 PUSH1 0xE0 SHL PUSH1 0x0 MSTORE PUSH1 0x11 PUSH1 0x4 MSTORE PUSH1 0x24 PUSH1 0x0 REVERT JUMPDEST PUSH1 0x0 PUSH1 0x1 PUSH1 0x1 PUSH1 0x40 SHL SUB DUP1 DUP4 AND DUP2 DUP6 AND DUP1 DUP4 SUB DUP3 GT ISZERO PUSH2 0x4623 JUMPI PUSH2 0x4623 PUSH2 0x45EB JUMP JUMPDEST ADD SWAP5 SWAP4 POP POP POP POP JUMP JUMPDEST PUSH1 0x0 PUSH1 0x0 NOT DUP3 EQ ISZERO PUSH2 0x4640 JUMPI PUSH2 0x4640 PUSH2 0x45EB JUMP JUMPDEST POP PUSH1 0x1 ADD SWAP1 JUMP JUMPDEST PUSH1 0x0 DUP3 DUP3 LT ISZERO PUSH2 0x4659 JUMPI PUSH2 0x4659 PUSH2 0x45EB JUMP JUMPDEST POP SUB SWAP1 JUMP JUMPDEST PUSH1 0x0 DUP3 NOT DUP3 GT ISZERO PUSH2 0x4671 JUMPI PUSH2 0x4671 PUSH2 0x45EB JUMP JUMPDEST POP ADD SWAP1 JUMP JUMPDEST PUSH1 0x0 DUP2 PUSH1 0x0 NOT DIV DUP4 GT DUP3 ISZERO ISZERO AND ISZERO PUSH2 0x4690 JUMPI PUSH2 0x4690 PUSH2 0x45EB JUMP JUMPDEST POP MUL SWAP1 JUMP JUMPDEST PUSH1 0x0 DUP3 PUSH2 0x46B2 JUMPI PUSH4 0x4E487B71 PUSH1 0xE0 SHL PUSH1 0x0 MSTORE PUSH1 0x12 PUSH1 0x4 MSTORE PUSH1 0x24 PUSH1 0x0 REVERT JUMPDEST POP DIV SWAP1 JUMP JUMPDEST PUSH1 0x0 PUSH1 0x20 DUP3 DUP5 SUB SLT ISZERO PUSH2 0x46C9 JUMPI PUSH1 0x0 DUP1 REVERT JUMPDEST POP MLOAD SWAP2 SWAP1 POP JUMP JUMPDEST PUSH1 0x20 DUP1 DUP3 MSTORE DUP2 DUP2 ADD DUP4 SWAP1 MSTORE PUSH1 0x0 SWAP1 DUP5 PUSH1 0x40 DUP5 ADD DUP4 JUMPDEST DUP7 DUP2 LT ISZERO PUSH2 0x4713 JUMPI DUP3 CALLDATALOAD PUSH2 0x46F8 DUP2 PUSH2 0x42E2 JUMP JUMPDEST PUSH1 0x1 PUSH1 0x1 PUSH1 0xA0 SHL SUB AND DUP3 MSTORE SWAP2 DUP4 ADD SWAP2 SWAP1 DUP4 ADD SWAP1 PUSH1 0x1 ADD PUSH2 0x46E5 JUMP JUMPDEST POP SWAP7 SWAP6 POP POP POP POP POP POP JUMP JUMPDEST PUSH1 0x0 PUSH1 0x1 PUSH1 0x1 PUSH1 0xF8 SHL SUB DUP4 DUP2 AND SWAP1 DUP4 AND DUP2 DUP2 LT ISZERO PUSH2 0x473E JUMPI PUSH2 0x473E PUSH2 0x45EB JUMP JUMPDEST SUB SWAP4 SWAP3 POP POP POP JUMP JUMPDEST PUSH1 0x0 PUSH1 0x20 DUP3 DUP5 SUB SLT ISZERO PUSH2 0x4758 JUMPI PUSH1 0x0 DUP1 REVERT JUMPDEST DUP2 MLOAD PUSH1 0xFF DUP2 AND DUP2 EQ PUSH2 0x10FD JUMPI PUSH1 0x0 DUP1 REVERT JUMPDEST PUSH1 0x0 PUSH1 0x1 PUSH1 0x1 PUSH1 0xF8 SHL SUB DUP3 DUP2 AND DUP5 DUP3 AND DUP1 DUP4 SUB DUP3 GT ISZERO PUSH2 0x4623 JUMPI PUSH2 0x4623 PUSH2 0x45EB JUMP JUMPDEST PUSH1 0x0 PUSH1 0x1 PUSH1 0x1 PUSH1 0x80 SHL SUB DUP1 DUP4 AND DUP2 DUP6 AND DUP1 DUP4 SUB DUP3 GT ISZERO PUSH2 0x4623 JUMPI PUSH2 0x4623 PUSH2 0x45EB JUMP JUMPDEST PUSH4 0x4E487B71 PUSH1 0xE0 SHL PUSH1 0x0 MSTORE PUSH1 0x32 PUSH1 0x4 MSTORE PUSH1 0x24 PUSH1 0x0 REVERT JUMPDEST PUSH1 0x0 PUSH1 0x20 DUP3 DUP5 SUB SLT ISZERO PUSH2 0x47D5 JUMPI PUSH1 0x0 DUP1 REVERT JUMPDEST DUP2 MLOAD PUSH2 0x10FD DUP2 PUSH2 0x42E2 JUMP JUMPDEST PUSH1 0x20 DUP1 DUP3 MSTORE PUSH1 0x2E SWAP1 DUP3 ADD MSTORE PUSH32 0x496E697469616C697A61626C653A20636F6E747261637420697320616C726561 PUSH1 0x40 DUP3 ADD MSTORE PUSH14 0x191E481A5B9A5D1A585B1A5E9959 PUSH1 0x92 SHL PUSH1 0x60 DUP3 ADD MSTORE PUSH1 0x80 ADD SWAP1 JUMP JUMPDEST PUSH4 0x4E487B71 PUSH1 0xE0 SHL PUSH1 0x0 MSTORE PUSH1 0x41 PUSH1 0x4 MSTORE PUSH1 0x24 PUSH1 0x0 REVERT JUMPDEST PUSH1 0x0 PUSH1 0x20 DUP3 DUP5 SUB SLT ISZERO PUSH2 0x4856 JUMPI PUSH1 0x0 DUP1 REVERT JUMPDEST DUP2 MLOAD PUSH1 0x1 PUSH1 0x1 PUSH1 0x40 SHL SUB DUP1 DUP3 GT ISZERO PUSH2 0x486D JUMPI PUSH1 0x0 DUP1 REVERT JUMPDEST DUP2 DUP5 ADD SWAP2 POP DUP5 PUSH1 0x1F DUP4 ADD SLT PUSH2 0x4881 JUMPI PUSH1 0x0 DUP1 REVERT JUMPDEST DUP2 MLOAD DUP2 DUP2 GT ISZERO PUSH2 0x4893 JUMPI PUSH2 0x4893 PUSH2 0x482E JUMP JUMPDEST PUSH1 0x40 MLOAD PUSH1 0x1F DUP3 ADD PUSH1 0x1F NOT SWAP1 DUP2 AND PUSH1 0x3F ADD AND DUP2 ADD SWAP1 DUP4 DUP3 GT DUP2 DUP4 LT OR ISZERO PUSH2 0x48BB JUMPI PUSH2 0x48BB PUSH2 0x482E JUMP JUMPDEST DUP2 PUSH1 0x40 MSTORE DUP3 DUP2 MSTORE DUP8 PUSH1 0x20 DUP5 DUP8 ADD ADD GT ISZERO PUSH2 0x48D4 JUMPI PUSH1 0x0 DUP1 REVERT JUMPDEST PUSH2 0x412E DUP4 PUSH1 0x20 DUP4 ADD PUSH1 0x20 DUP9 ADD PUSH2 0x425A JUMP JUMPDEST PUSH1 0x0 DUP5 MLOAD PUSH2 0x48F7 DUP2 DUP5 PUSH1 0x20 DUP10 ADD PUSH2 0x425A JUMP JUMPDEST DUP5 MLOAD SWAP1 DUP4 ADD SWAP1 PUSH2 0x490B DUP2 DUP4 PUSH1 0x20 DUP10 ADD PUSH2 0x425A JUMP JUMPDEST DUP5 MLOAD SWAP2 ADD SWAP1 PUSH2 0x491E DUP2 DUP4 PUSH1 0x20 DUP9 ADD PUSH2 0x425A JUMP JUMPDEST ADD SWAP6 SWAP5 POP POP POP POP POP JUMP JUMPDEST PUSH1 0x0 DUP4 MLOAD PUSH2 0x493A DUP2 DUP5 PUSH1 0x20 DUP9 ADD PUSH2 0x425A JUMP JUMPDEST DUP4 MLOAD SWAP1 DUP4 ADD SWAP1 PUSH2 0x4623 DUP2 DUP4 PUSH1 0x20 DUP9 ADD PUSH2 0x425A JUMP JUMPDEST PUSH1 0x1 DUP2 DUP2 JUMPDEST DUP1 DUP6 GT ISZERO PUSH2 0x4989 JUMPI DUP2 PUSH1 0x0 NOT DIV DUP3 GT ISZERO PUSH2 0x496F JUMPI PUSH2 0x496F PUSH2 0x45EB JUMP JUMPDEST DUP1 DUP6 AND ISZERO PUSH2 0x497C JUMPI SWAP2 DUP2 MUL SWAP2 JUMPDEST SWAP4 DUP5 SHR SWAP4 SWAP1 DUP1 MUL SWAP1 PUSH2 0x4953 JUMP JUMPDEST POP SWAP3 POP SWAP3 SWAP1 POP JUMP JUMPDEST PUSH1 0x0 DUP3 PUSH2 0x49A0 JUMPI POP PUSH1 0x1 PUSH2 0xBE3 JUMP JUMPDEST DUP2 PUSH2 0x49AD JUMPI POP PUSH1 0x0 PUSH2 0xBE3 JUMP JUMPDEST DUP2 PUSH1 0x1 DUP2 EQ PUSH2 0x49C3 JUMPI PUSH1 0x2 DUP2 EQ PUSH2 0x49CD JUMPI PUSH2 0x49E9 JUMP JUMPDEST PUSH1 0x1 SWAP2 POP POP PUSH2 0xBE3 JUMP JUMPDEST PUSH1 0xFF DUP5 GT ISZERO PUSH2 0x49DE JUMPI PUSH2 0x49DE PUSH2 0x45EB JUMP JUMPDEST POP POP PUSH1 0x1 DUP3 SHL PUSH2 0xBE3 JUMP JUMPDEST POP PUSH1 0x20 DUP4 LT PUSH2 0x133 DUP4 LT AND PUSH1 0x4E DUP5 LT PUSH1 0xB DUP5 LT AND OR ISZERO PUSH2 0x4A0C JUMPI POP DUP2 DUP2 EXP PUSH2 0xBE3 JUMP JUMPDEST PUSH2 0x4A16 DUP4 DUP4 PUSH2 0x494E JUMP JUMPDEST DUP1 PUSH1 0x0 NOT DIV DUP3 GT ISZERO PUSH2 0x4A2A JUMPI PUSH2 0x4A2A PUSH2 0x45EB JUMP JUMPDEST MUL SWAP4 SWAP3 POP POP POP JUMP JUMPDEST PUSH1 0x0 PUSH2 0x10FD PUSH1 0xFF DUP5 AND DUP4 PUSH2 0x4991 JUMP JUMPDEST PUSH1 0x0 DUP3 MLOAD PUSH2 0x4A53 DUP2 DUP5 PUSH1 0x20 DUP8 ADD PUSH2 0x425A JUMP JUMPDEST SWAP2 SWAP1 SWAP2 ADD SWAP3 SWAP2 POP POP JUMP INVALID LOG2 PUSH5 0x6970667358 0x22 SLT KECCAK256 SMOD REVERT 0x2D CODECOPY 0xA6 0x2A PUSH12 0xB145C637D024126579A58A6B ADDRESS CALLDATASIZE 0xAF 0xAC 0xC9 LOG3 INVALID 0x4C RETURNDATACOPY 0xD2 PC 0xC9 0x4B PUSH5 0x736F6C6343 STOP ADDMOD 0xC STOP CALLER ",
  "sha1": "21ecd7a2dbce34b7bf64297e3c301e44245ba1db",
  "source": "//   ______\n//  /      \\\n// /$$$$$$  | __    __  __    __   ______\n// $$ |__$$ |/  |  /  |/  \\  /  | /      \\\n// $$    $$ |$$ |  $$ |$$  \\/$$/ /$$$$$$  |\n// $$$$$$$$ |$$ |  $$ | $$  $$<  $$ |  $$ |\n// $$ |  $$ |$$ \\__$$ | /$$$$  \\ $$ \\__$$ |\n// $$ |  $$ |$$    $$/ /$$/ $$  |$$    $$/\n// $$/   $$/  $$$$$$/  $$/   $$/  $$$$$$/\n//\n// auxo.fi\n\n// SPDX-License-Identifier: AGPL-3.0-only\npragma solidity 0.8.12;\n\nimport {Authority} from \"./auth/Auth.sol\";\nimport {IVault} from \"../interfaces/IVault.sol\";\nimport {IStrategy} from \"../interfaces/IStrategy.sol\";\nimport {SafeCastLib as SafeCast} from \"./libraries/SafeCastLib.sol\";\nimport {FixedPointMathLib as FixedPointMath} from \"./libraries/FixedPointMathLib.sol\";\nimport {ERC20Upgradeable as ERC20} from \"@openzeppelin/contracts-upgradeable/token/ERC20/ERC20Upgradeable.sol\";\nimport {PausableUpgradeable as Pausable} from \"@openzeppelin/contracts-upgradeable/security/PausableUpgradeable.sol\";\nimport {SafeERC20Upgradeable as SafeERC20} from \"@openzeppelin/contracts-upgradeable/token/ERC20/utils/SafeERC20Upgradeable.sol\";\n\n/// @title Vault\n/// @author dantop114\n/// @notice A vault seeking for yield.\ncontract Vault is ERC20, Pausable {\n    using SafeERC20 for ERC20;\n    using SafeCast for uint256;\n    using FixedPointMath for uint256;\n\n    /*///////////////////////////////////////////////////////////////\n                              IMMUTABLES\n    ///////////////////////////////////////////////////////////////*/\n\n    /// @notice The Vault's token symbol prefix.\n    bytes internal constant S_PREFIX = bytes(\"auxo\");\n\n    /// @notice The Vault's token name prefix.\n    bytes internal constant N_PREFIX = bytes(\"Auxo \");\n\n    /// @notice The Vault's token name suffix.\n    bytes internal constant N_SUFFIX = bytes(\" Vault\");\n\n    /// @notice Max number of strategies the Vault can handle.\n    uint256 internal constant MAX_STRATEGIES = 20;\n\n    /// @notice Vault's API version.\n    string public constant VERSION = \"0.2\";\n\n    /*///////////////////////////////////////////////////////////////\n                        STRUCTS DECLARATIONS\n    ///////////////////////////////////////////////////////////////*/\n\n    /// @dev Packed struct of strategy data.\n    /// @param trusted Whether the strategy is trusted.\n    /// @param balance The amount of underlying tokens held in the strategy.\n    struct StrategyData {\n        // Used to determine if the Vault will operate on a strategy.\n        bool trusted;\n        // Used to determine profit and loss during harvests of the strategy.\n        uint248 balance;\n    }\n\n    /// @dev Struct for batched burning events.\n    /// @param totalShares Shares to burn during the event.\n    /// @param amountPerShare Underlying amount per share (this differs from exchangeRate at the moment of batched burning).\n    struct BatchBurn {\n        uint256 totalShares;\n        uint256 amountPerShare;\n    }\n\n    /// @dev Struct for users' batched burning requests.\n    /// @param round Batched burning event index.\n    /// @param shares Shares to burn for the user.\n    struct BatchBurnReceipt {\n        uint256 round;\n        uint256 shares;\n    }\n\n    /*///////////////////////////////////////////////////////////////\n                                STORAGE\n    //////////////////////////////////////////////////////////////*/\n\n    /// @notice Blocks mined in a year.\n    uint256 public blocksPerYear;\n\n    /// @notice Vault Auth module.\n    Authority public auth;\n\n    /// @notice The underlying token the vault accepts.\n    ERC20 public underlying;\n\n    /// @notice The underlying token decimals.\n    uint8 public underlyingDecimals;\n\n    /// @notice The base unit of the underlying token and hence the Vault share token.\n    /// @dev Equal to 10 ** underlyingDecimals. Used for fixed point arithmetic.\n    uint256 public baseUnit;\n\n    /// @notice The percentage of profit recognized each harvest to reserve as fees.\n    /// @dev A fixed point number where 1e18 represents 100% and 0 represents 0%.\n    uint256 public harvestFeePercent;\n\n    /// @notice The address receiving harvest fees (denominated in Vault's shares).\n    address public harvestFeeReceiver;\n\n    /// @notice The percentage of shares recognized each burning to reserve as fees.\n    /// @dev A fixed point number where 1e18 represents 100% and 0 represents 0%.\n    uint256 public burningFeePercent;\n\n    /// @notice The address receiving burning fees (denominated in Vault's shares).\n    address public burningFeeReceiver;\n\n    /// @notice The period in seconds during which multiple harvests can occur\n    /// regardless if they are taking place before the harvest delay has elapsed.\n    /// @dev Long harvest delays open up the Vault to profit distribution DOS attacks.\n    uint128 public harvestWindow;\n\n    /// @notice The period in seconds over which locked profit is unlocked.\n    /// @dev Cannot be 0 as it opens harvests up to sandwich attacks.\n    uint64 public harvestDelay;\n\n    /// @notice The value that will replace harvestDelay next harvest.\n    /// @dev In the case that the next delay is 0, no update will be applied.\n    uint64 public nextHarvestDelay;\n\n    /// @notice The total amount of underlying tokens held in strategies at the time of the last harvest.\n    /// @dev Includes maxLockedProfit, must be correctly subtracted to compute available/free holdings.\n    uint256 public totalStrategyHoldings;\n\n    /// @notice Maps strategies to data the Vault holds on them.\n    mapping(IStrategy => StrategyData) public getStrategyData;\n\n    /// @notice Exchange rate at the beginning of latest harvest window\n    uint256 public lastHarvestExchangeRate;\n\n    /// @notice Latest harvest interval in blocks\n    uint256 public lastHarvestIntervalInBlocks;\n\n    /// @notice The block number when the first harvest in the most recent harvest window occurred.\n    uint256 public lastHarvestWindowStartBlock;\n\n    /// @notice A timestamp representing when the first harvest in the most recent harvest window occurred.\n    /// @dev May be equal to lastHarvest if there was/has only been one harvest in the most last/current window.\n    uint64 public lastHarvestWindowStart;\n\n    /// @notice A timestamp representing when the most recent harvest occurred.\n    uint64 public lastHarvest;\n\n    /// @notice The amount of locked profit at the end of the last harvest.\n    uint128 public maxLockedProfit;\n\n    /// @notice An ordered array of strategies representing the withdrawal queue.\n    /// @dev The queue is processed in descending order, meaning the last index will be withdrawn from first.\n    /// @dev There are not sanity checks on the withdrawal queue, so any control should be done off-chain.\n    IStrategy[] public withdrawalQueue;\n\n    /// @notice Current batched burning round.\n    uint256 public batchBurnRound;\n\n    /// @notice Balance reserved to batched burning withdrawals.\n    uint256 public batchBurnBalance;\n\n    /// @notice Maps user's address to withdrawal request.\n    mapping(address => BatchBurnReceipt) public userBatchBurnReceipts;\n\n    /// @notice Maps social burning events rounds to batched burn details.\n    mapping(uint256 => BatchBurn) public batchBurns;\n\n    /// @notice Amount of shares a single address can hold.\n    uint256 public userDepositLimit;\n\n    /// @notice Amount of underlying cap for this vault.\n    uint256 public vaultDepositLimit;\n\n    /// @notice Estimated return recorded during last harvest.\n    uint256 public estimatedReturn;\n\n    /*///////////////////////////////////////////////////////////////\n                                EVENTS\n    //////////////////////////////////////////////////////////////*/\n\n    /// @notice Emitted when the Authority module is updated.\n    /// @param newAuth The new Authority module.\n    event AuthUpdated(Authority newAuth);\n\n    /// @notice Emitted when the fee percentage is updated.\n    /// @param newFeePercent The new fee percentage.\n    event HarvestFeePercentUpdated(uint256 newFeePercent);\n\n    /// @notice Emitted when the batched burning fee percentage is updated.\n    /// @param newFeePercent The new fee percentage.\n    event BurningFeePercentUpdated(uint256 newFeePercent);\n\n    /// @notice Emitted when harvest fees receiver is updated.\n    /// @param receiver The new receiver\n    event HarvestFeeReceiverUpdated(address indexed receiver);\n\n    /// @notice Emitted when burning fees receiver is updated.\n    /// @param receiver The new receiver\n    event BurningFeeReceiverUpdated(address indexed receiver);\n\n    //// @notice Emitted when the harvest window is updated.\n    //// @param newHarvestWindow The new harvest window.\n    event HarvestWindowUpdated(uint128 newHarvestWindow);\n\n    /// @notice Emitted when the harvest delay is updated.\n    /// @param account The address changing the harvest delay\n    /// @param newHarvestDelay The new harvest delay.\n    event HarvestDelayUpdated(address indexed account, uint64 newHarvestDelay);\n\n    /// @notice Emitted when the harvest delay is scheduled to be updated next harvest.\n    /// @param newHarvestDelay The scheduled updated harvest delay.\n    event HarvestDelayUpdateScheduled(uint64 newHarvestDelay);\n\n    /// @notice Emitted when the withdrawal queue is updated.\n    /// @param replacedWithdrawalQueue The new withdrawal queue.\n    event WithdrawalQueueSet(IStrategy[] replacedWithdrawalQueue);\n\n    /// @notice Emitted when a strategy is set to trusted.\n    /// @param strategy The strategy that became trusted.\n    event StrategyTrusted(IStrategy indexed strategy);\n\n    /// @notice Emitted when a strategy is set to untrusted.\n    /// @param strategy The strategy that became untrusted.\n    event StrategyDistrusted(IStrategy indexed strategy);\n\n    /// @notice Emitted when underlying tokens are deposited into the vault.\n    /// @param from The user depositing into the vault.\n    /// @param to The user receiving Vault's shares.\n    /// @param value The shares `to` is receiving.\n    event Deposit(address indexed from, address indexed to, uint256 value);\n\n    /// @notice Emitted after a user enters a batched burn round.\n    /// @param round Batched burn round.\n    /// @param account User's address.\n    /// @param amount Amount of shares to be burned.\n    event EnterBatchBurn(uint256 indexed round, address indexed account, uint256 amount);\n\n    /// @notice Emitted after a user exits a batched burn round.\n    /// @param round Batched burn round.\n    /// @param account User's address.\n    /// @param amount Amount of underlying redeemed.\n    event ExitBatchBurn(uint256 indexed round, address indexed account, uint256 amount);\n\n    /// @notice Emitted after a batched burn event happens.\n    /// @param round Batched burn round.\n    /// @param executor User that executes the batch burn.\n    /// @param shares Total amount of burned shares.\n    /// @param amount Total amount of underlying redeemed.\n    event ExecuteBatchBurn(uint256 indexed round, address indexed executor, uint256 shares, uint256 amount);\n\n    /// @notice Emitted after a successful harvest.\n    /// @param account The harvester address.\n    /// @param strategies The set of strategies.\n    event Harvest(address indexed account, IStrategy[] strategies);\n\n    /// @notice Emitted after the Vault deposits into a strategy contract.\n    /// @param account The address depositing funds into the strategy.\n    /// @param strategy The strategy that was deposited into.\n    /// @param underlyingAmount The amount of underlying tokens that were deposited.\n    event StrategyDeposit(address indexed account, IStrategy indexed strategy, uint256 underlyingAmount);\n\n    /// @notice Emitted after the Vault withdraws funds from a strategy contract.\n    /// @param account The user pulling funds from the strategy\n    /// @param strategy The strategy that was withdrawn from.\n    /// @param underlyingAmount The amount of underlying tokens that were withdrawn.\n    event StrategyWithdrawal(address indexed account, IStrategy indexed strategy, uint256 underlyingAmount);\n\n    /// @notice Event emitted when the deposit limits are updated.\n    /// @param perUser New underlying limit per address.\n    /// @param perVault New underlying limit per vault.\n    event DepositLimitsUpdated(uint256 perUser, uint256 perVault);\n\n    /*///////////////////////////////////////////////////////////////\n                            MODIFIERS\n    //////////////////////////////////////////////////////////////*/\n\n    modifier requiresAuth(address addr) {\n        require(auth.canCall(addr, address(this), msg.sig), \"UNAUTHORIZED\");\n\n        _;\n    }\n\n    /*///////////////////////////////////////////////////////////////\n                    INITIALIZER AND PAUSE TRIGGER\n    //////////////////////////////////////////////////////////////*/\n\n    /// @notice Triggers the Vault's pause\n    /// @dev Only owner can call this method.\n    function triggerPause() external requiresAuth(msg.sender) {\n        paused() ? _unpause() : _pause();\n    }\n\n    /// @notice Internal initializer method.\n    /// @param underlying_ The underlying token the vault accepts.\n    /// @param auth_ The Auth mo    dule that will be used for this Vault.\n    /// @param harvestFeeReceiver_ The harvesting fee receiver address.\n    /// @param burnFeeReceiver_ The batched burns fee receiver address.\n    /// @param name_ The Vault shares' name.\n    /// @param symbol_ The Vault shares' symbol.\n    function __Vault_init(\n        ERC20 underlying_,\n        Authority auth_,\n        address harvestFeeReceiver_,\n        address burnFeeReceiver_,\n        string memory name_,\n        string memory symbol_\n    ) internal initializer {\n        // Initialize ERC20 trait.\n        __ERC20_init(name_, symbol_);\n\n        // Initialize Pausable trait.\n        __Pausable_init();\n\n        // Initialize Pausable trait.\n        _pause();\n\n        // Initialize the storage.\n        underlying = underlying_;\n        baseUnit = 10**underlying_.decimals();\n        underlyingDecimals = underlying_.decimals();\n\n        auth = auth_;\n        burningFeeReceiver = burnFeeReceiver_;\n        harvestFeeReceiver = harvestFeeReceiver_;\n\n        // Sets batchBurnRound to 1.\n        // NOTE: needed to have 0 as an uninitialized withdraw request.\n        batchBurnRound = 1;\n    }\n\n    /// @notice The initialize method\n    /// @param underlying_ The underlying token the vault accepts.\n    /// @param auth_ The Auth module that will be used for this Vault.\n    /// @param harvestFeeReceiver_ The harvesting fee receiver address.\n    /// @param burnFeeReceiver_ The batched burns fee receiver address.\n    function initialize(\n        ERC20 underlying_,\n        Authority auth_,\n        address harvestFeeReceiver_,\n        address burnFeeReceiver_\n    ) external initializer {\n        // Initialize the Vault.\n        __Vault_init(\n            underlying_,\n            auth_,\n            harvestFeeReceiver_,\n            burnFeeReceiver_,\n            string(bytes.concat(N_PREFIX, bytes(underlying_.name()), N_SUFFIX)),\n            string(bytes.concat(S_PREFIX, bytes(underlying_.symbol())))\n        );\n    }\n\n    /*///////////////////////////////////////////////////////////////\n                        DECIMAL OVERRIDING\n    //////////////////////////////////////////////////////////////*/\n\n    /// @notice Overrides `decimals` method.\n    /// @dev Needed because Openzeppelin's logic for decimals.\n    /// @return Vault's shares token decimals (underlying token decimals).\n    function decimals() public view override returns (uint8) {\n        return underlyingDecimals;\n    }\n\n    /*///////////////////////////////////////////////////////////////\n                    UNDERLYING CAP CONFIGURATION\n    //////////////////////////////////////////////////////////////*/\n\n    /// @notice Set new deposit limits for this vault.\n    /// @param user New user deposit limit.\n    /// @param vault New vault deposit limit.\n    function setDepositLimits(uint256 user, uint256 vault) external requiresAuth(msg.sender) {\n        userDepositLimit = user;\n        vaultDepositLimit = vault;\n\n        emit DepositLimitsUpdated(user, vault);\n    }\n\n    /*///////////////////////////////////////////////////////////////\n                        AUTH CONFIGURATION\n    //////////////////////////////////////////////////////////////*/\n\n    /// @notice Set a new Authority module.\n    /// @param newAuth The new Authority module.\n    function setAuth(Authority newAuth) external requiresAuth(msg.sender) {\n        auth = newAuth;\n        emit AuthUpdated(newAuth);\n    }\n\n    /*///////////////////////////////////////////////////////////////\n                     BLOCKS PER YEAR CONFIGURATION\n    //////////////////////////////////////////////////////////////*/\n\n    /// @notice Sets blocks per year.\n    /// @param blocks Blocks in a given year.\n    function setBlocksPerYear(uint256 blocks) external requiresAuth(msg.sender) {\n        blocksPerYear = blocks;\n    }\n\n    /*///////////////////////////////////////////////////////////////\n                           FEE CONFIGURATION\n    //////////////////////////////////////////////////////////////*/\n\n    /// @notice Set a new fee percentage.\n    /// @param newFeePercent The new fee percentage.\n    function setHarvestFeePercent(uint256 newFeePercent) external requiresAuth(msg.sender) {\n        // A fee percentage over 100% doesn't make sense.\n        require(newFeePercent <= 1e18, \"setHarvestFeePercent::FEE_TOO_HIGH\");\n\n        // Update the fee percentage.\n        harvestFeePercent = newFeePercent;\n\n        emit HarvestFeePercentUpdated(newFeePercent);\n    }\n\n    /// @notice Set a new burning fee percentage.\n    /// @param newFeePercent The new fee percentage.\n    function setBurningFeePercent(uint256 newFeePercent) external requiresAuth(msg.sender) {\n        // A fee percentage over 100% doesn't make sense.\n        require(newFeePercent <= 1e18, \"setBatchedBurningFeePercent::FEE_TOO_HIGH\");\n\n        // Update the fee percentage.\n        burningFeePercent = newFeePercent;\n\n        emit BurningFeePercentUpdated(newFeePercent);\n    }\n\n    /// @notice Set a new harvest fees receiver.\n    /// @param harvestFeeReceiver_ The new harvest fees receiver.\n    function setHarvestFeeReceiver(address harvestFeeReceiver_) external requiresAuth(msg.sender) {\n        // Update the fee percentage.\n        harvestFeeReceiver = harvestFeeReceiver_;\n\n        emit HarvestFeeReceiverUpdated(harvestFeeReceiver_);\n    }\n\n    /// @notice Set a new burning fees receiver.\n    /// @param burningFeeReceiver_ The new burning fees receiver.\n    function setBurningFeeReceiver(address burningFeeReceiver_) external requiresAuth(msg.sender) {\n        // Update the fee percentage.\n        burningFeeReceiver = burningFeeReceiver_;\n\n        emit BurningFeeReceiverUpdated(burningFeeReceiver_);\n    }\n\n    /*///////////////////////////////////////////////////////////////\n                        HARVEST CONFIGURATION\n    //////////////////////////////////////////////////////////////*/\n\n    /// @notice Set a new harvest window.\n    /// @param newHarvestWindow The new harvest window.\n    /// @dev The Vault's harvestDelay must already be set before calling.\n    function setHarvestWindow(uint128 newHarvestWindow) external requiresAuth(msg.sender) {\n        // A harvest window longer than the harvest delay doesn't make sense.\n        require(newHarvestWindow <= harvestDelay, \"setHarvestWindow::WINDOW_TOO_LONG\");\n\n        // Update the harvest window.\n        harvestWindow = newHarvestWindow;\n\n        emit HarvestWindowUpdated(newHarvestWindow);\n    }\n\n    /// @notice Set a new harvest delay delay.\n    /// @param newHarvestDelay The new harvest delay to set.\n    /// @dev If the current harvest delay is 0, meaning it has not\n    /// been set before, it will be updated immediately; otherwise\n    /// it will be scheduled to take effect after the next harvest.\n    function setHarvestDelay(uint64 newHarvestDelay) external requiresAuth(msg.sender) {\n        // A harvest delay of 0 makes harvests vulnerable to sandwich attacks.\n        require(newHarvestDelay != 0, \"setHarvestDelay::DELAY_CANNOT_BE_ZERO\");\n\n        // A target harvest delay over 1 year doesn't make sense.\n        require(newHarvestDelay <= 365 days, \"setHarvestDelay::DELAY_TOO_LONG\");\n\n        // If the harvest delay is 0, meaning it has not been set before:\n        if (harvestDelay == 0) {\n            // We'll apply the update immediately.\n            harvestDelay = newHarvestDelay;\n\n            emit HarvestDelayUpdated(msg.sender, newHarvestDelay);\n        } else {\n            // We'll apply the update next harvest.\n            nextHarvestDelay = newHarvestDelay;\n\n            emit HarvestDelayUpdateScheduled(newHarvestDelay);\n        }\n    }\n\n    /*///////////////////////////////////////////////////////////////\n                        WITHDRAWAL QUEUE\n    //////////////////////////////////////////////////////////////*/\n\n    /// @notice Gets the full withdrawal queue.\n    /// @return An ordered array of strategies representing the withdrawal queue.\n    /// @dev This is provided because Solidity converts public arrays into index getters,\n    /// but we need a way to allow external contracts and users to access the whole array.\n    function getWithdrawalQueue() external view returns (IStrategy[] memory) {\n        return withdrawalQueue;\n    }\n\n    /// @notice Set the withdrawal queue.\n    /// @param newQueue The new withdrawal queue.\n    /// @dev There are no sanity checks on the `newQueue` argument so they should be done off-chain.\n    function setWithdrawalQueue(IStrategy[] calldata newQueue) external requiresAuth(msg.sender) {\n        // Check for duplicated in queue\n        require(newQueue.length <= MAX_STRATEGIES, \"setWithdrawalQueue::QUEUE_TOO_BIG\");\n\n        // Replace the withdrawal queue.\n        withdrawalQueue = newQueue;\n\n        emit WithdrawalQueueSet(newQueue);\n    }\n\n    /*///////////////////////////////////////////////////////////////\n                      STRATEGY TRUST/DISTRUST LOGIC\n    //////////////////////////////////////////////////////////////*/\n\n    /// @notice Store a strategy as trusted, enabling it to be harvested.\n    /// @param strategy The strategy to make trusted.\n    function trustStrategy(IStrategy strategy) external requiresAuth(msg.sender) {\n        // Ensure the strategy accepts the correct underlying token.\n        // If the strategy accepts ETH the Vault should accept WETH, it'll handle wrapping when necessary.\n        require(strategy.underlying() == underlying, \"trustStrategy::WRONG_UNDERLYING\");\n\n        // Store the strategy as trusted.\n        getStrategyData[strategy].trusted = true;\n\n        emit StrategyTrusted(strategy);\n    }\n\n    /// @notice Store a strategy as untrusted, disabling it from being harvested.\n    /// @param strategy The strategy to make untrusted.\n    function distrustStrategy(IStrategy strategy) external requiresAuth(msg.sender) {\n        // Store the strategy as untrusted.\n        getStrategyData[strategy].trusted = false;\n\n        emit StrategyDistrusted(strategy);\n    }\n\n    /*///////////////////////////////////////////////////////////////\n                            DEPOSIT/BURN\n    //////////////////////////////////////////////////////////////*/\n\n    /// @notice Deposit a specific amount of underlying tokens.\n    /// @dev User needs to approve `underlyingAmount` of underlying tokens to spend.\n    /// @param to The address to receive shares corresponding to the deposit.\n    /// @param underlyingAmount The amount of the underlying token to deposit.\n    /// @return shares The amount of shares minted using `underlyingAmount`.\n    function deposit(address to, uint256 underlyingAmount) external requiresAuth(to) returns (uint256 shares) {\n        _deposit(to, (shares = calculateShares(underlyingAmount)), underlyingAmount);\n    }\n\n    /// @notice Enter a batched burn event.\n    /// @dev Each user can take part to one batched burn event a time.\n    /// @dev User's shares amount will be staked until the burn happens.\n    /// @param shares Shares to withdraw during the next batched burn event.\n    function enterBatchBurn(uint256 shares) external {\n        uint256 batchBurnRound_ = batchBurnRound;\n        uint256 userRound = userBatchBurnReceipts[msg.sender].round;\n\n        if (userRound == 0) {\n            // user is depositing for the first time in this round\n            // so we set his round to current round\n\n            userBatchBurnReceipts[msg.sender].round = batchBurnRound_;\n            userBatchBurnReceipts[msg.sender].shares = shares;\n        } else {\n            // user is not depositing for the first time or took part in a previous round:\n            //      - first case: we stack the deposits.\n            //      - second case: revert, user needs to withdraw before requesting\n            //                     to take part in another round.\n\n            require(userRound == batchBurnRound_, \"enterBatchBurn::DIFFERENT_ROUNDS\");\n            userBatchBurnReceipts[msg.sender].shares += shares;\n        }\n\n        batchBurns[batchBurnRound_].totalShares += shares;\n\n        require(transfer(address(this), shares));\n\n        emit EnterBatchBurn(batchBurnRound_, msg.sender, shares);\n    }\n\n    /// @notice Withdraw underlying redeemed in batched burning events.\n    function exitBatchBurn() external {\n        uint256 batchBurnRound_ = batchBurnRound;\n        BatchBurnReceipt memory receipt = userBatchBurnReceipts[msg.sender];\n\n        require(receipt.round != 0, \"exitBatchBurn::NO_DEPOSITS\");\n        require(receipt.round < batchBurnRound_, \"exitBatchBurn::ROUND_NOT_EXECUTED\");\n\n        userBatchBurnReceipts[msg.sender].round = 0;\n        userBatchBurnReceipts[msg.sender].shares = 0;\n\n        uint256 underlyingAmount = receipt.shares.fmul(batchBurns[receipt.round].amountPerShare, baseUnit);\n\n        batchBurnBalance -= underlyingAmount;\n        underlying.safeTransfer(msg.sender, underlyingAmount);\n\n        emit ExitBatchBurn(batchBurnRound_, msg.sender, underlyingAmount);\n    }\n\n    /// @notice Execute batched burns\n    function execBatchBurn() external requiresAuth(msg.sender) {\n        // let's wait for lockedProfit to go to 0\n        require(block.timestamp >= (lastHarvest + harvestDelay), \"batchBurn::LATEST_HARVEST_NOT_EXPIRED\");\n\n        uint256 batchBurnRound_ = batchBurnRound++;\n\n        BatchBurn memory batchBurn = batchBurns[batchBurnRound_];\n        uint256 totalShares = batchBurn.totalShares;\n\n        // burning 0 shares is not convenient\n        require(totalShares != 0, \"batchBurn::TOTAL_SHARES_CANNOT_BE_ZERO\");\n\n        uint256 underlyingAmount = totalShares.fmul(exchangeRate(), baseUnit);\n        require(underlyingAmount <= totalFloat(), \"batchBurn::NOT_ENOUGH_UNDERLYING\");\n\n        _burn(address(this), totalShares);\n\n        // Compute fees and transfer underlying amount if any\n        if (burningFeePercent != 0) {\n            uint256 accruedFees = underlyingAmount.fmul(burningFeePercent, 10**18);\n            underlyingAmount -= accruedFees;\n\n            underlying.safeTransfer(burningFeeReceiver, accruedFees);\n        }\n\n        batchBurns[batchBurnRound_].amountPerShare = underlyingAmount.fdiv(totalShares, baseUnit);\n        batchBurnBalance += underlyingAmount;\n\n        emit ExecuteBatchBurn(batchBurnRound_, msg.sender, totalShares, underlyingAmount);\n    }\n\n    /// @dev Internal function to deposit into the Vault.\n    /// @param to The address to receive shares corresponding to the deposit.\n    /// @param shares The amount of Vault's shares to mint.\n    /// @param underlyingAmount The amount of the underlying token to deposit.\n    function _deposit(\n        address to,\n        uint256 shares,\n        uint256 underlyingAmount\n    ) internal virtual whenNotPaused {\n        uint256 userUnderlying = calculateUnderlying(balanceOf(to)) + underlyingAmount;\n        uint256 vaultUnderlying = totalUnderlying() + underlyingAmount;\n\n        require(userUnderlying <= userDepositLimit, \"_deposit::USER_DEPOSIT_LIMITS_REACHED\");\n        require(vaultUnderlying <= vaultDepositLimit, \"_deposit::VAULT_DEPOSIT_LIMITS_REACHED\");\n\n        // Determine te equivalent amount of shares and mint them\n        _mint(to, shares);\n\n        emit Deposit(msg.sender, to, underlyingAmount);\n\n        // Transfer in underlying tokens from the user.\n        // This will revert if the user does not have the amount specified.\n        underlying.safeTransferFrom(msg.sender, address(this), underlyingAmount);\n    }\n\n    /// @notice Calculates the amount of Vault's shares for a given amount of underlying tokens.\n    /// @param underlyingAmount The underlying token's amount.\n    /// @return The amount of shares given `underlyingAmount`.\n    function calculateShares(uint256 underlyingAmount) public view returns (uint256) {\n        return underlyingAmount.fdiv(exchangeRate(), baseUnit);\n    }\n\n    /// @notice Calculates the amount of underlying tokens corresponding to a given amount of Vault's shares.\n    /// @param sharesAmount The shares amount.\n    /// @return The amount of underlying given `sharesAmount`.\n    function calculateUnderlying(uint256 sharesAmount) public view returns (uint256) {\n        return sharesAmount.fmul(exchangeRate(), baseUnit);\n    }\n\n    /*///////////////////////////////////////////////////////////////\n                             HARVEST LOGIC\n    //////////////////////////////////////////////////////////////*/\n\n    /// @notice Harvest a set of trusted strategies.\n    /// @param strategies The trusted strategies to harvest.\n    /// @dev Will always revert if called outside of an active\n    /// harvest window or before the harvest delay has passed.\n    function harvest(IStrategy[] calldata strategies) external requiresAuth(msg.sender) {\n        // If this is the first harvest after the last window:\n        if (block.timestamp >= lastHarvest + harvestDelay) {\n            // Accounts for:\n            //    - harvest interval (from latest harvest)\n            //    - harvest exchange rate\n            //    - harvest window starting block\n            lastHarvestExchangeRate = exchangeRate();\n            lastHarvestIntervalInBlocks = block.number - lastHarvestWindowStartBlock;\n            lastHarvestWindowStartBlock = block.number;\n\n            // Set the harvest window's start timestamp.\n            lastHarvestWindowStart = uint64(block.timestamp);\n        } else {\n            // We know this harvest is not the first in the window so we need to ensure it's within it.\n            require(block.timestamp <= lastHarvestWindowStart + harvestWindow, \"harvest::BAD_HARVEST_TIME\");\n        }\n\n        // Get the Vault's current total strategy holdings.\n        uint256 oldTotalStrategyHoldings = totalStrategyHoldings;\n\n        // Used to store the total profit accrued by the strategies.\n        uint256 totalProfitAccrued;\n\n        // Used to store the new total strategy holdings after harvesting.\n        uint256 newTotalStrategyHoldings = oldTotalStrategyHoldings;\n\n        // Will revert if any of the specified strategies are untrusted.\n        for (uint256 i = 0; i < strategies.length; i++) {\n            // Get the strategy at the current index.\n            IStrategy strategy = strategies[i];\n\n            // If an untrusted strategy could be harvested a malicious user could use\n            // a fake strategy that over-reports holdings to manipulate the exchange rate.\n            require(getStrategyData[strategy].trusted, \"harvest::UNTRUSTED_STRATEGY\");\n\n            // Get the strategy's previous and current balance.\n            uint256 balanceLastHarvest = getStrategyData[strategy].balance;\n            uint256 balanceThisHarvest = strategy.estimatedUnderlying();\n\n            // Update the strategy's stored balance.\n            getStrategyData[strategy].balance = balanceThisHarvest.safeCastTo248();\n\n            // Increase/decrease newTotalStrategyHoldings based on the profit/loss registered.\n            // We cannot wrap the subtraction in parenthesis as it would underflow if the strategy had a loss.\n            newTotalStrategyHoldings = newTotalStrategyHoldings + balanceThisHarvest - balanceLastHarvest;\n\n            // Update the total profit accrued while counting losses as zero profit.\n            totalProfitAccrued += balanceThisHarvest > balanceLastHarvest\n                ? balanceThisHarvest - balanceLastHarvest // Profits since last harvest.\n                : 0; // If the strategy registered a net loss we don't have any new profit.\n        }\n\n        // Compute fees as the fee percent multiplied by the profit.\n        uint256 feesAccrued = totalProfitAccrued.fmul(harvestFeePercent, 1e18);\n\n        // If we accrued any fees, mint an equivalent amount of Vault's shares.\n        if (feesAccrued != 0 && harvestFeeReceiver != address(0)) {\n            _mint(harvestFeeReceiver, feesAccrued.fdiv(exchangeRate(), baseUnit));\n        }\n\n        // Update max unlocked profit based on any remaining locked profit plus new profit.\n        uint128 maxLockedProfit_ = (lockedProfit() + totalProfitAccrued - feesAccrued).safeCastTo128();\n        maxLockedProfit = maxLockedProfit_;\n\n        // Compute estimated returns\n        uint256 strategyHoldings = newTotalStrategyHoldings - uint256(maxLockedProfit_);\n        estimatedReturn = computeEstimatedReturns(strategyHoldings, uint256(maxLockedProfit_), lastHarvestIntervalInBlocks);\n\n        // Set strategy holdings to our new total.\n        totalStrategyHoldings = newTotalStrategyHoldings;\n\n        // Update the last harvest timestamp.\n        lastHarvest = uint64(block.timestamp);\n\n        emit Harvest(msg.sender, strategies);\n\n        // Get the next harvest delay.\n        uint64 newHarvestDelay = nextHarvestDelay;\n\n        // If the next harvest delay is not 0:\n        if (newHarvestDelay != 0) {\n            // Update the harvest delay.\n            harvestDelay = newHarvestDelay;\n\n            // Reset the next harvest delay.\n            nextHarvestDelay = 0;\n\n            emit HarvestDelayUpdated(msg.sender, newHarvestDelay);\n        }\n    }\n\n    /*///////////////////////////////////////////////////////////////\n                    STRATEGY DEPOSIT/WITHDRAWAL LOGIC\n    //////////////////////////////////////////////////////////////*/\n\n    /// @notice Deposit a specific amount of float into a trusted strategy.\n    /// @param strategy The trusted strategy to deposit into.\n    /// @param underlyingAmount The amount of underlying tokens in float to deposit.\n    function depositIntoStrategy(IStrategy strategy, uint256 underlyingAmount) external requiresAuth(msg.sender) {\n        // A strategy must be trusted before it can be deposited into.\n        require(getStrategyData[strategy].trusted, \"depositIntoStrategy::UNTRUSTED_STRATEGY\");\n\n        // We don't allow depositing 0 to prevent emitting a useless event.\n        require(underlyingAmount != 0, \"depositIntoStrategy::AMOUNT_CANNOT_BE_ZERO\");\n\n        // Increase totalStrategyHoldings to account for the deposit.\n        totalStrategyHoldings += underlyingAmount;\n\n        // Without this the next harvest would count the deposit as profit.\n        getStrategyData[strategy].balance += underlyingAmount.safeCastTo248();\n\n        emit StrategyDeposit(msg.sender, strategy, underlyingAmount);\n\n        // Approve underlyingAmount to the strategy so we can deposit.\n        underlying.safeApprove(address(strategy), underlyingAmount);\n\n        // Deposit into the strategy and revert if it returns an error code.\n        require(strategy.deposit(underlyingAmount) == 0, \"depositIntoStrategy::MINT_FAILED\");\n    }\n\n    /// @notice Withdraw a specific amount of underlying tokens from a strategy.\n    /// @param strategy The strategy to withdraw from.\n    /// @param underlyingAmount  The amount of underlying tokens to withdraw.\n    /// @dev Withdrawing from a strategy will not remove it from the withdrawal queue.\n    function withdrawFromStrategy(IStrategy strategy, uint256 underlyingAmount) external requiresAuth(msg.sender) {\n        // A strategy must be trusted before it can be withdrawn from.\n        require(getStrategyData[strategy].trusted, \"withdrawFromStrategy::UNTRUSTED_STRATEGY\");\n\n        // We don't allow withdrawing 0 to prevent emitting a useless event.\n        require(underlyingAmount != 0, \"withdrawFromStrategy::AMOUNT_CANNOT_BE_ZERO\");\n\n        // Without this the next harvest would count the withdrawal as a loss.\n        getStrategyData[strategy].balance -= underlyingAmount.safeCastTo248();\n\n        // Decrease totalStrategyHoldings to account for the withdrawal.\n        totalStrategyHoldings -= underlyingAmount;\n\n        emit StrategyWithdrawal(msg.sender, strategy, underlyingAmount);\n\n        // Withdraw from the strategy and revert if returns an error code.\n        require(strategy.withdraw(underlyingAmount) == 0, \"withdrawFromStrategy::REDEEM_FAILED\");\n    }\n\n    /*///////////////////////////////////////////////////////////////\n                                ACCOUNTING\n    //////////////////////////////////////////////////////////////*/\n\n    /// @notice Returns the amount of underlying tokens a share can be redeemed for.\n    /// @return The amount of underlying tokens a share can be redeemed for.\n    function exchangeRate() public view returns (uint256) {\n        // Get the total supply of shares.\n        uint256 shareSupply = totalSupply();\n\n        // If there are no shares in circulation, return an exchange rate of 1:1.\n        if (shareSupply == 0) return baseUnit;\n\n        return totalUnderlying().fdiv(shareSupply, baseUnit);\n    }\n\n    /// @notice Returns a user's Vault balance in underlying tokens.\n    /// @param user THe user to get the underlying balance of.\n    /// @return The user's Vault balance in underlying tokens.\n    function balanceOfUnderlying(address user) external view returns (uint256) {\n        return calculateUnderlying(balanceOf(user));\n    }\n\n    /// @notice Returns the amount of underlying tokens that idly sit in the Vault.\n    /// @return The amount of underlying tokens that sit idly in the Vault.\n    function totalFloat() public view returns (uint256) {\n        return underlying.balanceOf(address(this)) - batchBurnBalance;\n    }\n\n    /// @notice Calculate the current amount of locked profit.\n    /// @return The current amount of locked profit.\n    function lockedProfit() public view returns (uint256) {\n        // Get the last harvest and harvest delay.\n        uint256 previousHarvest = lastHarvest;\n        uint256 harvestInterval = harvestDelay;\n\n        // If the harvest delay has passed, there is no locked profit.\n        if (block.timestamp >= previousHarvest + harvestInterval) return 0;\n\n        // Get the maximum amount we could return.\n        uint256 maximumLockedProfit = maxLockedProfit;\n\n        // Compute how much profit remains locked based on the last harvest and harvest delay.\n        return maximumLockedProfit - (maximumLockedProfit * (block.timestamp - previousHarvest)) / harvestInterval;\n    }\n\n    /// @notice Calculates the total amount of underlying tokens the Vault holds.\n    /// @return totalUnderlyingHeld The total amount of underlying tokens the Vault holds.\n    function totalUnderlying() public view virtual returns (uint256) {\n        return totalStrategyHoldings - lockedProfit() + totalFloat();\n    }\n\n    /// @notice Compute an estimated return given the auxoToken supply, initial exchange rate and locked profits.\n    /// @param invested The underlying deposited in strategies.\n    /// @param profit The profit derived from harvest.\n    /// @param interval The period during which `profit` was generated.\n    function computeEstimatedReturns(\n        uint256 invested,\n        uint256 profit,\n        uint256 interval\n    ) internal view returns (uint256) {\n        return (invested == 0 || profit == 0) ? 0 : profit.fdiv(invested, baseUnit) * (blocksPerYear / interval) * 100;\n    }\n}\n",
  "sourcePath": "contracts/Vault.sol",
  "type": "contract"
}